:10000000ABC60000D3C60000D1C60000CFC60000BA
:10001000CDC60000CBC60000C9C60000C7C60000A0
:10002000C5C60000C3C600000C947F3D0C94133E6F
:10003000BDC60000BBC60000B9C60000B7C60000C0
:10004000B5C60000B3C60000B1C60000AFC60000D0
:10005000ADC60000ABC60000A9C600000C947D3CF4
:10006000A5C600000C94F0360C941B370C944C374A
:100070009DC600009BC6000099C6000097C6000000
:1000800095C6000093C6000091C600008FC6000010
:100090008DC600008BC60000BE0FBF0FC10FC30F7F
:1000A000C40FC80FCA0FCA0FC90FFF0F05100710E2
:1000B00009100A100D100E1010100F10103A3C3AD3
:1000C0005E3A5E3A5E3A5E3A5E3A5E3A5E3A5E3A70
:1000D0005E3A5E3A5E3A5E3A543A4C3A443A5E3A96
:1000E0005E3A5E3A5E3A5E3A5E3A5E3A363A1C3ABA
:1000F000243A2E3A505554204D4143524F0020206F
:100100002057204120492054002050204C204520D9
:100110004120532045002043204F204E20462049B7
:1001200020470020522045204D204F2054204500DC
:10013000532044202020432041205220440A2020E4
:100140004520522052204F20520059455320202054
:10015000204E4F004C65667420427574746F6E209B
:1001600020526967687420427574746F6E00436F23
:100170006E74696E7565203F004C6F736572005731
:10018000696E6E6572004C696E757800454E002090
:10019000204D4143524F2E4B455900206F70656EE4
:1001A000206661696C6564006272696768746E6577
:1001B0007373004C4544206261636B6C69676874BB
:1001C00020696E74656E73697479004558495400EE
:1001D0004C4544204272696768746E6573732020D1
:1001E00020202020205B2532645D004D6F64653A3D
:1001F00020202020202020202020202052657665ED
:1002000072736564004D6F64653A20202020204F92
:100210004E202B204C696768742044696666004D47
:100220006F64653A202020202020202020202041BB
:100230006C77617973204F4E004D6F64653A2020D2
:10024000202020202020202020205374616E646113
:100250007264004D6F64653A202020202020202009
:100260002020416C77617973204F4646004241431C
:100270004B4C49474854004D4143524F204D4F4449
:1002800045000045584954004D4143524F204D4FC1
:10029000444500434150530043415053004E554D97
:1002A000004E554D006C61796F757400746F206D50
:1002B000656E750050555348002500415544494F1F
:1002C00020564F4C554D45004558495400506C61DF
:1002D0007920506F6E67004D6F757365205265739E
:1002E0006574004B6579626F617264205365747444
:1002F000696E6773004C6564204261636B6C69676B
:10030000687400417564696F20566F6C756D650087
:100310004D41494E204D454E5500782031307300F7
:10032000496E6163746976697479202873637265B4
:10033000656E207361766572290073746570730051
:100340004C494E455320544F205343524F4C4C0080
:1003500045584954005265626F6F74004669726D6A
:1003600077617265205570677261646500536372CE
:1003700065656E2073617665722020202028253304
:10038000647831307329005363726F6C6C20536949
:100390007A65202020202020202020202533644C36
:1003A000005345545550007C3C3E5E2B3D3F2F5B37
:1003B0005D3B2C2A225C0000000000003E5B4F5B8E
:1003C0003E3E6B4F6B3E1C3E7C3E1C183C7E3C18F8
:1003D0001C577D571C1C5E7F5E1C00183C1800FFDC
:1003E000E7C3E7FF0018241800FFE7DBE7FF30480A
:1003F0003A060E2629792926407F050507407F0504
:10040000253F5A3CE73C5A7F3E1C1C08081C1C3EFA
:100410007F14227F22145F5F005F5F06097F017FE8
:10042000006689956A606060606094A2FFA294088B
:10043000047E040810207E201008082A1C08081CCE
:100440002A08081E101010100C1E0C1E0C30383E0E
:100450003830060E3E0E06000000000000005F006F
:10046000000007000700147F147F14242A7F2A123B
:100470002313086462364956205000080703000021
:100480001C2241000041221C002A1C7F1C2A080853
:100490003E08080080703000080808080800006066
:1004A000600020100804023E5149453E00427F4052
:1004B0000072494949462141494D331814127F10B1
:1004C00027454545393C4A494931412111090736FB
:1004D00049494936464949291E0000140000004098
:1004E0003400000008142241141414141400412292
:1004F000140802015909063E415D594E7C12111241
:100500007C7F494949363E414141227F4141413E3C
:100510007F494949417F090909013E414151737FA2
:100520000808087F00417F41002040413F017F08CB
:100530001422417F404040407F021C027F7F04081C
:10054000107F3E4141413E7F090909063E4151214C
:100550005E7F09192946264949493203017F010373
:100560003F4040403F1F2040201F3F4038403F63F6
:100570001408146303047804036159494D43007F50
:100580004141410204081020004141417F04020121
:1005900002044040404040000307080020545478C3
:1005A000407F284444383844444428384444287F11
:1005B000385454541800087E090218A4A49C787F6B
:1005C0000804047800447D40002040403D007F1036
:1005D00028440000417F40007C047804787C0804B3
:1005E00004783844444438FC182424181824241867
:1005F000FC7C08040408485454542404043F442454
:100600003C4040207C1C2040201C3C4030403C446E
:10061000281028444C9090907C4464544C4400082A
:100620003641000000770000004136080002010258
:1006300004023C2623263C1EA1A161123A40402020
:100640007A3854545559215555794121545478419B
:10065000215554784020545579400C1E527212395D
:100660005555555939545454593955545458000016
:10067000457C410002457D420001457C40F0292433
:1006800029F0F0282528F07C545545002054547C4E
:10069000547C0A097F493249494932324848483234
:1006A000324A4848303A4141217A3A424020780063
:1006B0009DA0A07D39444444393D4040403D3C2408
:1006C000FF2424487E4943662B2FFC2F2BFF09294A
:1006D000F620C0887E090320545479410000447DEF
:1006E000413048484A32384040227A007A0A0A7239
:1006F0007D0D19317D2629292F28262929292630E3
:10070000484D4020380808080808080808382F1005
:10071000C8ACBA2F102834FA00007B000008142A55
:10072000142222142A1408AA005500AAAA55AA5570
:10073000AA000000FF00101010FF00141414FF00A6
:100740001010FF00FF1010F010F0141414FC00142F
:1007500014F700FF0000FF00FF1414F404FC14144D
:1007600017101F10101F101F1414141F001010104A
:10077000F0000000001F101010101F10101010F0DB
:1007800010000000FF101010101010101010FF10BB
:10079000000000FF140000FF00FF00001F10170002
:1007A00000FC04F414141710171414F404F40000DB
:1007B000FF00F714141414141414F700F71414148D
:1007C000171410101F101F141414F4141010F0102C
:1007D000F000001F101F0000001F14000000FC1498
:1007E0000000F010F01010FF10FF141414FF14108C
:1007F00010101F00000000F010FFFFFFFFFFF0F0DF
:10080000F0F0F0FFFFFF0000000000FFFF0F0F0FF0
:100810000F0F38444438447C2A2A3E147E020206D4
:1008200006027E027E0263554941633844443C041B
:10083000407E201E2006027E020299A5E7A5991C93
:100840002A492A1C4C7201724C304A4D4D303048B6
:10085000784830BC625A463D3E494949007E010114
:10086000017E2A2A2A2A2A44445F444440514A44A9
:100870004040444A51400000FF0103E080FF000077
:1008800008086B6B083612362436060F090F06006F
:100890000018180000001010003040FF0101001F78
:1008A00001011E00191D1712003C3C3C3C000000D9
:1008B000000013018032118064260104B1020B1480
:1008C000C0020800C10105C5024130C701C1EC01E9
:1008D0001B3A8155642A040000007F2B04000000AD
:1008E0009F3601C8B70100F20100E08F28242231B1
:1008F0002B0E53A5421618121A140332E18F171B40
:100900001D0E14112CA53D09272D252B3C321380DB
:100910000A2980FF012902290429082910292029F0
:1009200040298029012C022C0126022604260826B3
:100930001026202640268026402C802C01230223CE
:100940000423082310232023402380230120022096
:10095000042008201020202040208020102C202C53
:10096000012F022F042F082F102F202F402F802F10
:100970007EFE7EFD7EFB7EF77EEF7EDF7EBF7E7F8E
:1009800000010000AE0B12000200000C0A8D0022D4
:1009900000006F0B3F002100001E0A090022010029
:1009A0000F0B3800210100370A0900220200990AC2
:1009B0002100210200500A0900220300BA0A550052
:1009C000210300700A0900220400470B28002104BB
:1009D00000890A0900030000080A0401030904E26F
:1009E00009242403420065006E0020004B006500CE
:1009F000790043006F006E00740072006F006C009D
:100A00006C006500720000000403090409028D00F7
:100A1000050100C0320904000001030101000921A1
:100A200011010001223F00070583030800010904AA
:100A30000100010301020009211101000122380017
:100A400007058403080001090402000203000000F6
:100A50000921110100012221000705810340000145
:100A6000070502032000020904030001030000003F
:100A7000092111010001225500070585030C000220
:100A800009040400010300000009211101000122F2
:100A900028000705860308000406C9FF0904A15CB5
:100AA0007508150026FF00954009758102952009FB
:100AB00076910295040976B102C005010904A101ED
:100AC00015002501750195200509190129208102CC
:100AD000150025073500463B017504950165140591
:100AE000010939814205010901A100150026FF0312
:100AF000750A950409300931093209358102C0159A
:100B00000026FF03750A9502093609368102C005E1
:100B1000010902A1010509190129081500250195FE
:100B2000087501810205010930093109381581254F
:100B30007F750895038106050C0A38021581257F0B
:100B4000750895018106C0050C0901A101750A957A
:100B50000419002A9C021500269C028100050175DB
:100B6000089503190029B7150026B7008100C005B4
:100B7000010906A10175019508050719E029E71586
:100B80000025018102950175088103950575010510
:100B900008190129059102950175039103950675C0
:100BA000081500257F05071900297F8100C0120163
:100BB000000200000040DE08BEBA7202000100011F
:100BC000C136C026C106C106C116C1062C009E0052
:100BD000C600E100A100AD00F100D600F4008600DF
:100BE0000000AF00B100000095000000F30000001D
:100BF0009F00A000B4009000B30000000000DE00E1
:100C00000000B000A300A400A500B8004403C40085
:100C100044014404D400DA00DD00F6004803C800B3
:100C2000480148054C03CC004C014C05C700D100DD
:100C30005203D20052015204D300AE00CF00580339
:100C4000D8005801DC005C02D70096000403840041
:100C50000401040404059A009D00B600080308027C
:100C6000080108050C038C000C010C05870091009D
:100C700012039200120112049300EE008F00180379
:100C8000980018019C001C0297001C052C005E00B7
:100C90002C0560006100620064002C0266006700A1
:100CA00065006E0036002D003700380027001E005A
:100CB0001F00200021002200230024002500260020
:100CC0007300330076002E00770078005F00440048
:100CD000450046004700480049004A004B004C00D0
:100CE0004D004E004F005000510052005300540080
:100CF000550056005700580059005A005B005C0030
:100D00005D002F00310030002C016D002C03040029
:100D1000050006000700080009000A000B000C008F
:100D20000D000E000F00100011001200130014003F
:100D3000150016001700180019001A001B001C00EF
:100D40001D006F00710070002C042A00B411291ED0
:100D5000F7206A375E44CE1111241FBECFEFD0E2D8
:100D6000DEBFCDBF11E0A0E0B1E0EEE3F4E900E0CA
:100D70000BBF02C007900D92A83EB107D9F726E03D
:100D8000A8EEB1E001C01D92A639B207E1F716E066
:100D9000CBEAD6E004C02197FE010E94EE44C63A99
:100DA000D107C9F70E947C380C94134A29C91F93B4
:100DB000CF93DF93162FC82FD0E0CE010E94FD49BC
:100DC0008F3F29F4612FCE010E94054A812FDF91C8
:100DD000CF911F91089590E00C94054A84E1E4E0DE
:100DE000F2E0DF011D928A95E9F71092E80108957B
:100DF00080E091E0E8E1F2E0DF019C011D922150EA
:100E00003040E1F71092EA011092E9010895109242
:100E1000EB01EECF809104028C3639F08F3649F425
:100E200085E092E00E94D21104C085E092E00E9429
:100E3000B510D4CF8DEF95E00E9453369C019927D1
:100E40008A30910519F00D9781F001C0E3CF9091A0
:100E5000E801943148F4E92FF0E0EC5FFD4F208386
:100E60009F5F9093E8010895B9CF0895CF93DF93E2
:100E7000CDB7DEB767970FB6F894DEBF0FBECDBF14
:100E80008091EB01882321F0813009F457C07EC0A6
:100E900064EF70E088E192E00E947246892B09F0CD
:100EA00075C00E941110863019F086E00E94F40F80
:100EB0009FDF81E08093EB016BE071E082EB93E0D8
:100EC0000E94151E882331F06BE071E082EB93E005
:100ED0000E941F1E88E693E00E94601B23E14BE006
:100EE00051E062EB73E0CE0101960E94AA1D8B8156
:100EF00080936A038C819D81AE81BF8180936B0357
:100F000090936C03A0936D03B0936E0388858093D8
:100F10006F03DE011996E0E7F3E08D91819383E0A2
:100F2000ED37F807D1F78E899F8990937E038093E0
:100F30007D03CE0101960E94051B28C09091E90116
:100F4000911110C09091EA01911103C08093EA01C0
:100F50001DC088E693E00E94601B80E00E94F40FB1
:100F600056DF14C0E8E1F2E001900020E9F7319784
:100F7000AF014851524068E172E088E693E00E9478
:100F8000511A88E693E00E94F63732DF67960FB673
:100F9000F894DEBF0FBECDBFDF91CF91089586E8F4
:100FA00096E00E943D449C0133272A30310571F0C0
:100FB0002D30310561F09091E901E92FF0E0E85E14
:100FC000FD4F80839F5F9093E90101C04FCF08954B
:100FD000FB0101900020E9F73197AF01461B570B49
:100FE000DC01ED91FC910280F381E02D0994462F04
:100FF00050E060E070E020E00C94103820E040E029
:1010000060E08FE793E00C948831CF93DF93EC019D
:1010100020E040E060E08FE793E00E94883162E0EA
:101020008FE793E00E9477312FEF40E060E08FE799
:1010300093E00E94963144E150E060E070E08FE779
:1010400093E00E94713160E371E08FE793E00E94CA
:10105000A33740E550E060E070E08FE793E00E9446
:101060007131BE018FE793E00E94A33768E873E116
:1010700080E090E0DF91CF910C94BD3C20E040E017
:1010800060E08FE793E00E94883162E08FE793E0B1
:101090000E9477312FEF4FEF6FEF8FE793E00E94C1
:1010A000963144E150E060E070E08FE793E00E9409
:1010B000713163E271E08FE793E00E94A3374DE264
:1010C00050E060E070E08FE793E00E94713166E1EC
:1010D00071E08FE793E00E94A33746E450E060E0C0
:1010E00070E08FE793E00E94713169E071E08FE773
:1010F00093E00E94A3374FE550E060E070E08FE797
:1011000093E00E9471316EEF70E08FE793E00C94F2
:10111000A337FC011082848185830184F285E02D50
:101120000994FC018281818381110FC060818FEF5E
:10113000860F82832085621728F4822F0E949944AB
:10114000291B01C02150278307C0815082838781DA
:10115000882311F081508783CF01DBCFFC0182818E
:101160008183482F50E0208130E02150310942171F
:1011700053071CF01282178212C08F5F82839781FF
:101180008085492F50E0282F30E021503109421747
:1011900053071CF49F5F978302C081508783CF0160
:1011A000B8CF21E0FC0120837287618708954F92B8
:1011B0005F926F927F928F92AF92BF92CF92DF92A7
:1011C000EF92FF920F931F93CF93DF93CDB7DEB7CC
:1011D0003C012B01D42EB22E2A898B899C89F301E4
:1011E000A38284822683E782C08602832FEF218335
:1011F0009287818720E040E060E08FE793E00E94E3
:101200008831082D10E082E2E82E85EFF82E20EAE2
:1012100030E040E050E060E070E08FE793E00E9453
:10122000213420E040E060E08FE793E00E949631B7
:1012300062E08FE793E00E9477314B2D50E06D2DF7
:1012400070E08FE793E00E947131B2018FE793E085
:101250000E94A3372FEF4FEF6FEF8FE793E00E94CD
:10126000963161E08FE793E00E947731E12CF12C19
:1012700002E610E020EA30E04EE150E060E070E08D
:101280008FE793E00E942134C301DF91CF911F913A
:101290000F91FF90EF90DF90CF90BF90AF908F9025
:1012A0007F906F905F904F9034CFCF92DF92EF920C
:1012B000FF920F931F93CF93DF93EC016B01588143
:1012C000A52FB0E0FA812F2F30E0EF816E2F70E074
:1012D000C901861B970BA817B9070CF464C0888551
:1012E00090E08C01061B170B200F311FA217B307CC
:1012F0000CF059C04D815F132DC00E8110E050E0FD
:101300004450510984E0E82E8AEFF82E20EA30E0BC
:1013100060E070E08FE793E00E94213420E040E03D
:1013200060E08FE793E00E9496314D8150E06B8141
:1013300070E08FE793E00E947131B6018FE793E090
:101340000E94A3372FEF4FEF6FEF8FE793E00E94DC
:10135000963125C02981521731F0EE2321F00197F3
:101360006817790779F40E8110E050E04450510974
:10137000E12CF12C20EA30E060E070E08FE793E0B0
:101380000E9421344D8150E06B8170E08FE793E043
:101390000E947131B6018FE793E00E94A3379D81CF
:1013A0008E81890F8D8388818F5F8883DF91CF91B4
:1013B0001F910F91FF90EF90DF90CF900895CF9203
:1013C000DF92EF92FF920F931F93CF93DF93EC0185
:1013D0006B015881A52FB0E0FA812F2F30E0EF810B
:1013E0006E2F70E0C901861B970BA817B9070CF484
:1013F00062C0888590E08C01061B170B200F311FFF
:10140000A217B3070CF057C04D815F132CC00E819B
:1014100010E050E04450510984E0E82E8AEFF82EA5
:1014200020EA30E060E070E08FE793E00E94213432
:1014300020E040E060E08FE793E00E9496314D812C
:1014400050E06B8170E08FE793E00E947131B6014C
:101450008FE793E0BDDD2FEF4FEF6FEF8FE793E066
:101460000E94963124C02981521731F0EE2321F0D9
:1014700001976817790779F40E8110E050E0445025
:101480005109E12CF12C20EA30E060E070E08FE7B8
:1014900093E00E9421344D8150E06B8170E08FE732
:1014A00093E00E947131B6018FE793E091DD9D8159
:1014B0008E81890F8D8388818F5F8883DF91CF91A3
:1014C0001F910F91FF90EF90DF90CF900895CF92F2
:1014D000DF92EF92FF920F931F93CF93DF93D62F5C
:1014E000D42EC22ECE2D42E8E49E90011124FC01A0
:1014F000678170E0C9010E94B9449B01780104E151
:1015000010E04FE550E06FE070E08FE793E00E945D
:1015100021342C2D4D2D6D2F8FE793E00E949631B5
:101520008FE793E00E947D319C018C2F40E05AE0D0
:10153000882329F0652F0E9499444F5FF9CFB901A4
:10154000F4E14F9F60197109112477FF02C06F5FAA
:101550007F4F7595679543E250E08FE793E00E94D7
:1015600071316C2F8FE793E0DF91CF911F910F9135
:10157000FF90EF90DF90CF903ACDEF920F931F93B3
:10158000CF93DF93EC01EB8000E010E020E040E03F
:1015900060E09DDFEC81FD81E0800FEF17E02FEF31
:1015A0004FEF6FEFCE0193DFEC81FD8180818B8364
:1015B000DF91CF911F910F91EF900895CF93DF931B
:1015C000EC016230C9F0633069F16130A9F5EC815A
:1015D000FD81808190E048852E8130E0841B910957
:1015E000821793070CF4C90180838881882321F135
:1015F000E985FA8581E014C0EC81FD814081888510
:1016000090E02F8130E0840F911D281739070CF4EA
:10161000C90180838881882379F0E985FA8580E093
:1016200009950AC0EC81FD8160818981D4DB188233
:101630008A81DF91CF91D8C4CE01DF91CF919DCF28
:10164000AF92BF92CF92DF92EF92FF920F931F93D0
:10165000CF93DF93EC012E830F83E88649837D834C
:101660006C83FB0180818B83DCD48A8320E040E0A3
:1016700060E08FE793E00E94883192E2E92E95EFD7
:10168000F92E09E110E020EA30E040E050E060E0AF
:1016900070E08FE793E00E94213420E040E060E0BA
:1016A0008FE793E00E9496318FE793E00E947D31AF
:1016B0008C01C5010E947B4626E0F22E9C01F29E21
:1016C000C001F39E900D1124B801681B790B76952B
:1016D00067954AE050E08FE793E00E947131B501D1
:1016E0008FE793E00E94A3372FEF4FEF6FEF8FE765
:1016F00093E00E9496318FE793E00E947D318C0148
:10170000C6010E947B46FC01FE9EC001FF9E900D1B
:101710001124B801681B790B7695679546E450E073
:101720008FE793E00E947131B6018FE793E00E944A
:10173000A3372FEF4FEF60E08FE793E00E949631E1
:1017400062E08FE793E00E94773149E450E062E085
:1017500070E08FE793E00E9471316E818FE793E034
:1017600046DC8FE793E00E947D319C018F8140E051
:101770005AE0882329F0652F0E9499444F5FF9CFE2
:10178000B901FCE04F9F6019710911246250710981
:1017900049E450E08FE793E00E9471316F818FE759
:1017A00093E025DCEE24EA9487E0F82E0EE110E0C9
:1017B0002CE830E04AE550E06AE070E08FE793E023
:1017C0000E94E72D64E08FE793E00E94773184E088
:1017D000DF91CF911F910F91FF90EF90DF90CF900D
:1017E000BF90AF9001C4FC01208131812B303105C5
:1017F0001CF02A50310902C020E030E0FC013183A6
:1018000020830895FC01208131812D3531051CF4A0
:10181000265F3F4F02C027E630E0FC013183208382
:10182000089580E590E0909301028093000280E4A7
:1018300090E09093FF018093FE0184E690E0909306
:101840000302809302020895209100023091010268
:10185000F9013496E817F9072CF1059682179307DA
:101860000CF18091FE019091FF019C012C5F3F4F94
:1018700026173707BCF0675E7F4F6817790794F02B
:101880008091F8019091F9018417950759F480919E
:101890000202909103020597909303028093020243
:1018A00081E0089580E008951092EF011092EE011A
:1018B0001092F3011092F20183E390E09093F10112
:1018C0008093F0019093F5018093F4010895EF92D5
:1018D000FF920F931F938091ED01853028F4909132
:1018E000EC01953008F4FBC02091F8013091F9012A
:1018F000232B09F4F4C08530A8F080EE97E0909394
:10190000F9018093F8018FE190E09093F7018093C3
:10191000F60189E190E0909301028093000289E64C
:1019200090E014C08FE190E09093F9018093F8016A
:1019300080EE97E09093F7018093F60189E690E0BE
:10194000909301028093000289E190E09093FF015F
:101950008093FE0120E040E060E08FE793E00E948A
:10196000963164E08FE793E00E947731E090F801D0
:10197000F090F9010AE210E02AE430E04EE150E094
:1019800066E070E08FE793E00E94213443E250E08C
:1019900060E270E08FE793E00E9471314091ED01C9
:1019A00050E060E070E020E08FE793E00E941038A4
:1019B000E090F601F090F70125E430E04EE150E0D0
:1019C00064E570E08FE793E00E94213443E250E049
:1019D0006EE670E08FE793E00E9471314091EC0178
:1019E00050E060E070E020E08FE793E00E94103864
:1019F00061E08FE793E00E9477316091000270917F
:101A000001024FE350E08FE793E00E9471316FE7EE
:101A100071E08FE793E00E94A3376091FE0170911F
:101A2000FF014FE350E08FE793E00E94713169E7D7
:101A300071E08FE793E00E94A3378091FC019091C1
:101A4000FD0190930102809300028091FA01909130
:101A5000FB019093FF018093FE011092F901109217
:101A6000F8011092F7011092F6012FEF4FEF6FEF90
:101A70008FE793E00E94963148E550E064E370E020
:101A80008FE793E00E9471316EE671E08FE793E09B
:101A90000E94A33746E750E06AE070E08FE793E0EA
:101AA0000E94713164E571E08FE793E00E94A337F3
:101AB00062E08FE793E00E94773142E650E069E10F
:101AC00070E08FE793E00E9471316AE471E08FE784
:101AD00093E01F910F91FF90EF900C94A3371F910B
:101AE0000F91FF90EF900895EF92FF920F931F9345
:101AF00060910002709101027093FD016093FC01FE
:101B00004091FE015091FF015093FB014093FA0177
:101B10008091F8019091F901860F971F909301022F
:101B2000809300028091F6019091F701840F951F38
:101B30009093FF018093FE01E12CF12C04E010E072
:101B400024E030E08FE793E00E9421344091FE01D1
:101B50005091FF016091000270910102EE24EA941D
:101B6000FE2C24E030E08FE793E00E9421341F91A7
:101B70000F91FF90EF900895CF93DF93EC012FEF3B
:101B80004FEF6FEF8FE793E00E94963142E350E012
:101B900068E170E08FE793E00E947131FE010190EF
:101BA0000020E9F73197AF014C1B5D0BBE018FE7B9
:101BB00093E00E947B3764EF71E080E090E00E9448
:101BC000BD3C20E040E060E08FE793E00E9496316A
:101BD00042E350E068E170E08FE793E00E947131EA
:101BE000FE0101900020E9F73197AF014C1B5D0B1E
:101BF000BE018FE793E00E947B3768EC70E080E0E5
:101C000090E0DF91CF910C94BD3C20E040E060E09B
:101C10008FE793E00E9488318091EC011F928F93AF
:101C20008091ED011F928F9385E191E09F938F93B7
:101C300088E192E09F938F930E94F14664E08FE7E2
:101C400093E00E94773188E192E096DF88E192E0AC
:101C500093DF88E192E090DF8DB79EB708960FB6CC
:101C6000F8949EBF0FBE8DBF20E04FEF60E08FE77E
:101C700093E00C9496311092EC011092ED011092C9
:101C8000FB011092FA011092FD011092FC010FB6B7
:101C9000F8948091750690917606A0917706B091A0
:101CA00078060FBE80FF03C08FEF9FEF02C081E078
:101CB00090E09093F9018093F8010FB6F894609149
:101CC00075067091760680917706909178060FBE22
:101CD00023E030E040E050E00E94CC44672B682BCA
:101CE000692B19F08FEF9FEF02C081E090E0909395
:101CF000F7018093F60189DF94DDF6DED5CD8330E0
:101D000001F128F4813061F0823069F00895863065
:101D100071F0873079F08530E1F484EF91E006C00E
:101D200080EF91E003C080EF91E003C05CCD84EFD1
:101D300091E068CD8091F8019091F901892B39F4F7
:101D40009ACF8091F8019091F901892BC9F780E031
:101D50004BC108958091FE019091FF0101978B374F
:101D6000910558F08091F6019091F7019195819538
:101D700091099093F7018093F60180910002909170
:101D800001021816190674F08091EC018F5F8093A0
:101D9000EC013BDF46DD88DD8FEF9FEF9093F9018B
:101DA0008093F8018091000290910102803A9105A0
:101DB00074F08091ED018F5F8093ED0126DF31DDBE
:101DC00073DD81E090E09093F9018093F8016091D8
:101DD000F4017091F5014FEF5FEF80E090E034DDAA
:101DE000813069F06091F0017091F10141E050E0C3
:101DF0008BE990E029DD813011F069DD75CE8091AD
:101E0000F8019091F9019195819591099093F901CB
:101E10008093F801F2CFEF92FF920F931F934091BE
:101E2000F2015091F3018091F4019091F50148176E
:101E3000590719F1E12CF12C09E110E025E030E01F
:101E400060E070E08FE793E00E9421344091F4015C
:101E50005091F501EE24EA94FE2C25E030E060E09C
:101E600070E08FE793E00E9421348091F40190911B
:101E7000F5019093F3018093F2014091EE015091AE
:101E8000EF018091F0019091F1014817590719F184
:101E9000E12CF12C09E110E025E030E06BE970E085
:101EA0008FE793E00E9421344091F0015091F101BD
:101EB000EE24EA94FE2C25E030E06BE970E08FE739
:101EC00093E00E9421348091F0019091F101909370
:101ED000EF018093EE010FB6F89460917506709152
:101EE000760680917706909178060FBE20910202C7
:101EF00030910302032E000C440B550B0E94CC447E
:101F0000623071058105910528F41F910F91FF90B2
:101F1000EF9020CF1F910F91FF90EF90089580E0F8
:101F200090E0089540912503509126036091270386
:101F300070912803452B462B472B09F48C9A0FB63A
:101F4000F8944091750650917606609177067091ED
:101F500078060FBE40932503509326036093270312
:101F600070932803E09137034E2F50E0493051051C
:101F700088F4FA01E45BFF4F0C94EE445FC60C94C6
:101F800025190C94291A94C3682F88E393E016CB83
:101F900030C6B5CE0895CF93DF93FB012281DC01DB
:101FA00012962C9312974381548165817681139602
:101FB0004D935D936D937C931697278117962C9381
:101FC00017971896EF0128969C012B5E3F4F499179
:101FD0004D93A217B307D9F725893689FC01368BB3
:101FE000258BDF91CF9108958093370390E089305E
:101FF0009105B0F4FC01EB5AFF4F0C94EE440E94A3
:1020000036188FEF8093360308950C94B3180C9410
:102010008A19B5C288E393E0B0CA5CC32FC82BCE3F
:1020200008958091370308950F931F93CF930FB6B0
:10203000F8948091750690917606A0917706B091FC
:1020400078060FBEC091320300912503109126033C
:102050002091270330912803BC01CD01601B710B37
:10206000820B930B28EE33E040E050E00E94CC441A
:102070006AE0C69FC0011124092E000CAA0BBB0BFD
:1020800082179307A407B50748F41092250310920E
:10209000260310922703109228038C988091250321
:1020A00090912603A0912703B0912803892B8A2BB6
:1020B0008B2BA1F080913703882331F0883071F4A5
:1020C000CF911F910F91A7CEE4D665E070E080E03C
:1020D00090E0CF911F910F910C94BD3CCF911F9137
:1020E0000F910895809135038250833048F4809198
:1020F0003403279A90E090938D0080938C0005C064
:10210000279A10928D0010928C0080918000886038
:10211000809380000895282F862F90913503923068
:1021200069F028F49923B1F0913091F0089593303B
:1021300019F0943099F00895211104C0609134038E
:1021400070E00AC06091340370E0660F771F04C02E
:102150002111F4CF60E070E00C94FF39222371F379
:10216000F9CF61E0D8CF60E0D6CF0FB6F8944091B8
:1021700075065091760660917706709178060FBECD
:1021800040932503509326036093270370932803FD
:102190008C9AE2E2F3E0DC018D919C919183808343
:1021A000128202C7CF93DF93CDB7DEB767970FB622
:1021B000F894DEBF0FBECDBF849A64EF71E080E07B
:1021C00090E00E94BD3C8C9A64EF71E080E090E06A
:1021D0000E94BD3C8FE793E00E942B2D6AEF70E0D8
:1021E00080E090E00E94BD3C8FE793E00E942B2DA1
:1021F0006AEF70E080E090E00E94BD3C10922D03F9
:1022000010922E0310922F03109230031092290384
:1022100010922A0310922B0310922C030FB6F894FD
:102220008091750690917606A0917706B091780618
:102230000FBE8093250390932603A0932703B093AA
:1022400028030E94070740E052EC61E070E086E856
:1022500096E00E94BE430E94EE064FEF60ED70E0F4
:102260008DEF95E00E94B7368BE593E00E94AE3586
:102270008EE493E00E94AE356898709A3998419A3E
:1022800068E182EB93E00E94891C811105C08BE913
:1022900091E00E940508FFCF23E14BE051E062EBA3
:1022A00073E0CE0101960E94AA1DBE016F5F7F4FB1
:1022B00088E693E070DECE0101960E94051B88E659
:1022C00093E00E94721B811105C08FE891E00E948B
:1022D0000508FFCF88E693E00E94601B61E080E084
:1022E0000E94D7068093310362E382E00E94D70602
:1022F000809333036EE181E00E94D706809332031E
:1023000061E083E00E94D7068093350362E084E0B9
:102310000E94D70680933403E5DE83E0E2E2F3E037
:10232000DF011D928A95E9F742E050E06CE871E028
:10233000CF010E94694686E0E8E1F3E0DF011D92EB
:102340008A95E9F745E050E066E871E0CF010E9428
:10235000694680E049DE67960FB6F894DEBF0FBE8F
:10236000CDBFDF91CF9108952CE24BE26DE28FE774
:1023700093E00E94182D88E693E00E94F21A49E04B
:102380006AE08BE593E00E949D354CE06DE08EE4C1
:1023900093E00E949D3510923803089588E693E0FB
:1023A0000C94051BEF92FF920F931F93CF93DF9333
:1023B000EC010FB6F8948091750690917606A09185
:1023C0007706B09178060FBE80932503909326037D
:1023D000A0932703B09328038C9AE12CF12C0AE0F8
:1023E00010E027E330E040E050E060E070E08FE78D
:1023F00093E00E94213461E08FE793E00E947731FF
:102400002FEF4FEF6FEF8FE793E00E94963141E09F
:1024100050E061E070E08FE793E00E947131FE01CF
:1024200001900020E9F73197AF014C1B5D0BBE0115
:102430008FE793E0DF91CF911F910F91FF90EF9085
:102440000C947B378BE593E00E94B735803121F007
:10245000803221F481E001C082E064DD609902C035
:1024600083E060DD8EE493E00E94B735803121F097
:10247000803221F485E001C086E054DD319B13C039
:1024800086E896E00E944F441816190614F40E943C
:10249000CF078DEF95E00E9421361816190614F427
:1024A0000E941A07C1CD87E03DDDEACF0F931F934D
:1024B000CF93DF93CDB7DEB76E970FB6F894DEBF3C
:1024C0000FBECDBF80913503823091F038F4882360
:1024D00061F08130B1F469E372E00FC0833059F0EC
:1024E000843079F46BEE71E008C063E572E005C0FA
:1024F0006FE172E002C065E072E083E493E00E9465
:102500005509809134031F928F9380ED91E09F9342
:102510008F938E010F5F1F4F1F930F930E941F47D2
:10252000B80183E493E00E94DF096BEC71E083E47F
:1025300093E00E9455090F900F900F900F900F900D
:102540000F906E960FB6F894DEBF0FBECDBFDF9131
:10255000CF911F910F910895823080F4E0913C0358
:10256000F0913D038081279A90E090938D008093B5
:102570008C008091800088608093800008958F9205
:10258000AF92CF92EF920F9386E592E19F938F9354
:1025900080E18F9384E1882E95E0A92E27E0C22E5A
:1025A000E12C00E021E049E16DE672E083E493E094
:1025B0000E94D7080F900F900F900F91EF90CF903F
:1025C000AF908F900895AF92BF92CF92DF92EF922B
:1025D0000F93882309F43EC0813009F061C06CEA92
:1025E00072E188E393E00E94D10880913403279A36
:1025F00090E090938D0080938C00809180008860A3
:102600008093800083EBA82E81E0B82E98EAC92E33
:1026100091E0D92EEE24E39404E120E044E064E369
:1026200073E088E393E00CD864EF71E080E090E021
:102630000E94BD3C57DD809136038695817091DD07
:102640008091360381700F91EF90DF90CF90BF9013
:10265000AF9089CD60913503643011F06F5F01C098
:1026600060E06093350383E00E94EB0683E493E02F
:102670000E94890837DD809136038695817071DD6F
:102680008091360381706FDD64EF71E080E090E04F
:102690000F91EF90DF90CF90BF90AF900C94BD3C26
:1026A00081E00F91EF90DF90CF90BF90AF909CCCE6
:1026B000823041F0833051F0813059F483E493E06B
:1026C0000C94910883E493E00C94AE088091450348
:1026D0007ACF08958F92AF92CF92EF920F93CF93CC
:1026E000DF93CDB7DEB767970FB6F894DEBF0FBEA6
:1026F000CDBF21E04BE051E062EB73E0CE010196EB
:102700000E94AA1D8B8180936A038C819D81AE817A
:10271000BF8180936B0390936C03A0936D03B09380
:102720006E03888580936F03DE011996E0E7F3E07E
:102730008D91819383E0ED37F807D1F78E899F89DA
:1027400090937E0380937D03CE0101965ED788E847
:1027500094E19F938F9380E18F9384E1882E95E09D
:10276000A92E27E0C22EE12C00E021E044E168E838
:1027700072E083E493E00E94D7080F900F900F90CF
:1027800067960FB6F894DEBF0FBECDBFDF91CF9135
:102790000F91EF90CF90AF908F900895CF93DF93EC
:1027A00020E031E0E8E1F2E0DF01A9011D924150B3
:1027B0005040E1F7DF01D82FC92FFC012191CF0153
:1027C000222349F02F3239F0FD0101900020E9F772
:1027D00031972083F0CF88E192E00E943B460E942F
:1027E000BD3C8D2F9C2FDF91CF910895EF92FF92EA
:1027F0000F931F93CF93DF9300D01F92CDB7DEB717
:102800007C012FEFE21AF20AF70101900020E9F7AC
:102810003197EE19FF09329738F18C01FC01818163
:1028200092819A8389831B8240E150E060E070E0EE
:10283000CE0101960E941045F8016083B8016D5FDA
:102840007F4FFB0101900020E9F7AF01461B570BBA
:10285000C7010F900F900F90DF91CF911F910F91B3
:10286000FF90EF900C949A460F900F900F90DF918D
:10287000CF911F910F91FF90EF9008950F931F93A9
:10288000CF93DF93EC018C018881882379F18C351B
:1028900041F589818C3579F4FE0101900020E9F73A
:1028A0003197AF014C1B5D0BBE016F5F7F4FCE01B7
:1028B0000E949A4616C0833791F41882F8018081ED
:1028C000882329F0B80180E896E00E94E807CE014D
:1028D000029664DFEC018C010F5F1F4F02C0CE0136
:1028E00085DF8881882381F22196CECFF80180810F
:1028F000882349F0B80180E896E0DF91CF911F91DD
:102900000F910C94E807DF91CF911F910F910895DB
:10291000EF92FF920F931F93CF93DF93CDB7DEB764
:102920006B970FB6F894DEBF0FBECDBF8E010F5F61
:102930001F4F8AE1F80111928A95E9F788E693E042
:10294000D1D68823D9F140E050E0BA0188E693E07F
:102950005DD6FF24F3948AE1E82E88E693E083D6DF
:10296000892B61F188E693E0D6D58B8F8A3049F0C8
:102970008C3779F4B80183E493E00E94DF09F12CED
:10298000ECCFF8018E2D11928A95E9F7FF24F3948C
:10299000E4CFE1E0FE12F3CF41E050E0BE01655E1E
:1029A0007F4FC8010E94BD46F80101900020E9F761
:1029B0003197E01BF10B799780F2E1CF63E872E089
:1029C00083E493E00E9455096B960FB6F894DEBF3E
:1029D0000FBECDBFDF91CF911F910F91FF90EF9070
:1029E00008954F925F926F927F928F929F92AF92D3
:1029F000BF92CF92DF92EF92FF920F931F93CF93EC
:102A0000DF931F92CDB7DEB75C017B016A0128011D
:102A1000390160E070E0C7010E94AB4610E046015A
:102A200081E0881A910888E693E01DD6892B99F1F8
:102A300088E693E070D589838A3099F4C501A0E0D7
:102A4000B0E084159505A605B705E1F19301820173
:102A50000F5F1F4F2F4F3F4FA601B701C501C1DFC9
:102A600031C0113099F4F70101900020E9F7319756
:102A7000EE19FF09E815F905B0F641E050E0BE0196
:102A80006F5F7F4FC7010E94BD46CDCF11E08C37ED
:102A900051F210E0C8CFA60160E070E0C7010F90CE
:102AA000DF91CF911F910F91FF90EF90DF90CF902A
:102AB000BF90AF909F908F907F906F905F904F905E
:102AC0000C94AB460F90DF91CF911F910F91FF9027
:102AD000EF90DF90CF90BF90AF909F908F907F90BE
:102AE0006F905F904F900895EF92FF920F931F9316
:102AF000813021F49FE1E92EF12C04C082E2E82E1E
:102B000085EFF82E02E110E020EA30E040E050E0EE
:102B100060E070E08FE793E00E94213420E040E025
:102B200060E08FE793E00E94963162E08FE793E0E8
:102B30000E94773141E050E064E170E08FE793E07C
:102B40000E94713167E772E08FE793E00E94A3373C
:102B50002FEF4FEF6FEF8FE793E00E94963161E028
:102B60008FE793E01F910F91FF90EF900C947731D6
:102B7000EF92FF920F931F93CF93DF93CDB7DEB702
:102B8000D4500FB6F894DEBF0FBECDBF7C0140E03D
:102B900050E0BA0188E693E039D500E010E09801F2
:102BA00040E054E0BE016F5F7F4FC7011ADF62E86B
:102BB00072E0CE0101960E947246892B69F0CE0127
:102BC00001965CDE81E090DF68EE73E080E090E0EB
:102BD0000E94BD3C80E088DFDC5F0FB6F894DEBF6A
:102BE0000FBECDBFDF91CF911F910F91FF90EF905E
:102BF0000895853051F020F481508330D0F008954D
:102C0000863039F0873049F0089583E493E00C94DE
:102C1000910883E493E00C94AE088091450390E022
:102C20002091430330E0215031098217930709F0C6
:102C30009FCF88E693E044D580E0D6C9AF92BF929B
:102C4000CF92DF92EF92FF920F931F93833009F49C
:102C500053C000F5813019F1823009F057C084E08B
:102C6000A82E8AEFB82E9EE6C92ED12C20E5E22EA2
:102C7000F12C00E510E02CE830E040E550E064E1A4
:102C800070E08FE793E00E94E32E6091310361953D
:102C900040E01EC085508330C8F585E02EC034E08A
:102CA000A32E3AEFB32E4AE0C42ED12C50E5E52EE8
:102CB000F12C08E210E02CE830E048E250E064E15A
:102CC00070E08FE793E00E94E32E40E060913103D3
:102CD0008FE796E00E94B6430FB6F8948091750690
:102CE00090917606A0917706B09178060FBE9093EA
:102CF0002E0380932D030AC081E01F910F91FF9056
:102D0000EF90DF90CF90BF90AF906EC91F910F9161
:102D1000FF90EF90DF90CF90BF90AF900895EF922B
:102D2000FF920F931F93CF93C82F62E08FE793E03A
:102D30000E947731EE24EA9487E0F82E09E110E052
:102D40002AE330E040E350E064E170E08FE793E095
:102D50000E942134C1111DC0E12CF12C07E110E0CB
:102D600028E330E041E350E065E170E08FE793E075
:102D70000E94213446E350E060E270E08FE793E088
:102D80000E94713161EA72E08FE793E00E94A337FD
:102D90001CC020E040E060E08FE793E00E949631A5
:102DA00046E350E060E270E08FE793E00E9471310B
:102DB0006DE972E08FE793E00E94A3372FEF4FEFAA
:102DC0006FEF8FE793E00E9496318C2FCF911F9188
:102DD0000F91FF90EF90C7C9EF92FF920F931F934F
:102DE000CF93C82F62E08FE793E00E947731EE2403
:102DF000EA9487E0F82E09E110E02AE330E040E3AE
:102E000050E062E570E08FE793E00E942134C11149
:102E10001DC0E12CF12C07E110E028E330E041E394
:102E200050E063E570E08FE793E00E94213446E3D1
:102E300050E068E570E08FE793E00E94713168E947
:102E400072E08FE793E00E94A3371CC020E040E0CF
:102E500060E08FE793E00E94963146E350E068E53A
:102E600070E08FE793E00E94713163E972E08FE7D1
:102E700093E00E94A3372FEF4FEF6FEF8FE793E0C0
:102E80000E9496318C2FCF911F910F91FF90EF9060
:102E900068C9AF92BF92CF92DF92EF92FF920F93E9
:102EA0001F930FB6F8948091750690917606A091C5
:102EB0007706B09178060FBE2091290330912A033E
:102EC000821B930BA109B109893E9340A105B1056D
:102ED00000F10FB6F8948091750690917606A09156
:102EE0007706B09178060FBE90932A03809329034A
:102EF0008091B70690913603981759F08091B706E4
:102F0000809336038695817067DF809136038170E8
:102F100006DF20912D0330912E0321153105D9F1C3
:102F20000FB6F8948091750690917606A091770679
:102F3000B09178060FBE821B930BA109B109893E9F
:102F40009340A105B10538F110922E0310922D0384
:102F5000A12CB12C8AE0C82ED12C90E5E92EF12CC1
:102F600008E210E02CE830E048E250E064E170E074
:102F70008FE793E00E94E32E2EE6C22ED12C00E5CF
:102F800010E02CE830E040E550E064E170E08FE7CD
:102F900093E00E94E32E1F910F91FF90EF90DF903E
:102FA000CF90BF90AF900895EF92FF920F931F9331
:102FB00061E08FE793E00E947731EE24EA94FE2CE3
:102FC0000CE110E025E230E040E050E06AE770E01C
:102FD0008FE793E00E94213420E040E060E08FE73B
:102FE00093E00E94963141E050E06BE770E08FE79C
:102FF00093E00E94713165EA72E08FE793E00E94EE
:10300000A337E12CF12C01E110E023E230E04AE0AB
:1030100050E06BE770E08FE793E00E9421342FEFE0
:103020004FEF6FEF8FE793E00E94963162E08FE7FA
:1030300093E00E9477314CE050E061E870E08FE768
:1030400093E00E947131E2E2F3E001900020E9F7A1
:103050003197AF014252534062E273E08FE793E051
:103060001F910F91FF90EF900C947B3720E040E090
:1030700060E08FE793E00E9488312FEF4FEF6FEF12
:103080008FE793E00E94963161E08FE793E00E9422
:1030900077314CE650E064E870E08FE793E00E94FF
:1030A000713164EB72E08FE793E00E94A33746E74B
:1030B00050E063E770E08FE793E00E9471316CEAC3
:1030C00072E08FE793E00E94A3376EDF8CE191E01E
:1030D00069C963E073E083E493E00E94550965EFFA
:1030E00072E083E493E00E94550963EE72E083E4AA
:1030F00093E00E94550967ED72E083E493E00E943B
:1031000055096DEC72E083E493E00E94550968EC88
:1031100072E083E493E00C945509882389F08130B0
:1031200009F56AEE74EE80E896E00E94004364E6DA
:1031300070E080E090E00E94BD3C6AEE74EE0EC04C
:1031400069EE74EE80E896E00E94004364E670E069
:1031500080E090E00E94BD3C69EE74EE80E896E06D
:103160000C94934208958F92AF92CF92EF920F9367
:1031700089E698E19F938F9380E18F9384E1882E75
:1031800095E0A92E27E0C22EE12C00E021E04EE1DF
:1031900060E173E083E493E00E94D7080F900F9002
:1031A0000F900F91EF90CF90AF908F900895AF92C6
:1031B000BF92CF92DF92EF920F93823069F130F499
:1031C000882351F08130C1F583E037C0833031F17D
:1031D000843091F588E031C06DE878E188E393E0D0
:1031E0000E94D1088BEBA82E82E0B82E99EBC92E55
:1031F00092E0D92E26E0E22E04E620E042E063E3EE
:1032000073E088E393E00E94200B0F91EF90DF9032
:10321000CF90BF90AF90089582E00FC00E94FE074C
:1032200068EE73E080E090E00E94BD3C64EF71E0E6
:1032300080E090E00E94BD3C80E00F91EF90DF9035
:10324000CF90BF90AF900C94F40F823041F0833058
:1032500051F0813059F483E493E00C94910883E4B5
:1032600093E00C94AE0880914503A1CF08950F938D
:103270001F93CF93DF93CDB7DEB76E970FB6F89459
:10328000DEBF0FBECDBF809131031F928F9387E8C1
:1032900093E09F938F938E010F5F1F4F1F930F93A8
:1032A0000E941F47B80183E493E00E94DF098091E8
:1032B00032031F928F938DE693E09F938F931F931A
:1032C0000F930E941F47B80183E493E00E94DF0937
:1032D0006CE573E083E493E00E94550965E573E0D3
:1032E00083E493E00E94550960E573E083E493E092
:1032F0000E9455090FB6F894DEBF0FBECDBF6E9683
:103300000FB6F894DEBF0FBECDBFDF91CF911F91F6
:103310000F9108958F92AF92CF92EF920F9387E320
:1033200099E19F938F9380E18F9384E1882E95E0BC
:10333000A92E27E0C22EE12C00E021E042E361EA61
:1033400073E083E493E00E94D7080F900F900F90F2
:103350000F91EF90CF90AF908F900895AF92BF9262
:10336000CF92DF92EF920F938130D9F050F08230FC
:1033700061F1833009F05DC00E943E080C940000AA
:1033800061C020E4A22E23E0B22E3AE3C32E33E044
:10339000D32EEE24E3940AE021E040E061E373E001
:1033A0000FC080E2A82E83E0B82E9AE1C92E93E0E8
:1033B000D92EEE24E39404E620E041E062E373E0DA
:1033C00088E393E00E94200B3DC00E943E08F894E1
:1033D00081E08093E00080E28093D8001092C900E1
:1033E00062E370E080E090E00E94BD3C1DBA109264
:1033F00068001CBC10BE1FBA10927A0010926E00BA
:1034000010926F0010927000109271001092C9001B
:103410001092BC0011B814B817B81AB81DB810BA79
:1034200012B815B818B81BB81EB811BA0C9400FE23
:1034300009C081E00F91EF90DF90CF90BF90AF90E7
:103440000C94F40F0F91EF90DF90CF90BF90AF905E
:103450000895823041F0833051F0813059F483E493
:1034600093E00C94910883E493E00C94AE0880916F
:10347000450374CF0895CF93DF931F92CDB7DEB786
:103480006983DC01ED91FC910280F381E02D41E044
:1034900050E0BE016F5F7F4F09950F90DF91CF9194
:1034A0000895CF93DF93EC01ED89FE89309729F4DD
:1034B00081E08A8380E090E00AC012828D899E8933
:1034C0000E94D726ED89FE8922812111F1CFDF915B
:1034D000CF910895FC0185899689009711F00C948D
:1034E00051240895CF93DF931F92CDB7DEB741E00B
:1034F00050E0BE016F5F7F4FA7D761307105810536
:10350000910519F4898190E002C08FEF9FEF0F9031
:10351000DF91CF910895FC0185899689009709F084
:10352000E1CF8FEF9FEF08950F931F93CF93DF931A
:10353000FC01858996890097B1F0EF01D3DF8C01FA
:103540000F3F8FEF180791F08D899E89FC0141850F
:1035500052856385748541505109610971090E9442
:10356000BB23C80105C080E090E002C08FEF9FEF51
:10357000DF91CF911F910F910895EF92FF920F93DA
:103580001F93CF93DF93EC017B018A011A8288EEAF
:1035900093E0A0E0B0E08B839C83AD83BE831F8269
:1035A00086E291E0998388838CE190E00E948238E2
:1035B0009E8B8D8B009779F02CE1F701DC01019057
:1035C0000D922A95E1F74CE050E0B801CE01089643
:1035D0000E94CD461C8ADF91CF911F910F91FF90E1
:1035E000EF900895FC01128288EE93E0A0E0B0E035
:1035F00083839483A583B683178286E291E09183C7
:103600008083168A158A108608950895FC0185899D
:103610009689009729F00E94BB2391E0811101C097
:1036200090E0892F0895DC015596ED91FC91569715
:10363000309729F0618572858385948508956FEFB1
:103640007FEFCB010895DC015596ED91FC915697E3
:10365000309729F06289738984899589089560E09B
:1036600070E0CB010895CF92DF92EF92FF92CF935B
:10367000DF93FC0125893689232BC9F0EC01E3DFB8
:103680006B017C01CE01CFDFA7019601261B370B12
:10369000480B590BDA01C901811530E89307A105E0
:1036A000B10538F08FEF9FE7A0E0B0E002C080E006
:1036B00090E0DF91CF91FF90EF90DF90CF90089551
:1036C000CF93DF93EC018D899E89009741F00E9492
:1036D00096248D899E890E941D391E8A1D8ADF913C
:1036E000CF910895DC015596ED91FC915697309756
:1036F00021F081E09481911101C080E008951F9331
:10370000CF93DF93CDB7DEB76C970FB6F894DEBFDB
:103710000FBECDBFAB011B822AE331E03A83298380
:103720001D8221E0BC01CE0101960E94B42511E06A
:10373000811102C010E004C0CE0101960E949624BF
:10374000812F6C960FB6F894DEBF0FBECDBFDF9110
:10375000CF911F910895442339F00E94B32691E040
:10376000811103C090E001C091E0892F0895EF928C
:10377000FF920F931F93CF93DF93DA01EB01288120
:103780003981FC01E20FF31F40814F3211F42F5FAA
:103790003F4F8C01020F131F7D01E0E0F0E0E801D4
:1037A00059918E015F3259F0552349F031962F5FC0
:1037B0003F4FE70159937E01EC30F10581F7EA0FA5
:1037C000FB1F1082FC01E20FF31F40814F3211F406
:1037D0002F5F3F4FFB0131832083FC01E20FF31F7A
:1037E00081E09081911101C080E0DF91CF911F9124
:1037F0000F91FF90EF9008954F925F926F927F929A
:103800008F929F92AF92BF92CF92DF92EF92FF92F0
:103810000F931F93CF93DF93CDB7DEB7C754D10972
:103820000FB6F894DEBF0FBECDBF5C016B013A014D
:1038300049011F8E8AE391E09E8F8D8F19A21B8212
:103840009A8389831D8228961FAE1EAE28978B010E
:103850007E018DE1E80EF11C44244394AE01475CE7
:103860005F4FBE016A5B7F4FC50181DF582E482F35
:1038700044259401BE01675C7F4FC801F30109959F
:10388000811108C00C151D0519F0C8010E9496246D
:1038900080E027C05520B9F021E0AE01475C5F4FC2
:1038A000B801C7010E94B425582E0C151D0599F0CA
:1038B000C8010E949624552059F3902F812F87012B
:1038C000E92EF82ECBCF0C151D0519F0C8010E946A
:1038D000962481E006C08823D9F28E010F5F1F4F26
:1038E000ECCFC95BDF4F0FB6F894DEBF0FBECDBF84
:1038F000DF91CF911F910F91FF90EF90DF90CF90CC
:10390000BF90AF909F908F907F906F905F904F90FF
:1039100008950F931F93CF93DF93EC01162F8DA182
:10392000882321F0CE0181960E949624412F61E0E8
:10393000CE019FD2882389F08E010D5F1F4F41E099
:10394000BE01C8010E94032C882349F0B801CE01B2
:1039500081962AD591E081110AC090E008C040E02C
:10396000BE01C8010E94032C8823B9F3EFCF892F31
:10397000DF91CF911F910F910895FC01DB01129609
:103980008C91129782838AE391E0918380831396CE
:103990008C911397838314968C9114978483159636
:1039A0004D915D916D917C91189745835683678306
:1039B000708719964D915D916D917C911C9741870F
:1039C0005287638774871D964D915D916D917C91AF
:1039D0005097458756876787708B51968C91519782
:1039E000818B52964D915D916D917C915597428B53
:1039F000538B648B758B56964D915D916D917C9137
:103A00005997468B578B608F718F5A968D919C91E9
:103A10005B97938F828F08954F925F926F927F9200
:103A20008F929F92AF92BF92CF92DF92EF92FF92CE
:103A30000F931F93CF93DF93CDB7DEB7C554D10952
:103A40000FB6F894DEBF0FBECDBF5C014A0139014D
:103A50001F8E8AE391E09E8F8D8F19A21B829A831D
:103A600089831D826D5F7F4F6E018DE1C80ED11C71
:103A7000C6019AD474018E010F5F1F4F5C2C4D2C30
:103A80006FE270E0C7010E94B246009709F440C09F
:103A9000F70120812F3271F4FFEFEF1AFF0A902F08
:103AA000812F052D142D2C01C201502E412E092FDE
:103AB000182FE6CF8E198D3008F08CE0C82ED12C4F
:103AC000A601B701CE01C9960E94CD46E9E3F0E018
:103AD000EC0FFD1FEC0DFD1D1082C80127D721E062
:103AE000AE01475C5F4F652D742DC8010E94B4255F
:103AF000811108C0F50112828AE391E091838083ED
:103B000014820FC0EC0CFD1C852D942D0FD7CCCF4B
:103B1000E818F908F301F182E082652D742DC501E2
:103B20002CDFC501CB5BDF4F0FB6F894DEBF0FBEB5
:103B3000CDBFDF91CF911F910F91FF90EF90DF905C
:103B4000CF90BF90AF909F908F907F906F905F903D
:103B50004F900895DF92EF92FF920F931F93CF93B0
:103B6000DF93CDB7DEB7C655D1090FB6F894DEBFE7
:103B70000FBECDBF7C018A01D22E9E012B5A3F4F32
:103B8000CE01C99649DF67968EAD9FAD6797080F46
:103B9000191FF8018081811109C0BE01675C7F4F48
:103BA000CE010196EADE44E351E02AC01F8E8AE38B
:103BB00091E09E8F8D8F19A28DAD811103C0C70139
:103BC00011DD23C02D2DA801BE01675C7F4FCE0102
:103BD0004D96CAD7882399F3CE01C996A7D68D2DC5
:103BE000867039F04FA558A969A97AA9CE014D96DA
:103BF000C2D5BE01635E7F4FCE010196BEDEA80135
:103C0000BE016F5F7F4FC701B8DCC701CA5ADF4FE3
:103C10000FB6F894DEBF0FBECDBFDF91CF911F91DD
:103C20000F91FF90EF90DF900895FB01BC016F5D55
:103C30007F4F20E030E04FE75BE1CF01DDCDFB01BE
:103C4000BC016F5D7F4F20E030E04BEA5BE1CF01CC
:103C5000D3CDE2EBF3E0128282E090E0A0E0B0E0AE
:103C600083839483A583B683128E13A28AE391E0A3
:103C700092A381A315A208958EBD0DB407FEFDCFBA
:103C800008958FEFF9DF8EB50895209191062223D4
:103C900081F0213051F42DB320938F063DB3209154
:103CA0009006209523232DBB04C02FB7F8942093B2
:103CB0008F068CBD9DBD089590919106992339F092
:103CC00080918F06913011F48DBB08958FBF0895B8
:103CD000DC01EC91F0E00E94933A8091F10388239B
:103CE00019F01092F103E8CF0895CF93DF93EC0120
:103CF0008091F103811108C081E08093F1038091EC
:103D0000F2039091F303C1DFE881F0E00E94993A59
:103D1000DF91CF910895673008F066E08DB560FDC2
:103D200002C0663011F48E7F01C081608DBD8CB5FC
:103D30008C7F8CBD9CB562FD02C080E001C082E03A
:103D400061FB222720F9922B892B8CBD623081F0F8
:103D500030F4662359F06130B1F480E515C0643069
:103D600081F068F0653079F482E50EC080E501C02D
:103D700081E58093F20381E08093F30309C081E53C
:103D800003C082E5F6CF83E58093F2031092F3033C
:103D900081E008950F931F93CF93DF93EB010FB64C
:103DA000F8948091750690917606A0917706B0916F
:103DB00078060FBE8C0165DF8F3F91F00FB6F89447
:103DC0008091750690917606A0917706B09178065D
:103DD0000FBE801B910B8C179D0768F380E001C01C
:103DE00081E0DF91CF911F910F9108958F929F9263
:103DF000AF92BF92EF92FF921F93CF93DF937C011C
:103E0000162F49015A016CE271E0C4DF812F8064F2
:103E100033DFC8E1D0E0D501C4010C2E04C0B69553
:103E2000A795979587950A94D2F726DF2897C83FDC
:103E30008FEFD80781F7112321F0183021F487E89C
:103E400003C085E901C08FEF17DFC0E01ADFF7017B
:103E5000818387FF04C0CF3F11F0CF5FF7CFDF91A1
:103E6000CF911F91FF90EF90BF90AF909F908F9058
:103E700008958F929F92AF92BF92CF92DF92EF926E
:103E8000FF920F931F93CF93DF93EC01162F842F94
:103E90001A8248830FB6F894C0907506D0907606C3
:103EA000E0907706F09078060FBEE42FF0E00E94D5
:103EB000933A0E94EE39E881F0E00E94933A239809
:103EC0002B98229A219A209A289A83E58CBD8DB549
:103ED0008E7F8DBD82E58093F2031092F303809173
:103EE000F2039091F303D1DE0AE08FEFC5DE0150BB
:103EF000E1F7E2DECE01F9DE20E030E0A90160E08A
:103F0000CE0174DF082F8983813089F00FB6F894D1
:103F10008091750690917606A0917706B09178060B
:103F20000FBE8C199D09813D974030F365C02AEA88
:103F300031E040E050E068E0CE0158DF82FF02C08F
:103F40000A830AC004E09DDE89830150E1F78A3AC2
:103F500009F052C082E08A838A81823021F0812C6C
:103F6000912C540105C0812C912CA12C80E4B82EF9
:103F700020E030E0A90167E3CE0138DFA50194011C
:103F800069E2CE0133DF8983882389F00FB6F89484
:103F90008091750690917606A0917706B09178068B
:103FA0000FBE8C199D09813D974010F325C08A8171
:103FB000823089F420E030E0A9016AE3CE0116DF07
:103FC00081111AC05EDE807C803C11F483E08A831C
:103FD00058DE57DE56DECE017BDE612FCE01DF914B
:103FE000CF911F910F91FF90EF90DF90CF90BF90F6
:103FF000AF909F908F908FCECE016ADE80E0DF91F0
:10400000CF911F910F91FF90EF90DF90CF90BF90D5
:10401000AF909F908F9008950F931F93CF93DF934E
:104020008C010FB6F8948091750690917606A09158
:104030007706B09178060FBEEC0123DE982FF801C9
:1040400081838F3F89F40FB6F89480917506909123
:104050007606A0917706B09178060FBE8C1B9D0B5B
:104060008D32914050F303C081E09E3F09F080E023
:10407000DF91CF911F910F910895CF92DF92EF9230
:10408000FF920F931F93CF93DF93EC016A017B01A3
:1040900089018A81833039F089E0CC0CDD1CEE1C6B
:1040A000FF1C8A95D1F7CE0120DEA701960161E1C0
:1040B000CE019CDE81111EC0CE01AEDF8823D1F07F
:1040C0008FEF8EBDF801D801A150BE4F0DB407FE91
:1040D000FDCF9EB591938EBDEA17FB07B9F70DB4DE
:1040E00007FEFDCF8EB58C93CCDDCBDDCE01F0DDB0
:1040F00081E003C0CE01ECDD80E0DF91CF911F9124
:104100000F91FF90EF90DF90CF900895CF93DF93C2
:10411000EC016EBDFA01CA019E5F0DB407FEFDCF32
:1041200020812EBD0DB407FEFDCF21812EBD32961C
:10413000E817F90791F70DB407FEFDCF8FEF9CDD6F
:104140008FEF9ADD9EDD8983982F9F7181E09530F6
:1041500009F080E0DF91CF910895CF92DF92EF9246
:10416000FF920F931F93CF93DF93EC016A017B01C2
:104170008901452B462B472B71F18A81833039F019
:1041800089E0CC0CDD1CEE1CFF1C8A95D1F7CE011A
:10419000ACDDA701960168E1CE0128DE81111BC0CC
:1041A000A8016EEFCE01B2DF8823A9F068E572E0C6
:1041B000CE01F0DD882379F020E030E0A9016DE048
:1041C000CE0114DE811107C05CDD811104C0CE0177
:1041D0007FDD81E003C0CE017BDD80E0DF91CF9108
:1041E0001F910F91FF90EF90DF90CF900895E2EF35
:1041F000F3E080E58083118208950895CF93DF93E3
:10420000EC019C012B5F3F4F41E050E060E070E02B
:104210008A8D9B8D0E949E2A8823A1F08E899F897A
:10422000A88DB98D892B8A2B8B2B59F48D819E817A
:10423000AF81B8858E8B9F8BA88FB98F8B8180685B
:104240008B8381E0DF91CF910895CF92DF92EF923F
:10425000FF921F93CF93DF93EC01D0DF811102C057
:1042600080E049C0EA8DFB8DCD80DE80EF80F88450
:1042700082E0C81AD108E108F108058404C0CC0C1A
:10428000DD1CEE1CFF1C0A94D2F786859785A08959
:10429000B189C80ED91EEA1EFB1E148181E0C81A1E
:1042A000D108E108F108112359F0C701B601610FE7
:1042B000711D811D911D95D7882391F21150F3CF67
:1042C000EA8DFB8D80E092E0A0E0B0E0058404C0C0
:1042D000880F991FAA1FBB1F0A94D2F74A895B89CE
:1042E0006C897D89840F951FA61FB71F8A8B9B8BB6
:1042F000AC8BBD8B81E0DF91CF911F91FF90EF9050
:10430000DF90CF900895CF93DF93EC01462F6D851A
:104310007E858F8598892BD7882341F0898920E273
:10432000829FC001112483509C4F02C080E090E026
:10433000DF91CF910895FB019B01255F3F4F40E244
:104340004193E217F307E1F7DC0190E027E08D915C
:10435000882319F18E3229F42A3021F198E02AE0DD
:10436000F6CFE7EAF3E03491332321F0319683135B
:10437000FACF18C02917B0F03FED380F3E3590F452
:1043800031E0390FFB01E90FF11D9FE9980F9A31D8
:1043900008F480528083932FDACF81E0FB01908173
:1043A000903209F480E008950F931F93CF93DF9329
:1043B000FC012481222311F080E041C08B01EC013B
:1043C000FB0187898031B1F482E08C831E8A1F8AC9
:1043D000188E198E808D918DA0E0B0E025E0880FB9
:1043E000991FAA1FBB1F2A95D1F78A8B9B8BAC8B79
:1043F000BD8B14C0803201F783E08C83FB01428DBA
:10440000538D648D758D4E8B5F8B688F798F9E0178
:104410002E5E3F4FC8018AD7882371F21B8F0A8F07
:1044200081E08B831D821E821F82188619861A8660
:104430001B861C861D861E861F86188A198ADF9198
:10444000CF911F910F9108952F923F924F925F92BB
:104450006F927F928F929F92AF92BF92CF92DF9294
:10446000EF92FF920F931F93CF93DF9300D000D072
:1044700000D0CDB7DEB79E838D835B01DC0114963F
:104480008C91811105C06FEF7FEF8FEF9FEF0DC112
:10449000ED81FE81838180FFF6CFAD81BE81529692
:1044A000CD90DD90ED90FC90559719960D911D9152
:1044B0002D913C911C97CA01A0E0B0E02601370184
:1044C000401A510A620A730A481659066A067B06A0
:1044D00018F4A601401B510B6A01E12CF12C498311
:1044E000DA82EB82FC822D803E80F5E02F0E311CBB
:1044F000812C42E0942EC114D104E104F10409F4AA
:1045000099C0AD81BE8119964D915D916D917C915F
:104510001C978A01117014962C9114975A968D91BC
:104520009C915B972A013B0139E0769467945794FC
:1045300047943A95D1F7223061F4FC01828D938D36
:10454000A48DB58DBC01CD01640D751D861D971D13
:1045500049C0DC0114962C912150722E7420011553
:104560001105F1F471101CC0452B462B472B59F453
:10457000ED81FE8186899789A08DB18D8583968393
:10458000A783B0870DC0AD81BE8115964D915D9119
:104590006D917C911897910147D6882309F473CFC8
:1045A000ED81FE81228D338D85819681A781B08535
:1045B0000297A109B109F901058404C0880F991F68
:1045C000AA1FBB1F0A94D2F7468557856089718957
:1045D000840F951FA61FB71FBC01CD01670D711D6C
:1045E000811D911D9401201B310B40E050E02601FC
:1045F00037012C153D054E055F0514F429013A01DC
:10460000AD81BE8113962C9126FD06C04114B2E007
:104610005B0661047104B1F5209100013091010144
:1046200040910201509103016217730784079507B7
:1046300031F428C069817A818B819C8136C09501D3
:10464000AB01BC018091FB039091FC0316DD882334
:1046500009F419CFA40CB51C02C0A20EB31EED8143
:10466000FE8181859285A385B485840D951DA61D47
:10467000B71D81879287A387B487C418D508E60839
:10468000F70839CF40E073D5882309F4FCCE9201B6
:10469000F801E350FC4FD501CF01840D951D8E1715
:1046A0009F07D9F241914D93FACF26960FB6F89411
:1046B000DEBF0FBECDBFDF91CF911F910F91FF9055
:1046C000EF90DF90CF90BF90AF909F908F907F90B2
:1046D0006F905F904F903F902F900895FF920F93AF
:1046E0001F93CF93DF931F92CDB7DEB7FC012481D8
:1046F000223018F480E090E037C08C01FC01818505
:104700009285A385B48525E0B695A795979587955D
:104710002A95D1F7F82FFF70FF2E41E050E0BE013F
:104720006F5F7F4FC80190DE613071058105910593
:1047300019F4298130E002C02FEF3FEF2F3F3F4FA8
:10474000C9F2F8014185528563857485415E5F4FEA
:104750006F4F7F4F4187528763877487F0E2FF9ED8
:10476000C001112483509C4F0F90DF91CF911F9176
:104770000F91FF9008958F929F92AF92BF92CF9228
:10478000DF92EF92FF920F931F93CF93DF93EC0191
:104790008C81811102C080E077C00A891B892C8935
:1047A0003D890417150726073707A8F36A017B011F
:1047B000823029F4C986DA86EB86FC860DC0C114E6
:1047C000D104E104F10451F41D821E821F82188677
:1047D00019861A861B861C8681E056C089849A84B5
:1047E000AB84BC84EA8DFB8D258530E0275F3F4F8D
:1047F000B501A4014150510961097109022E04C09B
:1048000076956795579547950A94D2F7D701C601D3
:104810000197A109B10904C0B695A7959795879509
:104820002A95D2F784179507A607B70720F089289D
:104830008A288B2871F44E895F89688D798D4D8324
:104840005E836F8378874C015D018E010B5F1F4F84
:1048500015C0841B950BA60BB70BF5CF4D815E8160
:104860006F81788598018A8D9B8DDED491E0891ABD
:104870009108A108B108882309F48DCF811491040F
:10488000A104B10459F796CFDF91CF911F910F91F9
:10489000FF90EF90DF90CF90BF90AF909F908F9060
:1048A00008950F931F93CF93DF93EC018C8188239E
:1048B000B9F18B8187FF2FC061E0CE0124DD8C012F
:1048C000892B71F18C81823048F48A899B89AC896B
:1048D000BD89F801848F958FA68FB78F8E899F89A8
:1048E000A88DB98DF801938F828FB58BA48BE09141
:1048F000F403F091F503309759F0B8016A5E7F4FE9
:10490000C80148960995F801808D918D938B828B13
:104910008B818F778B83DF91CF911F910F91EEC3A6
:1049200080E0DF91CF911F910F910895CF93DF9396
:10493000EC01B7DF882311F01C8281E0DF91CF9179
:1049400008954F925F926F927F928F929F92AF9253
:10495000BF92EF92FF920F931F93CF93DF9300D0FC
:1049600000D0CDB7DEB7FC0184818130E1F48381D2
:1049700081FF19C082899389A489B5898417950715
:10498000A607B70780F0892B8A2B8B2B09F472C0FE
:104990004A015B017F014184528463847484CF01A6
:1049A000EADE811102C080E066C0F701828D938D3E
:1049B00081149104A104B10469F446895789608D7A
:1049C000718DCDD6882379F3F701168A178A108E58
:1049D000118E37C0F70145815681678170859E0130
:1049E0002F5F3F4F21D48823F1F249815A816B8197
:1049F0007C81F701828D938DFC012789203129F07C
:104A000008EF1FEF2FEF3FE004C008EF1FEF20E09B
:104A100030E0401751076207730798F4A0D6882347
:104A200009F4C1CFF70145815681678170850FEF89
:104A30001FEF2FEF3FE0828D938DE0D4882309F4A0
:104A4000B2CFF701828A938AA48AB58A838180686B
:104A50008383C70126DF882309F4A5CFB501A4010C
:104A6000481459046A047B0410F4B301A201C7017D
:104A700082DE01C081E00F900F900F900F90DF91C8
:104A8000CF911F910F91FF90EF90BF90AF909F90AB
:104A90008F907F906F905F904F9008951F93CF936A
:104AA000DF93EC0180E2689FF0011124E350FC4F9A
:104AB0009385917129F0842F827411F080E050C0A9
:104AC000142F698B8091000190910101A091020146
:104AD000B09103018D879E87AF87B88B4489558934
:104AE00060E070E0BA0155274427828D938DA0E0E5
:104AF000B0E0482B592B6A2B7B2B4E8B5F8B688F3A
:104B0000798F8385887151F4848D958DA68DB78DAD
:104B10008A8B9B8BAC8BBD8B81E00BC0803171F697
:104B20009E012E5E3F4F8A8D9B8D00D4882331F2EB
:104B300084E08C83812F8F708B831D821E821F8265
:104B4000188619861A861B861C8616FF08C040E048
:104B500050E0BA01CE01DF91CF911F91F2CE81E0FA
:104B6000DF91CF911F910895BF92CF92DF92EF9284
:104B7000FF920F931F93CF93DF93CDB7DEB72B97A1
:104B80000FB6F894DEBF0FBECDBFFC0134813111EA
:104B9000B9C0C22E8B017C01BE016F5F7F4FCA017D
:104BA000CADB882309F4AEC0F801828D938DF7012A
:104BB000938F828FF80115821682178210861186D4
:104BC000128613861486D12CF80181859285A385DF
:104BD000B485428953896489758984179507A60726
:104BE000B70708F03DC025E0B695A795979587953E
:104BF0002A95D1F7F82FFF70BF2EC8016FDD0097FF
:104C000009F480C0FC0120812223A1F0253E09F493
:104C10007BC04BE050E0BC01CE0101960E9484466F
:104C2000892B91F68C2D8073803309F46BC04C2D49
:104C30006B2D65C0D11012C0F701B18A40910001FF
:104C400050910101609102017091030145875687DF
:104C50006787708BFC018081811159C0DD24D3945A
:104C60008C2D8271823109F04DC0DD2039F061E078
:104C7000C70149DB8C01892B71F444C0F8018481A0
:104C8000823009F43FC0C801E0DA8823D9F1F70186
:104C9000118A0DEF13E080E2F80111928A95E9F78D
:104CA0008BE0FE013196D80101900D928A95E1F7D3
:104CB000E091F403F091F503309739F0B801625FA9
:104CC0007F4FC8014096099509C081E298E2F8013A
:104CD000918B808B80E098E097878687F8018089A8
:104CE0009189938B828B918F808F86859785978B07
:104CF000868B04D2882331F04C2DF7016189C701DE
:104D0000CDDE08C080E006C0DD2009F495CFDD24AB
:104D1000D3945ACF2B960FB6F894DEBF0FBECDBFFB
:104D2000DF91CF911F910F91FF90EF90DF90CF9087
:104D3000BF900895CF93DF93EC0140E050E0BA01BB
:104D400000DE882361F061E0CE01DDDA009739F002
:104D500025EEFC0120831C82DF91CF91CFC180E042
:104D6000DF91CF910895CF93DF93CDB7DEB76C97E6
:104D70000FB6F894DEBF0FBECDBFAB011B822AE396
:104D800031E03A8329831D8222E0BC01CE010196E5
:104D9000EBDE882319F0CE010196CCDF6C960FB6BE
:104DA000F894DEBF0FBECDBFDF91CF9108952F9253
:104DB0003F924F925F926F927F928F929F92AF92AB
:104DC000BF92CF92DF92EF92FF920F931F93CF93F8
:104DD000DF9300D000D0CDB7DEB78C016B011A0194
:104DE000DC0114968C9114978130C1F413968C9148
:104DF00081FF14C082FF19C0F80142895389648978
:104E0000758981859285A385B48584179507A60742
:104E1000B70759F0C801AFDC811107C081E0D801A4
:104E200012968C9380E090E042C1410182C05A9674
:104E30008D919C915B97FC0174802FEF270D2A01C7
:104E40003B0139E076946794579447943A95D1F7AB
:104E5000722E74207A01F1E0FF22772009F475C0E8
:104E600080E092E08E199F0954018815990508F495
:104E70005C01D8015A962D913C915B9715968D91C6
:104E80009D910D90BC91A02D0297A109B109F90146
:104E9000058404C0880F991FAA1FBB1F0A94D2F76C
:104EA0004685578560897189840F951FA61FB71F96
:104EB0009C01AD01270D311D411D511D29013A01F4
:104EC000A11432E0B30609F085C0809100019091F1
:104ED0000101A0910201B0910301481659066A062A
:104EE0007B0659F48FEF9FEFDC01809300019093D4
:104EF0000101A0930201B09303019601B301A20145
:104F00008091FB039091FC0328D9882309F486CF74
:104F10009EEFD91A8A189B08F80181859285A3858E
:104F2000B4858A0D9B1DA11DB11D81879287A38722
:104F3000B487D80119964D915D916D917C911C9724
:104F40008114910409F073CF83C0E114F10409F0D6
:104F500087CF15964D915D916D917C911897411574
:104F600051056105710559F456968D919D910D90ED
:104F7000BC91A02D0097A105B10531F520C09E017F
:104F80002F5F3F4F51D1882309F44DCF89819A81FA
:104F9000AB81BC81F801228D338DF9012789203145
:104FA00029F048EF5FEF6FEF7FE004C048EF5FEF5D
:104FB00060E070E084179507A607B70728F0C801DE
:104FC0001DD981114DCF2ACFF80185839683A78300
:104FD000B08746CFE114F10421F5D80119964D911F
:104FE0005D916D917C911C9752968D919D910D9044
:104FF000BC91A02D481759076A077B0790F07ED017
:10500000882309F40BCF4092000150920101609275
:105010000201709203018091FA0381608093FA0388
:1050200007C041E0C301B201A2D0882309F4F6CE43
:10503000D601F701E350FC4F9F012A0D3B1D2E17AF
:105040003F0719F08D918193FACFCA0CDB1C62CF18
:10505000D8015296CD90DD90ED90FC905597139627
:105060008C91C416D506E606F70640F4F801428B8B
:10507000538B648B758B806883830DC02091F40300
:105080003091F503232B39F02114310421F080688D
:10509000D80113968C93F801838183FD02C0C1016E
:1050A00006C0C801FEDB882309F4B8CEF8CF0F9004
:1050B0000F900F900F90DF91CF911F910F91FF9064
:1050C000EF90DF90CF90BF90AF909F908F907F90A8
:1050D0006F905F904F903F902F900895CF93DF9304
:1050E0001F92CDB7DEB7698341E050E0BE016F5F2C
:1050F0007F4F5DDE0F90DF91CF9108958091FA038D
:10510000882399F1409100015091010160910201C1
:10511000709103012DEF33E08091FB039091FC032C
:105120001CD8811102C080E008954091F60350918F
:10513000F7036091F8037091F9034115510561057A
:10514000710589F02DEF33E08091FB039091FC0312
:1051500004D8882341F31092F6031092F7031092BB
:10516000F8031092F9031092FA0381E00895CF92A8
:10517000DF92EF92FF92CF936B017C01C42F80915D
:10518000000190910101A0910201B09103018C15E1
:105190009D05AE05BF05C9F0B1DF811102C080E0F9
:1051A0001AC02DEF33E0B701A6018091FB03909167
:1051B000FC030E943D20882391F3C0920001D0920D
:1051C0000101E0920201F09203018091FA03C82BE1
:1051D000C093FA0381E0CF91FF90EF90DF90CF90E2
:1051E0000895CF92DF92EF92FF926B017C0186DFF0
:1051F0008823A9F0EDEFF3E0119285E0ED3FF80789
:10520000D9F7C0920001D0920101E0920201F09220
:1052100003018091FA0381608093FA0381E0FF909B
:10522000EF90DF90CF9008958F929F92AF92BF92B0
:10523000CF92DF92EF92FF920F931F93CF93DF9362
:10524000FC0181859285A385B4850196A11DB11DC0
:1052500084179507A607B70710F480E05AC0838823
:105260009488A588B6888789803129F4BB27A72F21
:10527000962F852F09C0DB01CA01C7E0B695A79517
:1052800097958795CA95D1F7E9016A017B018F014E
:10529000BC01CD01680D791D8A1D9B1D8090000108
:1052A00090900101A0900201B0900301681579056A
:1052B0008A059B0591F4F8018789803199F4DD24F2
:1052C000EE24FF24C601880F991FFC01E350FC4F18
:1052D00080819181A0E0B0E017C040E048DF8111FB
:1052E000EACFBBCFE894C7F8DD24EE24FF24C60143
:1052F000880F991F880F991FFC01E350FC4F808194
:105300009181A281B381BF7088839983AA83BB8373
:1053100081E0DF91CF911F910F91FF90EF90DF908F
:10532000CF90BF90AF909F908F9008954F925F92D3
:105330006F927F92AF92BF92CF92DF92EF92FF92E5
:105340000F931F93CF93DF9300D000D0CDB7DEB77C
:105350008C0149835A836B837C835901C12CD12CE6
:105360007601412C82E0582E612C712C49815A81A2
:105370006B817C819E012F5F3F4FC80155DF8823E1
:1053800051F1D301C201F801058404C0880F991FAF
:10539000AA1FBB1F0A94D2F7C80ED91EEA1EFB1E15
:1053A00049815A816B817C818789803129F088EF1E
:1053B0009FEFAFEFBFE004C088EF9FEFA0E0B0E049
:1053C000481759076A077B0788F2F501C082D18226
:1053D000E282F38281E00F900F900F900F90DF91A7
:1053E000CF911F910F91FF90EF90DF90CF90BF90E2
:1053F000AF907F906F905F904F9008954F925F9223
:105400006F927F928F929F92AF92BF92CF92DF92D4
:10541000EF92FF920F931F93CF93DF93EC014230F3
:1054200051056105710510F480E077C089859A8582
:10543000AB85BC850196A11DB11D84179507A607F4
:10544000B70790F3CB88DC88ED88FE888F898031A0
:1054500029F4BB27A72F962F852F09C0DB01CA018E
:10546000E7E0B695A79597958795EA95D1F7480116
:1054700059012A013B01C80ED91EEA1EFB1E80916C
:10548000000190910101A0910201B0910301C816A1
:10549000D906EA06FB0681F48F898031A1F4B301B5
:1054A000A201552766277727440F551FFA01E350BD
:1054B000FC4F9182808218C040E0C701B60157DEE0
:1054C0008111EACFB1CFB301A2014F7755276627EB
:1054D0007727440F551F440F551FFA01E350FC4F27
:1054E00080829182A282B3828091FA03816080934C
:1054F000FA038A89823080F08D819E81AF81B885E0
:10550000C80ED91EEA1EFB1EC092F603D092F70306
:10551000E092F803F092F90381E0DF91CF911F91BF
:105520000F91FF90EF90DF90CF90BF90AF909F9042
:105530008F907F906F905F904F9008952F923F9241
:105540004F925F926F927F929F92AF92BF92CF9253
:10555000DF92EF92FF920F931F93CF93DF93CDB71C
:10556000DEB760970FB6F894DEBF0FBECDBF5C010B
:1055700049875A876B877C871901D901CD90DD90C7
:10558000ED90FC90C114D104E104F10431F0BFEFBF
:10559000CB1ADB0AEB0AFB0A10C0FC01C080D180E9
:1055A000E280F3809924939409851A852B853C85A4
:1055B000013011052105310509F0912CF501818596
:1055C0009285A385B4858C019D010F5F1F4F2F4FDE
:1055D0003F4F0D871E872F87388B260137011D828D
:1055E0001E821F821886F50181859285A385B48568
:1055F0000D811E812F813885081719072A073B075F
:1056000008F054C02D853E854F85588924153505F1
:105610004605570550F482E0482E512C612C712C20
:1056200092E0C92ED12CE12CF12C9E012F5F3F4F2F
:10563000B301A201C501F8DD8823C1F149815A8176
:105640006B817C81D301C2010196A11DB11D452B47
:10565000462B472B19F06C017D010FC0AC01BD0139
:105660004C195D096E097F0909851A852B853C85D2
:10567000041715072607370779F02D813E814F81E2
:1056800058852F5F3F4F4F4F5F4F2D833E834F8392
:1056900058872C013D01A7CF0FEF1FEF2FEF3FE001
:1056A000B301A201C501AADE811117C080E03FC08D
:1056B000D301C2010197A109B1098D839E83AF83F4
:1056C000B88793018201AC01BD01C50197DE882333
:1056D00069F34D805E806F807884C414D504E6043D
:1056E000F70430F3D1014D915D916D917C9141159D
:1056F00051056105710599F4F101C082D182E28200
:10570000F382992099F0FFEFCF1ADF0AEF0AFF0A20
:10571000D501CD92DD92ED92FC92139707C09701CF
:105720008601C5016BDE8111E7CFC0CF81E06096B5
:105730000FB6F894DEBF0FBECDBFDF91CF911F91A2
:105740000F91FF90EF90DF90CF90BF90AF909F9020
:105750007F906F905F904F903F902F900895AF9201
:10576000BF92CF92DF92EF92FF920F931F93CF934E
:10577000DF9300D000D0CDB7DEB75C016A017B01BA
:1057800082E090E0A0E0B0E0F50180839183A28305
:10579000B3839E012F5F3F4FB701A601C50144DDD2
:1057A000882309F100E010E09801B701A601C501C6
:1057B00025DE8823C1F0C980DA80EB80FC80F5010A
:1057C0008789803129F088EF9FEFAFEFBFE004C0F9
:1057D00088EF9FEFA0E0B0E0C816D906EA06FB0606
:1057E000C0F281E001C080E00F900F900F900F9009
:1057F000DF91CF911F910F91FF90EF90DF90CF90AD
:10580000BF90AF9008958F929F92AF92BF92CF9228
:10581000DF92EF92FF920F931F93CF93DF93EC01F0
:10582000142F7093FC036093FB03442361F1453014
:1058300010F080E0F0C040E060E070E0CB0197DC69
:105840008823B9F320E1129FA001112443515C4F3A
:10585000FA01E254FE4F80818F7759F73C968081A0
:105860009181A281B38184369105A105B10508F328
:105870003497C080D180E280F380C114D104E10468
:10588000F10421F4D6CFC12CD12C760140E0C70120
:10589000B6016DDC882369F28091080490910904B7
:1058A0008115924031F690910D04992309F4C1CFEE
:1058B00020910B0430910C04232B09F4BACF809172
:1058C0000A04882309F4B5CF9A8B8C831D8690E057
:1058D00041E050E02D85E22FBA01022E02C0660F92
:1058E000771F0A94E2F78617970731F031E0320FFD
:1058F0003D87283078F39DCF209113043091140414
:105900002115310519F040E050E008C02091210434
:105910003091220440912304509124042D833E832E
:105920004F83588780910B0490910C0446015701D6
:10593000880E991EA11CB11C8B8A9C8AAD8ABE8AD6
:1059400000910E0410910F04198F088FA0910D047F
:10595000B0E00E94F744860E971EA81EB91E8A8EDC
:105960009B8EAC8EBD8E85E0000F111F8A95E1F7EE
:1059700001501E4F012F11270695800E911EA11C6C
:10598000B11C8E869F86A88AB98A20911004309116
:1059900011042115310521F0A90160E070E008C073
:1059A00040911D0450911E0460911F0470912004C9
:1059B000D701C60188199909AA09BB09840F951F47
:1059C000A61FB71F04C0B695A79597958795EA952A
:1059D000D2F789879A87AB87BC87853F2FE09207EC
:1059E000A105B10510F48CE014C0853F9F4FA105BF
:1059F000B10510F480E10DC08091290490912A0432
:105A0000A0912B04B0912C048A8F9B8FAC8FBD8FFB
:105A100080E28F8B81E0DF91CF911F910F91FF90FA
:105A2000EF90DF90CF90BF90AF909F908F900895B0
:105A3000CF93DF93EC01BED486E491E09983888311
:105A400080EA90E098878F8380E890E09A87898742
:105A5000DF91CF910895CF93DF93EC0153D661E0AE
:105A6000CE01DF91CF910C9470352F923F924F92DF
:105A70005F926F927F928F929F92AF92BF92CF92DE
:105A8000DF92EF92FF920F931F93CF93DF9300D09B
:105A900000D000D0CDB7DEB72C017E836D836A01C4
:105AA0005901C801FC82EB824801841A950A97FECD
:105AB00003C091948194910835012D813E81621A31
:105AC000730A77FE03C071946194710868147904B5
:105AD0005CF43A2D2B2D5C01832F922F3D812E817A
