:100000000C942A060C9449060C9449060C94490653
:100010000C9449060C9449060C9449060C94490624
:100020000C9449060C9449060C941F260C94F62651
:100030000C941A210C9449060C9449060C94490618
:100040000C9449060C9449060C9449060C944906F4
:100050000C9449060C9465210C9449060C944906AD
:100060000C9449060C94C80A0C949E0A0C944906F8
:100070000C9449060C9449060C9449060C944906C4
:100080000C9449060C9449060C9449060C944906B4
:100090000C9449060C9449060102E00102E1750145
:1000A00003E10103E0323061630A000102E2010270
:1000B000E1320103E10103E2000102E20101620118
:1000C000015901015A0101600103E2000102E0014E
:1000D00002E1750103E10103E066610A000102E249
:1000E000650103E275000102E201016201015A01AA
:1000F000015D0101620103E2000102E00102E1751C
:100100000103E10103E064610A000102E265010309
:10011000E255000102E201016201015A01015901A7
:1001200001600103E2000102E00102E1750103E167
:100130000103E066330A000102E2650103E26F0099
:100140000102E201016201015A01015C01015B014E
:1001500003E2000102E00102E1750103E10103E0B5
:1001600064330A000102E2650103E24F000102E28A
:1001700001016201015A0101590101590103E20023
:100180000102E00102E1750103E10103E065640A97
:10019000000102E2650103E269000102E20101627D
:1001A00001015A01015B01015F0103E2000102E06C
:1001B0000102E1750103E10103E063640A00010249
:1001C000E2650103E249000102E201016201015A14
:1001D00001016201015D0103E2000102E00102E1AF
:1001E000750103E10103E063390A000102E26501E0
:1001F00003E245000102E201016201015A010162CC
:100200000101590103E2000102E00102E17501036D
:10021000E10103E063310A000102E2650103E2410A
:10022000000102E201016201015901016101015B6A
:100230000103E20001012D000102E101012D010392
:10024000E100010137000102E10101370103E10092
:100250000102E10101330103E10001013600010265
:10026000E10101360103E100010133000102E10176
:1002700001200103E1000102E101011F0103E1008E
:100280000102E101012E0103E10001013000010240
:10029000E10101250103E10001012F000102E1015B
:1002A00001230103E10001013400010138000101D3
:1002B000270001012E000101260001012700010194
:1002C000250001012600010124000101380001017F
:1002D0002300010124000101200001011F00010190
:1002E00034000102E00102E1750103E10103E06570
:1002F000390A000102E2650103E265000102E20140
:10030000016201015A01015B01015B0103E200018D
:1003100002E00102E1750103E10103E065310A0039
:100320000102E2650103E261000102E201016201F2
:10033000015A01015A01015D0103E2000102E001DD
:1003400002E1750103E10103E066390A000102E2FE
:10035000600103E275000102E201016201015A013C
:10036000015C0101610103E2000102E00102E175AB
:100370000103E10103E064390A000102E2600103C4
:10038000E255000102E201016201015A0101590135
:10039000015F0103E2000102E00102E1750103E1F6
:1003A0000103E066320A000102E2600103E26F002D
:1003B0000102E201016201015A01015C01015A01DD
:1003C00003E2000102E00102E1750103E10103E043
:1003D00064320A000102E2600103E24F000102E21E
:1003E00001016201015A0101590101620103E200A8
:1003F0000102E00102E1750103E10103E065630A26
:10040000000102E2600103E269000102E20101620F
:1004100001015A01015B01015E0103E2000102E0FA
:100420000102E1750103E10103E063630A000102D7
:10043000E2600103E249000102E201016201015AA6
:1004400001016201015C0103E2000102E00102E13D
:10045000750103E10103E065380A000102E2600171
:1004600003E265000102E201016201015A01015B40
:1004700001015A0103E2000102E00102E1750103FA
:10048000E10103E063380A000102E2600103E24592
:10049000000102E201016201015A010162010162EF
:1004A0000103E2000102E00102E1750103E1010341
:1004B000E065300A000102E2600103E2610001022E
:1004C000E201016201015A01015A01015C0103E2EA
:1004D000000102E00102E1750103E10103E0633084
:1004E0000A000102E2600103E241000102E20101AF
:1004F0006201015901016101015A0103E200010297
:10050000E00102E1750103E10103E062300A00014C
:1005100002E20102E1380103E10103E2000102E22B
:1005200001016201015901015F01015E0103E20065
:100530000102E00102E1750103E10103E065370A10
:10054000000102E2630103E2000102E20101620133
:10055000015A01015B0101590103E2000102E001BE
:1005600002E1750103E10103E061370A0036000191
:1005700002E201016201015901015E01015F010313
:10058000E2000102E00102E1750103E10103E06123
:10059000330A000102E2330103E2000102E2010139
:1005A0005901015D01015E0103E20057696E646F4C
:1005B0007773004D61634F53004C696E7578005539
:1005C0004900495400454E00430B29003A003B00C6
:1005D0003C003D003E003F0040004100420043001F
:1005E00044004500115004513A0B3B0B3C0B3D0BB2
:1005F0001D011C0135001E001F00210022002300E8
:1006000024002500260027002D002A0046004B006C
:1006100000005400550056003E0B3F0B2B00140009
:100620001A00200015001C0018000C001200130016
:100630002F002E0049004A0053006000610057005F
:100640001B01400B390004001600080009001700C8
:100650000D000E000F003300340030004C004D0040
:100660005F005D005E0058000601410BE1001D00C7
:100670001B00070019000A000B00100037003800AB
:10068000E5002800310052004E005C005B00630072
:100690001901420BE000E200E30006002C00050017
:1006A000110036000351E600E700E400500051005D
:1006B0004F0059005A0062000100010001000100D2
:1006C0000100010001000100010001000100010022
:1006D00001000100125001000100010001000100B1
:1006E0000100010031000100165D01000100185DEC
:1006F000195D1A5D1B5D1C5D265D01000100010096
:1007000000000100010001000100010001000100E2
:100710000100175D0100010001000100010001005E
:100720001E5D1F5D010001000100010001000100CC
:1007300001000100010001000100010001000100B1
:10074000010001000100205D1D5D225D010001002E
:100750000100010001000100010001000100010091
:10076000010001000100010001000100255D235D81
:1007700001000100215D01000100010001000100F4
:100780000100010001000100010001000100010061
:100790000100245D010001000100010001000100D1
:1007A0000100010001000100010001000100010041
:1007B0000100010001000100010001000100010031
:1007C00001000100105001000100010001000100C2
:1007D0000100010035001E001F002100220023003F
:1007E00024002500260027002D0001000100010043
:1007F00000000100010001000100010001000100F2
:1008000001002000010001000100010001000100C1
:100810002F002E0001000100010001000100010075
:1008200001000100010001000100010001000100C0
:10083000010001000100330034003000010001001C
:1008400001000100010001000100010001000100A0
:100850000100010001000100010001003700380023
:100860000100010031000100010001000100010050
:100870000100010001000100010001000100010070
:10088000010036000100010001000100010001002B
:100890000100010001000100B500055D035D045D7C
:1008A0000100010001000100010001000100010040
:1008B00001000100085D0100010001000100005C71
:1008C00001001D030100010001000A5D010001009B
:1008D0000100010001000100010001000100010010
:1008E0000000010001000100010001000100010001
:1008F0000100010001000100105D0E5D0F5D0100AF
:1009000001000100010001000100010001000100DF
:100910004C02010001000C5D01000D5D01000100B1
:1009200001000100010001000100010001000100BF
:100930000100010001000100490101000100010066
:1009400001000100010001000100A80001000100F8
:10095000010001000B5D0100010001000100010028
:100960004902010001000100010001000100010035
:10097000010001000100010001000100010001006F
:10098000010001000100010001000100065D075D9A
:10099000010001000100010001000100010001004F
:1009A000010001000100010001000100010001003F
:1009B000010001000100010001000100010001002F
:1009C000010001000100010001000100010001001F
:1009D0000000010001000100010001000100010010
:1009E00001000100010001000100010001000100FF
:1009F00001000100010001000100010001000100EF
:100A000001000100010001000100010001000100DE
:100A100001000100010001000100010001000100CE
:100A200001000100010001000100010001000100BE
:100A300001000100010001000100010001000100AE
:100A4000010001000100010001000100010001009E
:100A5000010001000100010001000100010001008E
:100A6000010001000100010001000100010001007E
:100A70000100010001000100000000000000000072
:100A80002A2B2800000000000000000000000000E9
:100A900000000029000000002C1E342021222434F4
:100AA0002627252E362D3738271E1F2021222324C6
:100AB00025263333362E37381F0405060708090A62
:100AC0000B0C0D0E0F101112131415161718191AFE
:100AD0001B1C1D2F3130232D350405060708090A7C
:100AE0000B0C0D0E0F101112131415161718191ADE
:100AF0001B1C1D2F3130354C000000000000000091
:100B00000000000000000000000000007E0F00D484
:100B1000FFFFFFC7000000780403300000002C0333
:100B2000460061007400200042006F0074007400F1
:100B30006F006D006500640020004B0065007900C7
:100B400062006F0061007200640000000803420050
:100B500065006E0000000403090409023B00020165
:100B600000A0FA090400000103010100092111019C
:100B700000012240000705810308000A0904010062
:100B80000103000000092111010001226D00070589
:100B9000820320000A1201100100000008DE08DEB6
:100BA000C001000102030105010980A101850319AB
:100BB000012AB700150126B700950175108100C004
:100BC000050C0901A101850419012AA002150126BD
:100BD000A002950175108100C005010906A10185DB
:100BE00005050719E029E71500250195087501811C
:100BF000020507190029EF1500250195F0750181FF
:100C000002050819012905950575019102950175DF
:100C1000039101C005010906A101050719E029E7B3
:100C2000150025019508750181029501750881015E
:100C30000507190029FF150026FF00950675088194
:100C400000050819012905950575019102950175A1
:100C5000039101C011241FBECFEFD0E2DEBFCDBF94
:100C600011E0A0E0B1E0EEEDF2E500E00BBF02C064
:100C700007900D92A838B107D9F726E0A8E8B1E0AF
:100C800001C01D92A733B207E1F70E9452230C94D2
:100C900018290C9400000E94E509813041F082304F
:100CA00049F48BE995E00E948F0C80E0089583E978
:100CB00095E0F9CF82E895E0F6CF0E94E509813012
:100CC00041F0823049F48FE695E00E948F0C80E07D
:100CD00008958DE695E0F9CF8CE595E0F6CF0E947A
:100CE000E509813041F0823049F489E495E00E94C1
:100CF0008F0C80E0089581E495E0F9CF80E395E0E2
:100D0000F6CF0E94E509813041F0823049F48DE14F
:100D100095E00E948F0C80E008958FE095E0F9CF78
:100D20008EEF94E0F6CF0E94511E8272A1F00E94D5
:100D3000651E0E94E509813041F0823049F48BEE56
:100D400094E00E948F0C80E0089582EE94E0F9CF49
:100D500081ED94E0F6CF0E94651E0E94E509813086
:100D600029F0823031F48EEB94E0EBCF85EB94E008
:100D7000E8CF84EA94E0E5CF0E94511E8272A1F090
:100D80000E94651E0E94E509813041F0823049F4DD
:100D900081E994E00E948F0C80E0089588E894E057
:100DA000F9CF87E794E0F6CF0E94651E0E94E5091F
:100DB000813029F0823031F484E694E0EBCF8BE58A
:100DC00094E0E8CF8AE494E0E5CF0E94511E82725D
:100DD000A1F00E94651E0E94E509813041F0823039
:100DE00049F487E394E00E948F0C80E008958EE23E
:100DF00094E0F9CF8DE194E0F6CF0E94651E0E9449
:100E0000E509813029F0823031F48AE094E0EBCFBB
:100E100081E094E0E8CF80EF93E0E5CF0E94511E9F
:100E20008272A1F00E94651E0E94E509813041F0A6
:100E3000823049F48DED93E00E948F0C80E008959C
:100E400084ED93E0F9CF83EC93E0F6CF0E94651E2A
:100E50000E94E509813029F0823031F480EB93E083
:100E6000EBCF87EA93E0E8CF86E993E0E5CF0E94F5
:100E7000511E8272A1F00E94651E0E94E509813018
:100E800041F0823049F483E893E00E948F0C80E0C7
:100E900008958AE793E0F9CF89E693E0F6CF0E94C0
:100EA000651E0E94E509813029F0823031F486E523
:100EB00093E0EBCF8DE493E0E8CF8CE393E0E5CFD4
:100EC0000E94E509813041F0823049F489E293E0E3
:100ED0000E948F0C80E0089580E293E0F9CF8FE0CC
:100EE00093E0F6CF0E94E509813041F0823049F469
:100EF0008CEF92E00E948F0C80E0089583EF92E0E7
:100F0000F9CF82EE92E0F6CF0E94511E827231F04C
:100F10008EED92E00E948F0C80E008958AED92E0C1
:100F2000F9CFCF930E94511EC82F827251F00E94B8
:100F3000651E0E944B068C2F0E94621E80E0CF919E
:100F4000089586ED92E00E948F0CF8CF0E94511E0A
:100F5000827231F082ED92E00E948F0C80E0089561
:100F60008EEC92E0F9CFCF930E94511EC82F82726F
:100F700061F00E94651E8AEC92E00E948F0C8C2F1B
:100F80000E94621E80E0CF91089586EC92E00E945C
:100F90008F0CF8CF0E94511E827231F082EC92E0E9
:100FA0000E948F0C80E008958EEB92E0F9CF0E94B2
:100FB000511E827231F08AEB92E00E948F0C80E029
:100FC000089586EB92E0F9CFCF930E94511EC82F6F
:100FD000827261F00E94651E82EB92E00E948F0C8B
:100FE0008C2F0E94621E80E0CF9108958EEA92E0DD
:100FF0000E948F0CF8CF0E94511E827231F08AEA53
:1010000092E00E948F0C80E0089586EA92E0F9CF8A
:10101000CF930E94511EC82F0E94651E8C2F827292
:1010200051F08CE992E00E948F0C8C2F0E94621E7E
:1010300080E0CF9108950E94E506F7CFCF930E94FC
:10104000511EC82F0E94651E8C2F827241F00E9493
:1010500072078C2F0E94621E80E0CF910895C6FD1A
:1010600004C08C2F8570853029F488E992E00E94B5
:101070008F0CEFCF0E94BC06ECCFCF930E94511E85
:10108000C82F0E94651E8C2F827251F08EE892E06C
:101090000E948F0C8C2F0E94621E80E0CF910895D9
:1010A000C6FD04C08C2F8570853019F48AE892E063
:1010B000EFCF80E892E0ECCFCF930E94511EC82F73
:1010C0000E94651E8C2F827241F00E945D068C2F5B
:1010D0000E94621E80E0CF9108950E943707F7CFEB
:1010E000CF930E94511EC82F0E94651E8C2F8272C2
:1010F00041F00E946F068C2F0E94621E80E0CF910B
:101100000895C6FD04C08C2F8570853029F486E7CC
:1011100092E00E948F0CEFCF0E940E07ECCFCF938E
:101120000E94511EC82F0E94651E8C2F827241F0B2
:101130000E9481068C2F0E94621E80E0CF9108954C
:10114000C6FD04C08C2F8570853029F48CE692E0B2
:101150000E948F0CEFCF0E949306ECCFCF930E949A
:10116000511EC82F0E94651E8C2F827251F088E696
:1011700092E00E948F0C8C2F0E94621E80E0CF9123
:101180000895C6FD04C08C2F8570853019F48EE556
:1011900092E0EFCF8AE592E0ECCFCF930E94511E10
:1011A000C82F0E94651E8C2F827251F080E592E05C
:1011B0000E948F0C8C2F0E94621E80E0CF910895B8
:1011C000C6FD04C08C2F8570853019F486E492E04A
:1011D000EFCF82E492E0ECCF0E94511E827231F098
:1011E00088E392E00E948F0C80E0089584E392E00F
:1011F000F9CFCF930E94511EC82F81E0C6FF0FC0C8
:101200000E94651EC27299F00E94E509813049F082
:10121000823051F481E292E00E948F0C80E0CF9105
:10122000089588E192E0F8CF87E092E0F5CFCF9182
:101230000C946007CF930E94511EC82F81E0C6FF17
:101240000FC00E94651EC27299F00E94E5098130AC
:1012500049F0823051F484EF91E00E948F0C80E0DD
:10126000CF9108958BEE91E0F8CF8AED91E0F5CF24
:10127000CF910C947207CF930E94511EC82F81E02A
:10128000C6FF0FC00E94651EC27299F00E94E50958
:10129000813049F0823051F487EC91E00E948F0C4C
:1012A00080E0CF9108958EEB91E0F8CF8DEA91E048
:1012B000F5CF0E94E509813029F0823031F48AE9C6
:1012C00091E0ECCF81E991E0E9CF80E891E0E6CFD1
:1012D000CF930E94511EC82F81E0C6FF0FC00E940D
:1012E000651EC27299F00E94E509813049F0823092
:1012F00051F48DE691E00E948F0C80E0CF9108952B
:1013000084E691E0F8CF83E591E0F5CF0E94E5090E
:10131000813029F0823031F480E491E0ECCF87E332
:1013200091E0E9CF86E291E0E6CFCF930E94511E93
:10133000C82F81E0C6FF0FC00E94651EC27299F0DF
:101340000E94E509813049F0823051F483E191E057
:101350000E948F0C80E0CF9108958AE091E0F8CF51
:1013600089EF90E0F5CF0E94E509813029F08230C5
:1013700031F486EE90E0ECCF8DED90E0E9CF8CEC8F
:1013800090E0E6CF0E94511E86FF14C00E94651EA9
:101390000E94E509813041F0823049F489EB90E008
:1013A0000E948F0C80E008958BEA90E0F9CF88E9E5
:1013B00090E0F6CF81E008950C94F10A0C94F20AC3
:1013C0000C94880B8093880108958091880108957A
:1013D0009B01AC01F89460E079E08DE390E00E941D
:1013E000AB28215031094109510956954795379548
:1013F00027953093CD002093CC0082E08093C800E5
:1014000088E98093C90086E08093CA001092CB01DE
:101410001092CC011092890110928A01789408955B
:1014200060E875E280E090E00E94E8090C94EE0A22
:101430009091CC019F5F983208F090E02091CB0111
:101440002917E1F3E92FF0E0E353FE4F80839093F7
:10145000CC0188EB8093C9000895CF93DF93EC0112
:10146000FE0184912196882361F00E94180AFFEF03
:1014700029EF80E0F15020408040E1F700C00000FB
:10148000EFCFDF91CF910895CF93DF93D82FC92F5E
:101490002FEF81EE94E0215080409040E1F700C0B2
:1014A00000008CE60E94180A2FEF89EF90E021508F
:1014B00080409040E1F700C000008D2F9C2F0E94DB
:1014C0002D0A8AE0DF91CF910C94180A2FEF81EE5C
:1014D00094E0215080409040E1F700C000008FE68A
:1014E0000E94180A2FEF89EF90E021508040904031
:1014F000E1F700C0000080918801882329F0813045
:1015000051F08BEA95E002C089EB95E00E942D0A2C
:101510008AE00C94180A83EB95E0F8CF809188015B
:10152000882329F0813041F01092880103C081E0C6
:10153000809388010C94660A82E0FACF8F938FB76C
:101540008F938BB78F939F93EF93FF939091CC01E1
:101550008091CB0198130CC088E98093C900FF915A
:10156000EF919F918F918BBF8F918FBF8F91189526
:101570008091CB018F5F883208F080E0E82FF0E0A7
:10158000E353FE4F90819093CE008093CB01E7CF41
:101590002F932FB72F932BB72F938F939F93EF9367
:1015A000FF939091CE0080918A018F5F803408F084
:1015B00080E020918901281739F0E82FF0E0E55705
:1015C000FE4F908380938A01FF91EF919F918F91BD
:1015D0002F912BBF2F912FBF2F91189580E00C9446
:1015E000E2090895FC01DB0112968C91882309F42D
:1015F0006CC0E732BDE5FB0708F068C0E8309DE548
:10160000F90788F4E231F10509F459C0B0F4E83083
:10161000F10509F450C0EC30F10509F44EC03497DF
:1016200009F447C00895E850FD45EF31F10508F091
:101630004DC0E65EF64D0C94CD28E831F10509F475
:1016400040C0B19709F43FC008950E948E0A80E01F
:1016500008950C944B060C945D060C9493060C9420
:10166000BC060C94E5060C940E070C9437070C94FA
:1016700084070C9491070C94A6070C94B3070C9460
:10168000CA070C94D7070C94E4070C94FB070C943E
:1016900008080C941E080C943D080C945C080C94EB
:1016A00070080C948F080C94AE080C94CD080C9420
:1016B000EC080C94F9080C941A090C943B090C944E
:1016C00068090C9495090C94C20981E008950F9360
:1016D0001F93CF93DF938B01D82FC92F0E94061F32
:1016E000813081F0823089F0811104C085EC95E071
:1016F0000E94440AB8018D2F9C2FDF91CF911F913A
:101700000F91089582EC95E0F3CF8FEB95E0F0CF49
:10171000089581E0089508950C948B0B1F93CF9347
:10172000DF9300D000D00F92CDB7DEB749835A8344
:101730006B8330914E0589819A8131111DC06623DA
:10174000B9F02223A9F00E94B41D182F682F8981B7
:101750009A810E945D1D69817A81812F0F900F907F
:101760000F900F900F90DF91CF911F910C94FE0C72
:101770000E948B1D182FEFCF0E94B41D69817A81C2
:10178000EDCFFC01262F40815181628173818481DC
:101790000C948E0BCF93DF93D82FC92F60E00E945B
:1017A000C10B6D2F7C2FDF91CF910C948C0BFF928E
:1017B0000F931F93CF93DF93E82FF0E0E858F54F96
:1017C000F490C82FC695C695C695D0E0FE01E85F97
:1017D000F44F0491877010E0082E02C0159507950C
:1017E0000A94E2F701701127C850D54FFE01C49149
:1017F000D0E002C0D595C7958A95E2F7C170DD2784
:101800000115110519F081EE0E94DD14209719F0E1
:1018100086EE0E94DD148F2D0E944915CD2B19F004
:1018200086EE0E942115012B41F081EEDF91CF91D0
:101830001F910F91FF900C942115DF91CF911F9173
:101840000F91FF900895EF92FF920F931F93CF9304
:10185000DF938C01F62E8AE0E82EF801849188232C
:1018600009F456C0813009F04FC0E8012196FE010D
:101870008491813099F42196FE0184910E9449154A
:101880008E010F5F1F4F8F2D882339F3EFE9FFE0A3
:101890003197F1F700C000008150F6CF823039F463
:1018A000E8012296FE0184910E94DD14E9CF833085
:1018B00039F4E8012296FE0184910E942115E0CFBF
:1018C0008430F1F6E8012296FE01249180E090E058
:1018D000FE0131962053330B2A30310550F000972A
:1018E00079F2EFE9FFE03197F1F700C000000197CE
:1018F000F6CFE89EA001E99E500D1124C901840F86
:10190000951F2491EF01E4CF0E94D70BE801B8CFD7
:10191000DF91CF911F910F91FF90EF90089560E0BC
:101920000C94230C0E94511F811102C00E94EE1FD3
:101930000C94100A0C94DC0981E008950C949C0C22
:10194000CF93C82F0E94E0098C2FCF910C949E0C4E
:1019500008950E9411180E94A80C2FEF84E39CE0C8
:10196000215080409040E1F700C000000C94892194
:101970000F931F93CF93DF93EC0161E00E94C10BA3
:101980008C01BE010E94DB12882359F1BE01C801FF
:101990000E94DE09882329F1BE01C8010E94E410DB
:1019A0008823F9F0BE01C8010E9428118823C9F0DC
:1019B000BE01C8010E94FB11882399F08A81882307
:1019C00039F001158CE5180751F00E3D1C4579F0F2
:1019D000CE01DF91CF911F910F910C94890B0E9442
:1019E000A90C80E0DF91CF911F910F9108950E9483
:1019F000EE1FF7CF90E080E008950895972F70E0F4
:101A000024E1929F600D711D1124FB0198E7899FCD
:101A1000E00DF11D1124EE0FFF1FE853FA4F8591E1
:101A200094910895FC01EE0FFF1FE85EF44F85913D
:101A300094910895CF93DF930E94FE0C0E94250E8F
:101A4000EC01811521E5920708F048C0811530E5C9
:101A5000930708F0AFC0803E910518F5803C9105D2
:101A600008F096C0883A910570F4853A910508F01F
:101A70008CC08130910531F10497813A910510F1C4
:101A8000D0E0C0E01FC08F3B9105D1F3C85AD0E031
:101A9000CC0FDD1FCF5EDE4F0990D881C02DD464FE
:101AA00011C0811540E3940788F4C11580E2D8077E
:101AB00008F074C0C83ED10528F0CE019A95811572
:101AC0009F41F0F6CE01DF91CF910895811530E46A
:101AD000930708F466C0DF70D06AF4CF811596458D
:101AE00060F5C11585E5D80708F096C0C11594E5E5
:101AF000D907F0F4C11523E5D20708F079C0C11564
:101B000032E5D30708F46FC0CE018370992721E036
:101B100030E002C0220F331F8A95E2F7C695C695C2
:101B200040E2C49FE0011124C22BD32BDC68CACF52
:101B3000DC2FCC27C46FD06AC5CFC1158AE5D80782
:101B400088F4C11599E5D90708F071C0CE01985500
:101B50008F3F910511F008F093CFDC2FCC27C06F99
:101B6000D06AB0CFCE0190568115904208F088CF50
:101B70008D2F8F710E94BD0E90E0982F88278827A7
:101B80009F719C012C2BE90150C0A497D0649ACF7F
:101B9000805C91090E94120DEC0194CFCE019F70E0
:101BA000F9CF9927D3FF03C0EC01D86C8BCFEC01A0
:101BB000D06C88CF74E0969587957A95E1F783701D
:101BC0002C2F26952695237040E2249F9001112406
:101BD000382B8C2F8370C1E0D0E002C0CC0FDD1F0A
:101BE0008A95E2F7A1CFDC2FCC27C16FD06A6ACFEC
:101BF000CE018370992721E030E002C0220F331F0D
:101C00008A95E2F7C695C69580E2C89FE001112447
:101C1000C22BD32BDA6856CF8C2F0E94BD0EC82F53
:101C2000D0E0DC2FCC27CC27DF71D0624BCF8C2FBC
:101C30008F700E94BD0E34E0D695C7953A95E1F7B6
:101C4000CF70DC2FC82FD0693DCF803E910599F130
:101C5000C8F48133910509F476C048F489329105BE
:101C600009F46AC08A32910509F474C00895893371
:101C70009105D1F082389105B9F08533910509F4C9
:101C800054C00895843E910599F138F4823E91053F
:101C9000F9F0833E910509F10895863E910599F189
:101CA000873E9105B9F10895209105062370A1F0B2
:101CB00080EE90E008952091050620FD52C03091FD
:101CC000060630FF09C024FF4FC090E080E004C04A
:101CD0002091050622FDF7CF08952091050622FDEB
:101CE00046C03091060630FDE3CF24FFF5CFEDCF9F
:101CF0002091060621FFF0CF8091050684FDE5CFF7
:101D000087EE90E008952091050623FFE5CF24FD9E
:101D1000DCCFF6CF2091050623FD2CC030910606BE
:101D200031FFE3CF84EE90E008952091050625FF72
:101D3000D3CF89E290E008952091050625FFCCCF0E
:101D400085E390E008952091050626FFC5CF8AE23D
:101D500090E008952091050626FFBECF81E390E034
:101D6000089589E390E0089583EE90E0089582EE6F
:101D700090E0089586EE90E008959091050692FF18
:101D800006C0282F28712830F9F4877F846093FFDC
:101D900006C0282F28712831F1F4877E84612091B4
:101DA000060620FF06C0382F38713830D9F4877FF7
:101DB000816021FF06C0282F28712831D1F4877E49
:101DC000816194FD877E0895282F24712430F9F6CF
:101DD0008B7F8860DCCF282F2471243101F78B7E24
:101DE0008861DDCF382F3171313019F78E7F8860EF
:101DF000E0CF282F2171213121F78E7E8861E1CF3C
:101E0000CF93DF9300D000D0CDB7DEB794E0899FA9
:101E1000F0011124EB50FE4F80819181A281B381AA
:101E2000BC01CD010F900F900F900F90DF91CF91DB
:101E30000895089580EA8A95F1F70895CF93DF9386
:101E4000C3E5D1E029E531E041E050E08991E82F98
:101E5000E295EF70A1E2AE0FB0E0FC918F70BA0195
:101E600001C0660F8A95EAF7962F90959F239C9361
:101E7000EE5DF0E08081862B80832C173D0731F7E3
:101E8000CFE3D1E023E531E041E050E08991E82F54
:101E9000E295EF70A1E2AE0FB0E0FC918F70BA0155
:101EA00001C0660F8A95EAF7962F90959F239C9321
:101EB000EE5DF0E08081862B80832C173D0731F7A3
:101EC00088E1EDE0F2E0DF01982F1D929A95E9F7A5
:101ED000E5EFF1E0DF011D928A95E9F786E00E94C7
:101EE0003910DF91CF910C94920C2F923F924F9228
:101EF0005F926F927F928F929F92AF92BF92CF929A
:101F0000DF92EF92FF920F931F93CF93DF9300D056
:101F100000D00F92CDB7DEB783E5C82E81E0D82E72
:101F20009DE0E92E92E0F92E712C812C912C540128
:101F30008394F60181916F01F82FF295FF70FB8376
:101F40000F2F0F5D10E0F80190818F7021E030E0DD
:101F500002C0220F331F8A95E2F73A832983822F2A
:101F6000892B80833B813E5D832F90E09D838C8312
:101F7000FC018081622E6094862180830E941A0F6A
:101F8000AFE3B1E090E080E040E050E0BA015D9066
:101F9000E52DE295EF70E05EF0E0208130E0E52D88
:101FA000EF7002C035952795EA95E2F720FD5AC0FB
:101FB00014012501082E04C0220C331C441C551C9E
:101FC0000A94D2F74229532964297529019684314C
:101FD0009105E9F6F801808168226082EC81FD813B
:101FE0008081F9818F2BEC81FD818083F7018081D5
:101FF0009181A281B381481759076A077B07B9F11C
:10200000408351836283738381E0782AF4E0EF0E8A
:10201000F11C29E5C21621E0D20609F08ACF272D4E
:1020200046E065EF71E08DE092E00E943A100E9478
:102030009A0C872D0F900F900F900F900F90DF91BB
:10204000CF911F910F91FF90EF90DF90CF90BF90B5
:10205000AF909F908F907F906F905F904F903F9048
:102060002F900895212C312C412C512CABCF80E0A6
:10207000CCCF0895FF920F931F93CF93DF93F82E49
:10208000092F162FD72FC42F222349F081E08093E8
:1020900027020E944A219093260280932502809174
:1020A00027028823A1F080912502909126020E94A8
:1020B0005621069760F0EF2DF02FA12FBD2F90E055
:1020C00080E0D0E08C179D0744F010922702DF914A
:1020D000CF911F910F91FF9008950191119121913E
:1020E00031910D931D932D933D930196EBCF0F935B
:1020F0001F93CF93DF93C62FD42F022FFC01828131
:102100008823C9F060932A020E944A2190932902F1
:102110008093280280E28C0F883008F050C0C7708E
:1021200081E001C0880FCA95EAF7DF91CF911F9136
:102130000F910C945C1510912A02161335C08091F2
:102140002802909129020E945621883C910560F551
:10215000C0E2CD0F1D17B9F080E2810F883040F446
:10216000177081E001C0880F1A95EAF70E94631585
:10217000C83048F481E09D2F977001C0880F9A9570
:10218000EAF70E945C15802F0E944915C830B8F408
:10219000D77081E001C0880FDA95EAF7DF91CF911F
:1021A0001F910F910C94631580E28C0F883038F4E6
:1021B000C77081E001C0880FCA95EAF7EFCFDF91C1
:1021C000CF911F910F9108959C01CB01233F4CE5C6
:1021D000340769F190F4283DFCE53F0721F1293DE2
:1021E0004CE5340781F1273D3C45B1F0FC0182818B
:1021F000882361F110922A020895253FFCE53F07EC
:10220000D1F0263F4CE53407D1F0243F3C4571F72F
:1022100027E245EE64EE03C026E241EE61EE0E9445
:10222000771080E0089527E245EE65EEF8CF26E2CC
:1022300041EE60EEF4CF26E241EE62EEF0CF27E20F
:1022400045EE66EEECCF28E241E0EFCF81E0089565
:10225000CF93DF93EC01FB018281882309F4C9C08D
:10226000C631FCE5DF07E0F4C2309CE5D907F0F0A9
:102270000E94641F9093060680930506C631ECE524
:10228000DE0720F5C230FCE5DF0798F480910506F3
:10229000909106060E94721F0E94111880E006C0ED
:1022A0009E012A5F3C452930310510F3DF91CF9123
:1022B0000895FE01E350FC45809105068160E331FD
:1022C000F10588F4E75CF64D0C94CD28CA5FDC4537
:1022D000C930D105D8F6C45BD64DFE010C94CD288B
:1022E00080910506826080930506D0CF8091050617
:1022F0008460F9CF809105068860F5CF809106064D
:10230000816080930606C2CF809106068260F9CF75
:10231000809105068061E7CF809105068062E3CF5A
:10232000809105068064DFCF0E9411188091050618
:102330008068D9CF809105068C60D5CF8091060644
:102340008360DFCF809105068E7FCDCF809105061B
:102350008D7FC9CF809105068B7FC5CF8091050603
:10236000877FC1CF809106068E7FCBCF80910606F6
:102370008D7FC7CF809105068F7EB5CF80910506F2
:102380008F7DB1CF809105068F7BADCF0E94111854
:10239000809105068F77A7CF80910506837FA3CF15
:1023A000809106068C7FADCF8091050682FB992730
:1023B00090F921E0922790FB82F990FB83F993CF6B
:1023C00080910606982F909591708E7F892B90FBB7
:1023D00081F997CF0E94111890910506892F97FBDC
:1023E00087F9805880CF81E00E94F01F4FCF80E0B6
:1023F000FBCF81E05BCFCF93DF93EB0186319C4530
:1024000011F50E94511E9A81992399F08A7A91E0E0
:1024100009F490E090932B02811109C089E20E9497
:102420002C1E0E94A31E80E0DF91CF91089585E3CA
:10243000F6CF80912B02811104C089E20E94331EE5
:10244000F0CF85E3FBCF81E0EFCF089508950895A5
:1024500008950F931F93CF93DF93EC018B010E949C
:1024600025120E9411180E94231C08831983DF91F2
:10247000CF911F910F9108958F929F92AF92BF922B
:10248000CF92DF92EF92FF921F93CF93DF93EC01F5
:102490007B01142F8090D2059090D305A090D40595
:1024A000B090D5050E9411180E94231C86E01802E6
:1024B00060011124CE15DF05C1F40E94111880922D
:1024C000D2059092D305A092D405B092D505812F64
:1024D000DF91CF911F91FF90EF90DF90CF90BF9051
:1024E000AF909F908F900C942612CE010E94D71728
:1024F000CC0DDD1DDFCFEF92FF920F931F93CF9393
:10250000DF937C01EB01BA01822FF801A881B98128
:102510009281911103C0EA16FB06A9F096E08902A8
:1025200090011124AD01421B530B6417750791F004
:1025300086E001900D928A95E1F788819981820F5A
:10254000931F99838883DF91CF911F910F91FF9003
:10255000EF900895BF01DF91CF911F910F91FF90F0
:10256000EF900C942712CF92DF92EF92FF921F937D
:10257000CF93DF936C01EB01142F7901842F0E941C
:1025800028128AEF1802A0011124CC15DD0531F0C4
:10259000FE01E40FF51F828181110BC0F701D18389
:1025A000C083DF91CF911F91FF90EF90DF90CF908C
:1025B0000895EF01EACF0F931F93CF939C01FB0186
:1025C00080912E0581113CC0C281C11122C02630EC
:1025D0004DE5340759F148F423304DE5340781F0D7
:1025E00024303D45D9F0C1E014C027303D45D9F72E
:1025F00060910001709101014FEF86E295E01DC0EE
:102600006CE272E08CE295E00E94291281E08093F6
:102610002E058C2FCF911F910F91089566E275E0E2
:102620008CE295E00E94291282E0F1CF60910201D4
:102630007091030141E08CE292E00E943C12E9CFEC
:10264000A90143505D454330510530F591E02530F7
:102650003D4509F490E02281291731F0813031F0B5
:10266000823081F010922E05C0E0D3CF60912C050E
:1026700070912D0522E031E041E08CE292E00E9471
:10268000B312F0CF60912C0570912D0520E031E060
:102690004FEF86E295E0F3CF813071F0823009F0A0
:1026A000A2CF40910201509103018B012FEF6CE208
:1026B00075E086E295E00AC0409100015091010169
:1026C0008B0121E06CE275E08CE292E00E947B12CB
:1026D0008ACF90933405809333050895E0913305B4
:1026E000F0913405309721F00190F081E02D0994AC
:1026F00080E00895DC01E0913305F09134053097D6
:1027000099F080911001882351F08091050687FF90
:1027100006C08C9111968C93119785E08C93028062
:10272000F381E02DCD010994089520913105309178
:1027300032052817390771F09093320580933105DF
:10274000E0913305F0913405309721F00680F78150
:10275000E02D0994089520912F0530913005281718
:10276000390771F09093300580932F05E091330580
:10277000F0913405309721F00084F185E02D099423
:10278000089585B7806885BF85B7806885BF08953F
:10279000089508950C94C81308950C94CC130E94C6
:1027A000C1130E94C9130C94CA1381E008950C94BC
:1027B000D5130E9441210E941E0F0E94BB210C9440
:1027C000CD134F925F926F927F929F92AF92BF9282
:1027D000CF92DF92EF92FF920F931F93CF93DF93ED
:1027E00000D000D00F92CDB7DEB70E94750F0E94C7
:1027F000D713882309F48DC046E3A42E45E0B42EF8
:1028000010E000E0902E802F0E94000F6B017C01F1
:10281000F50141905190619071905F014C145D04FD
:102820006E047F0409F46FC08091FF0581FD0E9452
:10283000190FB301A2014C255D256E257F2520E0EF
:10284000412C512C32014394DB01CA018421952192
:10285000A621B721892B8A2B8B2B09F44CC0298305
:102860009A82C420D520E620F72081E0CD28CE280A
:10287000CF2809F480E08B830E944A218160782F61
:102880009D838C8349815A816B818D810E94AF1415
:10289000000F111F000F111FF801EA5CFA4F808131
:1028A0009181A281B38184259525A625B7258083B2
:1028B0009183A283B3830E946E139091350589178B
:1028C000C9F10E946E13809335050F900F900F9001
:1028D0000F900F90DF91CF911F910F91FF90EF908C
:1028E000DF90CF90BF90AF909F907F906F905F9060
:1028F0004F900C94A00C2F5F440C551C661C771C49
:10290000243109F0A1CF0F5F1F4F0630110509F0E8
:1029100079CF8FEF89838A831B820E944A2181604D
:10292000782F9D838C8349815A816B818D810E9490
:10293000AF14C1CF0F900F900F900F900F90DF91B9
:10294000CF911F910F91FF90EF90DF90CF90BF90AC
:10295000AF909F907F906F905F904F900895CF932E
:10296000DF93CDB7DEB72B970FB6F894DEBF0FBE5F
:10297000CDBF4F83588769877A878B871E8285E012
:10298000FE013796DE01119601900D928A95E1F7CE
:1029900049815A816B817C818D819E812B960FB6F6
:1029A000F894DEBF0FBECDBFDF91CF910C94731AA8
:1029B000FC01808191810C94F61DCF93C82F882350
:1029C000F1F18CEF8C0F813AA0F46C2F809104010F
:1029D000909105010E940920882329F08C2F0E94E4
:1029E000331E0E94A31E8C2F0E942C1ECF910C948C
:1029F000A31E80E28C0F883048F4C77081E001C0CC
:102A0000880FCA95EAF70E94541EF0CF8BE58C0F11
:102A1000833038F42C2F2452330BC901CF910C94FE
:102A20009513C85AC73158F4EC2FF0E0EE0FFF1F92
:102A3000E75AFE4F80819181CF910C94AB13CF91D7
:102A40000895882329F19CEF980F913A20F40E9471
:102A5000331E0C94A31E90E2980F983050F48770A8
:102A600091E001C0990F8A95EAF7892F0E945A1EBA
:102A7000F0CF9BE5980F933020F490E080E00C9429
:102A80009513885A873120F490E080E00C94AB13C2
:102A90000895CF93C82F0E94DD14C93349F42FEF56
:102AA00087EE93E0215080409040E1F700C00000A5
:102AB0008C2FCF910C942115882321F00E94541E55
:102AC0000C94A31E0895882321F00E945A1E0C9492
:102AD000A31E0895AF92BF92CF92DF92EF92FF9222
:102AE0000F931F93CF93DF9300D000D00F92CDB7F9
:102AF000DEB76C016D837983FC01058102950F704F
:102B0000128111110E94761E0E944A1EE82E88230F
:102B100091F01123D1F08981807F803421F08D8163
:102B2000805E883090F082E00E94EE1E0E944A1E75
:102B300091E0E82EE926A980A2949FE0A922B12C79
:102B4000F501EB5AF64D0C94CD28E12CF4CF098118
:102B50000F70F981F07F11F00295007F1123B1F021
:102B6000002361F08D81805E883018F02D81211165
:102B700009C0802F0E94541E0E94A31E8D810E94B6
:102B8000DD1415C0802F0E94681EF6CF8D810E9433
:102B90002115002361F08D81805E883018F04D8111
:102BA000411133C0802F0E945A1E0E94A31E48E08C
:102BB000A41AB10854E0A516B10420F40E946E13C3
:102BC0000E94A00CEE2009F4CBC10E94461E80FD9D
:102BD000C7C1F60112820E94401E0E944D1CC60110
:102BE0000E94D7170E94401E0F900F900F900F90D9
:102BF0000F90DF91CF911F910F91FF90EF90DF9099
:102C0000CF90BF90AF900C947E1C802F0E946E1EC0
:102C1000CCCF59815F70F52E6981607F603219F0E9
:102C2000F29480EFF8227D81772369F0713049F1C9
:102C3000112391F1002351F1F601858180FF9ECF90
:102C40008F70858323C0112381F0011106C00E947B
:102C50008A1E8F290E945C15AACF0130C1F70E94FD
:102C60008A1E8F290E94901EA2CF011106C00E94C9
:102C7000991E8F2D0E9463159ACF013009F497CFCA
:102C8000F6CF112329F0063008F091CF8F2DE2CF37
:102C9000053008F08CCFEDCF002359F3FD81F933D7
:102CA00049F42FEF47EE53E0215040405040E1F708
:102CB00000C000008D810E94211579CF8981869501
:102CC0008695837069F0813009F071CF8D8199818B
:102CD0009370111102C090E080E00E94AB1367CFA7
:102CE0008D8199819370111102C090E080E00E9463
:102CF00095135DCF8981837009F050C0111157CFB2
:102D00004D81429546954770440F440F8D818F70D9
:102D100090E0B0E0A0E0042E04C0880F991FAA1F25
:102D2000BB1F0A94D2F76D8100E010E0980164FFA8
:102D30000FC00FE010E020E030E004C0000F111FD2
:102D4000221F331F4A95D2F7009510952095309594
:102D500079817695769573707D83B901A801482BAA
:102D6000592B6A2B7B2B49835A836B837C835D8130
:102D700069817A818B819C81523051F0533059F0B6
:102D8000513019F00E94C51B12CF0E949D1B0FCF1E
:102D90000E94ED1B0CCF0E949B1B09CF112309F44D
:102DA00045C0698160FF03CF4D81429546954770CC
:102DB000440F440F8D818F7090E0B0E0A0E0042EAE
:102DC00004C0880F991FAA1FBB1F0A94D2F7ED8178
:102DD00000E010E09801E4FF0FC00FE010E020E0F9
:102DE00030E004C0000F111F221F331F4A95D2F795
:102DF0000095109520953095F981F695F695F3702C
:102E0000FD83B901A801482B592B6A2B7B2B4983E1
:102E10005A836B837C83F230A1F0F330C9F0F13038
:102E200049F0CB01BA010E940C1DC1CE798171FF1E
:102E3000BECEBACF69817A818B819C810E94E41CCD
:102E4000B6CE69817A818B819C810E94341DAFCE80
:102E500069817A818B819C810E94171CA8CE59813F
:102E60005F705983112329F0852F0E944D1C8D819D
:102E7000F1CE8D810E94631589810E947E1C97CEC0
:102E80006D81623F99F160F4603FD9F0613F39F1A3
:102E9000112309F444C0011171CE89818F7123C0BF
:102EA0007D81733F41F1743F99F7112371F189815D
:102EB0008F7189830E944D1C63E089810E94D91E15
:102EC00076CE112341F0053008F071CE89818F71E3
:102ED0000E94B31C6CCE063008F069CEF7CF898112
:102EE0008F71112351F20E944D1C61CE89818F7127
:102EF0001123C9F3C2CF112329F089818F710E9458
:102F0000281C55CE0E94231C52CE81E00E94EE1E4A
:102F1000023008F44CCE82E00E94EE1E48CE002320
:102F200061F09D81993309F0C5CEEFEFF7EE23E014
:102F3000E150F0402040E1F7BBCE89818F719DCFF9
:102F400049814F706D81C6010E94FA0C0E940D1BD1
:102F50002ECE49814F706D81C6010E94FD0C27CE97
:102F60000F900F900F900F900F90DF91CF911F91C6
:102F70000F91FF90EF90DF90CF90BF90AF900895AA
:102F80000F931F93CF93DF93EC01688179818A813E
:102F90000E94021E8C010E945C1D0E949A1BB801B7
:102FA000CE01DF91CF911F910F910C946A15CF93B1
:102FB000DF93EC018B819C81892B29F08981988199
:102FC00089238F3F59F4DF91CF910895CE010E945C
:102FD000C017CE01DF91CF910C94CA0BCE010E9495
:102FE000B80C8111F3CF0E944A1E882361F38A81B5
:102FF000882349F382E0DF91CF910C94EE1E0E946A
:10300000761E0E94871E0E94A31E90E080E00E9410
:10301000951390E080E00C94AB130E943A1E0C9440
:10302000FF170E94651E0C940D18282F892F82957A
:103030008F70903C80F48A30B0F4843020F4823079
:1030400090F480E008958630E1F781E0283E88F032
:10305000213FB9F70EC08C3011F08F3091F793FB00
:10306000882780F9089581E0203F39F018F4283E40
:1030700040F70895243F29F7FCCF08950E94F61DDC
:103080000C941518CF93DF9300D000D00F92CDB7DA
:10309000DEB70F900F900F900F900F90DF91CF91B0
:1030A0000895CF93DF9300D000D000D0CDB7DEB726
:1030B00026960FB6F894DEBF0FBECDBFDF91CF913D
:1030C00008951F93CF93DF93E0914F0516E0809111
:1030D00050058E1304C0DF91CF911F910895CE2F1C
:1030E000D0E01E9FF0011124EF5AFA4F4081518128
:1030F00062817381848195810E945118FE0131960D
:10310000E770E5CF4091810550918205609183057C
:103110007091840580918505909186050C945118D5
:103120001F93CF93DF9380918605807FA9F48091D0
:103130008305882389F080914F05C09150057091D7
:10314000810560918205A0918405B0918505D62FF7
:10315000D72316E0C81304C0DF91CF911F910895C3
:1031600090E0109711F0DF3F19F401968770F2CFCD
:10317000189F9001199F300D1124F901EF5AFA4F51
:1031800041816413F2CF40814713EFCF4281411157
:10319000ECCF438154814A1B5B0B483C510528F717
:1031A000809186058F70806180938605F901EA5AC7
:1031B000FA4F80818F708061808381E895E00E9462
:1031C000D717DF91CF911F910C946118AF92BF92E6
:1031D000CF92DF92EF92FF920F931F93CF93DF93E3
:1031E000CDB7DEB72B970FB6F894DEBF0FBECDBFBD
:1031F0008C0185E0F801DE01179601900D928A9509
:10320000E1F7F80140815181E28081E8A82E85E054
:10321000B82E60918405709185056115710549F09E
:103220009091810520918205892F82238F3F09F09B
:1032300045C1EE2009F453C14F8358878F8198858B
:103240000E943E18F82E882309F449C186E0F8014F
:10325000A1E8B5E001900D928A95E1F781E895E04B
:103260000E94D8140E94901826C180918605382F9C
:10327000307F683C710508F07CC03111B5C0FE2C70
:10328000251324C0941322C0E11020C08F708061E8
:10329000809386050E94821881E895E00E94D717E6
:1032A00080918605F80185838F2D2B960FB6F894B3
:1032B000DEBF0FBECDBFDF91CF911F910F91FF9069
:1032C000EF90DF90CF90BF90AF900895CD2829F078
:1032D000842F85238F3F09F084C080E0F82FF170A0
:1032E000DF2EE0914F052091500536E080FD1CC097
:1032F000EE20D1F280918605816080938605F12CC5
:10330000D3CF8E2F90E03E9FF0011124EF5AFA4F59
:103310006181651306C06081641303C062816E1110
:10332000E7CFFC013196E770E213EBCF4F8358876C
:103330008F8198850E94F61D292F22952F7090323B
:1033400060F0225F2F70223078F49F7051F0F80106
:103350009581907F31F4D12C0AC09F7011F08823A1
:10336000D1F3805E8830B8F3C8010E94D717FD2CD6
:103370009BCF31116EC06E2D7A858B850E944218CD
:1033800081E895E00E94D71786E0F50111928A95B1
:10339000E9F70E948218B3CF86E0F801A1E8B5E012
:1033A00001900D928A95E1F77FCF4F8358878F81E7
:1033B00098850E943E1881113DC0809186058160EC
:1033C00080938605C8010E94D7176ECF6E2D7A852F
:1033D0008B850E94421886E0F50111928A95E9F7E3
:1033E0006AC081E08E257ACF251306C0941304C0ED
:1033F000F801EE2009F453C04F8358878F819885D8
:103400000E943E18882309F46AC0EE2009F467C0C0
:1034100080918605803270F020918105309182057F
:103420003A8329831B82DD82CC828E83CE01019672
:103430000E94D71786E0F801A1E8B5E001900D924F
:103440008A95E1F70E9490180E948218FF24F39455
:103450002BCF2513D1CF9413CFCFE110CDCFF801CF
:103460008583C8010E94D71786E0F50111928A95DD
:10347000E9F71ACF251399CF941397CF809186053A
:1034800080FD8ACF982F907F09F486CFF80185833D
:10349000903F31F0982F907F905F8F70892B8583BC
:1034A000C8010E94D71786E0F801A1E8B5E00190B5
:1034B0000D928A95E1F70E948218F6CEC380D480DF
:1034C000F0908305F601E61BF70BBF01F110CDCE9E
:1034D000683C710508F07ACFFE2CE110CBCFC80113
:1034E0000E94D717B3CF1F93CF93DF93CDB7DEB72B
:1034F0002C970FB6F894DEBF0FBECDBF4F83588711
:1035000069877A878B879C87CE0107960E94E61889
:10351000882369F08A859B85892B39F058854F81EE
:10352000852F84238F3F09F071C016E05FC086E0CD
:10353000FE013796DE01119601900D928A95E1F712
:103540008A859B85892B89F38F81988589238F3F75
:1035500061F32091500530E0C901019687709927E9
:1035600040914F054817190671F40E9411181092E6
:10357000500510924F0586E0E1E8F5E0DF011D926D
:103580008A95E9F7D2CF96E0929FD001939FB00D34
:103590001124AF5ABA4FFE01319601900D929A95BF
:1035A000E1F7809350050E946118BFCF819FC00151
:1035B00011248F5A9A4F0E94E6188823E9F0E0916F
:1035C0004F051E9FF0011124EF5AFA4F408151819F
:1035D00062817381848195810E94511880914F0589
:1035E00090E001968770992780934F0580914F0551
:1035F000909150058913DACF2C960FB6F894DEBF60
:103600000FBECDBFDF91CF911F91089569857A8557
:103610008B859C850E94511888CFEF92FF920F9363
:103620001F93CF93DF938C01892B89F0F12CEE242B
:10363000E394E8012196F8018491843709F458C095
:10364000A0F4823009F43FC048F48130D1F0DF911A
:10365000CF911F910F91FF90EF9008959CEF980FDD
:103660009037A8F70E94DD140AC0853709F44EC0D0
:103670009CE7980F903758F78F770E9421158E019D
:1036800016C00E5F1F4FFE01849190E2980F983094
:1036900060F48770FE2D01C0FF0F8A95EAF78F2F27
:1036A0000E94791E0E94A31E02C00E94DD148F2D6D
:1036B000882309F4BECFEFE9FFE03197F1F700C0AE
:1036C00000008150F5CF0E5F1F4FFE01849190E204
:1036D000980F983050F48770FE2D01C0FF0F8A9527
:1036E000EAF78F2F0E947F1EDDCF0E942115DFCFCA
:1036F0000E5F1F4FFE01C491CC23C9F28FE99FE0FA
:103700000197F1F700C00000C150F6CF0E5F1F4FC8
:10371000FE01F490CCCF08950C948B1B0E948C1B5F
:103720006093D6057093D7058093D8059093D905FB
:103730000C94FF1708950C948E1BCF93DF9300D049
:1037400000D0CDB7DEB769837A838B839C83809169
:10375000D6059091D705A091D805B091D9052981BA
:103760003A814B815C81282B392B4A2B5B2B298397
:103770003A834B835C83CA01B9010F900F900F907D
:103780000F90DF91CF910C948E1BCF93DF9300D0DD
:1037900000D0CDB7DEB769837A838B839C83809119
:1037A000D6059091D705A091D805B091D90529816A
:1037B0003A814B815C81282339234A235B23298367
:1037C0003A834B835C83CA01B9010F900F900F902D
:1037D0000F90DF91CF910C948E1BCF93DF9300D08D
:1037E00000D0CDB7DEB769837A838B839C838091C9
:1037F000D6059091D705A091D805B091D90529811A
:103800003A814B815C81282739274A275B27298306
:103810003A834B835C83CA01B9010F900F900F90DC
:103820000F90DF91CF910C948E1B0C94670B0E942C
:10383000151C6093D2057093D3058093D4059093A3
:10384000D5050C94FF1760E070E0CB010C94171CB9
:103850000F931F93CF93DF9300D000D0CDB7DEB787
:1038600041E050E060E070E08A019B0104C0000F7D
:10387000111F221F331F8A95D2F709831A832B83C6
:103880003C83C901B8010F900F900F900F90DF910A
:10389000CF911F910F910C94171C0F931F93CF93EF
:1038A000DF9300D000D0CDB7DEB741E050E060E05C
:1038B00070E004C0440F551F661F771F8A95D2F72A
:1038C0008091D2059091D305A091D405B091D505F2
:1038D0008A019B01082B192B2A2B3B2B09831A8366
:1038E0002B833C83C901B8010F900F900F900F906C
:1038F000DF91CF911F910F910C94171C0F931F9381
:10390000CF93DF9300D000D0CDB7DEB741E050E0D9
:1039100060E070E004C0440F551F661F771F8A9552
:10392000D2F740955095609570958091D205909111
:10393000D305A091D405B091D5058A019B01082338
:1039400019232A233B2309831A832B833C83C90130
:10395000B8010F900F900F900F90DF91CF911F91B2
:103960000F910C94171C0F931F93CF93DF9300D0EC
:1039700000D0CDB7DEB741E050E060E070E004C0B9
:10398000440F551F661F771F8A95D2F78091D20585
:103990009091D305A091D405B091D5058A019B01E2
:1039A000082719272A273B2709831A832B833C835F
:1039B000C901B8010F900F900F900F90DF91CF9138
:1039C0001F910F910C94171CCF93DF9300D000D060
:1039D000CDB7DEB769837A838B839C838091D205D0
:1039E0009091D305A091D405B091D50529813A8154
:1039F0004B815C81282B392B4A2B5B2B29833A8303
:103A00004B835C83CA01B9010F900F900F900F9008
:103A1000DF91CF910C94171CCF93DF9300D000D08F
:103A2000CDB7DEB769837A838B839C838091D2057F
:103A30009091D305A091D405B091D50529813A8103
:103A40004B815C81282339234A235B2329833A83D2
:103A50004B835C83CA01B9010F900F900F900F90B8
:103A6000DF91CF910C94171CCF93DF9300D000D03F
:103A7000CDB7DEB769837A838B839C838091D2052F
:103A80009091D305A091D405B091D50529813A81B3
:103A90004B815C81282739274A275B2729833A8372
:103AA0004B835C83CA01B9010F900F900F900F9068
:103AB000DF91CF910C94171C0895E82F24E1929F79
:103AC000E00D11248E2F877041E001C0440F8A95CC
:103AD000EAF7E695E695E69585E0E89FF001112482
:103AE000E957FA4F30E020E070E05191DF01119783
:103AF000CB01022E02C0969587950A94E2F7817059
:103B000081958527842385278C932F5F3F4F253010
:103B1000310559F70895E82F24E1929FE00D112413
:103B20009E2F9770E695E695E69585E0E89FF00173
:103B30001124E957FA4F50E040E080E0219130E055
:103B4000092E02C0369527950A94E2F72170332793
:103B5000042E01C0220F0A94EAF7822B4F5F5F4FB9
:103B60004530510559F70895BF92CF92DF92EF92F9
:103B7000FF920F931F93CF93DF938C01C090D205D8
:103B8000D090D305E090D405F090D5058091D6056E
:103B90009091D705A091D805B091D905C82AD92A06
:103BA000EA2AFB2ACFE1D0E0BC2ED701C6010C2EB9
:103BB00004C0B695A795979587950A94D2F780FD8E
:103BC0000EC0219788F7B12C8B2DDF91CF911F91DB
:103BD0000F91FF90EF90DF90CF90BF900895B801C4
:103BE0008C2F0E941A0D019761F3EECFCF93DF93D4
:103BF000D82FC92F0E94B41D6D2F7C2FDF91CF913C
:103C00000C941A0D1F93CF93DF93162FD72F9091FB
:103C10004E05992339F0862F972FDF91CF911F9171
:103C20000C94F61D882391F0862F972F0E94B41DC7
:103C3000C82F682F812F9D2F0E945D1D612F7D2F22
:103C40008C2FDF91CF911F910C941A0D862F972FF7
:103C50000E948B1DC82FF2CF682F80910401909194
:103C600005010C948D20682F80910401909105012D
:103C70000C94982080910401909105010C94A3204C
:103C80008091DA0585958595859508958091DA0569
:103C9000877008959091DA05977081E009F480E0CB
:103CA00008958091FE0508959091FE05982B9093BC
:103CB000FE050895982F90958091FE0589238093A5
:103CC000FE0508958093FE0508951092FE0508955F
:103CD0009091FD05982B9093FD050895982F909550
:103CE0008091FD0589238093FD0508951092FD05BF
:103CF00008959091FC05982B9093FC050895982FBA
:103D000090958091FC0589238093FC05089510927D
:103D1000FC0508958091DB05089508950C948D1E8F
:103D20009091DB05981721F08093DB050C948E1E93
:103D300008958091DB05882329F01092DB0580E04F
:103D40000C948E1E0895E0910401F091050180917C
:103D5000FE058083E0910401F0910501808190913E
:103D6000FD05892B8083E0910401F091050180819C
:103D70009091FC05892B80839091DB05992381F03C
:103D8000E0910401F09105018081892B808380916D
:103D90000401909105010E94F51F81110E94991E56
:103DA00080910401909105010C947A1308950C946C
:103DB000D61E98E0899F90011124622B6093DA054A
:103DC0000E944D1C8091DA058595859585950C940A
:103DD000D71E1092DA0580E00C94D71E9091DA0578
:103DE000809589238093DA05282F277071F4282F76
:103DF000082E000C330B9217130639F08595859524
:103E000085950E947E1C0C94E91E08950F931F93C4
:103E1000462F572FBC01CB01AA27BB270097A1052E
:103E2000B105E9F1AC01BD0180E1052F162F272F67
:103E30003327011511052105310519F0885FB901F6
:103E4000A8018A019B01F4E03695279517950795FF
:103E5000FA95D1F7011511052105310519F08C5F8F
:103E6000B901A8018A019B01E2E0369527951795D3
:103E70000795EA95D1F7011511052105310519F0CE
:103E80008E5FB901A8017695679557954795452BA3
:103E9000462B472B09F08F5F1F910F91089580E00B
:103EA000C4CF90E080E00E94DE289C0181E02C3E9F
:103EB0003E4F09F080E0089582E090E00C94D6280F
:103EC00083E090E00C94D628CF9384E090E00E94A9
:103ED000D628C82F81E290E00E94D628982F8C2FF8
:103EE000CF910895CF93682FC92F84E090E00E946E
:103EF000E4286C2F81E290E0CF910C94E428AB0190
:103F0000BC018FE090E00C94F628AB01BC0183E18A
:103F100090E00C94F62860E070E0CB010C94851FD3
:103F200060E070E0CB010E947F1F0C948B1F6CEE51
:103F30007EEF90E080E00E94022960E082E090E065
:103F40000E94E42860E083E090E00E94E428109260
:103F5000D6051092D7051092D8051092D90560E0C9
:103F600084E090E00E94E42860E081E290E00E941A
:103F7000E42860E085E090E00E94E42860E086E0CC
:103F800090E00E94E4286FEF87E090E00E94E42830
:103F900040E050E0BA0188E090E00E94F62860E03E
:103FA0008DE090E00E94E42840E050E0BA0188E112
:103FB00090E00E94F62860E087E190E00E94E4280B
:103FC00040E050E0BA018CE190E00E94F62860E009
:103FD00080E290E00E94E4280C94901F0C94971FBC
:103FE000682F8EE090E00C94E428FC0132968091DA
:103FF0001001882321F0809105069EE187FF96E05D
:1040000080E0915008F4089521912223D1F38F5F2D
:10401000F8CF9C01662301F1809110018823F1F013
:104020008091050687FF1AC0462F4695469546950E
:10403000603F90F4677081E090E002C0880F991FA4
:104040006A95E2F7240F311DF901228130E028231F
:10405000392381E0232B71F480E00895F901329631
:10406000285F3F4F8191861721F0E217F307D1F7C0
:10407000F3CF81E008959C01FC0132968FEF90E030
:104080004191461751F08F3F19F4411101C0892F1A
:104090009F5F9630A9F78F3F09F40895280F311DCF
:1040A00087FD3A95F901628308959C01FC013296DF
:1040B000285F3F4F8191861303C0DF0111971C9247
:1040C000E217F307B9F70895FC01862F86958695C8
:1040D0008695603F60F4E80FF11D677021E030E0E5
:1040E00001C0220F6A95EAF78281822B82830895AC
:1040F000FC01862F869586958695603F68F4E80FCB
:10410000F11D677081E090E001C0880F6A95EAF7C1
:104110008095928189238283089520911001222322
:1041200029F02091050627FD0C9464200C943B2077
:1041300020911001222329F02091050627FD0C94DF
:1041400078200C945520FC01329680911001882330
:1041500051F08091050687FF06C08EE1DF011D92B8
:104160008A95E9F7089586E0F9CF089508950C94AB
:10417000B6200E94B72080912D06843049F110921C
:10418000000688E190E020E40FB6F894A8958093AB
:1041900060000FBE2093600080E00E94A00C0E948F
:1041A000B72083B7817F846083BF83B7816083BF7B
:1041B0007894889583B78E7F83BF0FB6F894A895BF
:1041C00080916000886180936000109260000FBE53
:1041D00008950895CF93DF9300D000D00F92CDB70C
:1041E000DEB70E94B5200E94750F0E94E9201D8253
:1041F0008D810E94000F672B682B692B71F48D81D4
:104200008F5F8D838630A1F780E00F900F900F9025
:104210000F900F90DF91CF91089581E0F6CF089530
:104220000C940F210E9411180E946E130E94A00C82
:104230000C9410211F921FB61F9211248F939F93ED
:10424000AF93BF9380910006811113C08091010646
:1042500090910206A0910306B09104064196A11D1B
:10426000B11D8093010690930206A0930306B093BC
:104270000406BF91AF919F918F911F901FBE1F9019
:10428000189582E084BD93E095BD9AEF97BD809329
:104290006E0008952FB7F894809101069091020660
:1042A000A0910306B09104062FBF08959C014FB75B
:1042B000F8948091010690910206A0910306B091B6
:1042C00004064FBF821B930B089578941F921FB66C
:1042D0001F9211248F939F93AF93BF9380910106F8
:1042E00090910206A0910306B09104060196A11DCB
:1042F000B11D8093010690930206A0930306B0932C
:104300000406BF91AF919F918F911F901FBE1F9088
:104310001895F89481E08093E00080E28093D800C3
:10432000E9ECF0E010828FE19EE40197F1F700C024
:1043300000001DBA109268001CBC10BE1FBA10927B
:104340007A0010926E0010926F001092700010921E
:10435000710010821092BC0011B814B817B81AB8C6
:104360001DB810BA12B815B818B81BB81EB811BAD3
:104370000C9400FE0895CF93DF9300D000D0CDB70A
:10438000DEB70E94511F811102C00E94EE1F0E94E1
:104390005C1F8093FF050E94641F90930606809324
:1043A00005060E94601F282F30E050E040E029837E
:1043B0003A834B835C83CA01B9010F900F900F9031
:1043C0000F90DF91CF910C949B1B8091270608954D
:1043D0000895CF93DF9300D00F92CDB7DEB79091C1
:1043E0002D06943019F589836A837B8382E080935C
:1043F000E9008FEF9091E800815095FD06C095EDA2
:104400009A95F1F700008111F5CF8091E80085FFC2
:104410000DC050E040E063E070E0CE0101960E94E4
:1044200019248091E8008E778093E8000F900F9018
:104430000F90DF91CF910895CF93DF93D82FC92F9D
:104440000E94FC23823011F0843039F46D2F7C2FD0
:1044500084E0DF91CF910C94E921DF91CF91089511
:10446000BC0183E00C94E921CF93DF93D82FC92FAF
:104470000E94FC23823011F08430C9F58091100134
:104480008823C1F18091050687FF34C060E282E095
:104490008093E9008FEF9091E800815095FD06C070
:1044A00095ED9A95F1F700008111F5CF8091E80024
:1044B00085FF1DC08091100170E050E040E0811147
:1044C00004C050E040E068E070E08D2F9C2F0E9417
:1044D00019248091E8008E778093E80080E2ED2F28
:1044E000FC2FA7E0B6E001900D928A95E1F7DF91ED
:1044F000CF91089568E081E0CBCF8091360681119D
:1045000009C00E94A1250E9403268091E2008460D8
:104510008093E20008951092360608950895089554
:104520000C94122142E061EC81E00E941D2542E2E0
:1045300061EC82E00C941D2580912F06893089F171
:1045400048F4823009F49DC0833009F458C08130AA
:1045500041F008958A3009F484C08B3009F46AC0B0
:10456000089580912E06813A09F048C08091E800B4
:10457000877F8093E8008091320690913306892BE3
:1045800061F460E287E096E070E00E946824809128
:10459000E8008B778093E800089560E090E080E089
:1045A000F3CF80912E06813249F5809132069091A9
:1045B0003306029718F58091E800877F8093E80022
:1045C0008091E80082FF16C08091F2009091F30084
:1045D000029729F48091F1008B7F813021F4809142
:1045E000F100809327068091E8008B778093E800A4
:1045F0000C94512580912D068111E2CF0895809170
:104600002E06813AD9F78091320690913306892B94
:10461000A9F78091E800877F8093E8008091E80007
:1046200080FFFCCF809110018093F1008091E80021
:104630008E77DCCF80912E06813201F78091320691
:1046400090913306892BD1F68091E800877F809383
:10465000E8000E94512580913006809310010C944F
:10466000111880912E06813249F68091E800877FEB
:104670008093E8000E94512580913106809328069E
:10468000089580912E06813A09F0B8CF8091E80014
:10469000877F8093E8008091E80080FFFCCF8091C5
:1046A0002806C2CF84B7877F84BF0FB6F894A89539
:1046B00080916000886180936000109260000FBE5E
:1046C00080E890E00FB6F8948093610090936100C9
:1046D0000FBE0E94CF130E94A1250E940326809145
:1046E000E20084608093E20078940E9490280E9407
:1046F000D91386E091E00E94691380912D068530E0
:1047000019F00E94E113F9CF0E94B92080912A0686
:10471000882399F30E94EA20882379F30E940324D6
:10472000ECCF0C949323FC01CB01DA012F2F33271C
:1047300023303105D1F070F42130310509F445C042
:104740002230310569F48BE390E02AE53BE02D93BC
:104750003C9308952132310521F12232310559F17E
:1047600090E080E030E020E0F2CFCF019927E23006
:10477000A9F08330910550F4009769F0ECE4FBE078
:10478000019771F7849190E09F01E1CFE8E1FBE0B0
:104790000397C1F3E5CFE6E5FBE0F4CFEEE1FBE004
:1047A000F1CF892BB9F061307105D1F689E090E045
:1047B00025E83BE0CCCF892B91F06130710581F683
:1047C0008DE690E027EA3BE0C2CF82E190E025E968
:1047D0003BE0BDCF89E090E02CE63BE0B8CF80E441
:1047E00090E024E13CE0B3CF80912D06843011F4B9
:1047F00082E0089581E0089580912906811102C028
:104800000C94F423089584E189BD86E189BD09B43F
:1048100000FEFDCF8091D8008F7D8093D8008091DD
:10482000E00082608093E0008091E00081FDFCCF99
:104830000895AF92BF92CF92DF92FF920F931F9392
:10484000CF93DF936C01EB018A010E947025F82E53
:10485000811123C00115110539F0F8018081918182
:10486000C81BD90BC80ED91EB12CA12C2097A9F0BA
:104870008091E80085FD22C08091E8008E778093CA
:10488000E80001151105A1F0F80180819181A80EC1
:10489000B91EB182A08285E0F82E8F2DDF91CF91D5
:1048A0001F910F91FF90DF90CF90BF90AF90089530
:1048B0000E9470258823D1F2F82EEFCFF601819166
:1048C0006F018093F1002197FFEFAF1ABF0ACECF9F
:1048D000FC01CB01209134063091350626173707AD
:1048E00090F0009729F42091E8002E772093E800BB
:1048F00040E0009751F4411108C08091E80082FF28
:1049000031C080E00895C901F3CF20912D06222304
:10491000A9F12530A9F12091E80023FD2DC02091B7
:10492000E80022FDEACF2091E80020FFE2CF2091AD
:10493000F2003091F300009719F02830310558F05B
:1049400041E02830310509F040E02091E8002E7761
:104950002093E800CECF41914093F10001972F5F63
:104960003F4FE9CF80912D06882341F0853041F0FB
:104970008091E80083FFC1CF81E0089582E008952F
:1049800083E00895FC01CB01209134063091350677
:104990002617370790F0009729F42091E8002E772A
:1049A0002093E80040E0009751F4411108C0809145
:1049B000E80082FF32C080E00895C901F3CF209162
:1049C0002D062223B1F12530B1F12091E80023FD1D
:1049D0002EC02091E80022FDEACF2091E80020FFC0
:1049E000E2CF2091F2003091F300009719F02830C7
:1049F000310558F041E02830310509F040E02091C0
:104A0000E8002E772093E800CECF44914093F10048
:104A1000319601972F5F3F4FE8CF80912D06882375
:104A200041F0853041F08091E80083FFC0CF81E004
:104A3000089582E0089583E00895982F973028F034
:104A40008F708093E90081E008959093E900242F0E
:104A5000762F50E0981731F07091EC002091ED0026
:104A60005091F00021FD02C09F5FE8CF3091EB0034
:104A70003E7F3093EB003091ED003D7F3093ED00B1
:104A80003091EB0031603093EB007093EC00209399
:104A9000ED005093F0002091EE0027FDE5CF80E07F
:104AA000089580912E0687FF13C08091E80082FF51
:104AB00006C08091E8008B778093E80004C0809165
:104AC0002D068111F2CF089580912D068823D9F308
:104AD0008091E80080FFF8CF8091E8008E77ECCFDE
:104AE0002091E4003091E50095E6A9012091EC00C9
:104AF000822F817020FF06C08091E80080FF06C0F1
:104B000080E008952091E80022FD1AC080912D06D2
:104B1000882389F0853089F08091EB0085FD0FC0F6
:104B20002091E4003091E50042175307F9F29150CB
:104B3000E1F684E0089582E0089583E0089581E03D
:104B400008950E9412260E941A26E0EEF0E080816D
:104B500081608083E8EDF0E080818F77808319BCED
:104B6000A7EDB0E08C918E7F8C9380818F7E8083C7
:104B70001092360608950F931F93CF93DF930E94F0
:104B800012260E941A26C8EDD0E088818F7788838C
:104B900088818068888388818F7D8883E7EDF0E055
:104BA00080818068808319BC10922D0610922C069B
:104BB00010922A0610922B0600EE10E0F801808178
:104BC0008B7F808388818160888342E060E080E021
:104BD0000E941D25E1EEF0E080818E7F8083E2EE71
:104BE000F0E0808181608083808188608083F8012B
:104BF00080818E7F8083888180618883DF91CF91DF
:104C00001F910F910895E8EDF0E080818F7E808301
:104C1000E7EDF0E080818160808381E0809336065B
:104C20000C94BB25E8EDF0E080818C7F80831092AE
:104C3000E20008951092DA001092E10008951F92A8
:104C40000F920FB60F9211240BB60F922F933F9332
:104C50004F935F936F937F938F939F93AF93BF9384
:104C6000EF93FF938091E10082FF0BC08091E200FF
:104C700082FF07C08091E1008B7F8093E1000E945A
:104C80008F288091DA0080FF19C08091D80080FFC2
:104C900015C08091DA008E7F8093DA008091D90070
:104CA00080FF96C084E189BD86E189BD09B400FE1C
:104CB000FDCF81E080932D060E947D228091E1004E
:104CC00080FF19C08091E20080FF15C08091E20052
:104CD0008E7F8093E2008091E20080618093E20009
:104CE0008091D80080628093D80019BC85E08093C1
:104CF0002D060E948F228091E10084FF29C08091BF
:104D0000E20084FF25C084E189BD86E189BD09B444
:104D100000FEFDCF8091D8008F7D8093D8008091D8
:104D2000E1008F7E8093E1008091E2008F7E80938E
:104D3000E2008091E20081608093E20080912C0685
:104D4000882309F44BC084E080932D060E949022B2
:104D50008091E10083FF29C08091E20083FF25C09C
:104D60008091E100877F8093E10082E080932D06AF
:104D700010922C068091E1008E7F8093E10080915B
:104D8000E2008E7F8093E2008091E2008061809358
:104D9000E20042E060E080E00E941D258091F0008A
:104DA00088608093F0000E948E22FF91EF91BF9166
:104DB000AF919F918F917F916F915F914F913F91B3
:104DC0002F910F900BBE0F900FBE0F901F90189554
:104DD00019BC10922D060E948B2270CF8091E300A7
:104DE00087FD02C081E0B0CF83E0AECF1F920F926B
:104DF0000FB60F9211240BB60F922F933F934F9340
:104E00005F936F937F938F939F93AF93BF93CF9352
:104E1000DF93EF93FF93D091E900DF708091EC0076
:104E2000C82FC17080FDC0E81092E9008091F000A9
:104E3000877F8093F00078940E943E271092E900CB
:104E40008091F00088608093F000CD2BCF70C093EC
:104E5000E900FF91EF91DF91CF91BF91AF919F91C9
:104E60008F917F916F915F914F913F912F910F9013
:104E70000BBE0F900FBE0F901F9018951F93CF93EE
:104E8000DF93CDB7DEB7AA970FB6F894DEBF0FBE9B
:104E9000CDBF8EE296E0FC0101962091F1002083C7
:104EA00026E086339207B9F70E949C228091E800A1
:104EB00083FF1DC180912E0690912F069A3008F035
:104EC00016C1E92FF0E0EB59F64D0C94CD2880384F
:104ED00099F0823809F00BC1809132068F708730CB
:104EE00008F005C18093E9008091EB0085FB8827DD
:104EF00080F91092E90006C080912B0690912A0655
:104F0000911182609091E800977F9093E8008093E0
:104F1000F1001092F1008091E8008E77E4C08823C0
:104F200009F4D2C0823009F0E2C0809130068111CC
:104F3000D5C0809132068F702FEF280F263008F0F1
:104F4000D6C08093E9002091EB0020FFC7C09330CA
:104F500031F48091EB0080628093EB00BFC09091B0
:104F6000EB0090619093EB0021E030E001C0220F54
:104F70008A95EAF72093EA001092EA008091EB000C
:104F80008860EACF8111B3C0109130061F778091FD
:104F9000E3008078812B8093E3008091E800877F95
:104FA0008093E8000E9451258091E80080FFFCCFAB
:104FB0008091E30080688093E30082E0111183E038
:104FC00080932D0694C08058823008F090C0809164
:104FD0003006909131068C3D23E0920799F583E0ED
:104FE0008A838AE289834FB7F894DE01139620E022
:104FF0003EE051E2E32FF0E050935700849120FF10
:1050000003C082958F703F5F8F708A30C8F0895CD3
:1050100090E08D939D932F5F243161F74FBF809176
:10502000E800877F8093E8006AE270E0CE01019695
:105030000E9468248091E8008B778093E80057C035
:10504000805DE6CF6091320670913306AE014F5F0E
:105050005F4F0E949123BC01892B09F448C08091C5
:10506000E800877F8093E80089819A810E94C224AA
:10507000E1CF8038E1F58091E800877F8093E800F8
:1050800080912C068093F10046CF811130C0909121
:105090003006923060F58091E800877F8093E800C9
:1050A00090932C060E94512580912C06882311F0A4
:1050B00084E005C08091E30087FDFACF81E0809312
:1050C0002D060E94922213C080913006813079F41F
:1050D00081E0933009F080E080932A061092E90085
:1050E0008091E800877F8093E8000E94512580919D
:1050F000E80083FF0AC08091E800877F8093E80082
:105100008091EB0080628093EB00AA960FB6F89432
:10511000DEBF0FBECDBFDF91CF911F9108950895DF
:10512000CF9380912D068823A1F0C091E900CF7024
:105130009091EC00892F817090FD80E8C82B10922F
:10514000E9008091E80083FD0E943E27CF70C09364
:10515000E900CF910895A1E21A2EAA1BBB1BFD0105
:105160000DC0AA1FBB1FEE1FFF1FA217B307E40746
:10517000F50720F0A21BB30BE40BF50B661F771F9E
:10518000881F991F1A9469F760957095809590957E
:105190009B01AC01BD01CF010895EE0FFF1F00245C
:1051A000001C0BBE0790F691E02D0994F999FECFF3
:1051B00092BD81BDF89A992780B50895A8E1B0E025
:1051C00042E050E00C940A29262FF999FECF92BDB7
:1051D00081BDF89A019700B4021639F01FBA20BDBC
:1051E0000FB6F894FA9AF99A0FBE08950396272FEE
:1051F0000E94E5280E94E428252F0E94E528242FFC
:105200000C94E5280196272F0E94E5280C94E428A9
:10521000DC01CB01FC01F999FECF06C0F2BDE1BD76
:10522000F89A319600B40D9241505040B8F7089565
:10523000F894FFCF250B660B290B2B0B2D0B2F0B97
:10524000310B330B350B660B660B660B660B660B6F
:10525000370B390B3B0B3D0B3F0B410B430B510BFA
:10526000490B470B4F0B4D0B4B0B570B530B550B70
:10527000450B701176117A1188118C1190119411CF
:105280009A11A211A611AA11AE11BA11BE11C21122
:10529000C611CC11EA11D4117E118411B211B611CC
:1052A0009E11D011E011F311F711A715A7150916DA
:1052B00009165E16D715D715D7157A162F1740176A
:1052C0004017A017D715D715A91767278F27772855
:0E52D0008F277728C227E3277728392845281B
:1052DE0026052C02DC05E5213422E82130221C2291
:1052EE0001E200E900EA00B500B600B700CD008388
:1052FE0001CC008A0192019401210223022402258D
:10530E0002260227022A02B300B4006F007000F2D8
:10531E00F1F0C6C73031323334353637949597C0F5
:10532E00C16061626364656667E200E900EA00B528
:10533E0000B600B700CD008301CC008A0192019423
:10534E00012102230224022502260227022A02B389
:08535E0000B4006F00700000B4
:00000001FF
