:100000000C94F4050C9413060C9413060C9413062C
:100010000C9413060C9413060C9413060C941306FC
:100020000C9413060C9413060C94B7230C948E2492
:100030000C94B21E0C9413060C9413060C94130625
:100040000C9413060C9413060C9413060C941306CC
:100050000C9413060C94FD1E0C9413060C941306BA
:100060000C9413060C94BE090C9494090C9413067A
:100070000C9413060C9413060C9413060C9413069C
:100080000C9413060C9413060C9413060C9413068C
:100090000C9413060C9413060102E00102E17501B1
:1000A00003E10103E0323061630A000102E2010270
:1000B000E1320103E10103E2000102E20101620118
:1000C000015901015A0101600103E2000102E0014E
:1000D00002E1750103E10103E066610A000102E249
:1000E000650103E275000102E201016201015A01AA
:1000F000015D0101620103E2000102E00102E1751C
:100100000103E10103E064610A000102E265010309
:10011000E255000102E201016201015A01015901A7
:1001200001600103E2000102E00102E1750103E167
:100130000103E066330A000102E2650103E26F0099
:100140000102E201016201015A01015C01015B014E
:1001500003E2000102E00102E1750103E10103E0B5
:1001600064330A000102E2650103E24F000102E28A
:1001700001016201015A0101590101590103E20023
:100180000102E00102E1750103E10103E065640A97
:10019000000102E2650103E269000102E20101627D
:1001A00001015A01015B01015F0103E2000102E06C
:1001B0000102E1750103E10103E063640A00010249
:1001C000E2650103E249000102E201016201015A14
:1001D00001016201015D0103E2000102E00102E1AF
:1001E000750103E10103E063390A000102E26501E0
:1001F00003E245000102E201016201015A010162CC
:100200000101590103E2000102E00102E17501036D
:10021000E10103E063310A000102E2650103E2410A
:10022000000102E201016201015901016101015B6A
:100230000103E2000102E10101200103E1000102EA
:10024000E101011F0103E1000102E101012E0103AF
:10025000E100010130000102E10101250103E1009B
:1002600001012F000102E10101230103E10001016D
:100270003400010138000102E00102E1750103E1EF
:100280000103E065390A000102E2650103E265004D
:100290000102E201016201015A01015B01015B01FE
:1002A00003E2000102E00102E1750103E10103E064
:1002B00065310A000102E2650103E261000102E228
:1002C00001016201015A01015A01015D0103E200CD
:1002D0000102E00102E1750103E10103E066390A70
:1002E000000102E2600103E275000102E201016225
:1002F00001015A01015C0101610103E2000102E018
:100300000102E1750103E10103E064390A00010221
:10031000E2600103E255000102E201016201015ABB
:1003200001015901015F0103E2000102E00102E164
:10033000750103E10103E066320A000102E2600197
:1003400003E26F000102E201016201015A01015C56
:1003500001015A0103E2000102E00102E17501031B
:10036000E10103E064320A000102E2600103E24FAE
:10037000000102E201016201015A01015901016219
:100380000103E2000102E00102E1750103E1010362
:10039000E065630A000102E2600103E26900010214
:1003A000E201016201015A01015B01015E0103E208
:1003B000000102E00102E1750103E10103E0636372
:1003C0000A000102E2600103E249000102E20101C8
:1003D0006201015A01016201015C0103E2000102B4
:1003E000E00102E1750103E10103E065380A000163
:1003F00002E2600103E265000102E2010162010123
:100400005A01015B01015A0103E2000102E001020D
:10041000E1750103E10103E063380A000102E260D3
:100420000103E245000102E201016201015A0101FA
:10043000620101620103E2000102E00102E17501D3
:1004400003E10103E065300A000102E2600103E21A
:1004500061000102E201016201015A01015A010138
:100460005C0103E2000102E00102E1750103E10128
:1004700003E063300A000102E2600103E24100018F
:1004800002E201016201015901016101015A010306
:10049000E2000102E00102E1750103E10103E06213
:1004A000300A000102E20102E1380103E10103E246
:1004B000000102E201016201015901015F01015ED7
:1004C0000103E2000102E00102E1750103E1010321
:1004D000E065370A000102E2630103E2000102E283
:1004E00001016201015A01015B0101590103E200AE
:1004F0000102E00102E1750103E10103E061370A55
:100500000036000102E201016201015901015E01B0
:10051000015F0103E2000102E00102E1750103E174
:100520000103E061330A000102E2330103E200014A
:1005300002E201015901015D01015E0103E2005780
:10054000696E646F7773004D61634F53004C696E41
:10055000757800554900495400454E00430B290069
:100560003A003B003C003D003E003F00400041009F
:100570004200430044004500115004513A0B3B0B2C
:100580003C0B3D0B1D011C0135001E001F0021000E
:100590002200230024002500260027002D002A0029
:1005A00046004B0000005400550056003E0B3F0B28
:1005B0002B0014001A00200015001C0018000C006D
:1005C000120013002F002E0049004A005300600063
:1005D000610057001B01400B3900040016000800A1
:1005E000090017000D000E000F003300340030002A
:1005F0004C004D005F005D005E0058000601410B9D
:10060000E1001D001B00070019000A000B0010008C
:1006100037003800E5002800310052004E005C0031
:100620005B0063001901420BE000E200E3000600FA
:100630002C000500110036000351E600E700E4003D
:10064000500051004F0059005A00620001000100A3
:100650000100010001000100010001000100010092
:100660000100010001000100125001000100010021
:100670000100010001000100310001000100010042
:100680000100010001000100010001001F5D0100E7
:100690000100010000000100010001000100010053
:1006A0000100010001000100010001000100010042
:1006B00001000100175D185D01000100010001004B
:1006C0000100010001000100010001000100010022
:1006D00001000100010001000100195D165D1B5DB4
:1006E0000100010001000100010001000100010002
:1006F00001000100010001000100010001000100F2
:100700001E5D1C5D010001001A5D01000100010079
:1007100001000100010001000100010001000100D1
:100720000100010001001D5D010001000100010048
:1007300001000100010001000100010001000100B1
:1007400001000100010001000100010001000100A1
:100750000100010001000100105001000100010032
:10076000010001000100010035000100010001004D
:100770000100010001000100010001002D00010045
:100780000100010000000100010001000100010062
:100790000100010001000100010001000100010051
:1007A000010001002F002E000100010001000100E6
:1007B0000100010001000100010001000100010031
:1007C000010001000100010001003300340030008D
:1007D0000100010001000100010001000100010011
:1007E0000100010001000100010001000100010001
:1007F0003700380001000100010001000100010084
:1008000001000100010001000100010001000100E0
:10081000010001000100360001000100010001009B
:10082000010001000100010001000100B500055DAB
:10083000035D045D010001000100010001000100F1
:100840000100010001000100085D0100010001003C
:100850000100005C01001D030100010001000A5DB0
:100860000100010001000100010001000100010080
:100870000100010000000100010001000100010071
:10088000010001000100010001000100105D0E5D8A
:100890000F5D0100010001000100010001000100E5
:1008A000010001004C02010001000C5D01000D5D22
:1008B0000100010001000100010001000100010030
:1008C00001000100010001000100010049010100D7
:1008D0000100010001000100010001000100A80069
:1008E00001000100010001000B5D01000100010099
:1008F00001000100490201000100010001000100A6
:1009000001000100010001000100010001000100DF
:1009100001000100010001000100010001000100CF
:10092000065D075D010001000100010001000100FA
:1009300001000100010001000100010001000100AF
:10094000010001000100010001000100010001009F
:10095000010001000100010001000100010001008F
:100960000100010000000100010001000100010080
:10097000010001000100010001000100010001006F
:10098000010001000100010001000100010001005F
:10099000010001000100010001000100010001004F
:1009A000010001000100010001000100010001003F
:1009B000010001000100010001000100010001002F
:1009C000010001000100010001000100010001001F
:1009D000010001000100010001000100010001000F
:1009E00001000100010001000100010001000100FF
:1009F00001000100010001000100010001000100EF
:100A000001000100010001000100010000000000E0
:100A1000000000002A2B2800000000000000000059
:100A20000000000000000029000000002C1E3420FF
:100A3000212224342627252E362D3738271E1F2025
:100A40002122232425263333362E37381F0405066A
:100A50000708090A0B0C0D0E0F10111213141516AE
:100A60001718191A1B1C1D2F3130232D35040506AC
:100A70000708090A0B0C0D0E0F101112131415168E
:100A80001718191A1B1C1D2F3130354C000000009F
:100A90000000000000000000000000000000000056
:100AA0007E0F00D4FFFFFFC7000000780403300072
:100AB00000002C03460061007400200042006F001B
:100AC000740074006F006D006500640020004B002E
:100AD0006500790062006F00610072006400000030
:100AE0000803420065006E000000040309040902C7
:100AF0003B00020100A0FA0904000001030101000B
:100B00000921110100012240000705810308000AA4
:100B10000904010001030000000921110100012264
:100B20006D000705820320000A1201100100000079
:100B300008DE08DEC001000102030105010980A1F1
:100B400001850319012AB700150126B70095017523
:100B5000108100C0050C0901A101850419012AA01A
:100B600002150126A002950175108100C00501093A
:100B700006A1018505050719E029E715002501955E
:100B800008750181020507190029EF150025019557
:100B9000F075018102050819012905950575019176
:100BA00002950175039101C005010906A101050720
:100BB00019E029E7150025019508750181029501C5
:100BC000750881010507190029FF150026FF00950A
:100BD000067508810005081901290595057501911B
:100BE00002950175039101C011241FBECFEFD0E221
:100BF000DEBFCDBF11E0A0E0B1E0E0E0FEE400E048
:100C00000BBF02C007900D92A438B107D9F723E0BB
:100C1000A4E8B1E001C01D92A033B207E1F70E9441
:100C2000EA200C94B0260C9400000E94D208813077
:100C300041F0823049F48FE295E00E94710B80E030
:100C4000089587E295E0F9CF86E195E0F6CF0E941E
:100C5000D208813041F0823049F483E095E00E946F
:100C6000710B80E0089581E095E0F9CF80EF94E08A
:100C7000F6CF0E94D208813041F0823049F48DEDE8
:100C800094E00E94710B80E0089585ED94E0F9CF27
:100C900084EC94E0F6CF0E94D208813041F082309B
:100CA00049F481EB94E00E94710B80E0089583EA9F
:100CB00094E0F9CF82E994E0F6CF0E94E91B8272BA
:100CC000A1F00E94FD1B0E94D208813041F08230C9
:100CD00049F48FE794E00E94710B80E0089586E765
:100CE00094E0F9CF85E694E0F6CF0E94FD1B0E94C8
:100CF000D208813029F0823031F482E594E0EBCFE4
:100D000089E494E0E8CF88E394E0E5CF0E94E91B12
:100D10008272A1F00E94FD1B0E94D208813041F036
:100D2000823049F485E294E00E94710B80E00895DE
:100D30008CE194E0F9CF8BE094E0F6CF0E94FD1BAC
:100D40000E94D208813029F0823031F488EF93E09C
:100D5000EBCF8FEE93E0E8CF8EED93E0E5CF0E94EE
:100D6000E91B8272A1F00E94FD1B0E94D208813013
:100D700041F0823049F48BEC93E00E94710B80E0EB
:100D8000089582EC93E0F9CF81EB93E0F6CF0E94D7
:100D9000FD1B0E94D208813029F0823031F48EE9A7
:100DA00093E0EBCF85E993E0E8CF84E893E0E5CFEB
:100DB0000E94E91B8272A1F00E94FD1B0E94D208D2
:100DC000813041F0823049F481E793E00E94710B59
:100DD00080E0089588E693E0F9CF87E593E0F6CFC9
:100DE0000E94FD1B0E94D208813029F0823031F42C
:100DF00084E493E0EBCF8BE393E0E8CF8AE293E0E7
:100E0000E5CF0E94E91B8272A1F00E94FD1B0E94A7
:100E1000D208813041F0823049F487E193E00E94AA
:100E2000710B80E008958EE093E0F9CF8DEF92E0B2
:100E3000F6CF0E94FD1B0E94D208813029F082303B
:100E400031F48AEE92E0EBCF81EE92E0E8CF80EDD4
:100E500092E0E5CF0E94D208813041F0823049F41F
:100E60008DEB92E00E94710B80E0089584EB92E09C
:100E7000F9CF83EA92E0F6CF0E94D208813041F0A8
:100E8000823049F480E992E00E94710B80E008957D
:100E900087E892E0F9CF86E792E0F6CF0E94E91B5F
:100EA000827231F082E792E00E94710B80E0089537
:100EB0008EE692E0F9CF0E94E91B827231F084E65F
:100EC00092E00E94710B80E008950E94AF0681E0DD
:100ED0000895CF930E94E91BC82F0E94FD1B8C2F01
:100EE000827241F00E943C078C2F0E94FA1B80E026
:100EF000CF910895C6FD04C08C2F8570853029F4EC
:100F000080E692E00E94710BEFCF0E948606ECCF44
:100F1000CF930E94E91BC82F0E94FD1B8C2F827269
:100F200039F086E592E00E94710B80E0CF91089540
:100F3000C6FD05C0C57088E492E0C530A1F782E522
:100F400092E0F1CF0E94E91B827211F00C94270607
:100F50000C940107CF930E94E91BC82F0E94FD1B30
:100F60008C2F827219F0CF910C943906C6FD06C001
:100F7000C570C53019F0CF910C94D8068EE392E07D
:100F80000E94710B80E0CF910895CF930E94E91BDE
:100F9000C82F0E94FD1B8C2F827219F0CF910C94E8
:100FA0004B06C6FD06C0C570C53019F0CF910C9434
:100FB0005D0684E392E00E94710B80E0CF9108957A
:100FC00081E0089581E0089581E00895CF930E9423
:100FD000E91BC82F81E0C6FF0FC00E94FD1BC27233
:100FE00099F00E94D208813049F0823051F481E2B8
:100FF00092E00E94710B80E0CF91089588E192E029
:10100000F8CF87E092E0F5CFCF910C942A07CF93E9
:101010000E94E91BC82F81E0C6FF0FC00E94FD1B84
:10102000C27299F00E94D208813049F0823051F4A6
:1010300084EF91E00E94710B80E0CF9108958BEED8
:1010400091E0F8CF8AED91E0F5CFCF910C943C0779
:10105000CF930E94E91BC82F81E0C6FF0FC00E94FA
:10106000FD1BC27299F00E94D208813049F0823093
:1010700051F487EC91E00E94710B80E0CF910895CC
:101080008EEB91E0F8CF8DEA91E0F5CF0E94D20887
:10109000813029F0823031F48AE991E0ECCF81E9A6
:1010A00091E0E9CF80E891E0E6CFCF930E94E91B81
:1010B000C82F81E0C6FF0FC00E94FD1BC27299F0CD
:1010C0000E94D208813049F0823051F48DE691E0DF
:1010D0000E94710B80E0CF91089584E691E0F8CFF3
:1010E00083E591E0F5CF0E94D208813029F082306B
:1010F00031F480E491E0ECCF87E391E0E9CF86E240
:1011000091E0E6CFCF930E94E91BC82F81E0C6FF94
:101110000FC00E94FD1BC27299F00E94D20881305C
:1011200049F0823051F483E191E00E94710B80E03C
:10113000CF9108958AE091E0F8CF89EF90E0F5CF64
:101140000E94D208813029F0823031F486EE90E09E
:10115000ECCF8DED90E0E9CF8CEC90E0E6CF0E94F3
:10116000E91B86FF14C00E94FD1B0E94D20881303B
:1011700041F0823049F489EB90E00E94710B80E0ED
:1011800008958BEA90E0F9CF88E990E0F6CF81E00E
:1011900008950C94E7090C94E8090C946A0A80936A
:1011A000840108958091840108959B01AC01F89415
:1011B00060E079E08DE390E00E9443262150310900
:1011C0004109510956954795379527953093CD009C
:1011D0002093CC0082E08093C80088E98093C90006
:1011E00086E08093CA001092C7011092C801109245
:1011F000850110928601789408952FEF83ED90E396
:10120000215080409040E1F700C0000060E875E2A6
:1012100080E090E00E94D5080C94E4099091C80108
:101220009F5F983208F090E02091C7012917E1F301
:10123000E92FF0E0E753FE4F80839093C80188EBDD
:101240008093C9000895CF93DF93EC01FE01849150
:101250002196882361F00E940E09FFEF29EF80E0BC
:10126000F15020408040E1F700C00000EFCFDF9157
:10127000CF910895CF93DF93D82FC92F2FEF81EE11
:1012800094E0215080409040E1F700C000008CE6DF
:101290000E940E092FEF89EF90E02150804090408E
:1012A000E1F700C000008D2F9C2F0E9423098AE0E7
:1012B000DF91CF910C940E092FEF81EE94E0215035
:1012C00080409040E1F700C000008FE60E940E09C8
:1012D0002FEF89EF90E0215080409040E1F700C06F
:1012E000000080918401882329F0813051F08FE340
:1012F00095E002C08DE495E00E9423098AE00C94F9
:101300000E0987E495E0F8CF80918401882329F0C5
:10131000813041F01092840103C081E08093840108
:101320000C945C0982E0FACF8F938FB78F938BB7C1
:101330008F939F93EF93FF939091C8018091C70182
:1013400098130CC088E98093C900FF91EF919F9199
:101350008F918BBF8F918FBF8F9118958091C7010F
:101360008F5F883208F080E0E82FF0E0E753FE4F0F
:1013700090819093CE008093C701E7CF2F932FB732
:101380002F932BB72F938F939F93EF93FF9390916E
:10139000CE00809186018F5F803408F080E020913C
:1013A0008501281739F0E82FF0E0E957FE4F9083C8
:1013B00080938601FF91EF919F918F912F912BBF89
:1013C0002F912FBF2F91189580E00C94CF0808958E
:1013D000FC01DB0112968C91882309F458C0E0329D
:1013E000BDE5FB0708F054C0E8309DE5F90770F44F
:1013F000E231F10509F445C090F4E830F105E9F176
:10140000EC30F105E1F13497B1F10895E850FD4574
:10141000E831F105E8F5EE54F94D0C946526E83114
:10142000F10589F1B19789F108950E94840980E05E
:1014300008950C9415060C9427060C945D060C94E4
:1014400086060C94AF060C94D8060C9401070C94F5
:101450004E070C945B070C9469070C9488070C9456
:10146000A2070C94AA070C94C5070C94E0070C94EF
:10147000E2070C94E4070C94E6070C9407080C941C
:1014800028080C9455080C9482080C94AF0881E04D
:1014900008950F931F93CF93DF938B01D82FC92FFC
:1014A0000E949E1C813081F0823089F0811104C03D
:1014B00089E595E00E943A09B8018D2F9C2FDF91B4
:1014C000CF911F910F91089586E595E0F3CF83E5C5
:1014D00095E0F0CF089581E0089508950C946D0A89
:1014E0001F93CF93DF9300D000D00F92CDB7DEB71C
:1014F00049835A836B833091470289819A813111E4
:101500001DC06623B9F02223A9F00E944C1B182F9E
:10151000682F89819A810E94F51A69817A81812FC9
:101520000F900F900F900F900F90DF91CF911F9120
:101530000C94DA0B0E94231B182FEFCF0E944C1B38
:1015400069817A81EDCFFC01262F40815181628132
:10155000738184810C94700ACF93DF93D82FC92FA5
:1015600060E00E94A30A6D2F7C2FDF91CF910C9435
:101570006E0AFF920F931F93CF93DF93E82FF0E053
:10158000E45FF54FF490C82FC695C695C695D0E098
:10159000FE01E456F54F0491877010E0082E02C05A
:1015A000159507950A94E2F701701127C457D54F96
:1015B000FE01C491D0E002C0D595C7958A95E2F7A7
:1015C000C170DD270115110519F081EE0E94751219
:1015D000209719F086EE0E9475128F2D0E94E1125D
:1015E000CD2B19F086EE0E94B912012B41F081EE4D
:1015F000DF91CF911F910F91FF900C94B912DF9161
:10160000CF911F910F91FF900895EF92FF920F934A
:101610001F93CF93DF938C01F62E8AE0E82EF8011A
:101620008491882309F456C0813009F04FC0E80145
:101630002196FE018491813099F42196FE018491D6
:101640000E94E1128E010F5F1F4F8F2D882339F307
:10165000EFE9FFE03197F1F700C000008150F6CFCD
:10166000823039F4E8012296FE0184910E947512BD
:10167000E9CF833039F4E8012296FE0184910E947B
:10168000B912E0CF8430F1F6E8012296FE012491F0
:1016900080E090E0FE0131962053330B2A30310573
:1016A00050F0009779F2EFE9FFE03197F1F700C0D1
:1016B00000000197F6CFE89EA001E99E500D11248D
:1016C000C901840F951F2491EF01E4CF0E94B90A4C
:1016D000E801B8CFDF91CF911F910F91FF90EF906C
:1016E000089560E00C94050B0E94E91C811102C072
:1016F0000E94861D0C94FD080C94C90881E0089591
:101700000C947E0BCF93C82F0E94CD088C2FCF91C5
:101710000C94800B08950E94A9150E948A0B2FEF4C
:1017200084E39CE0215080409040E1F700C000003D
:101730000C94211F0F931F93CF93DF93EC0161E073
:101740000E94A30A8C01BE010E94CB08882329F1C4
:10175000BE01C8010E94C00F8823F9F0BE01C80174
:101760000E9404108823C9F0BE01C8010E94D7104E
:10177000882399F08A81882339F001158CE51807B0
:1017800051F00E3D1C4579F0CE01DF91CF911F91B4
:101790000F910C946B0A0E948B0B80E0DF91CF912C
:1017A0001F910F9108950E94861DF7CF90E080E071
:1017B00008950895972F70E024E1929F600D711DA8
:1017C0001124FB0198E7899FE00DF11D1124EE0F14
:1017D000FF1FE45AFA4F859194910895FC01EE0F92
:1017E000FF1FE455F54F859194910895CF93DF93B2
:1017F0000E94DA0B0E94010DEC01811521E5920790
:1018000008F048C0811530E5930708F0AFC0803E6E
:10181000910518F5803C910508F096C0883A91052D
:1018200070F4853A910508F08CC08130910531F152
:101830000497813A910510F1D0E0C0E01FC08F3BC2
:101840009105D1F3C85AD0E0CC0FDD1FC35FDE4F46
:101850000990D881C02DD46411C0811540E394074C
:1018600088F4C11580E2D80708F074C0C83ED105DD
:1018700028F0CE019A9581159F41F0F6CE01DF91B7
:10188000CF910895811530E4930708F466C0DF70A6
:10189000D06AF4CF8115964560F5C11585E5D80766
:1018A00008F096C0C11594E5D907F0F4C11523E5F9
:1018B000D20708F079C0C11532E5D30708F46FC02C
:1018C000CE018370992721E030E002C0220F331F40
:1018D0008A95E2F7C695C69540E2C49FE0011124BF
:1018E000C22BD32BDC68CACFDC2FCC27C46FD06AC5
:1018F000C5CFC1158AE5D80788F4C11599E5D90780
:1019000008F071C0CE0198558F3F910511F008F095
:1019100093CFDC2FCC27C06FD06AB0CFCE019056CA
:101920008115904208F088CF8D2F8F710E94990DFC
:1019300090E0982F882788279F719C012C2BE90124
:1019400050C0A497D0649ACF805C91090E94EE0B9E
:10195000EC0194CFCE019F70F9CF9927D3FF03C03C
:10196000EC01D86C8BCFEC01D06C88CF74E09695ED
:1019700087957A95E1F783702C2F2695269523700D
:1019800040E2249F90011124382B8C2F8370C1E0FA
:10199000D0E002C0CC0FDD1F8A95E2F7A1CFDC2F8B
:1019A000CC27C16FD06A6ACFCE018370992721E01E
:1019B00030E002C0220F331F8A95E2F7C695C69524
:1019C00080E2C89FE0011124C22BD32BDA6856CFE6
:1019D0008C2F0E94990DC82FD0E0DC2FCC27CC276C
:1019E000DF71D0624BCF8C2F8F700E94990D34E045
:1019F000D695C7953A95E1F7CF70DC2FC82FD069FF
:101A00003DCF803E910599F1C8F48133910509F4E9
:101A100076C048F48932910509F46AC08A3291058A
:101A200009F474C0089589339105D1F08238910585
:101A3000B9F08533910509F454C00895843E9105A9
:101A400099F138F4823E9105F9F0833E910509F150
:101A50000895863E910599F1873E9105B9F1089563
:101A60002091FE022370A1F080EE90E00895209175
:101A7000FE0220FD52C03091FF0230FF09C024FF5A
:101A80004FC090E080E004C02091FE0222FDF7CF1D
:101A900008952091FE0222FD46C03091FF0230FDE4
:101AA000E3CF24FFF5CFEDCF2091FF0221FFF0CF50
:101AB0008091FE0284FDE5CF87EE90E008952091AD
:101AC000FE0223FFE5CF24FDDCCFF6CF2091FE02FE
:101AD00023FD2CC03091FF0231FFE3CF84EE90E074
:101AE00008952091FE0225FFD3CF89E290E008956A
:101AF0002091FE0225FFCCCF85E390E00895209150
:101B0000FE0226FFC5CF8AE290E008952091FE02F2
:101B100026FFBECF81E390E0089589E390E0089529
:101B200083EE90E0089582EE90E0089586EE90E0D6
:101B300008959091FE0292FF06C0282F2871283048
:101B4000F9F4877F846093FF06C0282F287128311D
:101B5000F1F4877E84612091FF0220FF06C0382FB8
:101B600038713830D9F4877F816021FF06C0282F73
:101B700028712831D1F4877E816194FD877E089594
:101B8000282F24712430F9F68B7F8860DCCF282F32
:101B90002471243101F78B7E8861DDCF382F3171BC
:101BA000313019F78E7F8860E0CF282F21712131E5
:101BB00021F78E7E8861E1CFCF93DF9300D000D0F4
:101BC000CDB7DEB794E0899FF0011124EF50FE4FAE
:101BD00080819181A281B381BC01CD010F900F90D2
:101BE0000F900F90DF91CF910895089580EA8A9524
:101BF000F1F70895CF93DF93CFE4D1E025E531E00D
:101C000041E050E08991E82FE295EF70A1E2AE0F3C
:101C1000B0E0FC918F70BA0101C0660F8A95EAF7B7
:101C2000962F90959F239C93EE5DF0E08081862B0C
:101C300080832C173D0731F7CBE3D1E02FE431E06F
:101C400041E050E08991E82FE295EF70A1E2AE0FFC
:101C5000B0E0FC918F70BA0101C0660F8A95EAF777
:101C6000962F90959F239C93EE5DF0E08081862BCC
:101C700080832C173D0731F788E1E9E0F2E0DF01CE
:101C8000982F1D929A95E9F7E1EFF1E0DF011D929F
:101C90008A95E9F786E00E94150FDF91CF910C94A9
:101CA000740B2F923F924F925F926F927F928F921E
:101CB0009F92AF92BF92CF92DF92EF92FF920F93DB
:101CC0001F93CF93DF9300D000D00F92CDB7DEB734
:101CD0008FE4C82E81E0D82E99E0E92E92E0F92E0B
:101CE000712C812C912C54018394F60181916F0108
:101CF000F82FF295FF70FB830F2F0F5D10E0F801B6
:101D000090818F7021E030E002C0220F331F8A954E
:101D1000E2F73A832983822F892B80833B813E5DC2
:101D2000832F90E09D838C83FC018081622E6094E0
:101D3000862180830E94F60DABE3B1E090E080E065
:101D400040E050E0BA015D90E52DE295EF70E05E75
:101D5000F0E0208130E0E52DEF7002C03595279549
:101D6000EA95E2F720FD5AC014012501082E04C0AF
:101D7000220C331C441C551C0A94D2F742295329C7
:101D800064297529019684319105E9F6F80180816D
:101D900068226082EC81FD818081F9818F2BEC814A
:101DA000FD818083F70180819181A281B3814817F1
:101DB00059076A077B07B9F14083518362837383B4
:101DC00081E0782AF4E0EF0EF11C25E5C21621E04F
:101DD000D20609F08ACF272D46E061EF71E089E055
:101DE00092E00E94160F0E947C0B872D0F900F909F
:101DF0000F900F900F90DF91CF911F910F91FF9057
:101E0000EF90DF90CF90BF90AF909F908F907F909A
:101E10006F905F904F903F902F900895212C312C20
:101E2000412C512CABCF80E0CCCF0895FF920F9383
:101E30001F93CF93DF93F82E092F162FD72FC42F80
:101E4000222349F081E0809323020E94E21E9093B6
:101E5000220280932102809123028823A1F08091A5
:101E60002102909122020E94EE1E069760F0EF2D53
:101E7000F02FA12FBD2F90E080E0D0E08C179D07C0
:101E800044F010922302DF91CF911F910F91FF90A8
:101E9000089501911191219131910D931D932D93ED
:101EA0003D930196EBCF0F931F93CF93DF93C62FF4
:101EB000D42F022FFC0182818823C9F0609326026F
:101EC0000E94E21E909325028093240280E28C0FF0
:101ED000883008F050C0C77081E001C0880FCA95F3
:101EE000EAF7DF91CF911F910F910C94F4121091AA
:101EF0002602161335C080912402909125020E947B
:101F0000EE1E883C910560F5C0E2CD0F1D17B9F0BB
:101F100080E2810F883040F4177081E001C0880FA3
:101F20001A95EAF70E94FB12C83048F481E09D2F11
:101F3000977001C0880F9A95EAF70E94F412802FDB
:101F40000E94E112C830B8F4D77081E001C0880F58
:101F5000DA95EAF7DF91CF911F910F910C94FB1264
:101F600080E28C0F883038F4C77081E001C0880FA0
:101F7000CA95EAF7EFCFDF91CF911F910F910895A6
:101F80009C01CB01233F4CE5340769F190F4283DD7
:101F9000FCE53F0721F1293D4CE5340781F1273D60
:101FA0003C45B1F0FC018281882361F11092260248
:101FB0000895253FFCE53F07D1F0263F4CE5340767
:101FC000D1F0243F3C4571F727E245EE64EE03C0B3
:101FD00026E241EE61EE0E94530F80E0089527E271
:101FE00045EE65EEF8CF26E241EE60EEF4CF26E254
:101FF00041EE62EEF0CF27E245EE66EEECCF28E24E
:1020000041E0EFCF81E00895CF93DF93EC01FB0136
:102010008281882309F4C9C0C631FCE5DF07E0F4FA
:10202000C2309CE5D907F0F00E94FC1C9093FF029F
:102030008093FE02C631ECE5DE0720F5C230FCE5F8
:10204000DF0798F48091FE029091FF020E940A1D22
:102050000E94A91580E006C09E012A5F3C452930F8
:10206000310510F3DF91CF910895FE01E350FC4557
:102070008091FE028160E331F10588F4E653F94D69
:102080000C946526CA5FDC45C930D105D8F6C35229
:10209000D94DFE010C9465268091FE0282608093EA
:1020A000FE02D0CF8091FE028460F9CF8091FE02C3
:1020B0008860F5CF8091FF0281608093FF02C2CFDC
:1020C0008091FF028260F9CF8091FE028061E7CFAC
:1020D0008091FE028062E3CF8091FE028064DFCFB8
:1020E0000E94A9158091FE028068D9CF8091FE02DE
:1020F0008C60D5CF8091FF028360DFCF8091FE029C
:102100008E7FCDCF8091FE028D7FC9CF8091FE0260
:102110008B7FC5CF8091FE02877FC1CF8091FF0268
:102120008E7FCBCF8091FF028D7FC7CF8091FE0243
:102130008F7EB5CF8091FE028F7DB1CF8091FE0260
:102140008F7BADCF0E94A9158091FE028F77A7CF1C
:102150008091FE02837FA3CF8091FF028C7FADCF61
:102160008091FE0282FB992790F921E0922790FB53
:1021700082F990FB83F993CF8091FF02982F90957D
:1021800091708E7F892B90FB81F997CF0E94A915C2
:102190009091FE02892F97FB87F9805880CF81E0CC
:1021A0000E94881D4FCF80E0FBCF81E05BCFCF93B3
:1021B000DF93EB0186319C4511F50E94E91B9A8162
:1021C000992399F08A7A91E009F490E0909327029C
:1021D000811109C089E20E94C41B0E943B1C80E05F
:1021E000DF91CF91089585E3F6CF80912702811189
:1021F00004C089E20E94CB1BF0CF85E3FBCF81E0D6
:10220000EFCF90932D0280932C020895E0912C0241
:10221000F0912D02309721F00190F081E02D09948A
:1022200080E00895DC01E0912C02F0912D023097BE
:1022300099F080910C01882351F08091FE0287FF74
:1022400006C08C9111968C93119785E08C93028037
:10225000F381E02DCD010994089520912A02309157
:102260002B022817390771F090932B0280932A02D2
:10227000E0912C02F0912D02309721F00680F78139
:10228000E02D099408952091280230912902281701
:10229000390771F09093290280932802E0912C0273
:1022A000F0912D02309721F00084F185E02D099402
:1022B000089585B7806885BF85B7806885BF089514
:1022C000089508950C94601108950C9464110E946F
:1022D00059110E9461110C94621181E008950C94CF
:1022E0006D110E94D91E0E94FA0D0E94531F0C947A
:1022F00065114F925F926F927F929F92AF92BF92C1
:10230000CF92DF92EF92FF920F931F93CF93DF93C1
:1023100000D000D00F92CDB7DEB70E94510E0E94C0
:102320006F11882309F48DC04FE2A42E42E0B42E31
:1023300010E000E0902E802F0E94DC0D6B017C01EC
:10234000F50141905190619071905F014C145D04D2
:102350006E047F0409F46FC08091F80281FD0E9431
:10236000F50DB301A2014C255D256E257F2520E0EA
:10237000412C512C32014394DB01CA018421952167
:10238000A621B721892B8A2B8B2B09F44CC02983DA
:102390009A82C420D520E620F72081E0CD28CE28DF
:1023A000CF2809F480E08B830E94E21E8160782FA1
:1023B0009D838C8349815A816B818D810E94471254
:1023C000000F111F000F111FF801E15DFD4F80810B
:1023D0009181A281B38184259525A625B725808387
:1023E0009183A283B3830E94061190912E028917D4
:1023F000C9F10E94061180932E020F900F900F904A
:102400000F900F90DF91CF911F910F91FF90EF9060
:10241000DF90CF90BF90AF909F907F906F905F9034
:102420004F900C94820B2F5F440C551C661C771C3C
:10243000243109F0A1CF0F5F1F4F0630110509F0BD
:1024400079CF8FEF89838A831B820E94E21E81608D
:10245000782F9D838C8349815A816B818D810E9465
:102460004712C1CF0F900F900F900F900F90DF91F8
:10247000CF911F910F91FF90EF90DF90CF90BF9081
:10248000AF909F907F906F905F904F900895CF9303
:10249000DF93CDB7DEB72B970FB6F894DEBF0FBE34
:1024A000CDBF4F83588769877A878B871E8285E0E7
:1024B000FE013796DE01119601900D928A95E1F7A3
:1024C00049815A816B817C818D819E812B960FB6CB
:1024D000F894DEBF0FBECDBFDF91CF910C940B18E7
:1024E000FC01808191810C948E1BCF93C82F88238F
:1024F000F1F18CEF8C0F813AA0F46C2F80910001E8
:10250000909101010E94A11D882329F08C2F0E9427
:10251000CB1B0E943B1C8C2F0E94C41BCF910C94A0
:102520003B1C80E28C0F883048F4C77081E001C00A
:10253000880FCA95EAF70E94EC1BF0CF8BE58C0F51
:10254000833038F42C2F2452330BC901CF910C94D3
:102550002D11C85AC73158F4EC2FF0E0EE0FFF1FD1
:10256000EB5AFE4F80819181CF910C944311CF9112
:102570000895882329F19CEF980F913A20F40E9446
:10258000CB1B0C943B1C90E2980F983050F4877052
:1025900091E001C0990F8A95EAF7892F0E94F21BFA
:1025A000F0CF9BE5980F933020F490E080E00C94FE
:1025B0002D11885A873120F490E080E00C9443116B
:1025C0000895CF93C82F0E947512C93349F42FEF95
:1025D00087EE93E0215080409040E1F700C000007A
:1025E0008C2FCF910C94B912882321F00E94EC1B00
:1025F0000C943B1C0895882321F00E94F21B0C943C
:102600003B1C0895AF92BF92CF92DF92EF92FF9260
:102610000F931F93CF93DF9300D000D00F92CDB7CD
:10262000DEB76C016D837983FC01058102950F7023
:10263000128111110E940E1C0E94E21BE82E8823B9
:1026400091F01123D1F08981807F803421F08D8138
:10265000805E883090F082E00E94861C0E94E21B1F
:1026600091E0E82EE926A980A2949FE0A922B12C4E
:10267000F501EA51F94D0C946526E12CF4CF09815E
:102680000F70F981F07F11F00295007F1123B1F0F6
:10269000002361F08D81805E883018F02D8121113A
:1026A00009C0802F0E94EC1B0E943B1C8D810E9460
:1026B000751215C0802F0E94001CF6CF8D810E94DC
:1026C000B912002361F08D81805E883018F04D8151
:1026D000411133C0802F0E94F21B0E943B1C48E036
:1026E000A41AB10854E0A516B10420F40E94061102
:1026F0000E94820BEE2009F4CBC10E94DE1B80FDFC
:10270000C7C1F60112820E94D81B0E94E519C601BA
:102710000E946F150E94D81B0F900F900F900F9082
:102720000F90DF91CF911F910F91FF90EF90DF906D
:10273000CF90BF90AF900C94161A802F0E94061C69
:10274000CCCF59815F70F52E6981607F603219F0BE
:10275000F29480EFF8227D81772369F0713049F19E
:10276000112391F1002351F1F601858180FF9ECF65
:102770008F70858323C0112381F0011106C00E9450
:10278000221C8F290E94F412AACF0130C1F70E94A7
:10279000221C8F290E94281CA2CF011106C00E9472
:1027A000311C8F2D0E94FB129ACF013009F497CF74
:1027B000F6CF112329F0063008F091CF8F2DE2CF0C
:1027C000053008F08CCFEDCF002359F3FD81F933AC
:1027D00049F42FEF47EE53E0215040405040E1F7DD
:1027E00000C000008D810E94B91279CF8981869541
:1027F0008695837069F0813009F071CF8D81998160
:102800009370111102C090E080E00E94431167CFE5
:102810008D8199819370111102C090E080E00E9437
:102820002D115DCF8981837009F050C0111157CFF0
:102830004D81429546954770440F440F8D818F70AE
:1028400090E0B0E0A0E0042E04C0880F991FAA1FFA
:10285000BB1F0A94D2F76D8100E010E0980164FF7D
:102860000FC00FE010E020E030E004C0000F111FA7
:10287000221F331F4A95D2F7009510952095309569
:1028800079817695769573707D83B901A801482B7F
:10289000592B6A2B7B2B49835A836B837C835D8105
:1028A00069817A818B819C81523051F0533059F08B
:1028B000513019F00E945D1912CF0E9435190FCFC7
:1028C0000E9485190CCF0E94331909CF112309F4F6
:1028D00045C0698160FF03CF4D81429546954770A1
:1028E000440F440F8D818F7090E0B0E0A0E0042E83
:1028F00004C0880F991FAA1FBB1F0A94D2F7ED814D
:1029000000E010E09801E4FF0FC00FE010E020E0CD
:1029100030E004C0000F111F221F331F4A95D2F769
:102920000095109520953095F981F695F695F37000
:10293000FD83B901A801482B592B6A2B7B2B4983B6
:102940005A836B837C83F230A1F0F330C9F0F1300D
:1029500049F0CB01BA010E94A41AC1CE798171FF5E
:10296000BECEBACF69817A818B819C810E947C1A0C
:10297000B6CE69817A818B819C810E94CC1AAFCEC0
:1029800069817A818B819C810E94AF19A8CE59817F
:102990005F705983112329F0852F0E94E5198D81DD
:1029A000F1CE8D810E94FB1289810E94161A97CE6A
:1029B0006D81623F99F160F4603FD9F0613F39F178
:1029C000112309F444C0011171CE89818F7123C094
:1029D0007D81733F41F1743F99F7112371F1898132
:1029E0008F7189830E94E51963E089810E94711CBF
:1029F00076CE112341F0053008F071CE89818F71B8
:102A00000E944B1A6CCE063008F069CEF7CF898150
:102A10008F71112351F20E94E51961CE89818F7166
:102A20001123C9F3C2CF112329F089818F710E942C
:102A3000C01955CE0E94BB1952CE81E00E94861C5F
:102A4000023008F44CCE82E00E94861C48CE00235F
:102A500061F09D81993309F0C5CEEFEFF7EE23E0E9
:102A6000E150F0402040E1F7BBCE89818F719DCFCE
:102A700049814F706D81C6010E94D60B0E94A51836
:102A80002ECE49814F706D81C6010E94D90B27CE91
:102A90000F900F900F900F900F90DF91CF911F919B
:102AA0000F91FF90EF90DF90CF90BF90AF9008957F
:102AB0000F931F93CF93DF93EC01688179818A8113
:102AC0000E949A1B8C010E94F41A0E943219B801CC
:102AD000CE01DF91CF911F910F910C940213CF93F0
:102AE000DF93EC018B819C81892B29F0898198816E
:102AF00089238F3F59F4DF91CF910895CE010E9431
:102B00005815CE01DF91CF910C94AC0ACE010E94F2
:102B10009A0B8111F3CF0E94E21B882361F38A8113
:102B2000882349F382E0DF91CF910C94861C0E94A8
:102B30000E1C0E941F1C0E943B1C90E080E00E9423
:102B40002D1190E080E00C9443110E94D21B0C9454
:102B500097150E94FD1B0C94A515282F892F82958F
:102B60008F70903C80F48A30B0F4843020F482304E
:102B700090F480E008958630E1F781E0283E88F007
:102B8000213FB9F70EC08C3011F08F3091F793FBD5
:102B9000882780F9089581E0203F39F018F4283E15
:102BA00040F70895243F29F7FCCF08950E948E1B1B
:102BB0000C94AD15CF93DF9300D000D00F92CDB71A
:102BC000DEB70F900F900F900F900F90DF91CF9185
:102BD0000895CF93DF9300D000D000D0CDB7DEB7FB
:102BE00026960FB6F894DEBF0FBECDBFDF91CF9112
:102BF00008951F93CF93DF93E091480216E08091F0
:102C000049028E1304C0DF91CF911F910895CE2FFA
:102C1000D0E01E9FF0011124E65BFD4F4081518101
:102C200062817381848195810E94E915FE0131964C
:102C3000E770E5CF40917A0250917B0260917C026F
:102C400070917D0280917E0290917F020C94E91533
:102C50001F93CF93DF9380917F02807FA9F48091AF
:102C60007C02882389F080914802C09149027091CA
:102C70007A0260917B02A0917D02B0917E02D62FF4
:102C8000D72316E0C81304C0DF91CF911F91089598
:102C900090E0109711F0DF3F19F401968770F2CFA2
:102CA000189F9001199F300D1124F901E65BFD4F2B
:102CB00041816413F2CF40814713EFCF428141112C
:102CC000ECCF438154814A1B5B0B483C510528F7EC
:102CD00080917F028F70806180937F02F901E15BB8
:102CE000FD4F80818F70806180838AE792E00E942F
:102CF0006F15DF91CF911F910C94F915AF92BF9290
:102D0000CF92DF92EF92FF920F931F93CF93DF93B7
:102D1000CDB7DEB72B970FB6F894DEBF0FBECDBF91
:102D20008C0185E0F801DE01179601900D928A95DD
:102D3000E1F7F80140815181E2808AE7A82E82E024
:102D4000B82E60917D0270917E026115710549F087
:102D500090917A0220917B02892F82238F3F09F084
:102D600045C1EE2009F453C14F8358878F81988560
:102D70000E94D615F82E882309F449C186E0F8018F
:102D8000AAE7B2E001900D928A95E1F78AE792E016
:102D90000E9470120E94281626C180917F02382F4F
:102DA000307F683C710508F07CC03111B5C0FE2C45
:102DB000251324C0941322C0E11020C08F708061BD
:102DC00080937F020E941A168AE792E00E946F1594
:102DD00080917F02F80185838F2D2B960FB6F89492
:102DE000DEBF0FBECDBFDF91CF911F910F91FF903E
:102DF000EF90DF90CF90BF90AF900895CD2829F04D
:102E0000842F85238F3F09F084C080E0F82FF17074
:102E1000DF2EE09148022091490236E080FD1CC07F
:102E2000EE20D1F280917F02816080937F02F12CAD
:102E3000D3CF8E2F90E03E9FF0011124E65BFD4F33
:102E40006181651306C06081641303C062816E11E5
:102E5000E7CFFC013196E770E213EBCF4F83588741
:102E60008F8198850E948E1B292F22952F7090327A
:102E700060F0225F2F70223078F49F7051F0F801DB
:102E80009581907F31F4D12C0AC09F7011F0882376
:102E9000D1F3805E8830B8F3C8010E946F15FD2C15
:102EA0009BCF31116EC06E2D7A858B850E94DA150D
:102EB0008AE792E00E946F1586E0F50111928A95EB
:102EC000E9F70E941A16B3CF86E0F801AAE7B2E04C
:102ED00001900D928A95E1F77FCF4F8358878F81BC
:102EE00098850E94D61581113DC080917F02816036
:102EF00080937F02C8010E946F156ECF6E2D7A8578
:102F00008B850E94DA1586E0F50111928A95E9F722
:102F10006AC081E08E257ACF251306C0941304C0C1
:102F2000F801EE2009F453C04F8358878F819885AC
:102F30000E94D615882309F46AC0EE2009F467C000
:102F400080917F02803270F020917A0230917B0272
:102F50003A8329831B82DD82CC828E83CE01019647
:102F60000E946F1586E0F801AAE7B2E001900D9289
:102F70008A95E1F70E9428160E941A16FF24F394FE
:102F80002BCF2513D1CF9413CFCFE110CDCFF801A4
:102F90008583C8010E946F1586E0F50111928A951C
:102FA000E9F71ACF251399CF941397CF80917F0219
:102FB00080FD8ACF982F907F09F486CFF801858312
:102FC000903F31F0982F907F905F8F70892B858391
:102FD000C8010E946F1586E0F801AAE7B2E00190EF
:102FE0000D928A95E1F70E941A16F6CEC380D4801E
:102FF000F0907C02F601E61BF70BBF01F110CDCE7D
:10300000683C710508F07ACFFE2CE110CBCFC801E7
:103010000E946F15B3CF1F93CF93DF93CDB7DEB769
:103020002C970FB6F894DEBF0FBECDBF4F835887E5
:1030300069877A878B879C87CE0107960E947E16C8
:10304000882369F08A859B85892B39F058854F81C3
:10305000852F84238F3F09F071C016E05FC086E0A2
:10306000FE013796DE01119601900D928A95E1F7E7
:103070008A859B85892B89F38F81988589238F3F4A
:1030800061F32091490230E0C901019687709927C8
:10309000409148024817190671F40E94A915109230
:1030A00049021092480286E0EAE7F2E0DF011D9251
:1030B0008A95E9F7D2CF96E0929FD001939FB00D09
:1030C0001124A65BBD4FFE01319601900D929A9599
:1030D000E1F7809349020E94F915BFCF819FC0019B
:1030E0001124865B9D4F0E947E168823E9F0E091B3
:1030F00048021E9FF0011124E65BFD4F4081518183
:1031000062817381848195810E94E91580914802D2
:1031100090E0019687709927809348028091480239
:10312000909149028913DACF2C960FB6F894DEBF3E
:103130000FBECDBFDF91CF911F91089569857A852C
:103140008B859C850E94E91588CFEF92FF920F93A3
:103150001F93CF93DF938C01892B89F0F12CEE2400
:10316000E394E8012196F8018491843709F458C06A
:10317000A0F4823009F43FC048F48130D1F0DF91EF
:10318000CF911F910F91FF90EF9008959CEF980FB2
:103190009037A8F70E9475120AC0853709F44EC00F
:1031A0009CE7980F903758F78F770E94B9128E01DD
:1031B00016C00E5F1F4FFE01849190E2980F983069
:1031C00060F48770FE2D01C0FF0F8A95EAF78F2FFC
:1031D0000E94111C0E943B1C02C00E9475128F2D80
:1031E000882309F4BECFEFE9FFE03197F1F700C083
:1031F00000008150F5CF0E5F1F4FFE01849190E2D9
:10320000980F983050F48770FE2D01C0FF0F8A95FB
:10321000EAF78F2F0E94171CDDCF0E94B912DFCF73
:103220000E5F1F4FFE01C491CC23C9F28FE99FE0CE
:103230000197F1F700C00000C150F6CF0E5F1F4F9D
:10324000FE01F490CCCF08950C9423190E94241908
:103250006093CF027093D0028093D1029093D202F8
:103260000C94971508950C942619CF93DF9300D0F2
:1032700000D0CDB7DEB769837A838B839C8380913E
:10328000CF029091D002A091D102B091D2022981B7
:103290003A814B815C81282B392B4A2B5B2B29836C
:1032A0003A834B835C83CA01B9010F900F900F9052
:1032B0000F90DF91CF910C942619CF93DF9300D01C
:1032C00000D0CDB7DEB769837A838B839C838091EE
:1032D000CF029091D002A091D102B091D202298167
:1032E0003A814B815C81282339234A235B2329833C
:1032F0003A834B835C83CA01B9010F900F900F9002
:103300000F90DF91CF910C942619CF93DF9300D0CB
:1033100000D0CDB7DEB769837A838B839C8380919D
:10332000CF029091D002A091D102B091D202298116
:103330003A814B815C81282739274A275B272983DB
:103340003A834B835C83CA01B9010F900F900F90B1
:103350000F90DF91CF910C9426190C94490A0E948A
:10336000AD196093CB027093CC028093CD02909301
:10337000CE020C94971560E070E0CB010C94AF196D
:103380000F931F93CF93DF9300D000D0CDB7DEB75C
:1033900041E050E060E070E08A019B0104C0000F52
:1033A000111F221F331F8A95D2F709831A832B839B
:1033B0003C83C901B8010F900F900F900F90DF91DF
:1033C000CF911F910F910C94AF190F931F93CF932F
:1033D000DF9300D000D0CDB7DEB741E050E060E031
:1033E00070E004C0440F551F661F771F8A95D2F7FF
:1033F0008091CB029091CC02A091CD02B091CE02EF
:103400008A019B01082B192B2A2B3B2B09831A833A
:103410002B833C83C901B8010F900F900F900F9040
:10342000DF91CF911F910F910C94AF190F931F93C0
:10343000CF93DF9300D000D0CDB7DEB741E050E0AE
:1034400060E070E004C0440F551F661F771F8A9527
:10345000D2F740955095609570958091CB029091F0
:10346000CC02A091CD02B091CE028A019B0108232B
:1034700019232A233B2309831A832B833C83C90105
:10348000B8010F900F900F900F90DF91CF911F9187
:103490000F910C94AF190F931F93CF93DF9300D02C
:1034A00000D0CDB7DEB741E050E060E070E004C08E
:1034B000440F551F661F771F8A95D2F78091CB0264
:1034C0009091CC02A091CD02B091CE028A019B01D5
:1034D000082719272A273B2709831A832B833C8334
:1034E000C901B8010F900F900F900F90DF91CF910D
:1034F0001F910F910C94AF19CF93DF9300D000D0A0
:10350000CDB7DEB769837A838B839C838091CB02AE
:103510009091CC02A091CD02B091CE0229813A8146
:103520004B815C81282B392B4A2B5B2B29833A83D7
:103530004B835C83CA01B9010F900F900F900F90DD
:10354000DF91CF910C94AF19CF93DF9300D000D0CF
:10355000CDB7DEB769837A838B839C838091CB025E
:103560009091CC02A091CD02B091CE0229813A81F6
:103570004B815C81282339234A235B2329833A83A7
:103580004B835C83CA01B9010F900F900F900F908D
:10359000DF91CF910C94AF19CF93DF9300D000D07F
:1035A000CDB7DEB769837A838B839C838091CB020E
:1035B0009091CC02A091CD02B091CE0229813A81A6
:1035C0004B815C81282739274A275B2729833A8347
:1035D0004B835C83CA01B9010F900F900F900F903D
:1035E000DF91CF910C94AF190895E82F24E1929FB9
:1035F000E00D11248E2F877041E001C0440F8A95A1
:10360000EAF7E695E695E69585E0E89FF001112456
:10361000E058FD4F30E020E070E05191DF0111975C
:10362000CB01022E02C0969587950A94E2F781702D
:1036300081958527842385278C932F5F3F4F2530E5
:10364000310559F70895E82F24E1929FE00D1124E8
:103650009E2F9770E695E695E69585E0E89FF00148
:103660001124E058FD4F50E040E080E0219130E02F
:10367000092E02C0369527950A94E2F72170332768
:10368000042E01C0220F0A94EAF7822B4F5F5F4F8E
:103690004530510559F70895BF92CF92DF92EF92CE
:1036A000FF920F931F93CF93DF938C01C090CB02B7
:1036B000D090CC02E090CD02F090CE028091CF026B
:1036C0009091D002A091D102B091D202C82AD92AF9
:1036D000EA2AFB2ACFE1D0E0BC2ED701C6010C2E8E
:1036E00004C0B695A795979587950A94D2F780FD63
:1036F0000EC0219788F7B12C8B2DDF91CF911F91B0
:103700000F91FF90EF90DF90CF90BF900895B80198
:103710008C2F0E94F60B019761F3EECFCF93DF93CE
:10372000D82FC92F0E944C1B6D2F7C2FDF91CF917A
:103730000C94F60B1F93CF93DF93162FD72F9091F6
:103740004702992339F0862F972FDF91CF911F9150
:103750000C948E1B882391F0862F972F0E944C1B70
:10376000C82F682F812F9D2F0E94F51A612F7D2F62
:103770008C2FDF91CF911F910C94F60B862F972FF2
:103780000E94231BC82FF2CF682F809100019091D7
:1037900001010C94251E682F809100019091010178
:1037A0000C94301E80910001909101010C943B1EFD
:1037B0008091D30285958595859508958091D30252
:1037C000877008959091D302977081E009F480E0AA
:1037D00008958091F70208959091F702982B9093A5
:1037E000F7020895982F90958091F702892380938E
:1037F000F70208958093F70208951092F702089552
:103800009091F602982B9093F6020895982F909538
:103810008091F60289238093F60208951092F602B1
:1038200008959091F502982B9093F5020895982FA2
:1038300090958091F50289238093F5020895109266
:10384000F50208958091D402089508950C94251CE2
:103850009091D402981721F08093D4020C94261CE6
:1038600008958091D402882329F01092D40280E038
:103870000C94261C0895E0910001F09101018091C3
:10388000F7028083E0910001F09101018081909125
:10389000F602892B8083E0910001F0910101808183
:1038A0009091F502892B80839091D402992381F025
:1038B000E0910001F09101018081892B808380914A
:1038C0000001909101010E948D1D81110E94311C07
:1038D00080910001909101010C94121108950C94B3
:1038E0006E1C98E0899F90011124622B6093D30293
:1038F0000E94E5198091D3028595859585950C9454
:103900006F1C1092D30280E00C946F1C9091D30234
:10391000809589238093D302282F277071F4282F54
:10392000082E000C330B9217130639F085958595F8
:1039300085950E94161A0C94811C08950F931F936D
:10394000462F572FBC01CB01AA27BB270097A10503
:10395000B105E9F1AC01BD0180E1052F162F272F3C
:103960003327011511052105310519F0885FB901CB
:10397000A8018A019B01F4E03695279517950795D4
:10398000FA95D1F7011511052105310519F08C5F64
:10399000B901A8018A019B01E2E0369527951795A8
:1039A0000795EA95D1F7011511052105310519F0A3
:1039B0008E5FB901A8017695679557954795452B78
:1039C000462B472B09F08F5F1F910F91089580E0E0
:1039D000C4CF90E080E00E9476269C0181E02C3EDE
:1039E0003E4F09F080E0089582E090E00C946E264E
:1039F00083E090E00C946E26CF9384E090E00E94E8
:103A00006E26C82F81E290E00E946E26982F8C2FA0
:103A1000CF910895CF93682FC92F84E090E00E9442
:103A20007C266C2F81E290E0CF910C947C26AB0138
:103A3000BC018FE090E00C948E26AB01BC0183E1C9
:103A400090E00C948E2660E070E0CB010C941D1D7C
:103A500060E070E0CB010E94171D0C94231D6CEEFA
:103A60007EEF90E080E00E949A2660E082E090E0A5
:103A70000E947C2660E083E090E00E947C26109209
:103A8000CF021092D0021092D1021092D20260E0C6
:103A900084E090E00E947C2660E081E290E00E9459
:103AA0007C2660E085E090E00E947C2660E086E075
:103AB00090E00E947C266FEF87E090E00E947C26D9
:103AC00040E050E0BA0188E090E00E948E2660E07D
:103AD0008DE090E00E947C2640E050E0BA0188E151
:103AE00090E00E948E2660E087E190E00E947C26B4
:103AF00040E050E0BA018CE190E00E948E2660E048
:103B000080E290E00E947C260C94281D0C942F1DCE
:103B1000682F8EE090E00C947C26FC013296809118
:103B20000C01882321F08091FE029EE187FF96E040
:103B300080E0915008F4089521912223D1F38F5F02
:103B4000F8CF9C01662301F180910C018823F1F0EC
:103B50008091FE0287FF1AC0462F469546954695EE
:103B6000603F90F4677081E090E002C0880F991F79
:103B70006A95E2F7240F311DF901228130E02823F4
:103B8000392381E0232B71F480E00895F901329606
:103B9000285F3F4F8191861721F0E217F307D1F795
:103BA000F3CF81E008959C01FC0132968FEF90E005
:103BB0004191461751F08F3F19F4411101C0892FEF
:103BC0009F5F9630A9F78F3F09F40895280F311DA4
:103BD00087FD3A95F901628308959C01FC013296B4
:103BE000285F3F4F8191861303C0DF0111971C921C
:103BF000E217F307B9F70895FC01862F869586959D
:103C00008695603F60F4E80FF11D677021E030E0B9
:103C100001C0220F6A95EAF78281822B8283089580
:103C2000FC01862F869586958695603F68F4E80F9F
:103C3000F11D677081E090E001C0880F6A95EAF796
:103C40008095928189238283089520910C012223FB
:103C500029F02091FE0227FD0C94FC1D0C94D31D2D
:103C600020910C01222329F02091FE0227FD0C94C3
:103C7000101E0C94ED1DFC01329680910C018823DE
:103C800051F08091FE0287FF06C08EE1DF011D9298
:103C90008A95E9F7089586E0F9CF089508950C9480
:103CA0004E1E0E944F1E80912603843049F11092CF
:103CB000F90288E190E020E40FB6F894A89580938B
:103CC00060000FBE2093600080E00E94820B0E9483
:103CD0004F1E83B7817F846083BF83B7816083BFBA
:103CE0007894889583B78E7F83BF0FB6F894A89594
:103CF00080916000886180936000109260000FBE28
:103D000008950895CF93DF9300D000D00F92CDB7E0
:103D1000DEB70E944D1E0E94510E0E94811E1D8220
:103D20008D810E94DC0D672B682B692B71F48D81CE
:103D30008F5F8D838630A1F780E00F900F900F90FA
:103D40000F900F90DF91CF91089581E0F6CF089505
:103D50000C94A71E0E94A9150E9406110E94820BB6
:103D60000C94A81E1F921FB61F9211248F939F932D
:103D7000AF93BF938091F902811113C08091FA0231
:103D80009091FB02A091FC02B091FD024196A11D11
:103D9000B11D8093FA029093FB02A093FC02B093B2
:103DA000FD02BF91AF919F918F911F901FBE1F90F9
:103DB000189582E084BD93E095BD9AEF97BD8093FE
:103DC0006E0008952FB7F8948091FA029091FB024B
:103DD000A091FC02B091FD022FBF08959C014FB746
:103DE000F8948091FA029091FB02A091FC02B091AC
:103DF000FD024FBF821B930B089578941F921FB64C
:103E00001F9211248F939F93AF93BF938091FA02D7
:103E10009091FB02A091FC02B091FD020196A11DC0
:103E2000B11D8093FA029093FB02A093FC02B09321
:103E3000FD02BF91AF919F918F911F901FBE1F9068
:103E40001895F89481E08093E00080E28093D80098
:103E5000E9ECF0E010828FE19EE40197F1F700C0F9
:103E600000001DBA109268001CBC10BE1FBA109250
:103E70007A0010926E0010926F00109270001092F3
:103E8000710010821092BC0011B814B817B81AB89B
:103E90001DB810BA12B815B818B81BB81EB811BAA8
:103EA0000C9400FE0895CF93DF9300D000D0CDB7DF
:103EB000DEB70E94E91C811102C00E94861D0E948B
:103EC000F41C8093F8020E94FC1C9093FF028093E4
:103ED000FE020E94F81C282F30E050E040E02983C9
:103EE0003A834B835C83CA01B9010F900F900F9006
:103EF0000F90DF91CF910C94331980912003089596
:103F00000895CF93DF9300D00F92CDB7DEB7909195
:103F10002603943019F589836A837B8382E080933A
:103F2000E9008FEF9091E800815095FD06C095ED76
:103F30009A95F1F700008111F5CF8091E80085FF97
:103F40000DC050E040E063E070E0CE0101960E94B9
:103F5000B1218091E8008E778093E8000F900F9058
:103F60000F90DF91CF910895CF93DF93D82FC92F72
:103F70000E949421823011F0843039F46D2F7C2F0F
:103F800084E0DF91CF910C94811FDF91CF91089550
:103F9000BC0183E00C94811FCF93DF93D82FC92FEE
:103FA0000E949421823011F08430C9F580910C0177
:103FB0008823C1F18091FE0287FF34C060E282E075
:103FC0008093E9008FEF9091E800815095FD06C045
:103FD00095ED9A95F1F700008111F5CF8091E800F9
:103FE00085FF1DC080910C0170E050E040E0811120
:103FF00004C050E040E068E070E08D2F9C2F0E94EC
:10400000B1218091E8008E778093E80080E2ED2F67
:10401000FC2FA0E0B3E001900D928A95E1F7DF91CB
:10402000CF91089568E081E0CBCF80912F0381117B
:1040300009C00E9439230E949B238091E200846082
:104040008093E200089510922F0308950895089533
:104050000C94AA1E42E061EC81E00E94B52242E28B
:1040600061EC82E00C94B52280912803893089F1BB
:1040700048F4823009F49DC0833009F458C081307F
:1040800041F008958A3009F484C08B3009F46AC085
:10409000089580912703813A09F048C08091E80093
:1040A000877F8093E80080912B0390912C03892BCC
:1040B00061F460E280E093E070E00E940022809171
:1040C000E8008B778093E800089560E090E080E05E
:1040D000F3CF80912703813249F580912B03909192
:1040E0002C03029718F58091E800877F8093E80001
:1040F0008091E80082FF16C08091F2009091F30059
:10410000029729F48091F1008B7F813021F4809116
:10411000F100809320038091E8008B778093E80082
:104120000C94E922809126038111E2CF08958091B9
:104130002703813AD9F780912B0390912C03892B87
:10414000A9F78091E800877F8093E8008091E800DC
:1041500080FFFCCF80910C018093F1008091E800FA
:104160008E77DCCF80912703813201F780912B037A
:1041700090912C03892BD1F68091E800877F809362
:10418000E8000E94E9228091290380930C010C949D
:10419000A91580912703813249F68091E800877F35
:1041A0008093E8000E94E92280912A0380932103F2
:1041B000089580912703813A09F0B8CF8091E800F3
:1041C000877F8093E8008091E80080FFFCCF80919A
:1041D0002103C2CF84B7877F84BF0FB6F894A89518
:1041E00080916000886180936000109260000FBE33
:1041F00080E890E00FB6F89480936100909361009E
:104200000FBE0E9467110E9439230E949B23809158
:10421000E20084608093E20078940E9428260E9445
:10422000711182E091E00E94011180912603853096
:1042300019F00E947911F9CF0E94511E8091230339
:10424000882399F30E94821E882379F30E949B2180
:10425000ECCF0C942B21FC01CB01DA012F2F33275B
:1042600023303105D1F070F42130310509F445C017
:104270002230310569F48BE390E02EEE3AE02D9385
:104280003C9308952132310521F12232310559F153
:1042900090E080E030E020E0F2CFCF019927E230DB
:1042A000A9F08330910550F4009769F0E0EEFAE050
:1042B000019771F7849190E09F01E1CFECEAFAE079
:1042C0000397C1F3E5CFEAEEFAE0F4CFE2EBFAE0D0
:1042D000F1CF892BB9F061307105D1F689E090E01A
:1042E00029E13BE0CCCF892B91F06130710581F65B
:1042F0008DE690E02BE33BE0C2CF82E190E029E243
:104300003BE0BDCF89E090E020E03BE0B8CF80E427
:1043100090E028EA3BE0B3CF80912603843011F48B
:1043200082E0089581E0089580912203811102C006
:104330000C948C21089584E189BD86E189BD09B47E
:1043400000FEFDCF8091D8008F7D8093D8008091B2
:10435000E00082608093E0008091E00081FDFCCF6E
:104360000895AF92BF92CF92DF92FF920F931F9367
:10437000CF93DF936C01EB018A010E940823F82E92
:10438000811123C00115110539F0F8018081918157
:10439000C81BD90BC80ED91EB12CA12C2097A9F08F
:1043A0008091E80085FD22C08091E8008E7780939F
:1043B000E80001151105A1F0F80180819181A80E96
:1043C000B91EB182A08285E0F82E8F2DDF91CF91AA
:1043D0001F910F91FF90DF90CF90BF90AF90089505
:1043E0000E9408238823D1F2F82EEFCFF6018191A5
:1043F0006F018093F1002197FFEFAF1ABF0ACECF74
:10440000FC01CB0120912D0330912E032617370795
:1044100090F0009729F42091E8002E772093E8008F
:1044200040E0009751F4411108C08091E80082FFFC
:1044300031C080E00895C901F3CF209126032223E3
:10444000A9F12530A9F12091E80023FD2DC020918C
:10445000E80022FDEACF2091E80020FFE2CF209182
:10446000F2003091F300009719F02830310558F030
:1044700041E02830310509F040E02091E8002E7736
:104480002093E800CECF41914093F10001972F5F38
:104490003F4FE9CF80912603882341F0853041F0DA
:1044A0008091E80083FFC1CF81E0089582E0089504
:1044B00083E00895FC01CB0120912D0330912E0360
:1044C0002617370790F0009729F42091E8002E77FF
:1044D0002093E80040E0009751F4411108C080911A
:1044E000E80082FF32C080E00895C901F3CF209137
:1044F00026032223B1F12530B1F12091E80023FDFC
:104500002EC02091E80022FDEACF2091E80020FF94
:10451000E2CF2091F2003091F300009719F028309B
:10452000310558F041E02830310509F040E0209194
:10453000E8002E772093E800CECF44914093F1001D
:10454000319601972F5F3F4FE8CF80912603882354
:1045500041F0853041F08091E80083FFC0CF81E0D9
:10456000089582E0089583E00895982F973028F009
:104570008F708093E90081E008959093E900242FE3
:10458000762F50E0981731F07091EC002091ED00FB
:104590005091F00021FD02C09F5FE8CF3091EB0009
:1045A0003E7F3093EB003091ED003D7F3093ED0086
:1045B0003091EB0031603093EB007093EC0020936E
:1045C000ED005093F0002091EE0027FDE5CF80E054
:1045D00008958091270387FF13C08091E80082FF30
:1045E00006C08091E8008B778093E80004C080913A
:1045F00026038111F2CF0895809126038823D9F3F1
:104600008091E80080FFF8CF8091E8008E77ECCFB2
:104610002091E4003091E50095E6A9012091EC009D
:10462000822F817020FF06C08091E80080FF06C0C5
:1046300080E008952091E80022FD1AC080912603B1
:10464000882389F0853089F08091EB0085FD0FC0CB
:104650002091E4003091E50042175307F9F29150A0
:10466000E1F684E0089582E0089583E0089581E012
:1046700008950E94AA230E94B223E0EEF0E0808118
:1046800081608083E8EDF0E080818F77808319BCC2
:10469000A7EDB0E08C918E7F8C9380818F7E80839C
:1046A00010922F0308950F931F93CF93DF930E94CF
:1046B000AA230E94B223C8EDD0E088818F77888337
:1046C00088818068888388818F7D8883E7EDF0E02A
:1046D00080818068808319BC109226031092250384
:1046E000109223031092240300EE10E0F801808161
:1046F0008B7F808388818160888342E060E080E0F6
:104700000E94B522E1EEF0E080818E7F8083E2EEB0
:10471000F0E0808181608083808188608083F801FF
:1047200080818E7F8083888180618883DF91CF91B3
:104730001F910F910895E8EDF0E080818F7E8083D6
:10474000E7EDF0E080818160808381E080932F033A
:104750000C945323E8EDF0E080818C7F80831092ED
:10476000E20008951092DA001092E10008951F927D
:104770000F920FB60F9211240BB60F922F933F9307
:104780004F935F936F937F938F939F93AF93BF9359
:10479000EF93FF938091E10082FF0BC08091E200D4
:1047A00082FF07C08091E1008B7F8093E1000E942F
:1047B00027268091DA0080FF19C08091D80080FF01
:1047C00015C08091DA008E7F8093DA008091D90045
:1047D00080FF96C084E189BD86E189BD09B400FEF1
:1047E000FDCF81E0809326030E9415208091E10097
:1047F00080FF19C08091E20080FF15C08091E20027
:104800008E7F8093E2008091E20080618093E200DD
:104810008091D80080628093D80019BC85E0809395
:1048200026030E9427208091E10084FF29C0809107
:10483000E20084FF25C084E189BD86E189BD09B419
:1048400000FEFDCF8091D8008F7D8093D8008091AD
:10485000E1008F7E8093E1008091E2008F7E809363
:10486000E2008091E20081608093E2008091250364
:10487000882309F44BC084E0809326030E942820FB
:104880008091E10083FF29C08091E20083FF25C071
:104890008091E100877F8093E10082E0809326038E
:1048A000109225038091E1008E7F8093E10080913A
:1048B000E2008E7F8093E2008091E200806180932D
:1048C000E20042E060E080E00E94B5228091F000CA
:1048D00088608093F0000E942620FF91EF91BF91A5
:1048E000AF919F918F917F916F915F914F913F9188
:1048F0002F910F900BBE0F900FBE0F901F90189529
:1049000019BC109226030E94232070CF8091E300EF
:1049100087FD02C081E0B0CF83E0AECF1F920F923F
:104920000FB60F9211240BB60F922F933F934F9314
:104930005F936F937F938F939F93AF93BF93CF9327
:10494000DF93EF93FF93D091E900DF708091EC004B
:10495000C82FC17080FDC0E81092E9008091F0007E
:10496000877F8093F00078940E94D6241092E9000B
:104970008091F00088608093F000CD2BCF70C093C1
:10498000E900FF91EF91DF91CF91BF91AF919F919E
:104990008F917F916F915F914F913F912F910F90E8
:1049A0000BBE0F900FBE0F901F9018951F93CF93C3
:1049B000DF93CDB7DEB7AA970FB6F894DEBF0FBE70
:1049C000CDBF87E293E0FC0101962091F1002083A6
:1049D00023E08F329207B9F70E9434208091E800DB
:1049E00083FF1DC180912703909128039A3008F01E
:1049F00016C1E92FF0E0EA50F94D0C946526803895
:104A000099F0823809F00BC180912B038F708730A9
:104A100008F005C18093E9008091EB0085FB8827B1
:104A200080F91092E90006C080912403909123033D
:104A3000911182609091E800977F9093E8008093B5
:104A4000F1001092F1008091E8008E77E4C0882395
:104A500009F4D2C0823009F0E2C0809129038111AB
:104A6000D5C080912B038F702FEF280F263008F0D0
:104A7000D6C08093E9002091EB0020FFC7C093309F
:104A800031F48091EB0080628093EB00BFC0909185
:104A9000EB0090619093EB0021E030E001C0220F29
:104AA0008A95EAF72093EA001092EA008091EB00E1
:104AB0008860EACF8111B3C0109129031F778091DC
:104AC000E3008078812B8093E3008091E800877F6A
:104AD0008093E8000E94E9228091E80080FFFCCFEB
:104AE0008091E30080688093E30082E0111183E00D
:104AF0008093260394C08058823008F090C0809143
:104B0000290390912A038C3D23E0920799F583E0D5
:104B10008A838AE289834FB7F894DE01139620E0F6
:104B20003EE051E2E32FF0E050935700849120FFE4
:104B300003C082958F703F5F8F708A30C8F0895CA8
:104B400090E08D939D932F5F243161F74FBF80914B
:104B5000E800877F8093E8006AE270E0CE0101966A
:104B60000E9400228091E8008B778093E80057C074
:104B7000805DE6CF60912B0370912C03AE014F5FF7
:104B80005F4F0E942921BC01892B09F448C0809104
:104B9000E800877F8093E80089819A810E945A22E9
:104BA000E1CF8038E1F58091E800877F8093E800CD
:104BB000809125038093F10046CF811130C0909100
:104BC0002903923060F58091E800877F8093E800A8
:104BD000909325030E94E92280912503882311F0F8
:104BE00084E005C08091E30087FDFACF81E08093E7
:104BF00026030E942A2013C080912903813079F472
:104C000081E0933009F080E0809323031092E90063
:104C10008091E800877F8093E8000E94E9228091DC
:104C2000E80083FF0AC08091E800877F8093E80056
:104C30008091EB0080628093EB00AA960FB6F89407
:104C4000DEBF0FBECDBFDF91CF911F9108950895B4
:104C5000CF93809126038823A1F0C091E900CF7003
:104C60009091EC00892F817090FD80E8C82B109204
:104C7000E9008091E80083FD0E94D624CF70C093A4
:104C8000E900CF910895A1E21A2EAA1BBB1BFD01DA
:104C90000DC0AA1FBB1FEE1FFF1FA217B307E4071B
:104CA000F50720F0A21BB30BE40BF50B661F771F73
:104CB000881F991F1A9469F7609570958095909553
:104CC0009B01AC01BD01CF010895EE0FFF1F002431
:104CD000001C0BBE0790F691E02D0994F999FECFC8
:104CE00092BD81BDF89A992780B50895A8E1B0E0FA
:104CF00042E050E00C94A226262FF999FECF92BDF7
:104D000081BDF89A019700B4021639F01FBA20BD90
:104D10000FB6F894FA9AF99A0FBE08950396272FC2
:104D20000E947D260E947C26252F0E947D26242F0E
:104D30000C947D260196272F0E947D260C947C26BC
:104D4000DC01CB01FC01F999FECF06C0F2BDE1BD4B
:104D5000F89A319600B40D9241505040B8F708953A
:104D6000F894FFCF150A480A190A1B0A1D0A1F0AE0
:104D7000210A230A250A480A480A480A480A480A12
:104D8000330A2B0A290A310A2F0A2D0A390A350A51
:104D9000370A270A4C1052105610641068106C1015
:104DA000701076107E10821086108A1096109A105D
:104DB0009E10A210A810C610B0105A1060108E10CD
:104DC00092107A10AC10BC10CF10D3103F133F13C9
:104DD000A113A113F6136F136F136F131214C714DB
:104DE000D814D81438156F136F134115FF242725D5
:104DF0000F2627250F265A257B250F26D125DD25B1
:104E0000D5027D1FCC1F801FC81FB41F01E200E91F
:104E100000EA00B500B600B700CD008301CC008ADF
:104E20000192019401210223022402250226022775
:104E3000022A02B300B4006F007000F2F1F0C6C79E
:104E40003031323334353637949597C0C160616262
:104E50006364656667E200E900EA00B500B600B782
:104E600000CD008301CC008A01920194012102232C
:104E70000224022502260227022A02B300B4006F90
:044E800000700000BE
:00000001FF
