:100000000C94A4050C94C3050C94C3050C94C3056F
:100010000C94C3050C94C3050C94C3050C94C30540
:100020000C94C3050C94C3050C9439220C94102332
:100030000C94341D0C94C3050C94C3050C94C30597
:100040000C94C3050C94C3050C94C3050C94C30510
:100050000C94C3050C947F1D0C94C3050C94C3052C
:100060000C94C3050C94BA060C9490060C94C3052A
:100070000C94C3050C94C3050C94C3050C94C305E0
:100080000C94C3050C94C3050C94C3050C94C305D0
:100090000C94C3050C94C30557696E646F777300A5
:1000A0004D61634F53004C696E75780055490049A6
:1000B0005400454E000102E00102E1750103E10137
:1000C00003E0323061630A000102E20102E1320121
:1000D00003E10103E2000102E201016201015901B1
:1000E000015A0101600103E2000102E00102E17531
:1000F0000103E10103E066610A000102E265010318
:10010000E275000102E201016201015A01015D0193
:1001100001620103E2000102E00102E1750103E175
:100120000103E064610A000102E2650103E2550097
:100130000102E201016201015A010159010160015C
:1001400003E2000102E00102E1750103E10103E0C5
:1001500066330A000102E2650103E26F000102E278
:1001600001016201015A01015C01015B0103E2002E
:100170000102E00102E1750103E10103E064330AD9
:10018000000102E2650103E24F000102E2010162A7
:1001900001015A0101590101590103E2000102E084
:1001A0000102E1750103E10103E065640A00010257
:1001B000E2650103E269000102E201016201015A04
:1001C00001015B01015F0103E2000102E00102E1C4
:1001D000750103E10103E063640A000102E26501C5
:1001E00003E249000102E201016201015A010162D8
:1001F00001015D0103E2000102E00102E17501037A
:10020000E10103E065390A000102E2650103E265EC
:10021000000102E201016201015A01015B01015B7F
:100220000103E2000102E00102E1750103E10103C3
:10023000E063390A000102E2650103E245000102C0
:10024000E201016201015A0101620101590103E267
:10025000000102E00102E1750103E10103E0653103
:100260000A000102E2650103E261000102E201010C
:100270006201015A01015A01015D0103E20001021C
:10028000E00102E1750103E10103E063310A0001CD
:1002900002E2650103E241000102E20101620101A3
:1002A0005901016101015B0103E2000102E0010269
:1002B000E1750103E10103E066390A000102E26031
:1002C0000103E275000102E201016201015A01012C
:1002D0005C0101610103E2000102E00102E175013C
:1002E00003E10103E064390A000102E2600103E274
:1002F00055000102E201016201015A0101590101A7
:100300005F0103E2000102E00102E1750103E10186
:1003100003E066320A000102E2600103E26F0001BD
:1003200002E201016201015A01015C01015A01036B
:10033000E2000102E00102E1750103E10103E06472
:10034000320A000102E2600103E24F000102E20111
:10035000016201015A0101590101620103E2000138
:1003600002E00102E1750103E10103E065630A00B7
:100370000102E2600103E269000102E2010162019F
:10038000015A01015B01015E0103E2000102E0018B
:1003900002E1750103E10103E063630A000102E287
:1003A000600103E249000102E201016201015A0118
:1003B000016201015C0103E2000102E00102E1755A
:1003C0000103E10103E065380A000102E260010374
:1003D000E265000102E201016201015A01015B01D3
:1003E000015A0103E2000102E00102E1750103E1AB
:1003F0000103E063380A000102E2600103E2450004
:100400000102E201016201015A010162010162017E
:1004100003E2000102E00102E1750103E10103E0F2
:1004200065300A000102E2600103E261000102E2BC
:1004300001016201015A01015A01015C0103E2005C
:100440000102E00102E1750103E10103E063300A0A
:10045000000102E2600103E241000102E2010162E7
:1004600001015901016101015A0103E2000102E0A9
:100470000102E1750103E10103E061370A00360082
:100480000102E201016201015901015E01015F0106
:1004900003E2000102E00102E1750103E10103E072
:1004A00061330A000102E2330103E2000102E201CA
:1004B000015901015D01015E0103E200430B2900C6
:1004C0003A003B003C003D003E003F004000410040
:1004D0004200430044004500115004513A0B3B0BCD
:1004E0003C0B3D0B1D011C0135001E001F002100AF
:1004F0002200230024002500260027002D002A00CA
:1005000046004B0000005400550056003E0B3F0BC8
:100510002B0014001A00200015001C0018000C000D
:10052000120013002F002E0049004A005300600003
:10053000610057001B01400B390004001600080041
:10054000090017000D000E000F00330034003000CA
:100550004C004D005F005D005E0058000601410B3D
:10056000E1001D001B00070019000A000B0010002D
:1005700037003800E5002800310052004E005C00D2
:100580005B0063001901420BE000E200E30006009B
:100590002C000500110036000351E600E700E400DE
:1005A000500051004F0059005A0062000100010044
:1005B0000100010001000100010001000100010033
:1005C00001000100010001001250010001000100C2
:1005D00001000100010001003100010001000100E3
:1005E00001000100010001000100010034000100D0
:1005F00001000100000001000100010001000100F4
:1006000001000100010001000100010001000100E2
:10061000010001000D5D0E5D0100010001000100FF
:1006200001000100010001000100010001000100C2
:10063000010001000100010001000F5D0C5D570089
:1006400001000100010001000100010001000100A2
:100650000100010001000100010001000100010092
:1006600001002D0001000100105D010001000100EA
:100670000100010001000100010001000100010072
:100680000100010001000100010001000100010062
:100690000100010001000100010001000100010052
:1006A0000100010001000100010001000100010042
:1006B00001000100010001001050010001000100D3
:1006C00001000100010001003500010001000100EE
:1006D0000100010001000100010001002D003100B6
:1006E0000100010000000100010001000100010003
:1006F00001000100010001000100010001000100F2
:10070000010001002F002E00010001000100010086
:1007100001000100010001000100010001000100D1
:10072000010001000100010001003300340030002D
:1007300001000100010001000100010001000100B1
:1007400001000100010001000100010001000100A1
:100750003700380001000100010001000100010024
:100760000100010001000100010001000100010081
:10077000010001000100360001000100010001003C
:10078000010001000100010001000100B500055D4C
:10079000035D045D01000100010001000100010092
:1007A0000100010001000100085D010001000100DD
:1007B0000100005C01001D030100010001000A5D51
:1007C0000100010001000100010001000100010021
:1007D0000100010000000100010001000100010012
:1007E000010001000100010001000100105D0E5D2B
:1007F0000F5D010001000100010001000100010086
:10080000010001004C02010001000C5D01000D5DC2
:1008100001000100010001000100010001000100D0
:100820000100010001000100010001004901010077
:100830000100010001000100010001000100A80009
:1008400001000100010001000B5D01000100010039
:100850000100010049020100010001000100010046
:100860000100010001000100010001000100010080
:100870000100010001000100010001000100010070
:10088000065D075D0100010001000100010001009B
:100890000100010001000100010001000100010050
:1008A0000100010001000100010001000100010040
:1008B0000100010001000100010001000100010030
:1008C0000100010000000100010001000100010021
:1008D0000100010001000100010001000100010010
:1008E0000100010001000100010001000100010000
:1008F00001000100010001000100010001000100F0
:1009000001000100010001000100010001000100DF
:1009100001000100010001000100010001000100CF
:1009200001000100010001000100010001000100BF
:1009300001000100010001000100010001000100AF
:10094000010001000100010001000100010001009F
:10095000010001000100010001000100010001008F
:100960000100010001000100010001000000000081
:10097000000000002A2B28000000000000000000FA
:100980000000000000000029000000002C1E3420A0
:10099000212224342627252E362D3738271E1F20C6
:1009A0002122232425263333362E37381F0405060B
:1009B0000708090A0B0C0D0E0F101112131415164F
:1009C0001718191A1B1C1D2F3130232D350405064D
:1009D0000708090A0B0C0D0E0F101112131415162F
:1009E0001718191A1B1C1D2F3130354C0000000040
:1009F00000000000000000000000000000000000F7
:100A00007E0F00D4FFFFFFC7000000780403300012
:100A100000002C03460061007400200042006F00BB
:100A2000740074006F006D006500640020004B00CE
:100A30006500790062006F006100720064000000D0
:100A40000803420065006E00000004030904090267
:100A50003B00020100A0FA090400000103010100AB
:100A60000921110100012240000705810308000A45
:100A70000904010001030000000921110100012205
:100A80006D000705820320000A120110010000001A
:100A900008DE08DEC001000102030105010980A192
:100AA00001850319012AB700150126B700950175C4
:100AB000108100C0050C0901A101850419012AA0BB
:100AC00002150126A002950175108100C0050109DB
:100AD00006A1018505050719E029E71500250195FF
:100AE00008750181020507190029EF1500250195F8
:100AF000F075018102050819012905950575019117
:100B000002950175039101C005010906A1010507C0
:100B100019E029E715002501950875018102950165
:100B2000750881010507190029FF150026FF0095AA
:100B300006750881000508190129059505750191BB
:100B400002950175039101C011241FBECFEFD0E2C1
:100B5000DEBFCDBF11E0A0E0B1E0E6EEFAE400E0D8
:100B60000BBF02C007900D92A438B107D9F723E05C
:100B7000A4E8B1E001C01D92A033B207E1F70E94E2
:100B80006C1F0C9432250C9400000C94E3060C941A
:100B9000E4060C94EF088093840108958091840109
:100BA00008959B01AC01F89460E079E08DE390E05A
:100BB0000E94C52421503109410951095695479594
:100BC000379527953093CD002093CC0082E0809319
:100BD000C80088E98093C90086E08093CA0010921B
:100BE000C7011092C8011092850110928601789475
:100BF00008952FEF83ED90E3215080409040E1F77E
:100C000000C0000060E875E280E090E00E94D1053D
:100C10000C94E0069091C8019F5F983208F090E034
:100C20002091C7012917E1F3E92FF0E0E753FE4FC8
:100C300080839093C80188EB8093C9000895CF9377
:100C4000DF93EC01FE0184912196882361F00E94DC
:100C50000A06FFEF29EF80E0F15020408040E1F7E5
:100C600000C00000EFCFDF91CF910895CF93DF93C5
:100C7000D82FC92F2FEF81EE94E021508040904073
:100C8000E1F700C000008CE60E940A062FEF89EF12
:100C900090E0215080409040E1F700C000008D2F8F
:100CA0009C2F0E941F068AE0DF91CF910C940A06C8
:100CB0002FEF81EE94E0215080409040E1F700C09A
:100CC00000008FE60E940A062FEF89EF90E0215086
:100CD00080409040E1F700C00000809184018823AB
:100CE00029F0813051F088E990E002C086EA90E076
:100CF0000E941F068AE00C940A0680EA90E0F8CF72
:100D000080918401882329F0813041F01092840180
:100D100003C081E0809384010C94580682E0FACFEE
:100D20008F938FB78F938BB78F939F93EF93FF938F
:100D30009091C8018091C70198130CC088E98093F5
:100D4000C900FF91EF919F918F918BBF8F918FBFC2
:100D50008F9118958091C7018F5F883208F080E0ED
:100D6000E82FF0E0E753FE4F90819093CE00809300
:100D7000C701E7CF2F932FB72F932BB72F938F93C5
:100D80009F93EF93FF939091CE00809186018F5FA8
:100D9000803408F080E020918501281739F0E82F91
:100DA000F0E0E957FE4F908380938601FF91EF9129
:100DB0009F918F912F912BBF2F912FBF2F9118951E
:100DC00080E00C94CB050895CF93FC01DB011296D3
:100DD0008C91811103C081E0CF910895E131BDE58F
:100DE000FB07D0F7E8309DE5F90720F5E231F10582
:100DF00009F480C140F5E830F10509F42DC1EC306B
:100E0000F10509F450C1349739F70E946E1AC82FC2
:100E100086FFE1CF0E947F1AC27209F40EC10E94C0
:100E2000CE05813009F403C1823009F003C188E99D
:100E300092E02CC0E850FD45E930F10568F6EC5C25
:100E4000FA4D0C94E724E831F10509F47AC1B19721
:100E500019F60E946E1A86FFBECF0E947F1A0E946A
:100E6000CE05813009F494C1823009F094C186ED39
:100E700090E00CC00E94800680E0AECF0E94CE05BC
:100E8000813039F0823041F48CEA94E00E94F60916
:100E9000F3CF84EA94E0FACF83E994E0F7CF0E949D
:100EA000CE05813029F0823031F480E894E0EECF35
:100EB0008EE794E0EBCF8DE694E0E8CF0E946E1AC7
:100EC000C82F0E947F1AC27279F00E94CE0581302D
:100ED00029F0823031F48AE594E0D8CF81E594E0BE
:100EE000D5CF80E494E0D2CF0E94CE05813029F0A6
:100EF000823031F48DE294E0C9CF84E294E0C6CF31
:100F000083E194E0C3CF0E946E1AC82F0E947F1A1B
:100F1000C27279F00E94CE05813029F0823031F41E
:100F200080E094E0B3CF87EF93E0B0CF86EE93E01C
:100F3000ADCF0E94CE05813029F0823031F483EDAF
:100F400093E0A4CF8AEC93E0A1CF89EB93E09ECF0E
:100F50000E946E1AC82F0E947F1AC27279F00E94F6
:100F6000CE05813029F0823031F486EA93E08ECFCD
:100F70008DE993E08BCF8CE893E088CF0E94CE057B
:100F8000813029F0823031F489E793E07FCF80E728
:100F900093E07CCF8FE593E079CF0E946E1AC82F43
:100FA0000E947F1AC27279F00E94CE05813029F02A
:100FB000823031F48CE493E069CF83E493E066CF30
:100FC00082E393E063CF0E94CE05813029F0823026
:100FD00031F48FE193E05ACF86E193E057CF85E07B
:100FE00093E054CF0E946E1AC82F0E947F1AC272DB
:100FF00079F00E94CE05813029F0823031F482EF01
:1010000092E044CF89EE92E041CF88ED92E03ECF6E
:101010000E94CE05813029F0823031F485EC92E0D7
:1010200035CF8CEB92E032CF8BEA92E02FCF8FE876
:1010300092E02CCF8EE792E029CF0E94CE0581303E
:1010400029F0823031F48BE692E020CF82E692E004
:101050001DCF81E592E01ACF0E946E1AC82F86FF3D
:10106000BACE0E947F1AC27279F00E94CE058130FA
:1010700029F0823031F48EE392E008CF85E392E0EC
:1010800005CF84E292E002CF0E94CE05813029F0A4
:10109000823031F481E192E0F9CE88E092E0F6CE40
:1010A00087EF91E0F3CE0E946E1AC82F86FF93CE91
:1010B0000E947F1AC27279F00E94CE05813029F019
:1010C000823031F484EE91E0E1CE8BED91E0DECE22
:1010D0008AEC91E0DBCE0E94CE05813029F082308F
:1010E00031F487EB91E0D2CE8EEA91E0CFCE8DE95C
:1010F00091E0CCCE0E946E1AC82F86FF6CCE0E9463
:101100007F1AC27279F00E94CE05813029F08230B8
:1011100031F48AE891E0BACE81E891E0B7CE80E779
:1011200091E0B4CE0E94CE05813029F0823031F4B6
:101130008DE591E0ABCE84E591E0A8CE83E491E02B
:10114000A5CE0E946E1AC82F86FF45CE0E947F1A38
:10115000C27279F00E94CE05813029F0823031F4DC
:1011600080E391E093CE87E291E090CE86E191E03A
:101170008DCE0E94CE05813029F0823031F483E09B
:1011800091E084CE8AEF90E081CE89EE90E07ECE31
:1011900088EC90E07BCE85EB90E078CE0F931F93A8
:1011A000CF93DF938B01D82FC92F0E94201B813052
:1011B00081F0823089F0811104C082EB90E00E94BE
:1011C0003606B8018D2F9C2FDF91CF911F910F9183
:1011D00008958FEA90E0F3CF8CEA90E0F0CF089585
:1011E00081E0089508950C94F2081F93CF93DF9344
:1011F00000D000D00F92CDB7DEB749835A836B83FE
:101200003091470289819A8131111DC06623B9F05E
:101210002223A9F00E94D119182F682F89819A8161
:101220000E947A1969817A81812F0F900F900F9017
:101230000F900F90DF91CF911F910C945F0A0E9445
:10124000A819182FEFCF0E94D11969817A81EDCFAB
:10125000FC01262F408151816281738184810C942D
:10126000F508CF93DF93D82FC92F60E00E9428099B
:101270006D2F7C2FDF91CF910C94F308FF920F9389
:101280001F93CF93DF93E82FF0E0E459F64FF490EB
:10129000C82FC695C695C695D0E0FE01E450F64F1E
:1012A0000491877010E0082E02C0159507950A94E6
:1012B000E2F701701127C451D64FFE01C491D0E06E
:1012C00002C0D595C7958A95E2F7C170DD27011553
:1012D000110519F081EE0E94FA10209719F086EEA0
:1012E0000E94FA108F2D0E946611CD2B19F086EE08
:1012F0000E943E11012B41F081EEDF91CF911F91B1
:101300000F91FF900C943E11DF91CF911F910F919F
:10131000FF900895EF92FF920F931F93CF93DF9367
:101320008C01F62E8AE0E82EF8018491882309F4D6
:1013300056C0813009F04FC0E8012196FE0184912A
:10134000813099F42196FE0184910E9466118E01EC
:101350000F5F1F4F8F2D882339F3EFE9FFE031979F
:10136000F1F700C000008150F6CF823039F4E80177
:101370002296FE0184910E94FA10E9CF833039F45D
:10138000E8012296FE0184910E943E11E0CF843054
:10139000F1F6E8012296FE01249180E090E0FE0142
:1013A00031962053330B2A30310550F0009779F2F3
:1013B000EFE9FFE03197F1F700C000000197F6CFA9
:1013C000E89EA001E99E500D1124C901840F951FCC
:1013D0002491EF01E4CF0E943E09E801B8CFDF91EC
:1013E000CF911F910F91FF90EF90089560E00C94C2
:1013F0008A090E946B1B811102C00E94081C0C9478
:10140000F9050C94C50581E008950C94030ACF9367
:10141000C82F0E94C9058C2FCF910C94050A0895FE
:101420000E942E140E940F0A2FEF84E39CE02150AB
:1014300080409040E1F700C000000C94A31D0F9382
:101440001F93CF93DF93EC0161E00E9428098C0188
:10145000BE010E94C705882329F1BE01C8010E9470
:10146000450E8823F9F0BE01C8010E94890E882329
:10147000C9F0BE01C8010E945C0F882399F08A81DF
:10148000882339F001158CE5180751F00E3D1C45F5
:1014900079F0CE01DF91CF911F910F910C94F0085C
:1014A0000E94100A80E0DF91CF911F910F91089563
:1014B0000E94081CF7CF90E080E008950895972FD0
:1014C00070E024E1929F600D711D1124FB0198E7EB
:1014D000899FE00DF11D1124EE0FFF1FE454FB4F17
:1014E000859194910895FC01EE0FFF1FE45FF54F85
:1014F000859194910895CF93DF930E945F0A0E9493
:10150000860BEC01811521E5920708F048C0811592
:1015100030E5930708F0AFC0803E910518F5803C98
:10152000910508F096C0883A910570F4853A9105C6
:1015300008F08CC08130910531F10497813A910512
:1015400010F1D0E0C0E01FC08F3B9105D1F3C85A25
:10155000D0E0CC0FDD1FC35FDE4F0990D881C02DD6
:10156000D46411C0811540E3940788F4C11580E26A
:10157000D80708F074C0C83ED10528F0CE019A956E
:1015800081159F41F0F6CE01DF91CF91089581152D
:1015900030E4930708F466C0DF70D06AF4CF811599
:1015A000964560F5C11585E5D80708F096C0C115C8
:1015B00094E5D907F0F4C11523E5D20708F079C006
:1015C000C11532E5D30708F46FC0CE0183709927A7
:1015D00021E030E002C0220F331F8A95E2F7C69562
:1015E000C69540E2C49FE0011124C22BD32BDC68D6
:1015F000CACFDC2FCC27C46FD06AC5CFC1158AE50E
:10160000D80788F4C11599E5D90708F071C0CE0153
:1016100098558F3F910511F008F093CFDC2FCC2720
:10162000C06FD06AB0CFCE0190568115904208F0BD
:1016300088CF8D2F8F710E941E0C90E0982F8827E5
:1016400088279F719C012C2BE90150C0A497D0647E
:101650009ACF805C91090E94730AEC0194CFCE016D
:101660009F70F9CF9927D3FF03C0EC01D86C8BCFC3
:10167000EC01D06C88CF74E0969587957A95E1F768
:1016800083702C2F26952695237040E2249F90018D
:101690001124382B8C2F8370C1E0D0E002C0CC0F16
:1016A000DD1F8A95E2F7A1CFDC2FCC27C16FD06A6E
:1016B0006ACFCE018370992721E030E002C0220F6B
:1016C000331F8A95E2F7C695C69580E2C89FE00170
:1016D0001124C22BD32BDA6856CF8C2F0E941E0CFC
:1016E000C82FD0E0DC2FCC27CC27DF71D0624BCFC6
:1016F0008C2F8F700E941E0C34E0D695C7953A95BA
:10170000E1F7CF70DC2FC82FD0693DCF803E910527
:1017100099F1C8F48133910509F476C048F489320F
:10172000910509F46AC08A32910509F474C00895DC
:1017300089339105D1F082389105B9F0853391054F
:1017400009F454C00895843E910599F138F4823E1D
:101750009105F9F0833E910509F10895863E9105C2
:1017600099F1873E9105B9F108952091FE02237009
:10177000A1F080EE90E008952091FE0220FD52C07D
:101780003091FF0230FF09C024FF4FC090E080E09D
:1017900004C02091FE0222FDF7CF08952091FE02A1
:1017A00022FD46C03091FF0230FDE3CF24FFF5CF8C
:1017B000EDCF2091FF0221FFF0CF8091FE0284FD4A
:1017C000E5CF87EE90E008952091FE0223FFE5CF5C
:1017D00024FDDCCFF6CF2091FE0223FD2CC03091FA
:1017E000FF0231FFE3CF84EE90E008952091FE02E6
:1017F00025FFD3CF89E290E008952091FE0225FFD6
:10180000CCCF85E390E008952091FE0226FFC5CF5E
:101810008AE290E008952091FE0226FFBECF81E388
:1018200090E0089589E390E0089583EE90E00895B4
:1018300082EE90E0089586EE90E008959091FE0289
:1018400092FF06C0282F28712830F9F4877F846022
:1018500093FF06C0282F28712831F1F4877E846118
:101860002091FF0220FF06C0382F38713830D9F49C
:10187000877F816021FF06C0282F28712831D1F48D
:10188000877E816194FD877E0895282F24712430FE
:10189000F9F68B7F8860DCCF282F2471243101F783
:1018A0008B7E8861DDCF382F3171313019F78E7F13
:1018B0008860E0CF282F2171213121F78E7E886149
:1018C000E1CFCF93DF9300D000D0CDB7DEB794E067
:1018D000899FF0011124EF50FE4F80819181A281F8
:1018E000B381BC01CD010F900F900F900F90DF914D
:1018F000CF910895089580EA8A95F1F70895CF93DE
:10190000DF93CFE4D1E025E531E041E050E089917B
:10191000E82FE295EF70A1E2AE0FB0E0FC918F707E
:10192000BA0101C0660F8A95EAF7962F90959F231A
:101930009C93EE5DF0E08081862B80832C173D0721
:1019400031F7CBE3D1E02FE431E041E050E0899181
:10195000E82FE295EF70A1E2AE0FB0E0FC918F703E
:10196000BA0101C0660F8A95EAF7962F90959F23DA
:101970009C93EE5DF0E08081862B80832C173D07E1
:1019800031F788E1E9E0F2E0DF01982F1D929A95A6
:10199000E9F7E1EFF1E0DF011D928A95E9F786E0D2
:1019A0000E949A0DDF91CF910C94F9092F923F92EA
:1019B0004F925F926F927F928F929F92AF92BF925F
:1019C000CF92DF92EF92FF920F931F93CF93DF930B
:1019D00000D000D00F92CDB7DEB78FE4C82E81E0E3
:1019E000D82E99E0E92E92E0F92E712C812C912CC1
:1019F00054018394F60181916F01F82FF295FF70E5
:101A0000FB830F2F0F5D10E0F80190818F7021E0B4
:101A100030E002C0220F331F8A95E2F73A83298310
:101A2000822F892B80833B813E5D832F90E09D83B5
:101A30008C83FC018081622E6094862180830E94C9
:101A40007B0CABE3B1E090E080E040E050E0BA0115
:101A50005D90E52DE295EF70E05EF0E0208130E0F2
:101A6000E52DEF7002C035952795EA95E2F720FD48
:101A70005AC014012501082E04C0220C331C441C3A
:101A8000551C0A94D2F742295329642975290196D5
:101A900084319105E9F6F801808168226082EC8149
:101AA000FD818081F9818F2BEC81FD818083F7019D
:101AB00080819181A281B381481759076A077B070A
:101AC000B9F1408351836283738381E0782AF4E023
:101AD000EF0EF11C25E5C21621E0D20609F08ACFEF
:101AE000272D46E061EF71E089E092E00E949B0DB6
:101AF0000E94010A872D0F900F900F900F900F906A
:101B0000DF91CF911F910F91FF90EF90DF90CF90D9
:101B1000BF90AF909F908F907F906F905F904F900D
:101B20003F902F900895212C312C412C512CABCF7C
:101B300080E0CCCF0895FF920F931F93CF93DF9354
:101B4000F82E092F162FD72FC42F222349F081E01A
:101B5000809323020E94641D9093220280932102AD
:101B6000809123028823A1F080912102909122028A
:101B70000E94701D069760F0EF2DF02FA12FBD2F52
:101B800090E080E0D0E08C179D0744F01092230293
:101B9000DF91CF911F910F91FF90089501911191C5
:101BA000219131910D931D932D933D930196EBCF90
:101BB0000F931F93CF93DF93C62FD42F022FFC01D7
:101BC00082818823C9F0609326020E94641D90934D
:101BD00025028093240280E28C0F883008F050C0E8
:101BE000C77081E001C0880FCA95EAF7DF91CF91F5
:101BF0001F910F910C94791110912602161335C084
:101C000080912402909125020E94701D883C9105CC
:101C100060F5C0E2CD0F1D17B9F080E2810F88306A
:101C200040F4177081E001C0880F1A95EAF70E940E
:101C30008011C83048F481E09D2F977001C0880F53
:101C40009A95EAF70E947911802F0E946611C83098
:101C5000B8F4D77081E001C0880FDA95EAF7DF9118
:101C6000CF911F910F910C94801180E28C0F8830DE
:101C700038F4C77081E001C0880FCA95EAF7EFCF4A
:101C8000DF91CF911F910F9108959C01CB01233FCC
:101C90004CE5340769F190F4283DFCE53F0721F15C
:101CA000293D4CE5340781F1273D3C45B1F0FC016D
:101CB0008281882361F1109226020895253FFCE578
:101CC0003F07D1F0263F4CE53407D1F0243F3C4597
:101CD00071F727E245EE64EE03C026E241EE61EEC5
:101CE0000E94D80D80E0089527E245EE65EEF8CF1A
:101CF00026E241EE60EEF4CF26E241EE62EEF0CF56
:101D000027E245EE66EEECCF28E241E0EFCF81E03E
:101D10000895CF93DF93EC01FB018281882309F4BE
:101D2000C9C0C631FCE5DF07E0F4C2309CE5D90745
:101D3000F0F00E947E1B9093FF028093FE02C6315A
:101D4000ECE5DE0720F5C230FCE5DF0798F4809172
:101D5000FE029091FF020E948C1B0E942E1480E0D4
:101D600006C09E012A5F3C452930310510F3DF9102
:101D7000CF910895FE01E350FC458091FE02816001
:101D8000E331F10588F4E35CFA4D0C94E724CA5F73
:101D9000DC45C930D105D8F6C05BDA4DFE010C94A4
:101DA000E7248091FE0282608093FE02D0CF809172
:101DB000FE028460F9CF8091FE028860F5CF8091A9
:101DC000FF0281608093FF02C2CF8091FF02826098
:101DD000F9CF8091FE028061E7CF8091FE028062A0
:101DE000E3CF8091FE028064DFCF0E942E148091A9
:101DF000FE028068D9CF8091FE028C60D5CF8091A1
:101E0000FF028360DFCF8091FE028E7FCDCF809175
:101E1000FE028D7FC9CF8091FE028B7FC5CF80915E
:101E2000FE02877FC1CF8091FF028E7FCBCF809152
:101E3000FF028D7FC7CF8091FE028F7EB5CF80914C
:101E4000FE028F7DB1CF8091FE028F7BADCF0E94CD
:101E50002E148091FE028F77A7CF8091FE02837FA0
:101E6000A3CF8091FF028C7FADCF8091FE0282FBD9
:101E7000992790F921E0922790FB82F990FB83F952
:101E800093CF8091FF02982F909591708E7F892B30
:101E900090FB81F997CF0E942E149091FE02892F1A
:101EA00097FB87F9805880CF81E00E940A1C4FCFB2
:101EB00080E0FBCF81E05BCFCF93DF93EB018631F6
:101EC0009C4511F50E946E1A9A81992399F08A7A9D
:101ED00091E009F490E090932702811109C089E212
:101EE0000E94491A0E94BD1A80E0DF91CF910895A7
:101EF00085E3F6CF80912702811104C089E20E9418
:101F0000501AF0CF85E3FBCF81E0EFCF90932D0205
:101F100080932C020895E0912C02F0912D023097CD
:101F200021F00190F081E02D099480E00895DC011A
:101F3000E0912C02F0912D02309799F080910C01E4
:101F4000882351F08091FE0287FF06C08C91119684
:101F50008C93119785E08C930280F381E02DCD0165
:101F60000994089520912A0230912B0228173907ED
:101F700071F090932B0280932A02E0912C02F09151
:101F80002D02309721F00680F781E02D0994089505
:101F900020912802309129022817390771F0909377
:101FA000290280932802E0912C02F0912D023097B3
:101FB00021F00084F185E02D0994089585B78068AB
:101FC00085BF85B7806885BF0895089508950C94EE
:101FD000E50F08950C94E90F0E94DE0F0E94E60FB2
:101FE0000C94E70F81E008950C94F20F0E945B1DA2
:101FF0000E947F0C0E94D51D0C94EA0F4F925F92B5
:102000006F927F929F92AF92BF92CF92DF92EF92A8
:10201000FF920F931F93CF93DF9300D000D00F92C6
:10202000CDB7DEB70E94D60C0E94F40F882309F4C6
:102030008DC04FE2A42E42E0B42E10E000E0902EBE
:10204000802F0E94610C6B017C01F5014190519041
:10205000619071905F014C145D046E047F0409F47B
:102060006FC08091F80281FD0E947A0CB301A20139
:102070004C255D256E257F2520E0412C512C320119
:102080004394DB01CA0184219521A621B721892B24
:102090008A2B8B2B09F44CC029839A82C420D5202B
:1020A000E620F72081E0CD28CE28CF2809F480E073
:1020B0008B830E94641D8160782F9D838C8349816E
:1020C0005A816B818D810E94CC10000F111F000F6F
:1020D000111FF801E15DFD4F80819181A281B381E3
:1020E00084259525A625B72580839183A283B38374
:1020F0000E948B0F90912E028917C9F10E948B0FBD
:1021000080932E020F900F900F900F900F90DF9101
:10211000CF911F910F91FF90EF90DF90CF90BF90E4
:10212000AF909F907F906F905F904F900C94070AB4
:102130002F5F440C551C661C771C243109F0A1CF7D
:102140000F5F1F4F0630110509F079CF8FEF89839C
:102150008A831B820E94641D8160782F9D838C83FB
:1021600049815A816B818D810E94CC10C1CF0F9023
:102170000F900F900F900F90DF91CF911F910F91C3
:10218000FF90EF90DF90CF90BF90AF909F907F90A7
:102190006F905F904F900895CF93DF93CDB7DEB7E8
:1021A0002B970FB6F894DEBF0FBECDBF4F83588775
:1021B00069877A878B871E8285E0FE013796DE016C
:1021C000119601900D928A95E1F749815A816B81B0
:1021D0007C818D819E812B960FB6F894DEBF0FBE59
:1021E000CDBFDF91CF910C949016FC01808191813D
:1021F0000C94131ACF93C82F8823F1F18CEF8C0F16
:10220000813AA0F46C2F80910001909101010E940D
:10221000231C882329F08C2F0E94501A0E94BD1A7B
:102220008C2F0E94491ACF910C94BD1A80E28C0F1A
:10223000883048F4C77081E001C0880FCA95EAF77A
:102240000E94711AF0CF8BE58C0F833038F42C2F5D
:102250002452330BC901CF910C94B20FC85AC73125
:1022600058F4EC2FF0E0EE0FFF1FEB5AFE4F808189
:102270009181CF910C94C80FCF910895882329F1B3
:102280009CEF980F913A20F40E94501A0C94BD1ABA
:1022900090E2980F983050F4877091E001C0990F48
:1022A0008A95EAF7892F0E94771AF0CF9BE5980F5D
:1022B000933020F490E080E00C94B20F885A87317C
:1022C00020F490E080E00C94C80F0895CF93C82FBD
:1022D0000E94FA10C93349F42FEF87EE93E02150A2
:1022E00080409040E1F700C000008C2FCF910C940B
:1022F0003E11882321F00E94711A0C94BD1A089592
:10230000882321F00E94771A0C94BD1A0895AF9289
:10231000BF92CF92DF92EF92FF920F931F93CF93D2
:10232000DF9300D000D00F92CDB7DEB76C016D8384
:102330007983FC01058102950F70128111110E94B1
:10234000901A0E94671AE82E882391F01123D1F089
:102350008981807F803421F08D81805E883090F08B
:1023600082E00E94081B0E94671A91E0E82EE9268D
:10237000A980A2949FE0A922B12CF501E75AFA4D59
:102380000C94E724E12CF4CF09810F70F981F07FE0
:1023900011F00295007F1123B1F0002361F08D81CF
:1023A000805E883018F02D81211109C0802F0E9495
:1023B000711A0E94BD1A8D810E94FA1015C0802FDB
:1023C0000E94821AF6CF8D810E943E11002361F097
:1023D0008D81805E883018F04D81411133C0802F8F
:1023E0000E94771A0E94BD1A48E0A41AB10854E06E
:1023F000A516B10420F40E948B0F0E94070AEE205C
:1024000009F4CBC10E94631A80FDC7C1F601128294
:102410000E945D1A0E946A18C6010E94F4130E946D
:102420005D1A0F900F900F900F900F90DF91CF914A
:102430001F910F91FF90EF90DF90CF90BF90AF90E2
:102440000C949B18802F0E94881ACCCF59815F7002
:10245000F52E6981607F603219F0F29480EFF822E6
:102460007D81772369F0713049F1112391F10023C7
:1024700051F1F601858180FF9ECF8F70858323C047
:10248000112381F0011106C00E94A41A8F290E9415
:102490007911AACF0130C1F70E94A41A8F290E9496
:1024A000AA1AA2CF011106C00E94B31A8F2D0E9452
:1024B00080119ACF013009F497CFF6CF112329F07C
:1024C000063008F091CF8F2DE2CF053008F08CCF89
:1024D000EDCF002359F3FD81F93349F42FEF47EE97
:1024E00053E0215040405040E1F700C000008D8192
:1024F0000E943E1179CF898186958695837069F017
:10250000813009F071CF8D8199819370111102C0D2
:1025100090E080E00E94C80F67CF8D819981937011
:10252000111102C090E080E00E94B20F5DCF89815E
:10253000837009F050C0111157CF4D8142954695D7
:102540004770440F440F8D818F7090E0B0E0A0E0A1
:10255000042E04C0880F991FAA1FBB1F0A94D2F72C
:102560006D8100E010E0980164FF0FC00FE010E003
:1025700020E030E004C0000F111F221F331F4A95D6
:10258000D2F70095109520953095798176957695BE
:1025900073707D83B901A801482B592B6A2B7B2BC3
:1025A00049835A836B837C835D8169817A818B81C6
:1025B0009C81523051F0533059F0513019F00E9443
:1025C000E21712CF0E94BA170FCF0E940A180CCF41
:1025D0000E94B81709CF112309F445C0698160FF33
:1025E00003CF4D81429546954770440F440F8D812E
:1025F0008F7090E0B0E0A0E0042E04C0880F991F17
:10260000AA1FBB1F0A94D2F7ED8100E010E09801E9
:10261000E4FF0FC00FE010E020E030E004C0000F46
:10262000111F221F331F4A95D2F700951095209550
:102630003095F981F695F695F370FD83B901A801FF
:10264000482B592B6A2B7B2B49835A836B837C83C2
:10265000F230A1F0F330C9F0F13049F0CB01BA010A
:102660000E942919C1CE798171FFBECEBACF69818E
:102670007A818B819C810E940119B6CE69817A8111
:102680008B819C810E945119AFCE69817A818B81A7
:102690009C810E943418A8CE59815F705983112300
:1026A00029F0852F0E946A188D81F1CE8D810E94BC
:1026B000801189810E949B1897CE6D81623F99F1AC
:1026C00060F4603FD9F0613F39F1112309F444C04F
:1026D000011171CE89818F7123C07D81733F41F1DA
:1026E000743F99F7112371F189818F7189830E9459
:1026F0006A1863E089810E94F31A76CE112341F0B3
:10270000053008F071CE89818F710E94D0186CCE8F
:10271000063008F069CEF7CF89818F71112351F20D
:102720000E946A1861CE89818F711123C9F3C2CFCB
:10273000112329F089818F710E94451855CE0E947E
:10274000401852CE81E00E94081B023008F44CCEA3
:1027500082E00E94081B48CE002361F09D819933DE
:1027600009F0C5CEEFEFF7EE23E0E150F040204056
:10277000E1F7BBCE89818F719DCF49814F706D810B
:10278000C6010E945B0A0E942A172ECE49814F7013
:102790006D81C6010E945E0A27CE0F900F900F90A8
:1027A0000F900F90DF91CF911F910F91FF90EF90BD
:1027B000DF90CF90BF90AF9008950F931F93CF936A
:1027C000DF93EC01688179818A810E941F1A8C0154
:1027D0000E9479190E94B717B801CE01DF91CF91FD
:1027E0001F910F910C948711CF93DF93EC018B8194
:1027F0009C81892B29F08981988189238F3F59F405
:10280000DF91CF910895CE010E94DD13CE01DF91BB
:10281000CF910C943109CE010E941F0A8111F3CF90
:102820000E94671A882361F38A81882349F382E032
:10283000DF91CF910C94081B0E94901A0E94A11A5C
:102840000E94BD1A90E080E00E94B20F90E080E00C
:102850000C94C80F0E94571A0C941C140E947F1AE3
:102860000C942A14282F892F82958F70903C80F425
:102870008A30B0F4843020F4823090F480E00895FF
:102880008630E1F781E0283E88F0213FB9F70EC09D
:102890008C3011F08F3091F793FB882780F90895E1
:1028A00081E0203F39F018F4283E40F70895243F96
:1028B00029F7FCCF08950E94131A0C943214CF9379
:1028C000DF9300D000D00F92CDB7DEB70F900F90FE
:1028D0000F900F900F90DF91CF910895CF93DF93DA
:1028E00000D000D000D0CDB7DEB726960FB6F89452
:1028F000DEBF0FBECDBFDF91CF9108951F93CF9361
:10290000DF93E091480216E0809149028E1304C0E3
:10291000DF91CF911F910895CE2FD0E01E9FF0013F
:102920001124E65BFD4F4081518162817381848176
:1029300095810E946E14FE013196E770E5CF4091BB
:102940007A0250917B0260917C0270917D028091AD
:102950007E0290917F020C946E141F93CF93DF93AD
:1029600080917F02807FA9F480917C02882389F086
:1029700080914802C091490270917A0260917B0275
:10298000A0917D02B0917E02D62FD72316E0C81306
:1029900004C0DF91CF911F91089590E0109711F03E
:1029A000DF3F19F401968770F2CF189F9001199FAD
:1029B000300D1124F901E65BFD4F41816413F2CF24
:1029C00040814713EFCF42814111ECCF43815481C5
:1029D0004A1B5B0B483C510528F780917F028F70A2
:1029E000806180937F02F901E15BFD4F80818F70F0
:1029F000806180838AE792E00E94F413DF91CF9197
:102A00001F910C947E14AF92BF92CF92DF92EF92FF
:102A1000FF920F931F93CF93DF93CDB7DEB72B9722
:102A20000FB6F894DEBF0FBECDBF8C0185E0F80174
:102A3000DE01179601900D928A95E1F7F801408129
:102A40005181E2808AE7A82E82E0B82E60917D0253
:102A500070917E026115710549F090917A02209182
:102A60007B02892F82238F3F09F045C1EE2009F4B4
:102A700053C14F8358878F8198850E945B14F82E2D
:102A8000882309F449C186E0F801AAE7B2E0019081
:102A90000D928A95E1F78AE792E00E94F5100E9474
:102AA000AD1426C180917F02382F307F683C7105BC
:102AB00008F07CC03111B5C0FE2C251324C094133E
:102AC00022C0E11020C08F70806180937F020E943D
:102AD0009F148AE792E00E94F41380917F02F8012C
:102AE00085838F2D2B960FB6F894DEBF0FBECDBF1A
:102AF000DF91CF911F910F91FF90EF90DF90CF90DA
:102B0000BF90AF900895CD2829F0842F85238F3F63
:102B100009F084C080E0F82FF170DF2EE0914802C8
:102B20002091490236E080FD1CC0EE20D1F2809158
:102B30007F02816080937F02F12CD3CF8E2F90E0B3
:102B40003E9FF0011124E65BFD4F6181651306C0D5
:102B50006081641303C062816E11E7CFFC0131967E
:102B6000E770E213EBCF4F8358878F8198850E94DF
:102B7000131A292F22952F70903260F0225F2F7048
:102B8000223078F49F7051F0F8019581907F31F4F4
:102B9000D12C0AC09F7011F08823D1F3805E883059
:102BA000B8F3C8010E94F413FD2C9BCF31116EC005
:102BB0006E2D7A858B850E945F148AE792E00E94D1
:102BC000F41386E0F50111928A95E9F70E949F14AB
:102BD000B3CF86E0F801AAE7B2E001900D928A95A2
:102BE000E1F77FCF4F8358878F8198850E945B14D0
:102BF00081113DC080917F02816080937F02C80176
:102C00000E94F4136ECF6E2D7A858B850E945F141F
:102C100086E0F50111928A95E9F76AC081E08E2578
:102C20007ACF251306C0941304C0F801EE2009F4EE
:102C300053C04F8358878F8198850E945B148823E7
:102C400009F46AC0EE2009F467C080917F028032E7
:102C500070F020917A0230917B023A8329831B82A3
:102C6000DD82CC828E83CE0101960E94F41386E031
:102C7000F801AAE7B2E001900D928A95E1F70E946F
:102C8000AD140E949F14FF24F3942BCF2513D1CFB2
:102C90009413CFCFE110CDCFF8018583C8010E94F6
:102CA000F41386E0F50111928A95E9F71ACF2513FE
:102CB00099CF941397CF80917F0280FD8ACF982F70
:102CC000907F09F486CFF8018583903F31F0982FEB
:102CD000907F905F8F70892B8583C8010E94F413C9
:102CE00086E0F801AAE7B2E001900D928A95E1F73B
:102CF0000E949F14F6CEC380D480F0907C02F6012F
:102D0000E61BF70BBF01F110CDCE683C710508F052
:102D10007ACFFE2CE110CBCFC8010E94F413B3CFC1
:102D20001F93CF93DF93CDB7DEB72C970FB6F894F0
:102D3000DEBF0FBECDBF4F83588769877A878B87E9
:102D40009C87CE0107960E940315882369F08A8527
:102D50009B85892B39F058854F81852F84238F3FA0
:102D600009F071C016E05FC086E0FE013796DE0113
:102D7000119601900D928A95E1F78A859B85892BA2
:102D800089F38F81988589238F3F61F320914902D0
:102D900030E0C90101968770992740914802481791
:102DA000190671F40E942E141092490210924802E2
:102DB00086E0EAE7F2E0DF011D928A95E9F7D2CFDB
:102DC00096E0929FD001939FB00D1124A65BBD4F5A
:102DD000FE01319601900D929A95E1F78093490298
:102DE0000E947E14BFCF819FC0011124865B9D4F3E
:102DF0000E9403158823E9F0E09148021E9FF0012C
:102E00001124E65BFD4F4081518162817381848191
:102E100095810E946E148091480290E0019687701F
:102E20009927809348028091480290914902891322
:102E3000DACF2C960FB6F894DEBF0FBECDBFDF9170
:102E4000CF911F91089569857A858B859C850E9415
:102E50006E1488CFEF92FF920F931F93CF93DF935F
:102E60008C01892B89F0F12CEE24E394E801219662
:102E7000F8018491843709F458C0A0F4823009F431
:102E80003FC048F48130D1F0DF91CF911F910F9175
:102E9000FF90EF9008959CEF980F9037A8F70E944D
:102EA000FA100AC0853709F44EC09CE7980F903796
:102EB00058F78F770E943E118E0116C00E5F1F4F8C
:102EC000FE01849190E2980F983060F48770FE2D97
:102ED00001C0FF0F8A95EAF78F2F0E94931A0E9474
:102EE000BD1A02C00E94FA108F2D882309F4BECFAC
:102EF000EFE9FFE03197F1F700C000008150F5CF16
:102F00000E5F1F4FFE01849190E2980F983050F4AD
:102F10008770FE2D01C0FF0F8A95EAF78F2F0E9460
:102F2000991ADDCF0E943E11DFCF0E5F1F4FFE01C9
:102F3000C491CC23C9F28FE99FE00197F1F700C05B
:102F40000000C150F6CF0E5F1F4FFE01F490CCCFB2
:102F500008950C94A8170E94A9176093CF0270934C
:102F6000D0028093D1029093D2020C941C14089545
:102F70000C94AB17CF93DF9300D000D0CDB7DEB762
:102F800069837A838B839C838091CF029091D00256
:102F9000A091D102B091D20229813A814B815C810A
:102FA000282B392B4A2B5B2B29833A834B835C8359
:102FB000CA01B9010F900F900F900F90DF91CF9140
:102FC0000C94AB17CF93DF9300D000D0CDB7DEB712
:102FD00069837A838B839C838091CF029091D00206
:102FE000A091D102B091D20229813A814B815C81BA
:102FF000282339234A235B2329833A834B835C8329
:10300000CA01B9010F900F900F900F90DF91CF91EF
:103010000C94AB17CF93DF9300D000D0CDB7DEB7C1
:1030200069837A838B839C838091CF029091D002B5
:10303000A091D102B091D20229813A814B815C8169
:10304000282739274A275B2729833A834B835C83C8
:10305000CA01B9010F900F900F900F90DF91CF919F
:103060000C94AB170C94CE080E9432186093CB02DC
:103070007093CC028093CD029093CE020C941C14DA
:1030800060E070E0CB010C9434180F931F93CF9342
:10309000DF9300D000D0CDB7DEB741E050E060E074
:1030A00070E08A019B0104C0000F111F221F331F13
:1030B0008A95D2F709831A832B833C83C901B8010F
:1030C0000F900F900F900F90DF91CF911F910F9164
:1030D0000C9434180F931F93CF93DF9300D000D03C
:1030E000CDB7DEB741E050E060E070E004C0440FCF
:1030F000551F661F771F8A95D2F78091CB0290915A
:10310000CC02A091CD02B091CE028A019B01082B86
:10311000192B2A2B3B2B09831A832B833C83C90150
:10312000B8010F900F900F900F90DF91CF911F91EA
:103130000F910C9434180F931F93CF93DF9300D00B
:1031400000D0CDB7DEB741E050E060E070E004C0F1
:10315000440F551F661F771F8A95D2F740955095EB
:10316000609570958091CB029091CC02A091CD0298
:10317000B091CE028A019B01082319232A233B2305
:1031800009831A832B833C83C901B8010F900F90E8
:103190000F900F90DF91CF911F910F910C943418E5
:1031A0000F931F93CF93DF9300D000D0CDB7DEB73E
:1031B00041E050E060E070E004C0440F551F661F1E
:1031C000771F8A95D2F78091CB029091CC02A09183
:1031D000CD02B091CE028A019B01082719272A2728
:1031E0003B2709831A832B833C83C901B8010F90C5
:1031F0000F900F900F90DF91CF911F910F910C9432
:103200003418CF93DF9300D000D0CDB7DEB76983F9
:103210007A838B839C838091CB029091CC02A09186
:10322000CD02B091CE0229813A814B815C81282B5D
:10323000392B4A2B5B2B29833A834B835C83CA014E
:10324000B9010F900F900F900F90DF91CF910C94D8
:103250003418CF93DF9300D000D0CDB7DEB76983A9
:103260007A838B839C838091CB029091CC02A09136
:10327000CD02B091CE0229813A814B815C81282315
:1032800039234A235B2329833A834B835C83CA0116
:10329000B9010F900F900F900F90DF91CF910C9488
:1032A0003418CF93DF9300D000D0CDB7DEB7698359
:1032B0007A838B839C838091CB029091CC02A091E6
:1032C000CD02B091CE0229813A814B815C812827C1
:1032D00039274A275B2729833A834B835C83CA01BA
:1032E000B9010F900F900F900F90DF91CF910C9438
:1032F00034180895E82F24E1929FE00D11248E2FB9
:10330000877041E001C0440F8A95EAF7E695E6959B
:10331000E69585E0E89FF0011124E058FD4F30E08C
:1033200020E070E05191DF011197CB01022E02C025
:10333000969587950A94E2F7817081958527842375
:1033400085278C932F5F3F4F2530310559F708951E
:10335000E82F24E1929FE00D11249E2F9770E695AF
:10336000E695E69585E0E89FF0011124E058FD4FD1
:1033700050E040E080E0219130E0092E02C0369517
:1033800027950A94E2F721703327042E01C0220FFB
:103390000A94EAF7822B4F5F5F4F4530510559F78A
:1033A0000895BF92CF92DF92EF92FF920F931F93F7
:1033B000CF93DF938C01C090CB02D090CC02E090F1
:1033C000CD02F090CE028091CF029091D002A091D8
:1033D000D102B091D202C82AD92AEA2AFB2ACFE127
:1033E000D0E0BC2ED701C6010C2E04C0B695A7951F
:1033F000979587950A94D2F780FD0EC0219788F79C
:10340000B12C8B2DDF91CF911F910F91FF90EF90F9
:10341000DF90CF90BF900895B8018C2F0E947B0A57
:10342000019761F3EECFCF93DF93D82FC92F0E947E
:10343000D1196D2F7C2FDF91CF910C947B0A1F93B4
:10344000CF93DF93162FD72F90914702992339F00E
:10345000862F972FDF91CF911F910C94131A8823F9
:1034600091F0862F972F0E94D119C82F682F812F96
:103470009D2F0E947A19612F7D2F8C2FDF91CF9184
:103480001F910C947B0A862F972F0E94A819C82F92
:10349000F2CF682F80910001909101010C94A71C3C
:1034A000682F80910001909101010C94B21C8091D1
:1034B0000001909101010C94BD1C8091D30285956F
:1034C0008595859508958091D30287700895909190
:1034D000D302977081E009F480E008958091F702AB
:1034E00008959091F702982B9093F7020895982FE2
:1034F00090958091F70289238093F70208951092A6
:10350000F70208959091F602982B9093F602089591
:10351000982F90958091F60289238093F602089562
:103520001092F60208959091F502982B9093F5026F
:103530000895982F90958091F50289238093F50244
:1035400008951092F50208958091D4020895089587
:103550000C94A71A9091D402981721F08093D4026A
:103560000C94A81A08958091D402882329F010920F
:10357000D40280E00C94A81A0895E0910001F09123
:1035800001018091F7028083E0910001F091010137
:1035900080819091F602892B8083E0910001F09167
:1035A000010180819091F502892B80839091D40252
:1035B000992381F0E0910001F09101018081892B34
:1035C000808380910001909101010E940F1C811164
:1035D0000E94B31A80910001909101010C94970F01
:1035E00008950C94F01A98E0899F90011124622BA1
:1035F0006093D3020E946A188091D30285958595C5
:1036000085950C94F11A1092D30280E00C94F11A73
:103610009091D302809589238093D302282F27701D
:1036200071F4282F082E000C330B9217130639F073
:103630008595859585950E949B180C94031B08958C
:103640000F931F93462F572FBC01CB01AA27BB27EF
:103650000097A105B105E9F1AC01BD0180E1052F9D
:10366000162F272F3327011511052105310519F0D4
:10367000885FB901A8018A019B01F4E0369527957E
:1036800017950795FA95D1F7011511052105310513
:1036900019F08C5FB901A8018A019B01E2E036951F
:1036A000279517950795EA95D1F70115110521057D
:1036B000310519F08E5FB901A80176956795579588
:1036C0004795452B462B472B09F08F5F1F910F9194
:1036D000089580E0C4CF90E080E00E94F8249C012F
:1036E00081E02C3E3E4F09F080E0089582E090E0BA
:1036F0000C94F02483E090E00C94F024CF9384E0C9
:1037000090E00E94F024C82F81E290E00E94F02413
:10371000982F8C2FCF910895CF93682FC92F84E0D5
:1037200090E00E94FE246C2F81E290E0CF910C94F7
:10373000FE24AB01BC018FE090E00C941025AB019E
:10374000BC0183E190E00C94102560E070E0CB01B7
:103750000C949F1B60E070E0CB010E94991B0C94BD
:10376000A51B6CEE7EEF90E080E00E941C2560E0DF
:1037700082E090E00E94FE2460E083E090E00E94FE
:10378000FE241092CF021092D0021092D102109219
:10379000D20260E084E090E00E94FE2460E081E2DA
:1037A00090E00E94FE2460E085E090E00E94FE240C
:1037B00060E086E090E00E94FE246FEF87E090E0FA
:1037C0000E94FE2440E050E0BA0188E090E00E94B0
:1037D000102560E08DE090E00E94FE2440E050E083
:1037E000BA0188E190E00E94102560E087E190E056
:1037F0000E94FE2440E050E0BA018CE190E00E947B
:10380000102560E080E290E00E94FE240C94AA1B48
:103810000C94B11B682F8EE090E00C94FE24FC0108
:10382000329680910C01882321F08091FE029EE166
:1038300087FF96E080E0915008F4089521912223BB
:10384000D1F38F5FF8CF9C01662301F180910C01C9
:103850008823F1F08091FE0287FF1AC0462F46951B
:1038600046954695603F90F4677081E090E002C015
:10387000880F991F6A95E2F7240F311DF901228103
:1038800030E02823392381E0232B71F480E0089570
:10389000F9013296285F3F4F8191861721F0E21798
:1038A000F307D1F7F3CF81E008959C01FC01329634
:1038B0008FEF90E04191461751F08F3F19F441117D
:1038C00001C0892F9F5F9630A9F78F3F09F40895B3
:1038D000280F311D87FD3A95F901628308959C01F7
:1038E000FC013296285F3F4F8191861303C0DF01B0
:1038F00011971C92E217F307B9F70895FC01862F80
:10390000869586958695603F60F4E80FF11D677097
:1039100021E030E001C0220F6A95EAF78281822B14
:1039200082830895FC01862F869586958695603F53
:1039300068F4E80FF11D677081E090E001C0880F26
:103940006A95EAF780959281892382830895209170
:103950000C01222329F02091FE0227FD0C947E1CED
:103960000C94551C20910C01222329F02091FE0279
:1039700027FD0C94921C0C946F1CFC0132968091D4
:103980000C01882351F08091FE0287FF06C08EE172
:10399000DF011D928A95E9F7089586E0F9CF089531
:1039A00008950C94D01C0E94D11C80912603843071
:1039B00049F11092F90288E190E020E40FB6F89402
:1039C000A895809360000FBE2093600080E00E9465
:1039D000070A0E94D11C83B7817F846083BF83B7AD
:1039E000816083BF7894889583B78E7F83BF0FB63D
:1039F000F894A8958091600088618093600010928F
:103A000060000FBE08950895CF93DF9300D000D0DB
:103A10000F92CDB7DEB70E94CF1C0E94D60C0E9439
:103A2000031D1D828D810E94610C672B682B692B01
:103A300071F48D818F5F8D838630A1F780E00F90C8
:103A40000F900F900F900F90DF91CF91089581E02C
:103A5000F6CF08950C94291D0E942E140E948B0FFE
:103A60000E94070A0C942A1D1F921FB61F92112450
:103A70008F939F93AF93BF938091F902811113C0ED
:103A80008091FA029091FB02A091FC02B091FD029C
:103A90004196A11DB11D8093FA029093FB02A09361
:103AA000FC02B093FD02BF91AF919F918F911F9047
:103AB0001FBE1F90189582E084BD93E095BD9AEFDC
:103AC00097BD80936E0008952FB7F8948091FA0205
:103AD0009091FB02A091FC02B091FD022FBF0895CE
:103AE0009C014FB7F8948091FA029091FB02A0914B
:103AF000FC02B091FD024FBF821B930B0895789496
:103B00001F921FB61F9211248F939F93AF93BF9361
:103B10008091FA029091FB02A091FC02B091FD020B
:103B20000196A11DB11D8093FA029093FB02A09310
:103B3000FC02B093FD02BF91AF919F918F911F90B6
:103B40001FBE1F901895F89481E08093E00080E2FA
:103B50008093D800E9ECF0E010828FE19EE40197B9
:103B6000F1F700C000001DBA109268001CBC10BE26
:103B70001FBA10927A0010926E0010926F0010928D
:103B800070001092710010821092BC0011B814B82D
:103B900017B81AB81DB810BA12B815B818B81BB8AB
:103BA0001EB811BA0C9400FE0895CF93DF9300D095
:103BB00000D0CDB7DEB70E946B1B811102C00E94FE
:103BC000081C0E94761B8093F8020E947E1B909333
:103BD000FF028093FE020E947A1B282F30E050E003
:103BE00040E029833A834B835C83CA01B9010F907B
:103BF0000F900F900F90DF91CF910C94B817809198
:103C0000200308950895CF93DF9300D00F92CDB78E
:103C1000DEB790912603943019F589836A837B83FC
:103C200082E08093E9008FEF9091E800815095FD4C
:103C300006C095ED9A95F1F700008111F5CF8091BE
:103C4000E80085FF0DC050E040E063E070E0CE0189
:103C500001960E9433208091E8008E778093E800DF
:103C60000F900F900F90DF91CF910895CF93DF9336
:103C7000D82FC92F0E941620823011F0843039F4D9
:103C80006D2F7C2F84E0DF91CF910C94031EDF9188
:103C9000CF910895BC0183E00C94031ECF93DF9372
:103CA000D82FC92F0E941620823011F08430C9F518
:103CB00080910C018823C1F18091FE0287FF34C0FE
:103CC00060E282E08093E9008FEF9091E8008150FC
:103CD00095FD06C095ED9A95F1F700008111F5CF9D
:103CE0008091E80085FF1DC080910C0170E050E0DC
:103CF00040E0811104C050E040E068E070E08D2FAA
:103D00009C2F0E9433208091E8008E778093E800FA
:103D100080E2ED2FFC2FA0E0B3E001900D928A9598
:103D2000E1F7DF91CF91089568E081E0CBCF8091FA
:103D30002F03811109C00E94BB210E941D22809186
:103D4000E20084608093E200089510922F030895AA
:103D5000089508950C942C1D42E061EC81E00E94CE
:103D6000372142E261EC82E00C94372180912803F4
:103D7000893089F148F4823009F49DC0833009F418
:103D800058C0813041F008958A3009F484C08B30E6
:103D900009F46AC0089580912703813A09F048C068
:103DA0008091E800877F8093E80080912B039091B9
:103DB0002C03892B61F460E280E093E070E00E94C4
:103DC00082208091E8008B778093E800089560E07E
:103DD00090E080E0F3CF80912703813249F5809114
:103DE0002B0390912C03029718F58091E800877FB0
:103DF0008093E8008091E80082FF16C08091F20075
:103E00009091F300029729F48091F1008B7F81302B
:103E100021F48091F100809320038091E8008B775A
:103E20008093E8000C946B21809126038111E2CFEE
:103E3000089580912703813AD9F780912B039091BF
:103E40002C03892BA9F78091E800877F8093E800F5
:103E50008091E80080FFFCCF80910C018093F100FD
:103E60008091E8008E77DCCF80912703813201F7C3
:103E700080912B0390912C03892BD1F68091E8003F
:103E8000877F8093E8000E946B21809129038093B3
:103E90000C010C942E1480912703813249F68091F5
:103EA000E800877F8093E8000E946B2180912A03BD
:103EB00080932103089580912703813A09F0B8CFB8
:103EC0008091E800877F8093E8008091E80080FF80
:103ED000FCCF80912103C2CF84B7877F84BF0FB608
:103EE000F894A8958091600088618093600010929A
:103EF00060000FBE80E890E00FB6F89480936100F8
:103F0000909361000FBE0E94EC0F0E94BB210E94A3
:103F10001D228091E20084608093E20078940E94E8
:103F2000AA240E94F60F82E091E00E94860F809101
:103F30002603853019F00E94FE0FF9CF0E94D31C92
:103F400080912303882399F30E94041D882379F329
:103F50000E941D20ECCF0C94AD1FFC01CB01DA01B7
:103F60002F2F332723303105D1F070F42130310564
:103F700009F445C02230310569F48BE390E02EE46A
:103F80003AE02D933C9308952132310521F12232FC
:103F9000310559F190E080E030E020E0F2CFCF0130
:103FA0009927E230A9F08330910550F4009769F029
:103FB000E0E4FAE0019771F7849190E09F01E1CF8E
:103FC000ECE0FAE00397C1F3E5CFEAE4FAE0F4CFDE
:103FD000E2E1FAE0F1CF892BB9F061307105D1F659
:103FE00089E090E029E73AE0CCCF892B91F061306D
:103FF000710581F68DE690E02BE93AE0C2CF82E1CF
:1040000090E029E83AE0BDCF89E090E020E63AE090
:10401000B8CF80E490E028E03BE0B3CF8091260366
:10402000843011F482E0089581E0089580912203A4
:10403000811102C00C940E20089584E189BD86E1AF
:1040400089BD09B400FEFDCF8091D8008F7D80939B
:10405000D8008091E00082608093E0008091E000D1
:1040600081FDFCCF0895AF92BF92CF92DF92FF9275
:104070000F931F93CF93DF936C01EB018A010E9492
:104080008A21F82E811123C00115110539F0F8019C
:1040900080819181C81BD90BC80ED91EB12CA12CCF
:1040A0002097A9F08091E80085FD22C08091E8006A
:1040B0008E778093E80001151105A1F0F801808149
:1040C0009181A80EB91EB182A08285E0F82E8F2DB5
:1040D000DF91CF911F910F91FF90DF90CF90BF9014
:1040E000AF9008950E948A218823D1F2F82EEFCF55
:1040F000F60181916F018093F1002197FFEFAF1AD4
:10410000BF0ACECFFC01CB0120912D0330912E03AD
:104110002617370790F0009729F42091E8002E77B2
:104120002093E80040E0009751F4411108C08091CD
:10413000E80082FF31C080E00895C901F3CF2091EB
:1041400026032223A9F12530A9F12091E80023FDBF
:104150002DC02091E80022FDEACF2091E80020FF49
:10416000E2CF2091F2003091F300009719F028304F
:10417000310558F041E02830310509F040E0209148
:10418000E8002E772093E800CECF41914093F100D4
:1041900001972F5F3F4FE9CF80912603882341F09D
:1041A000853041F08091E80083FFC1CF81E0089520
:1041B00082E0089583E00895FC01CB0120912D0356
:1041C00030912E032617370790F0009729F420919D
:1041D000E8002E772093E80040E0009751F4411169
:1041E00008C08091E80082FF32C080E00895C901D4
:1041F000F3CF209126032223B1F12530B1F1209194
:10420000E80023FD2EC02091E80022FDEACF209196
:10421000E80020FFE2CF2091F2003091F3000097F8
:1042200019F02830310558F041E02830310509F007
:1042300040E02091E8002E772093E800CECF449113
:104240004093F100319601972F5F3F4FE8CF809167
:104250002603882341F0853041F08091E80083FFF8
:10426000C0CF81E0089582E0089583E00895982FFB
:10427000973028F08F708093E90081E00895909343
:10428000E900242F762F50E0981731F07091EC0060
:104290002091ED005091F00021FD02C09F5FE8CF1A
:1042A0003091EB003E7F3093EB003091ED003D7F8D
:1042B0003093ED003091EB0031603093EB00709360
:1042C000EC002093ED005093F0002091EE0027FDCC
:1042D000E5CF80E008958091270387FF13C0809188
:1042E000E80082FF06C08091E8008B778093E800A9
:1042F00004C0809126038111F2CF08958091260396
:104300008823D9F38091E80080FFF8CF8091E800FE
:104310008E77ECCF2091E4003091E50095E6A9017D
:104320002091EC00822F817020FF06C08091E80070
:1043300080FF06C080E008952091E80022FD1AC0A9
:1043400080912603882389F0853089F08091EB00E5
:1043500085FD0FC02091E4003091E500421753071E
:10436000F9F29150E1F684E0089582E0089583E047
:10437000089581E008950E942C220E943422E0EEEC
:10438000F0E0808181608083E8EDF0E080818F77CC
:10439000808319BCA7EDB0E08C918E7F8C938081D7
:1043A0008F7E808310922F0308950F931F93CF93D6
:1043B000DF930E942C220E943422C8EDD0E0888135
:1043C0008F77888388818068888388818F7D8883C0
:1043D000E7EDF0E080818068808319BC10922603AD
:1043E00010922503109223031092240300EE10E094
:1043F000F80180818B7F808388818160888342E09F
:1044000060E080E00E943721E1EEF0E080818E7F65
:104410008083E2EEF0E0808181608083808188602B
:104420008083F80180818E7F80838881806188838A
:10443000DF91CF911F910F910895E8EDF0E0808119
:104440008F7E8083E7EDF0E080818160808381E072
:1044500080932F030C94D521E8EDF0E080818C7FD0
:1044600080831092E20008951092DA001092E10029
:1044700008951F920F920FB60F9211240BB60F9250
:104480002F933F934F935F936F937F938F939F935C
:10449000AF93BF93EF93FF938091E10082FF0BC036
:1044A0008091E20082FF07C08091E1008B7F8093C2
:1044B000E1000E94A9248091DA0080FF19C0809158
:1044C000D80080FF15C08091DA008E7F8093DA00DB
:1044D0008091D90080FF96C084E189BD86E189BDC5
:1044E00009B400FEFDCF81E0809326030E94971E51
:1044F0008091E10080FF19C08091E20080FF15C02B
:104500008091E2008E7F8093E2008091E2008061E2
:104510008093E2008091D80080628093D80019BC1B
:1045200085E0809326030E94A91E8091E10084FF0C
:1045300029C08091E20084FF25C084E189BD86E125
:1045400089BD09B400FEFDCF8091D8008F7D809396
:10455000D8008091E1008F7E8093E1008091E2009D
:104560008F7E8093E2008091E20081608093E20080
:1045700080912503882309F44BC084E080932603AF
:104580000E94AA1E8091E10083FF29C08091E20071
:1045900083FF25C08091E100877F8093E10082E066
:1045A00080932603109225038091E1008E7F8093F3
:1045B000E1008091E2008E7F8093E2008091E20032
:1045C00080618093E20042E060E080E00E94372159
:1045D0008091F00088608093F0000E94A81EFF91F7
:1045E000EF91BF91AF919F918F917F916F915F916B
:1045F0004F913F912F910F900BBE0F900FBE0F90D8
:104600001F90189519BC109226030E94A51E70CF0A
:104610008091E30087FD02C081E0B0CF83E0AECFA0
:104620001F920F920FB60F9211240BB60F922F9379
:104630003F934F935F936F937F938F939F93AF932A
:10464000BF93CF93DF93EF93FF93D091E900DF7097
:104650008091EC00C82FC17080FDC0E81092E90085
:104660008091F000877F8093F00078940E94582317
:104670001092E9008091F00088608093F000CD2BCB
:10468000CF70C093E900FF91EF91DF91CF91BF917F
:10469000AF919F918F917F916F915F914F913F91DA
:1046A0002F910F900BBE0F900FBE0F901F9018957B
:1046B0001F93CF93DF93CDB7DEB7AA970FB6F894C9
:1046C000DEBF0FBECDBF87E293E0FC0101962091D3
:1046D000F100208323E08F329207B9F70E94B61EC3
:1046E0008091E80083FF1DC18091270390912803EA
:1046F0009A3008F016C1E92FF0E0E759FA4D0C9412
:10470000E724803899F0823809F00BC180912B039F
:104710008F70873008F005C18093E9008091EB002D
:1047200085FB882780F91092E90006C08091240358
:1047300090912303911182609091E800977F90936C
:10474000E8008093F1001092F1008091E8008E77EC
:10475000E4C0882309F4D2C0823009F0E2C080911D
:1047600029038111D5C080912B038F702FEF280F63
:10477000263008F0D6C08093E9002091EB0020FF9E
:10478000C7C0933031F48091EB0080628093EB00DE
:10479000BFC09091EB0090619093EB0021E030E07E
:1047A00001C0220F8A95EAF72093EA001092EA00EE
:1047B0008091EB008860EACF8111B3C0109129038A
:1047C0001F778091E3008078812B8093E3008091B4
:1047D000E800877F8093E8000E946B218091E800C9
:1047E00080FFFCCF8091E30080688093E30082E04B
:1047F000111183E08093260394C08058823008F022
:1048000090C08091290390912A038C3D23E0920768
:1048100099F583E08A838AE289834FB7F894DE01B1
:10482000139620E03EE051E2E32FF0E05093570072
:10483000849120FF03C082958F703F5F8F708A3014
:10484000C8F0895C90E08D939D932F5F243161F7D0
:104850004FBF8091E800877F8093E8006AE270E0B4
:10486000CE0101960E9482208091E8008B77809390
:10487000E80057C0805DE6CF60912B0370912C0358
:10488000AE014F5F5F4F0E94AB1FBC01892B09F443
:1048900048C08091E800877F8093E80089819A81F1
:1048A0000E94DC20E1CF8038E1F58091E800877F2D
:1048B0008093E800809125038093F10046CF811119
:1048C00030C090912903923060F58091E800877F95
:1048D0008093E800909325030E946B21809125032B
:1048E000882311F084E005C08091E30087FDFACFB2
:1048F00081E0809326030E94AC1E13C0809129039F
:10490000813079F481E0933009F080E080932303D3
:104910001092E9008091E800877F8093E8000E9470
:104920006B218091E80083FF0AC08091E800877FB7
:104930008093E8008091EB0080628093EB00AA9660
:104940000FB6F894DEBF0FBECDBFDF91CF911F91A0
:1049500008950895CF93809126038823A1F0C091F4
:10496000E900CF709091EC00892F817090FD80E874
:10497000C82B1092E9008091E80083FD0E94582323
:10498000CF70C093E900CF910895A1E21A2EAA1B1F
:10499000BB1BFD010DC0AA1FBB1FEE1FFF1FA217EF
:1049A000B307E407F50720F0A21BB30BE40BF50BEC
:1049B000661F771F881F991F1A9469F76095709575
:1049C000809590959B01AC01BD01CF010895EE0F3C
:1049D000FF1F0024001C0BBE0790F691E02D0994E8
:1049E000F999FECF92BD81BDF89A992780B50895B7
:1049F000A8E1B0E042E050E00C942425262FF9997C
:104A0000FECF92BD81BDF89A019700B4021639F02D
:104A10001FBA20BD0FB6F894FA9AF99A0FBE0895FE
:104A20000396272F0E94FF240E94FE24252F0E9418
:104A3000FF24242F0C94FF240196272F0E94FF248B
:104A40000C94FE24DC01CB01FC01F999FECF06C0D9
:104A5000F2BDE1BDF89A319600B40D92415050403C
:104A6000B8F70895F894FFCF3A07EC063E074F07D2
:104A70005E078307A807CD07F207D10ED70EDB0E1E
:104A8000E90EED0EF10EF50EFB0E030F070F0B0FE7
:104A90000F0F1B0F1F0F230F270F2D0F4B0F350F5E
:104AA000DF0EE50E130F170FFF0E310F410F540FDE
:104AB000580FC411C411261226127B12F411F411DE
:104AC000F41197124C135D135D13BD13F411F4111F
:104AD000C6138123A9239124A9239124DC23FD2338
:064AE000912453245F2421
:104AE600D502FF1D4E1E021E4A1E361E01E200E9B9
:104AF60000EA00B500B600B700CD008301CC008AFD
:104B06000192019401210223022402250226022792
:104B1600022A02B300B4006F007000F2F1F0C6C7BB
:104B26003031323334353637949597C0C16061627F
:104B36006364656667E200E900EA00B500B600B79F
:104B460000CD008301CC008A019201940121022349
:104B56000224022502260227022A02B300B4006FAD
:044B660000700000DB
:00000001FF
