:100000000C94C0060C94DF060C94DF060C94DF06FB
:100010000C94DF060C94DF060C94DF060C94DF06CC
:100020000C94DF060C94DF060C940A290C94E12949
:100030000C945B200C94DF060C94DF060C94DF0616
:100040000C94DF060C94DF060C94DF060C94DF069C
:100050000C94DF060C94C6200C94DF060C94DF068B
:100060000C94DF060C947B080C9451080C94DF066A
:100070000C94DF060C94DF060C94DF060C94DF066C
:100080000C94DF060C94DF060C94DF060C94DF065C
:100090000C94DF060C94DF0657696E646F7773006B
:1000A0004D61634F53004C696E757800555300499C
:1000B0005400554900010118000103E60001013513
:1000C000000102E600010112000103E60001013512
:1000D000000102E60001010C000103E60001013508
:1000E000000102E600010108000103E600010135FC
:1000F000000102E600010104000103E600010135F0
:10010000000102E6006F0229003A003B003C003D7E
:10011000003E003F004000410042004300440045D3
:10012000001150010070007100720069027A0079BC
:100130000035001E001F002100220023002400259E
:1001400000260027002D002A0046004B0000005426
:1001500000550056006A006B002B0014001A0020A6
:100160000015001C0018000C00120013002F002EB8
:100170000049004A0053006000610057007B006C9A
:10018000003900040016000800090017000D000ED9
:10019000000F003300340030004C004D005F005D64
:1001A000005E0058007C006D00E1001D001B000790
:1001B0000019000A000B00100037003800E5002885
:1001C00000310052004E005C005B0063007D006E59
:1001D00000E000E200E30006002C000500110036FC
:1001E000000351E600E700E400500051004F0059C1
:1001F000005A00620001000100010001000100013D
:1002000000010001000100010001000100010001E6
:100210000012500100010001000100010001000175
:100220000031000100010001000100010001000196
:100230000001000100340001000100010000000184
:1002400000010001000100010001000100010001A6
:10025000000100010001000100010001000A5D0B26
:100260005D01000100010001000100010001000129
:100270000001000100010001000100010001000176
:100280000001000C5D095D57000100010001000143
:100290000001000100010001000100010001000156
:1002A00000010001000100010001002D000100011A
:1002B000000D5D01000100010001000100010001CD
:1002C0000001000100010001000100010001000126
:1002D0000001000100010001000100010001000116
:1002E0000001000100010001000100010001000106
:1002F00000010001000100010001000100010001F6
:100300000010500100010001000100010001000186
:1003100000350001000100010001000100010001A1
:1003200000010001002D003100010001000000016A
:1003300000010001000100010001000100010001B5
:10034000000100010001000100010001002F002E4A
:100350000001000100010001000100010001000195
:100360000001000100010001000100010001000185
:1003700000010033003400300001000100010001E1
:100380000001000100010001000100010001000165
:1003900000010001000100010037003800010001E8
:1003A0000001000100010001000100010001000145
:1003B0000001000100010001000100010001003600
:1003C0000001000100010001000100010001000125
:1003D0000001000100010001000100010001000115
:1003E0000001000100010001000100010001000105
:1003F00000085D005C010001000100010001000136
:1004000000010001000100221401000100010001AF
:1004100000010001000100010001000100000001D5
:1004200000010001000100010001000100010001C4
:1004300000010001000D5D0B5D0C5D01000100017C
:1004400000010001000100010001000100010001A4
:10045000000100095D01000A5D01000100010001C9
:100460000001000100010001000100010001000184
:100470000001000100010001000100010001000174
:100480000001000100010001000100010001000164
:100490000001000100010001000100010001000154
:1004A0000001000100010001000100010001000144
:1004B0000001000100010001000100010001000134
:1004C000000100010044454255473A2064697361C8
:1004D000626C65642E0A0044454255473A20656EB9
:1004E00061626C65642E0A000000000000000000DC
:1004F0002A2B28000000000000000000000000007F
:1005000000000029000000002C1E34202122243489
:100510002627252E362D3738271E1F20212223245B
:1005200025263333362E37381F0405060708090AF7
:100530000B0C0D0E0F101112131415161718191A93
:100540001B1C1D2F3130232D350405060708090A11
:100550000B0C0D0E0F101112131415161718191A73
:100560001B1C1D2F3130354C000000000000000026
:100570000000000000000000000000007E0F00D41A
:10058000FFFFFFC7000000780A00253033326C629D
:10059000003A200025303258000A722F6320303193
:1005A00032333435363738394142434445463031A9
:1005B00032333435363738394142434445460A00F0
:1005C000556E69636F646520696E707574206D6F18
:1005D00064652073657420746F3A2025750A005590
:1005E0006E69636F646520696E707574206D6F64E9
:1005F0006520696E697420746F3A2025750A000AB7
:10060000002530325820006B6579626F6172645F3B
:100610007265706F72743A20000A002530325800FB
:100620006B6579626F6172645F7365745F6C65643A
:100630003A200064656C5F6B65795F6269743A208B
:1006400063616E27742064656C3A20253032580A45
:10065000006164645F6B65795F6269743A2063610D
:100660006E2774206164643A20253032580A003FB6
:1006700000433E20004C25640A0074696D65725F7A
:1006800072656164333228293A202530346C580A67
:10069000006B65796D61705F636F6E6669672E6E62
:1006A0006B726F3A2025580A006B6579626F617230
:1006B000645F69646C653A2025580A006B6579624D
:1006C0006F6172645F70726F746F636F6C3A202534
:1006D000580A00686F73745F6B6579626F6172644A
:1006E0005F6C65647328293A2025580A000A092D91
:1006F00020537461747573202D0A004743433A20D8
:1007000031302E322E30204156522D4C4942433A40
:1007100020322E302E30204156525F415243483A0B
:100720002061767235310A004F5054494F4E533A8A
:10073000204C5546412045585452414B4559204381
:100740004F4E534F4C4520434F4D4D414E44204E4C
:100750004B524F20313032340A004255494C443A12
:100760002022302E392E34342D342D673565383122
:10077000326322202832323A32313A3532204F6306
:10078000742020352032303230290A005649443A4C
:10079000203078303844452842656E29205049443D
:1007A0003A203078433044452846617420426F74C3
:1007B000746F6D6564204B6579626F617264292086
:1007C0005645523A203078303030310A000A092D2F
:1007D0002056657273696F6E202D0A000A092D205C
:1007E000436F6E736F6C65202D0A4553432F713A2A
:1007F00009717569740A000A092D204D61676963E2
:10080000202D0A443A094465627567204D6573736B
:1008100061676520546F67676C650A583A094D61D6
:1008200074726978204465627567204D6F64652035
:10083000546F67676C65202D2053686F77206B6558
:10084000797072657373657320696E206D6174725F
:10085000697820677269640A4B3A094B6579626F5F
:1008600061726420446562756720546F67676C65C8
:10087000202D2053686F77206B65797072657373D4
:10088000207265706F72740A4D3A0944656275672B
:10089000204D6F75736520546F67676C650A563A13
:1008A0000956657273696F6E0A533A09537461741D
:1008B00075730A433A09416374697661746520432C
:1008C0006F6E736F6C65204D6F64650A46312D46FF
:1008D00031303A0953776974636820746F204C6132
:1008E00079657220302D392028463130203D204C4A
:1008F00030290A302D393A095377697463682074B6
:100900006F204C6179657220302D390A475241566B
:10091000453A0953776974636820746F204C617994
:10092000657220302028616C7465726E617465296F
:100930000A423A094A756D7020746F20426F6F74D5
:100940006C6F616465720A4553433A094A756D706C
:1009500020746F20426F6F746C6F61646572202821
:10096000616C7465726E617465290A453A0950724A
:10097000696E7420454550524F4D2053657474691B
:100980006E67730A4253504143453A09436C6561AF
:100990007220454550524F4D0A4E3A094E4B524F28
:1009A00020546F67676C650A000A002575002E6E7B
:1009B0006B726F3A20000A002575002E7377617004
:1009C0005F6261636B736C6173685F6261636B73B9
:1009D000706163653A20000A002575002E73776107
:1009E000705F67726176655F6573633A20000A0025
:1009F0002575002E6E6F5F6775693A20000A002525
:100A000075002E737761705F72616C745F726775C9
:100A1000693A20000A002575002E737761705F6CBB
:100A2000616C745F6C6775693A20000A0025750077
:100A30002E737761705F7263746C5F726775693A69
:100A400020000A002575002E737761705F6C637457
:100A50006C5F6C6775693A20000A002575002E638B
:100A60006170736C6F636B5F746F5F636F6E7472D2
:100A70006F6C3A20000A002575002E737761705F55
:100A8000636F6E74726F6C5F636170736C6F636BB6
:100A90003A20000A0025303258006B65796D61708C
:100AA0005F636F6E6669672E7261773A20000A0095
:100AB0002575002E6D6F7573653A20000A00257547
:100AC000002E6B6579626F6172643A20000A00251E
:100AD00075002E6D61747269783A20000A002575E0
:100AE000002E656E61626C653A20000A0025303286
:100AF000580064656275675F636F6E6669672E7222
:100B000061773A20000A0025750064656661756C9E
:100B1000745F6C617965723A20003F004E4B524F12
:100B20003A206F66660A004E4B524F3A206F6E0AAB
:100B3000000A6D6F7573653A206F66660A000A6D6C
:100B40006F7573653A206F6E0A000A6B6579626F84
:100B50006172643A206F66660A000A6B6579626F9B
:100B60006172643A206F6E0A000A6D61747269786E
:100B70003A206F66660A000A6D61747269783A20DD
:100B80006F6E0A000A64656275673A206F66660ACE
:100B9000000A64656275673A206F6E0A000A0A4AA5
:100BA000756D70696E6720746F20626F6F746C6F03
:100BB000616465722E2E2E2000433E2000436C653A
:100BC0006172696E6720454550524F4D0A00656558
:100BD000636F6E6669673A0A005B735D004B657907
:100BE000626F6172642073746172742E0A005B57C5
:100BF0005D005B535D005B525D005B445D005B43E9
:100C00005D000403300000002C0346006100740006
:100C1000200042006F00740074006F006D006500DA
:100C2000640020004B006500790062006F006100E5
:100C30007200640000000803420065006E000000BE
:100C40000403090409025B00030100A0FA0904007F
:100C500000010301010009211101000122400007E8
:100C600005810308000A09040100010300000009CE
:100C70002111010001226D000705820320000A09ED
:100C800004020002030000000921110100012222D8
:100C9000000705830320000107050303200001125C
:100CA00001100100000008DE08DEC001000102039F
:100CB000010631FF0974A1010975150026FF009591
:100CC00020750881020976150026FF009520750819
:100CD0009102C005010980A101850319012AB7000D
:100CE000150126B700950175108100C0050C09019A
:100CF000A101850419012AA002150126A00295016F
:100D000075108100C005010906A1018505050719B7
:100D1000E029E715002501950875018102050719ED
:100D20000029EF1500250195F075018102050819CC
:100D3000012905950575019102950175039101C081
:100D400005010906A101050719E029E7150025019C
:100D50009508750181029501750881010507190043
:100D600029FF150026FF0095067508810005081962
:100D7000012905950575019102950175039101C041
:100D800011241FBECFEFD0E2DEBFCDBF11E0A0E047
:100D9000B1E0EAE0F9E500E00BBF02C007900D9278
:100DA000A239B107D9F723E0A2E9B1E001C01D9251
:100DB000A934B207E1F70E9432260C940E2C0C9451
:100DC0000000FF93EF93E0919201F091930130972F
:100DD00009F00995EF91FF910895FC01859180300C
:100DE00011F0EFDFFBCF0895FF27E0E230E247FF8D
:100DF0000CC0419597FF09C0EDE260957095809514
:100E00009095611D711D811D911D27FF02C02195C7
:100E100030E350E2AA27660F771F881F991FAA1F89
:100E2000A41710F0A41B63955A95A9F7AA3008F0EF
:100E3000A95FA05DAF93F3956115710581059105DB
:100E400041F7ED3211F4EF93F395F21718F43F9355
:100E5000F395FBCF8F91B5DFFA95E1F70895E9910E
:100E6000F9918591803021F0853219F0AADFF9CF10
:100E7000089520E0E89455915532C1F3503311F4B0
:100E8000689455915A3348F4505390F3220F022E30
:100E9000220F220F200D250FF4CF0EF421958991FA
:100EA0009991533619F3533729F1533559F1BC0150
:100EB00088279927E8945C3621F489919991689460
:100EC0005591543639F446EF7EF077FF0DC08FEF21
:100ED0009FEF0AC055374AE039F0583540E121F01C
:100EE000523642E009F00895FF93EF937DDFEF91D2
:100EF000FF91B7CFFF93EF93FC0181918030B9F35D
:100F000060DFFBCFFF93EF9368DFF1CFDF93CF93E9
:100F1000CDB7DEB72596A3DFCF91DF9108950C946E
:100F2000A4080C94A5080C94640980939401089576
:100F30008091940108959B01AC01F89460E079E000
:100F40008DE390E00E94A12B215031094109510904
:100F500056954795379527953093CD002093CC0033
:100F600082E08093C80088E98093C90086E080937E
:100F7000CA001092D7011092D801109295011092D8
:100F800096017894089560E875E280E090E00E9410
:100F90009B070C94A1089091D8019F5F983208F0AC
:100FA00090E02091D7012917E1F3E92FF0E0E75213
:100FB000FE4F80839093D80188EB8093C9000895F9
:100FC000CF93DF93EC01FE0184912196882361F099
:100FD0000E94CB07FFEF29EF80E0F15020408040D6
:100FE000E1F700C00000EFCFDF91CF910895CF93DC
:100FF000DF93D82FC92F2FEF81EE94E0215080404E
:101000009040E1F700C000008CE60E94CB072FEF74
:1010100089EF90E0215080409040E1F700C000004F
:101020008D2F9C2F0E94E0078AE0DF91CF910C94D6
:10103000CB072FEF81EE94E0215080409040E1F704
:1010400000C000008FE60E94CB072FEF89EF90E0F1
:10105000215080409040E1F700C000008091940151
:10106000882329F0813051F088E990E002C086EAB7
:1010700090E00E94E0078AE00C94CB0780EA90E0C1
:10108000F8CF80919401882329F0813041F01092AB
:10109000940103C081E0809394010C94190882E0CC
:1010A000FACF8F938FB78F938BB78F939F93EF93D5
:1010B000FF939091D8018091D70198130CC088E9D3
:1010C0008093C900FF91EF919F918F918BBF8F917A
:1010D0008FBF8F9118958091D7018F5F883208F06C
:1010E00080E0E82FF0E0E752FE4F90819093CE0031
:1010F0008093D701E7CF2F932FB72F932BB72F9341
:101100008F939F93EF93FF939091CE0080919601E0
:101110008F5F803408F080E020919501281739F026
:10112000E82FF0E0E956FE4F908380939601FF91FF
:10113000EF919F918F912F912BBF2F912FBF2F91C7
:10114000189580E00C94950708959C01FB0182811D
:10115000811102C081E008952B30FDE53F0709F4BD
:101160004BC060F42930EDE53E07B1F02A30FDE5D3
:101170003F0759F128303D4559F008952C30EDE5F1
:101180003E0709F450C02D303D4509F463C0089571
:101190000E94410880E008950E949807811111C0C3
:1011A00081E091E00E94D80A8DEF90E00E94D80A79
:1011B00089EF90E00E94D80A85EF90E00E94D80A5B
:1011C000E9CF0E949807813059F30E949807811156
:1011D0000FC081EF90E00E94D80A8DEE90E00E944F
:1011E000D80A89EE90E00E94D80A85EE90E0E6CF1A
:1011F0000E949807813069F30E94980781110FC0FF
:1012000081EE90E00E94D80A8DED90E00E94D80A0D
:1012100089ED90E00E94D80A85ED90E0CFCF0E9442
:101220009807813069F30E94980781110FC081ED02
:1012300090E00E94D80A8DEC90E00E94D80A89ECD8
:1012400090E00E94D80A85EC90E0B8CF0E94980701
:10125000813069F30E94980781110FC081EC90E002
:101260000E94D80A8DEB90E00E94D80A89EB90E0AA
:101270000E94D80A85EB90E0A1CF0E9498078130A8
:1012800009F068CFEBCF0F931F93CF93DF938B01C0
:10129000D82FC92F0E94D81D813081F0823089F06B
:1012A000811104C082EB90E00E94F707B8018D2FF6
:1012B0009C2FDF91CF911F910F9108958FEA90E0BD
:1012C000F3CF8CEA90E0F0CF0895CF93DF939C01A9
:1012D000FB019A9581159F4160F5E901CC27D170FA
:1012E000D901AA27B270B90166277470A9014427F1
:1012F000587034FF10C080E1CD2B09F480E0AB2B97
:1013000009F08062672B09F08064452B09F0806842
:10131000DF91CF91099481E0CD2B09F480E0AB2BD4
:1013200009F08260672B09F08460452B89F388609F
:10133000EFCFDF91CF910895CF93DF93EC01805EE3
:101340009109089720F06EEB76E1209711F46BE19C
:1013500074E1CE010E9465098C2FDF91CF910C942E
:101360009613CF93DF93EC010E94E013CE01805ED1
:101370009109089720F065EC76E1209711F462E27C
:1013800074E1CE01DF91CF910C946509CF93DF9387
:10139000D82FC92F0E949C098D2F9C2FDF91CF91B0
:1013A0000C94B10981E0089508950C94D4091F9319
:1013B000CF93DF9300D000D00F92CDB7DEB7498333
:1013C0005A836B8330915C0289819A8131111DC0EF
:1013D0006623B9F02223A9F00E94811C182F682FE0
:1013E00089819A810E942A1C69817A81812F0F90BC
:1013F0000F900F900F900F90DF91CF911F910C9451
:101400006C0B0E94581C182FEFCF0E94811C698121
:101410007A81EDCFFC01262F408151816281738159
:1014200084810C94D709CF93DF93D82FC92F60E024
:101430000E940A0A6D2F7C2FDF91CF910C94D50961
:10144000FF920F931F93CF93DF93E82FF0E0E851C3
:10145000FB4FF490C82FC695C695C695D0E0FE0107
:10146000E858FA4F0491877010E0082E02C01595D5
:1014700007950A94E2F701701127C859DA4FFE0167
:10148000C491D0E002C0D595C7958A95E2F7C170A6
:10149000DD270115110519F081EE0E9496132097A2
:1014A00019F086EE0E9496138F2D0E940814CD2B02
:1014B00019F086EE0E94E013012B41F081EEDF91DE
:1014C000CF911F910F91FF900C94E013DF91CF917A
:1014D0001F910F91FF900895EF92FF920F931F932A
:1014E000CF93DF938C01F62E8AE0E82EF8018491E9
:1014F000882309F456C0813009F04FC0E8012196D5
:10150000FE018491813099F42196FE0184910E941C
:1015100008148E010F5F1F4F8F2D882339F3EFE9D9
:10152000FFE03197F1F700C000008150F6CF823024
:1015300039F4E8012296FE0184910E949613E9CFC6
:10154000833039F4E8012296FE0184910E94E01371
:10155000E0CF8430F1F6E8012296FE01249180E08C
:1015600090E0FE0131962053330B2A30310550F0C4
:10157000009779F2EFE9FFE03197F1F700C0000042
:101580000197F6CFE89EA001E99E500D1124C901F4
:10159000840F951F2491EF01E4CF0E94200AE801F7
:1015A000B8CFDF91CF911F910F91FF90EF900895E9
:1015B00060E00C946C0A0E94701E811102C00E94AF
:1015C0000D1F0E94570F0C94C3070C948F078F7048
:1015D00041F08A3018F4835E90E008958650990BAC
:1015E000089587E290E0089581E008950C94F40A4C
:1015F000CF93C82F0E9493078C2FCF910C94F60A9B
:1016000008950E94DE160E94000B2FEF84E39CE0F9
:10161000215080409040E1F700C000000C94EA2087
:101620000F931F93CF93DF93EC0161E00E940A0AAE
:101630008C01BE010E949107882341F1BE01C801BF
:101640000E94F40F882311F1BE01C8010E947D1091
:101650008823E1F0BE01C8010E94C1108823B1F0C7
:10166000BE01C8010E949411882381F08A818823D9
:1016700041F101308CE5180779F00E3D8CE5180733
:10168000E9F001151C45E9F40E94010B80E0DF91AF
:10169000CF911F910F91089590910D03892F8E7F07
:1016A00090FF816080930D0380FF05C087ED94E07B
:1016B0000E94ED06EBCF85EC94E0FACF0E940D1F5F
:1016C000E5CFCE01DF91CF911F910F910C94D209FC
:1016D00090E080E008950895972F70E024E1929FB4
:1016E000600D711D1124FB0198E7899FE00DF11D2C
:1016F0001124EE0FFF1FEB5FFE4F8591949108952B
:10170000FC01EE0FFF1FE857FA4F85919491089561
:10171000CF93DF930E946C0B0E94930CEC01811518
:1017200021E5920708F048C0811530E5930708F0DD
:10173000AFC0803E910518F5803C910508F096C039
:10174000883A910570F4853A910508F08CC0813093
:10175000910531F10497813A910510F1D0E0C0E094
:101760001FC08F3B9105D1F3C85AD0E0CC0FDD1FCD
:10177000C35FDE4F0990D881C02DD46411C081159C
:1017800040E3940788F4C11580E2D80708F074C0DC
:10179000C83ED10528F0CE019A9581159F41F0F6FB
:1017A000CE01DF91CF910895811530E4930708F4BD
:1017B00066C0DF70D06AF4CF8115964560F5C1151B
:1017C00085E5D80708F096C0C11594E5D907F0F46F
:1017D000C11523E5D20708F079C0C11532E5D3075A
:1017E00008F46FC0CE018370992721E030E002C079
:1017F000220F331F8A95E2F7C695C69540E2C49F33
:10180000E0011124C22BD32BDC68CACFDC2FCC27FC
:10181000C46FD06AC5CFC1158AE5D80788F4C11551
:1018200099E5D90708F071C0CE0198558F3F910511
:1018300011F008F093CFDC2FCC27C06FD06AB0CF67
:10184000CE0190568115904208F088CF8D2F8F7170
:101850000E942B0D90E0982F882788279F719C016C
:101860002C2BE90150C0A497D0649ACF805C9109D9
:101870000E94800BEC0194CFCE019F70F9CF992785
:10188000D3FF03C0EC01D86C8BCFEC01D06C88CFB8
:1018900074E0969587957A95E1F783702C2F2695BD
:1018A0002695237040E2249F90011124382B8C2F21
:1018B0008370C1E0D0E002C0CC0FDD1F8A95E2F753
:1018C000A1CFDC2FCC27C16FD06A6ACFCE01837045
:1018D000992721E030E002C0220F331F8A95E2F7FA
:1018E000C695C69580E2C89FE0011124C22BD32B78
:1018F000DA6856CF8C2F0E942B0DC82FD0E0DC2F3A
:10190000CC27CC27DF71D0624BCF8C2F8F700E94F9
:101910002B0D34E0D695C7953A95E1F7CF70DC2FC3
:10192000C82FD0693DCF803E910599F1C8F481332D
:10193000910509F476C048F48932910509F46AC02A
:101940008A32910509F474C0089589339105D1F064
:1019500082389105B9F08533910509F454C0089592
:10196000843E910599F138F4823E9105F9F0833E69
:10197000910509F10895863E910599F1873E9105FB
:10198000B9F10895209113032370A1F080EE90E047
:1019900008952091130320FD52C03091140330FFAD
:1019A00009C024FF4FC090E080E004C020911303E1
:1019B00022FDF7CF08952091130322FD46C03091F8
:1019C000140330FDE3CF24FFF5CFEDCF20911403B6
:1019D00021FFF0CF8091130384FDE5CF87EE90E0E7
:1019E00008952091130323FFE5CF24FDDCCFF6CF2C
:1019F0002091130323FD2CC03091140331FFE3CF5A
:101A000084EE90E008952091130325FFD3CF89E25F
:101A100090E008952091130325FFCCCF85E390E05B
:101A200008952091130326FFC5CF8AE290E0089520
:101A30002091130326FFBECF81E390E0089589E350
:101A400090E0089583EE90E0089582EE90E008958E
:101A500086EE90E008959091130392FF06C0282F20
:101A600028712830F9F4877F846093FF06C0282FFF
:101A700028712831F1F4877E84612091140320FFBE
:101A800006C0382F38713830D9F4877F816021FF44
:101A900006C0282F28712831D1F4877E816194FDFA
:101AA000877E0895282F24712430F9F68B7F886073
:101AB000DCCF282F2471243101F78B7E8861DDCFA4
:101AC000382F3171313019F78E7F8860E0CF282FA1
:101AD0002171213121F78E7E8861E1CFCF93DF9391
:101AE00000D000D0CDB7DEB794E0899FF00111247B
:101AF000EF5FFD4F80819181A281B381BC01CD0157
:101B00000F900F900F900F90DF91CF910895CF928B
:101B1000DF92EF92FF920F931F93CF93DF9300D04A
:101B200000D000D0CDB7DEB789E995E00E94ED0680
:101B300081E0E82E82E0F82E1E821D8294E9C92EF3
:101B400095E0D92E0AE815E08E818F939D819F93B1
:101B5000DF92CF920E94860781E995E00E94ED0610
:101B6000F70181919191A191B1917F0189839A832C
:101B7000AB83BC83BC01CD010E94441E9F938F9315
:101B80007F936F931F930F930E94860788E895E0D9
:101B90000E94ED068D819E8101969E838D830FB6F6
:101BA000F894DEBF0FBECDBF069771F626960FB62E
:101BB000F894DEBF0FBECDBFDF91CF911F910F9183
:101BC000FF90EF90DF90CF90089580EA8A95F1F72B
:101BD0000895CF93DF93CFE4D1E025E531E041E0F4
:101BE00050E08991E82FE295EF70A1E2AE0FB0E0EE
:101BF000FC918F70BA0101C0660F8A95EAF7962FA3
:101C000090959F239C93EE5DF0E08081862B8083EE
:101C10002C173D0731F7CBE3D1E02FE431E041E071
:101C200050E08991E82FE295EF70A1E2AE0FB0E0AD
:101C3000FC918F70BA0101C0660F8A95EAF7962F62
:101C400090959F239C93EE5DF0E08081862B8083AE
:101C50002C173D0731F788E1E9E1F2E0DF01982F29
:101C60001D929A95E9F7E1E0F2E0DF011D928A9575
:101C7000E9F786E00E94040FDF91CF910C94DB0A14
:101C80002F923F924F925F926F927F928F929F928C
:101C9000AF92BF92CF92DF92EF92FF920F931F937A
:101CA000CF93DF9300D000D00F92CDB7DEB78FE493
:101CB000C82E81E0D82E99E1E92E92E0F92E712C00
:101CC000812C912C54018394F60181916F01F82F9E
:101CD000F295FF70FB830F2F0F5D10E0F8019081EC
:101CE0008F7021E030E002C0220F331F8A95E2F7A7
:101CF0003A832983822F892B80833B813E5D832F0A
:101D000090E09D838C83FC018081622E609486210B
:101D100080830E94E50DABE3B1E090E080E040E01D
:101D200050E0BA015D90E52DE295EF70E05EF0E0E5
:101D3000208130E0E52DEF7002C035952795EA95BA
:101D4000E2F720FD5AC014012501082E04C0220C20
:101D5000331C441C551C0A94D2F742295329642988
:101D60007529019684319105E9F6F8018081682290
:101D70006082EC81FD818081F9818F2BEC81FD8176
:101D80008083F70180819181A281B381481759072F
:101D90006A077B07B9F1408351836283738381E0D3
:101DA000782AF4E0EF0EF11C25E5C21621E0D206F8
:101DB00009F08ACF272D46E061E072E089E192E0E8
:101DC0000E94050F0E94E50A872D0F900F900F903B
:101DD0000F900F90DF91CF911F910F91FF90EF9097
:101DE000DF90CF90BF90AF909F908F907F906F903B
:101DF0005F904F903F902F900895212C312C412CD3
:101E0000512CABCF80E0CCCF0895FF920F931F935E
:101E1000CF93DF93F82E092F162FD72FC42F22230D
:101E200049F081E0809333020E948B20909332022C
:101E300080933102809133028823A1F08091310296
:101E4000909132020E94B720069760F0EF2DF02F9C
:101E5000A12FBD2F90E080E0D0E08C179D0744F0CB
:101E600010923302DF91CF911F910F91FF9008954F
:101E700001911191219131910D931D932D933D93DA
:101E80000196EBCFCF93DF93EC01FB0197FF0BC0E3
:101E90008281882341F00E94950FCE019F770E9496
:101EA000D70F0E94C00F81E0DF91CF9108958CE0A1
:101EB00090E00E94CC2B482F50E070E060E040930F
:101EC0003502509336026093370270933802909136
:101ED0000D0390FF0CC01F928F938FED95E09F93A1
:101EE0008F930E9486070F900F900F900F90089588
:101EF000609135028CE090E00C94DA2B80933502EF
:101F00000E94780F80910D0380FF0EC080913502F2
:101F10001F928F9380EC95E09F938F930E9486078A
:101F20000F900F900F900F9008950E941E1D8093A8
:101F300034020E94321D809135028230A9F030F4C3
:101F400081110DC082EE0E94961302C0843099F078
:101F50008FE39CE90197F1F700C00000089588E144
:101F600093E00E94C609F4CF82EE0E94961387E5A3
:101F70000E940814EDCF86EE0E94081488E1F8CF85
:101F800080913502823019F030F481110AC082EE5E
:101F90000E94E01302C0843041F0809134020C941E
:101FA0002F1D8CE20E940814F8CF88E2FBCF0F931C
:101FB0001F93CF93DF938C01CCE0D0E0C8010C2EAF
:101FC00002C0969587950A94E2F78F700E94E70AFF
:101FD0000E9408142497CC3F8FEFD80779F7DF9140
:101FE000CF911F910F9108950F931F93CF93DF937C
:101FF000EC018B01FB018281882351F00E941E1DA0
:10200000CE01815E9C458530910510F40E947E0FC3
:10201000B801CE01DF91CF911F910F910C94420F27
:102020000F931F93CF93DF93C62FD42F022FFC0162
:1020300082818823C9F060933B020E948B20909399
:102040003A028093390280E28C0F883008F050C049
:10205000C77081E001C0880FCA95EAF7DF91CF9180
:102060001F910F910C941B1410913B02161335C055
:102070008091390290913A020E94B720883C9105E4
:1020800060F5C0E2CD0F1D17B9F080E2810F8830F6
:1020900040F4177081E001C0880F1A95EAF70E949A
:1020A0002214C83048F481E09D2F977001C0880F3A
:1020B0009A95EAF70E941B14802F0E940814C830DA
:1020C000B8F4D77081E001C0880FDA95EAF7DF91A4
:1020D000CF911F910F910C94221480E28C0F8830C5
:1020E00038F4C77081E001C0880FCA95EAF7EFCFD6
:1020F000DF91CF911F910F9108959C01CB01233F58
:102100004CE5340769F190F4283DFCE53F0721F1E7
:10211000293D4CE5340781F1273D3C45B1F0FC01F8
:102120008281882361F110923B020895253FFCE5EE
:102130003F07D1F0263F4CE53407D1F0243F3C4522
:1021400071F727E245EE64EE03C026E241EE61EE50
:102150000E94101080E0089527E245EE65EEF8CF6A
:1021600026E241EE60EEF4CF26E241EE62EEF0CFE1
:1021700027E245EE66EEECCF28E241E0EFCF81E0CA
:102180000895CF93DF93EC01FB018281882309F44A
:10219000C9C0C631FCE5DF07E0F4C2309CE5D907D1
:1021A000F0F00E94831E9093140380931303C631B2
:1021B000ECE5DE0720F5C230FCE5DF0798F48091FE
:1021C0001303909114030E94911E0E94DE1680E07A
:1021D00006C09E012A5F3C452930310510F3DF918E
:1021E000CF910895FE01E350FC4580911303816077
:1021F000E331F10588F4E05FF34D0C94C32BCA5F23
:10220000DC45C930D105D8F6CD5DD34DFE010C9427
:10221000C32B80911303826080931303D0CF8091EE
:1022200013038460F9CF809113038860F5CF809108
:102230001403816080931403C2CF809114038260E1
:10224000F9CF809113038061E7CF809113038062FF
:10225000E3CF809113038064DFCF0E94DE1680916C
:1022600013038068D9CF809113038C60D5CF809100
:1022700014038360DFCF809113038E7FCDCF8091D5
:1022800013038D7FC9CF809113038B7FC5CF8091BE
:102290001303877FC1CF809114038E7FCBCF8091B2
:1022A00014038D7FC7CF809113038F7EB5CF8091AC
:1022B00013038F7DB1CF809113038F7BADCF0E942D
:1022C000DE16809113038F77A7CF80911303837F4E
:1022D000A3CF809114038C7FADCF8091130382FB39
:1022E000992790F921E0922790FB82F990FB83F9DE
:1022F00093CF80911403982F909591708E7F892BA6
:1023000090FB81F997CF0E94DE1690911303892FDD
:1023100097FB87F9805880CF81E00E940F1F4FCF35
:1023200080E0FBCF81E05BCFCF93DF93EB01863181
:102330009C4511F50E941E1D9A81992399F08A7A75
:1023400091E009F490E090933C02811109C089E288
:102350000E94F91C0E94701D80E0DF91CF910895CA
:1023600085E3F6CF80913C02811104C089E20E948E
:10237000001DF0CF85E3FBCF81E0EFCF90934202C9
:10238000809341020895E0914102F091420230971A
:1023900021F00190F081E02D099480E00895EF9202
:1023A000FF920F931F93CF93DF93EC01E0914102D3
:1023B000F0914202309709F442C080910C018823C9
:1023C00041F08091130387FF04C08881898385E0F1
:1023D00088830280F381E02DCE01099580910D0361
:1023E00082FF2DC080FF04C087E096E00E94ED06CA
:1023F0007E0188E0E80EF11C01E016E080910D03FB
:1024000080FF0BC088811F928F931F930F930E94B0
:1024100086070F900F900F900F902196CE15DF0535
:1024200069F780910D0380FF0AC08FEF95E0DF917F
:10243000CF911F910F91FF90EF900C94ED06DF91DB
:10244000CF911F910F91FF90EF90089520913F023F
:10245000309140022817390771F090934002809321
:102460003F02E0914102F0914202309721F0068054
:10247000F781E02D0994089520913D0230913E02AC
:102480002817390771F090933E0280933D02E09146
:102490004102F0914202309721F00084F185E02D55
:1024A0000994089585B7806885BF85B7806885BF22
:1024B0000895089508950C94591208950C945D128E
:1024C0000E9452120E945A120C945B1281E00895ED
:1024D0000C9466120E9482200E94E90D0E941C2129
:1024E0000C945E12CF93C82F80910D0382FF1EC003
:1024F00080FF1CC080E296E00E94ED0680910D03F3
:1025000080FF14C01F92CF938BE196E09F938F932F
:102510000E94860780910D030F900F900F900F90EF
:1025200080FF04C089E196E00E94ED068C2FCF91D8
:102530000C94F80A4F925F926F927F929F92AF92A3
:10254000BF92CF92DF92EF92FF920F931F93CF93A0
:10255000DF9300D000D00F92CDB7DEB70E94400EBF
:102560000E946812882309F48DC044E4A42E42E03E
:10257000B42E10E000E0902E802F0E946E0D6B01B3
:102580007C01F50141905190619071905F014C1474
:102590005D046E047F0409F46FC080910D0381FD1A
:1025A0000E94870DB301A2014C255D256E257F2574
:1025B00020E0412C512C32014394DB01CA018421DB
:1025C0009521A621B721892B8A2B8B2B09F44CC08E
:1025D00029839A82C420D520E620F72081E0CD28E7
:1025E000CE28CF2809F480E08B830E948B20816065
:1025F000782F9D838C8349815A816B818D810E94C4
:102600006813000F111F000F111FF801EC5BFD4F45
:1026100080819181A281B38184259525A625B72546
:1026200080839183A283B3830E94C311909143025C
:102630008917C9F10E94C311809343020F900F9034
:102640000F900F900F90DF91CF911F910F91FF90FE
:10265000EF90DF90CF90BF90AF909F907F906F9062
:102660005F904F900C9472122F5F440C551C661CA7
:10267000771C243109F0A1CF0F5F1F4F06301105E1
:1026800009F079CF8FEF89838A831B820E948B2088
:102690008160782F9D838C8349815A816B818D81E4
:1026A0000E946813C1CF0F900F900F900F900F9062
:1026B000DF91CF911F910F91FF90EF90DF90CF901E
:1026C000BF90AF909F907F906F905F904F900895D4
:1026D000CF93DF93CDB7DEB72B970FB6F894DEBF5D
:1026E0000FBECDBF4F83588769877A878B871E823D
:1026F00085E0FE013796DE01119601900D928A95D4
:10270000E1F749815A816B817C818D819E812B9675
:102710000FB6F894DEBF0FBECDBFDF91CF910C9402
:102720004019FC01808191810C94C31CCF93C82F68
:10273000882309F443C08CEF8C0F813AC8F48C2FA6
:102740000E94C82381113AC06C2F809100019091A2
:1027500001010E94281F882329F08C2F0E94001D50
:102760000E94701D8C2F0E94F91CCF910C94701D3B
:1027700080E28C0F883048F4C77081E001C0880F78
:10278000CA95EAF70E94211DF0CF8BE58C0F8330AC
:1027900038F42C2F2452330BC901CF910C942612FC
:1027A000C85AC73158F4EC2FF0E0EE0FFF1FEB5A78
:1027B000FE4F80819181CF910C943C12CF9108956E
:1027C000882329F19CEF980F913A20F40E94001D74
:1027D0000C94701D90E2980F983050F4877091E03F
:1027E00001C0990F8A95EAF7892F0E94271DF0CF23
:1027F0009BE5980F933020F490E080E00C94261233
:10280000885A873120F490E080E00C943C120895BF
:10281000CF93C82F0E949613C93349F42FEF87EE48
:1028200093E0215080409040E1F700C000008C2FE1
:10283000CF910C94E013882321F00E94211D0C9469
:10284000701D0895882321F00E94271D0C94701D8F
:102850000895AF92BF92CF92DF92EF92FF920F93C3
:102860001F93CF93DF9300D000D00F92CDB7DEB788
:102870006C016D837983FC01058102950F701281D3
:1028800011110E94431D0E94171DE82E882391F00C
:102890001123D1F08981807F803421F08D81805E89
:1028A000883090F082E00E94BB1D0E94171D91E0CD
:1028B000E82EE926A980A2949FE0A922B12CF50177
:1028C000E45DF34D0C94C32BE12CF4CF09810F7020
:1028D000F981F07F11F00295007F1123B1F0002300
:1028E00061F08D81805E883018F02D81211109C042
:1028F000802F0E94211D0E94701D8D810E949613C1
:1029000015C0802F0E94351DF6CF8D810E94E013E7
:10291000002361F08D81805E883018F04D81411177
:1029200033C0802F0E94271D0E94701D48E0A41A0A
:10293000B10854E0A516B10420F40E94C3110E940E
:10294000F80AEE2009F4CBC10E94131D80FDC7C117
:10295000F60112820E940D1D0E941A1BC6010E94E0
:1029600096160E940D1D0F900F900F900F900F90D4
:10297000DF91CF911F910F91FF90EF90DF90CF905B
:10298000BF90AF900C944B1B802F0E943B1DCCCF6F
:1029900059815F70F52E6981607F603219F0F29481
:1029A00080EFF8227D81772369F0713049F111239E
:1029B00091F1002351F1F601858180FF9ECF8F7048
:1029C000858323C0112381F0011106C00E94571D89
:1029D0008F290E941B14AACF0130C1F70E94571DF6
:1029E0008F290E945D1DA2CF011106C00E94661DA5
:1029F0008F2D0E9422149ACF013009F497CFF6CF81
:102A0000112329F0063008F091CF8F2DE2CF053049
:102A100008F08CCFEDCF002359F3FD81F93349F451
:102A20002FEF47EE53E0215040405040E1F700C007
:102A300000008D810E94E01379CF8981869586956B
:102A4000837069F0813009F071CF8D819981937025
:102A5000111102C090E080E00E943C1267CF8D818E
:102A600099819370111102C090E080E00E942612BB
:102A70005DCF8981837009F050C0111157CF4D810E
:102A8000429546954770440F440F8D818F7090E0BA
:102A9000B0E0A0E0042E04C0880F991FAA1FBB1F3E
:102AA0000A94D2F76D8100E010E0980164FF0FC036
:102AB0000FE010E020E030E004C0000F111F221FE3
:102AC000331F4A95D2F7009510952095309579815E
:102AD0007695769573707D83B901A801482B592BA3
:102AE0006A2B7B2B49835A836B837C835D8169814D
:102AF0007A818B819C81523051F0533059F05130A2
:102B000019F00E94921A12CF0E946A1A0FCF0E94E7
:102B1000BA1A0CCF0E94681A09CF112309F445C0D4
:102B2000698160FF03CF4D81429546954770440F00
:102B3000440F8D818F7090E0B0E0A0E0042E04C0BF
:102B4000880F991FAA1FBB1F0A94D2F7ED8100E0DE
:102B500010E09801E4FF0FC00FE010E020E030E04B
:102B600004C0000F111F221F331F4A95D2F7009592
:102B7000109520953095F981F695F695F370FD83C3
:102B8000B901A801482B592B6A2B7B2B49835A8307
:102B90006B837C83F230A1F0F330C9F0F13049F05F
:102BA000CB01BA010E94D91BC1CE798171FFBECE83
:102BB000BACF69817A818B819C810E94B11BB6CE8C
:102BC00069817A818B819C810E94011CAFCE6981D1
:102BD0007A818B819C810E94E41AA8CE59815F7012
:102BE0005983112329F0852F0E941A1B8D81F1CE64
:102BF0008D810E94221489810E944B1B97CE6D818A
:102C0000623F99F160F4603FD9F0613F39F11123DF
:102C100009F444C0011171CE89818F7123C07D8177
:102C2000733F41F1743F99F7112371F189818F71DD
:102C300089830E941A1B63E089810E94A61D76CEBB
:102C4000112341F0053008F071CE89818F710E9407
:102C5000801B6CCE063008F069CEF7CF89818F716A
:102C6000112351F20E941A1B61CE89818F711123A9
:102C7000C9F3C2CF112329F089818F710E94F51AFF
:102C800055CE0E94F01A52CE81E00E94BB1D023048
:102C900008F44CCE82E00E94BB1D48CE002361F0B8
:102CA0009D81993309F0C5CEEFEFF7EE23E0E150B7
:102CB000F0402040E1F7BBCE89818F719DCF4981E3
:102CC0004F706D81C6010E94680B0E94DA192ECEEA
:102CD00049814F706D81C6010E946B0B27CE0F900A
:102CE0000F900F900F900F90DF91CF911F910F9148
:102CF000FF90EF90DF90CF90BF90AF9008950F932B
:102D00001F93CF93DF93EC01688179818A810E94C0
:102D1000CF1C8C010E94291C0E94671AB801CE01A9
:102D2000DF91CF911F910F910C942914CF93DF93D2
:102D3000EC018B819C81892B29F0898198818923E1
:102D40008F3F59F4DF91CF910895CE010E947F16F5
:102D5000CE01DF91CF910C94130ACE010E94100B8B
:102D60008111F3CF0E94171D882361F38A81882384
:102D700049F382E0DF91CF910C94BB1D882321F0B1
:102D80000E94351D0C94701D0895882321F00E9427
:102D90003B1D0C94701D08950E94431D0E94541DFC
:102DA0000E94701D90E080E00E94261290E080E07A
:102DB0000C943C120E94071D0C94CC160E94321DEC
:102DC0000C94DA16282F892F82958F70903C80F40E
:102DD0008A30B0F4843020F4823090F480E008959A
:102DE0008630E1F781E0283E88F0213FB9F70EC038
:102DF0008C3011F08F3091F793FB882780F908957C
:102E000081E0203F39F018F4283E40F70895243F30
:102E100029F7FCCF08950E94C31C0C94E216CF93AF
:102E2000DF9300D000D00F92CDB7DEB70F900F9098
:102E30000F900F900F90DF91CF910895CF93DF9374
:102E400000D000D000D0CDB7DEB726960FB6F894EC
:102E5000DEBF0FBECDBFDF91CF9108951F93CF93FB
:102E6000DF93E0915D0216E080915E028E1304C054
:102E7000DF91CF911F910895CE2FD0E01E9FF001DA
:102E80001124E15AFD4F4081518162817381848117
:102E900095810E941E17FE013196E770E5CF4091A3
:102EA0008F025091900260919102709192028091F4
:102EB0009302909194020C941E171F93CF93DF936B
:102EC00080919402807FA9F480919102882389F0F7
:102ED00080915D02C0915E0270918F0260919002BC
:102EE000A0919202B0919302D62FD72316E0C81377
:102EF00004C0DF91CF911F91089590E0109711F0D9
:102F0000DF3F19F401968770F2CF189F9001199F47
:102F1000300D1124F901E15AFD4F41816413F2CFC4
:102F200040814713EFCF42814111ECCF438154815F
:102F30004A1B5B0B483C510528F7809194028F7027
:102F4000806180939402F901EC59FD4F80818F706C
:102F5000806180838FE892E00E949616DF91CF9186
:102F60001F910C942E17AF92BF92CF92DF92EF92E7
:102F7000FF920F931F93CF93DF93CDB7DEB72B97BD
:102F80000FB6F894DEBF0FBECDBF8C0185E0F8010F
:102F9000DE01179601900D928A95E1F7F8014081C4
:102FA0005181E2808FE8A82E82E0B82E60919202D3
:102FB000709193026115710549F090918F022091F3
:102FC0009002892F82238F3F09F045C1EE2009F43A
:102FD00053C14F8358878F8198850E940B17F82E15
:102FE000882309F449C186E0F801AFE8B2E0019016
:102FF0000D928A95E1F78FE892E00E9491130E946A
:103000005D1726C180919402382F307F683C71058E
:1030100008F07CC03111B5C0FE2C251324C09413D8
:1030200022C0E11020C08F708061809394020E94C2
:103030004F178FE892E00E94961680919402F80153
:1030400085838F2D2B960FB6F894DEBF0FBECDBFB4
:10305000DF91CF911F910F91FF90EF90DF90CF9074
:10306000BF90AF900895CD2829F0842F85238F3FFE
:1030700009F084C080E0F82FF170DF2EE0915D024E
:1030800020915E0236E080FD1CC0EE20D1F28091DE
:103090009402816080939402F12CD3CF8E2F90E024
:1030A0003E9FF0011124E15AFD4F6181651306C076
:1030B0006081641303C062816E11E7CFFC01319619
:1030C000E770E213EBCF4F8358878F8198850E947A
:1030D000C31C292F22952F70903260F0225F2F7031
:1030E000223078F49F7051F0F8019581907F31F48F
:1030F000D12C0AC09F7011F08823D1F3805E8830F4
:10310000B8F3C8010E949616FD2C9BCF31116EC0FA
:103110006E2D7A858B850E940F178FE892E00E94B2
:10312000961686E0F50111928A95E9F70E944F17ED
:10313000B3CF86E0F801AFE8B2E001900D928A9536
:10314000E1F77FCF4F8358878F8198850E940B17B7
:1031500081113DC080919402816080939402C801E6
:103160000E9496166ECF6E2D7A858B850E940F1762
:1031700086E0F50111928A95E9F76AC081E08E2513
:103180007ACF251306C0941304C0F801EE2009F489
:1031900053C04F8358878F8198850E940B178823CF
:1031A00009F46AC0EE2009F467C08091940280326D
:1031B00070F020918F02309190023A8329831B8214
:1031C000DD82CC828E83CE0101960E94961686E027
:1031D000F801AFE8B2E001900D928A95E1F70E9404
:1031E0005D170E944F17FF24F3942BCF2513D1CFE7
:1031F0009413CFCFE110CDCFF8018583C8010E9491
:10320000961686E0F50111928A95E9F71ACF2513F3
:1032100099CF941397CF8091940280FD8ACF982FF5
:10322000907F09F486CFF8018583903F31F0982F85
:10323000907F905F8F70892B8583C8010E949616BE
:1032400086E0F801AFE8B2E001900D928A95E1F7CF
:103250000E944F17F6CEC380D480F0909102F60101
:10326000E61BF70BBF01F110CDCE683C710508F0ED
:103270007ACFFE2CE110CBCFC8010E949616B3CFB7
:103280001F93CF93DF93CDB7DEB72C970FB6F8948B
:10329000DEBF0FBECDBF4F83588769877A878B8784
:1032A0009C87CE0107960E94B317882369F08A8510
:1032B0009B85892B39F058854F81852F84238F3F3B
:1032C00009F071C016E05FC086E0FE013796DE01AE
:1032D000119601900D928A95E1F78A859B85892B3D
:1032E00089F38F81988589238F3F61F320915E0256
:1032F00030E0C90101968770992740915D02481717
:10330000190671F40E94DE1610925E0210925D02A0
:1033100086E0EFE8F2E0DF011D928A95E9F7D2CF6F
:1033200096E0929FD001939FB00D1124A15ABD4FFA
:10333000FE01319601900D929A95E1F780935E021D
:103340000E942E17BFCF819FC0011124815A9D4F2B
:103350000E94B3178823E9F0E0915D021E9FF001FF
:103360001124E15AFD4F4081518162817381848132
:1033700095810E941E1780915D0290E001968770F2
:10338000992780935D0280915D0290915E0289137E
:10339000DACF2C960FB6F894DEBF0FBECDBFDF910B
:1033A000CF911F91089569857A858B859C850E94B0
:1033B0001E1788CFEF92FF920F931F93CF93DF9347
:1033C0008C01892B89F0F12CEE24E394E8012196FD
:1033D000F8018491843709F458C0A0F4823009F4CC
:1033E0003FC048F48130D1F0DF91CF911F910F9110
:1033F000FF90EF9008959CEF980F9037A8F70E94E8
:1034000096130AC0853709F44EC09CE7980F903791
:1034100058F78F770E94E0138E0116C00E5F1F4F82
:10342000FE01849190E2980F983060F48770FE2D31
:1034300001C0FF0F8A95EAF78F2F0E94461D0E9458
:10344000701D02C00E9496138F2D882309F4BECFF1
:10345000EFE9FFE03197F1F700C000008150F5CFB0
:103460000E5F1F4FFE01849190E2980F983050F448
:103470008770FE2D01C0FF0F8A95EAF78F2F0E94FB
:103480004C1DDDCF0E94E013DFCF0E5F1F4FFE010A
:10349000C491CC23C9F28FE99FE00197F1F700C0F6
:1034A0000000C150F6CF0E5F1F4FFE01F490CCCF4D
:1034B00008950C94581A0E94591A6093E40270936C
:1034C000E5028093E6029093E7020C94CC160895EF
:1034D0000C945B1ACF93DF9300D000D0CDB7DEB74A
:1034E00069837A838B839C838091E4029091E502C7
:1034F000A091E602B091E70229813A814B815C817B
:10350000282B392B4A2B5B2B29833A834B835C83F3
:10351000CA01B9010F900F900F900F90DF91CF91DA
:103520000C945B1ACF93DF9300D000D0CDB7DEB7F9
:1035300069837A838B839C838091E4029091E50276
:10354000A091E602B091E70229813A814B815C812A
:10355000282339234A235B2329833A834B835C83C3
:10356000CA01B9010F900F900F900F90DF91CF918A
:103570000C945B1ACF93DF9300D000D0CDB7DEB7A9
:1035800069837A838B839C838091E4029091E50226
:10359000A091E602B091E70229813A814B815C81DA
:1035A000282739274A275B2729833A834B835C8363
:1035B000CA01B9010F900F900F900F90DF91CF913A
:1035C0000C945B1A0C9443090E94E21A6093E00287
:1035D0007093E1028093E2029093E3020C94CC1684
:1035E00060E070E0CB010C94E41A0F931F93CF932B
:1035F000DF9300D000D0CDB7DEB741E050E060E00F
:1036000070E08A019B0104C0000F111F221F331FAD
:103610008A95D2F709831A832B833C83C901B801A9
:103620000F900F900F900F90DF91CF911F910F91FE
:103630000C94E41A0F931F93CF93DF9300D000D024
:10364000CDB7DEB741E050E060E070E004C0440F69
:10365000551F661F771F8A95D2F78091E0029091DF
:10366000E102A091E202B091E3028A019B01082BE2
:10367000192B2A2B3B2B09831A832B833C83C901EB
:10368000B8010F900F900F900F90DF91CF911F9185
:103690000F910C94E41A0F931F93CF93DF9300D0F4
:1036A00000D0CDB7DEB741E050E060E070E004C08C
:1036B000440F551F661F771F8A95D2F74095509586
:1036C000609570958091E0029091E102A091E202F4
:1036D000B091E3028A019B01082319232A233B238B
:1036E00009831A832B833C83C901B8010F900F9083
:1036F0000F900F90DF91CF911F910F910C94E41ACE
:103700000F931F93CF93DF9300D000D0CDB7DEB7D8
:1037100041E050E060E070E004C0440F551F661FB8
:10372000771F8A95D2F78091E0029091E102A091F3
:10373000E202B091E3028A019B01082719272A2798
:103740003B2709831A832B833C83C901B8010F905F
:103750000F900F900F90DF91CF911F910F910C94CC
:10376000E41ACF93DF9300D000D0CDB7DEB76983E2
:103770007A838B839C838091E0029091E102A091F7
:10378000E202B091E30229813A814B815C81282BCE
:10379000392B4A2B5B2B29833A834B835C83CA01E9
:1037A000B9010F900F900F900F90DF91CF910C9473
:1037B000E41ACF93DF9300D000D0CDB7DEB7698392
:1037C0007A838B839C838091E0029091E102A091A7
:1037D000E202B091E30229813A814B815C81282386
:1037E00039234A235B2329833A834B835C83CA01B1
:1037F000B9010F900F900F900F90DF91CF910C9423
:10380000E41ACF93DF9300D000D0CDB7DEB7698341
:103810007A838B839C838091E0029091E102A09156
:10382000E202B091E30229813A814B815C81282731
:1038300039274A275B2729833A834B835C83CA0154
:10384000B9010F900F900F900F90DF91CF910C94D2
:10385000E41A0895E82F24E1929FE00D11248E2FA1
:10386000877041E001C0440F8A95EAF7E695E69536
:10387000E69585E0E89FF0011124EB56FD4F30E01E
:1038800020E070E05191DF011197CB01022E02C0C0
:10389000969587950A94E2F7817081958527842310
:1038A00085278C932F5F3F4F2530310559F70895B9
:1038B000E82F24E1929FE00D11249E2F9770E6954A
:1038C000E695E69585E0E89FF0011124EB56FD4F63
:1038D00050E040E080E0219130E0092E02C03695B2
:1038E00027950A94E2F721703327042E01C0220F96
:1038F0000A94EAF7822B4F5F5F4F4530510559F725
:103900000895BF92CF92DF92EF92FF920F931F9391
:10391000CF93DF938C01C090E002D090E102E09061
:10392000E202F090E3028091E4029091E502A0911E
:10393000E602B091E702C82AD92AEA2AFB2ACFE197
:10394000D0E0BC2ED701C6010C2E04C0B695A795B9
:10395000979587950A94D2F780FD0EC0219788F736
:10396000B12C8B2DDF91CF911F910F91FF90EF9094
:10397000DF90CF90BF900895B8018C2F0E94880BE4
:10398000019761F3EECFCF93DF93D82FC92F0E9419
:10399000811C6D2F7C2FDF91CF910C94880B1F938E
:1039A000CF93DF93162FD72F90915C02992339F094
:1039B000862F972FDF91CF911F910C94C31C8823E2
:1039C00091F0862F972F0E94811CC82F682F812F7E
:1039D0009D2F0E942A1C612F7D2F8C2FDF91CF916C
:1039E0001F910C94880B862F972F0E94581CC82F6C
:1039F000F2CF682F80910001909101010C94CE1FAD
:103A0000682F80910001909101010C94D91F809141
:103A10000001909101010C94E41F8091E8028595CA
:103A20008595859508958091E80287700895909115
:103A3000E802977081E009F480E0089580910C031A
:103A4000089590910C03982B90930C030895982F50
:103A5000909580910C03892380930C0308958093A3
:103A60000C03089510920C03089590910B03982B6A
:103A700090930B030895982F909580910B038923C1
:103A800080930B03089510920B03089590910A03FD
:103A9000982B90930A030895982F909580910A038C
:103AA000892380930A03089510920A030895809150
:103AB000E902089508950C945A1D9091E90298170F
:103AC00021F08093E9020C945B1D08958091E90236
:103AD000882329F01092E90280E00C945B1D089580
:103AE000E0910001F091010180910C038083E0914D
:103AF0000001F0910101808190910B03892B80835B
:103B0000E0910001F0910101808190910A03892BDD
:103B100080839091E902992381F0E0910001F09176
:103B200001018081892B80838091000190910101A6
:103B30000E94141F81110E94661D809100019091C6
:103B400001010C94CF1108950C94A31D98E0899F56
:103B500090011124622B6093E8020E941A1B80914D
:103B6000E8028595859585950C94A41D1092E80230
:103B700080E00C94A41D9091E802809589238093A5
:103B8000E802282F277071F4282F082E000C330B21
:103B90009217130639F08595859585950E944B1BE4
:103BA0000C94B61D0895909393018093920108950B
:103BB0000F931F93462F572FBC01CB01AA27BB277A
:103BC0000097A105B105E9F1AC01BD0180E1052F28
:103BD000162F272F3327011511052105310519F05F
:103BE000885FB901A8018A019B01F4E03695279509
:103BF00017950795FA95D1F701151105210531059E
:103C000019F08C5FB901A8018A019B01E2E03695A9
:103C1000279517950795EA95D1F701151105210507
:103C2000310519F08E5FB901A80176956795579512
:103C30004795452B462B472B09F08F5F1F910F911E
:103C4000089580E0C4CF829594E0899F900111246B
:103C50002C7C869586958373282B30E0C901880FCC
:103C6000991F8A7A359527952575822B0895CF93CC
:103C7000DF93D92F0E94231EC82F8D2F0E94231E51
:103C80009C2FDF91CF9108950F931F93CF93DF93D4
:103C900000D000D0CDB7DEB78C01CB010E94371E1B
:103CA00089839A83C8010E94371E09811A81A8015D
:103CB00070E060E0BA0155274427B0E0A0E08A0137
:103CC0009B01082B192B2A2B3B2BC901B8010F9004
:103CD0000F900F900F90DF91CF911F910F9108954A
:103CE00090E080E00E94D42B9C0181E02C3E3E4F6E
:103CF00009F080E0089582E090E00C94CC2B83E002
:103D000090E00C94CC2BCF9384E090E00E94CC2BDD
:103D1000C82F81E290E00E94CC2B982F8C2FCF915E
:103D20000895CF93682FC92F84E090E00E94DA2B8A
:103D30006C2F81E290E0CF910C94DA2BAB01BC01A7
:103D40008FE090E00C94EC2BAB01BC0183E190E0A0
:103D50000C94EC2B60E070E0CB010C94A41E60E0AE
:103D600070E0CB010E949E1E0C94AA1E6CEE7EEFAA
:103D700090E080E00E94F82B60E082E090E00E94FA
:103D8000DA2B60E083E090E00E94DA2B1092E402EC
:103D90001092E5021092E6021092E70260E084E0E1
:103DA00090E00E94DA2B60E081E290E00E94DA2B42
:103DB00060E085E090E00E94DA2B60E086E090E031
:103DC0000E94DA2B6FEF87E090E00E94DA2B40E050
:103DD00050E0BA0188E090E00E94EC2B60E08DE0BA
:103DE00090E00E94DA2B40E050E0BA0188E190E0D8
:103DF0000E94EC2B60E087E190E00E94DA2B40E02B
:103E000050E0BA018CE190E00E94EC2B60E080E28F
:103E100090E00E94DA2B0C94AF1E0C94B61E682F13
:103E20008EE090E00C94DA2BFC01329680910C012C
:103E3000882321F0809113039EE187FF96E080E0C4
:103E4000915008F4089521912223D1F38F5FF8CF88
:103E50009C01662301F180910C018823F1F080918F
:103E6000130387FF1AC0462F469546954695603F37
:103E700090F4677081E090E002C0880F991F6A9506
:103E8000E2F7240F311DF901228130E02823392384
:103E900081E0232B71F480E00895F9013296285FC8
:103EA0003F4F8191861721F0E217F307D1F7F3CF47
:103EB00081E008959C01FC0132968FEF90E04191E2
:103EC000461751F08F3F19F4411101C0892F9F5FB0
:103ED0009630A9F78F3F09F40895280F311D87FD0B
:103EE0003A95F901628308959C01FC013296285F9E
:103EF0003F4F8191861303C0DF0111971C92E21797
:103F0000F307B9F70895FC01862F86958695869567
:103F1000603F68F4E80FF11D677021E030E001C0F8
:103F2000220F6A95EAF78281822B8283089580911D
:103F30000D0380FF0CC01F926F9381E596E09F9365
:103F40008F930E9486070F900F900F900F90089507
:103F5000FC01862F869586958695603F70F4E80F64
:103F6000F11D677081E090E001C0880F6A95EAF763
:103F70008095928189238283089580910D0380FF2B
:103F80000CC01F926F9383E396E09F938F930E94E0
:103F900086070F900F900F900F90089520910C01BD
:103FA000222329F02091130327FD0C94831F0C94E6
:103FB0005A1F20910C01222329F02091130327FD81
:103FC0000C94A81F0C94741FFC01329680910C0174
:103FD000882351F08091130387FF06C08EE1DF0133
:103FE0001D928A95E9F7089586E0F9CF089508951E
:103FF0000C94F71F0E94F81F80913F03843049F111
:1040000010920E0388E190E020E40FB6F894A89592
:10401000809360000FBE2093600080E00E94F80A49
:104020000E94F81F83B7817F846083BF83B781605C
:1040300083BF7894889583B78E7F83BF0FB6F8943B
:10404000A895809160008861809360001092600064
:104050000FBE08950895CF93DF9300D000D00F9244
:10406000CDB7DEB70E94F61F0E94400E0E942A20A4
:104070001D828D810E946E0D672B682B692B71F458
:104080008D818F5F8D838630A1F780E00F900F9038
:104090000F900F900F90DF91CF91089581E0F6CFB0
:1040A00008950C9450200E94DE160E94C3110E94B5
:1040B000F80A0C9451201F921FB61F9211248F935F
:1040C0009F93AF93BF9380910E03811113C0809192
:1040D0000F0390911003A0911103B0911203419628
:1040E000A11DB11D80930F0390931003A0931103A2
:1040F000B0931203BF91AF919F918F911F901FBEFC
:104100001F90189582E084BD93E095BD9AEF97BD0E
:1041100080936E0008952FB7F89480910F039091CB
:104120001003A0911103B09112032FBF0895CF93F4
:10413000DF9300D000D0CDB7DEB78FB7F8942091D1
:104140000F03309110034091110350911203298302
:104150003A834B835C838FBF69817A818B819C8199
:104160000F900F900F900F90DF91CF9108959C01C9
:104170004FB7F89480910F0390911003A091110311
:10418000B09112034FBF821B930B089578941F9236
:104190001FB61F9211248F939F93AF93BF9380916B
:1041A0000F0390911003A0911103B0911203019697
:1041B000A11DB11D80930F0390931003A0931103D1
:1041C000B0931203BF91AF919F918F911F901FBE2B
:1041D0001F901895F89481E08093E00080E280932E
:1041E000D800E9ECF0E010828FE19EE40197F1F74E
:1041F00000C000001DBA109268001CBC10BE1FBA9F
:1042000010927A0010926E0010926F00109270005F
:104210001092710010821092BC0011B814B817B837
:104220001AB81DB810BA12B815B818B81BB81EB80D
:1042300011BA0C9400FE0895CF93DF9300D000D004
:10424000CDB7DEB70E94701E811102C00E940D1F03
:104250000E947B1E80930D030E94831E9093140383
:10426000809313030E947F1E282F30E050E040E02F
:1042700029833A834B835C83CA01B9010F900F9065
:104280000F900F90DF91CF910C94681ACF93DF932A
:1042900000D000D0CDB7DEB789831F928F9385E71A
:1042A00096E09F938F930E94860781E090E0A0E0C4
:1042B000B0E09C01AD01098004C0220F331F441FF0
:1042C000551F0A94D2F729833A834B835C83CA0132
:1042D000B9010E94681A0F900F900F900F900F90E5
:1042E0000F900F900F90DF91CF910C94DE16CF932B
:1042F000DF93EBEFE80FEF3308F040C2F0E0E45C4F
:10430000F34D0C94C32B8EEC9BE00E94ED068AE0EB
:104310009BE00E94ED060E947F1E1F928F9387E014
:104320009BE09F938F930E94860785E09BE00E940D
:10433000ED060E947B1EC82F82EF9AE00E94ED06D8
:104340001F92CF938DEE9AE09F938F930E948607E2
:104350008BEE9AE00E94ED0681EE9AE00E94ED0657
:104360008C2F81701F928F938EED9AE09F938F9385
:104370000E9486078CED9AE00E94ED0682ED9AE09D
:104380000E94ED06C1FB882780F91F928F938FEC66
:104390009AE09F938F930E9486078DEC9AE00E948B
:1043A000ED0681EC9AE00E94ED06C2FB882780F9B9
:1043B0001F928F938EEB9AE09F938F930E948607B4
:1043C0008CEB9AE00E94ED0683EB9AE00E94ED06EA
:1043D000C3FBCC27C0F91F92CF9380EB9AE09F9349
:1043E0008F930E9486078EEA9AE00E94ED060E9453
:1043F000831EEC018AE99AE00E94ED06DF93CF93D9
:1044000085E99AE09F938F930E94860783E99AE05B
:104410000E94ED068AE79AE00E94ED068C2F8170DB
:104420001F928F9387E79AE09F938F930E9486074E
:104430008DB79EB780960FB6F8949EBF0FBE8DBF06
:1044400085E79AE00E94ED068EE59AE00E94ED066F
:10445000C1FB882780F91F928F938BE59AE09F9389
:104460008F930E94860789E59AE00E94ED0687E413
:104470009AE00E94ED068D2F81701F928F9384E445
:104480009AE09F938F930E94860782E49AE00E94AD
:10449000ED0680E39AE00E94ED06D695D1701F925A
:1044A000DF938DE29AE09F938F930E9486078BE2C1
:1044B0009AE00E94ED0689E19AE00E94ED06C2FBB7
:1044C000882780F91F928F9386E19AE09F938F93BC
:1044D0000E94860784E19AE00E94ED0682E09AE05D
:1044E0000E94ED06C3FB882780F91F928F938FEF00
:1044F00099E09F938F930E9486078DEF99E00E9429
:10450000ED0683EF99E00E94ED06C4FB882780F951
:104510001F928F9380EF99E09F938F930E9486075D
:104520008EEE99E00E94ED068CED99E00E94ED067A
:10453000C5FB882780F91F928F9389ED99E09F939F
:104540008F930E94860787ED99E00E94ED068BEB22
:1045500099E00E94ED06C6FB882780F91F928F9391
:1045600088EB99E09F938F930E9486078DB79EB743
:1045700080960FB6F8949EBF0FBE8DBF86EB99E074
:104580000E94ED068EEA99E00E94ED06C7FBCC275B
:10459000C0F91F92CF938BEA99E09F938F930E946B
:1045A000860789EA99E00E94ED060F900F900F9020
:1045B0000F9081E01CC08DEB9BE00E94ED060E94F5
:1045C0000D1FF7CF87EF97E00E94ED06F2CF8091A5
:1045D0000D03807F80930D038CED97E00E94ED0624
:1045E00089EB9BE00E94ED0681E080931503DF914B
:1045F000CF9108958DE99BE00E94ED060E94010B8A
:10460000D8CF90910D03892F8E7F90FF816080938A
:104610000D0380FF03C081E99BE0D6CF84E89BE0D7
:104620000E94ED0680910D03817F80930D03C1CF21
:1046300090910D03892F8D7F91FF826080930D03F0
:1046400081FF08C087E79BE00E94ED0680910D0383
:104650008160EBCF89E69BE0B7CF90910D03892F66
:104660008B7F92FF846080930D0382FF03C08AE5F5
:104670009BE0EACF8AE49BE0A7CF90910D03892FBE
:10468000877F93FF886080930D0383FF03C08EE3D1
:104690009BE0DACF81E39BE097CF8DEC97E00E941F
:1046A000ED068CE897E00E94ED068AE597E00E940F
:1046B000ED0688E297E00E94ED068BEF96E084CF4E
:1046C0008DEE96E00E94ED060E94C3111F928F931B
:1046D00083ED96E09F938F930E94860780910C0153
:1046E0001F928F938CEB96E09F938F930E94860787
:1046F00080913A031F928F9389EA96E09F938F935C
:104700000E9486078091130387FB882780F91F92F8
:104710008F9381E996E09F938F930E9486070E9472
:1047200097209F938F937F936F938AE796E09F9351
:104730008F930E9486078DB79EB746960FB6F89462
:104740009EBF0FBE8DBF35CF0E94DE169091130322
:10475000892F97FB87F980588093130387FF03C045
:1047600087E29BE031CF8CE19BE02ECF80E00E947E
:1047700046211FCF8953FBCF8D51F9CF8AE19BE0B2
:104780000E94ED0680E033CF80E008950C94C423AE
:10479000CF93C82F80911503882331F0813099F091
:1047A0001092150380E00DC00E941E1D8232D1F7C9
:1047B0008C2F0E94C42381111BC08C2F0E94772153
:1047C0008170CF9108950E941E1D823289F38C2F33
:1047D0000E94C623811119C0C932C9F060F4CB30E0
:1047E00061F0C431A1F08FE696E00E94ED0611C0A1
:1047F00081E090E0E5CFC833B1F78CED97E00E94FF
:10480000ED0681E796E00E94ED0681E0D9CF109297
:10481000150380E0D5CF8091390308950895CF9393
:10482000DF9300D00F92CDB7DEB790913F03943065
:1048300019F589836A837B8382E08093E9008FEF97
:104840009091E800815095FD06C095ED9A95F1F79D
:1048500000008111F5CF8091E80085FF0DC050E088
:1048600040E063E070E0CE0101960E940427809151
:10487000E8008E778093E8000F900F900F90DF9103
:10488000CF910895CF93DF93D82FC92F0E94E726A9
:10489000823011F0843039F46D2F7C2F84E0DF9169
:1048A000CF910C940F24DF91CF910895BC0183E048
:1048B0000C940F24CF93DF93D82FC92F0E94E726A3
:1048C000823011F08430C9F580910C018823C1F148
:1048D0008091130387FF34C060E282E08093E90097
:1048E0008FEF9091E800815095FD06C095ED9A9567
:1048F000F1F700008111F5CF8091E80085FF1DC020
:1049000080910C0170E050E040E0811104C050E063
:1049100040E068E070E08D2F9C2F0E94042780917A
:10492000E8008E778093E80080E2ED2FFC2FA9E16C
:10493000B3E001900D928A95E1F7DF91CF91089550
:1049400068E081E0CBCF9FB7F894109218039FBF27
:1049500090913F03943009F048C02091E9002F70F6
:104960003091EC00932F917030FD90E8922B23E072
:104970002093E9002091EB0020FF34C02091EE004D
:1049800027FF30C020911603222321F02091E80058
:1049900025FF28C01092160326E03091E80035FF6D
:1049A00014C08093F1008091E80085FD27C08091BC
:1049B000E80080FFFCCF8091E8008E778093E800CC
:1049C0009F709093E90080E0089530913F03343068
:1049D00049F43091EB0035FD05C0215041F481E0F0
:1049E000809316039F709093E9008FEF0895EFE98D
:1049F000FFE03197F1F700C00000CFCF8FB7F894F8
:104A000021E0209318038FBFDBCF8EEF9BE00E9445
:104A1000ED0680914803811109C00E948C280E94F4
:104A2000EE288091E20084608093E20008958AEF8E
:104A30009BE00E94ED0610924803089586EF9BE0EC
:104A40000C94ED0682EF9BE00C94ED068EEE9BE05D
:104A50000E94ED060C945320209117032F5F822FA4
:104A600062E30E94952B992319F020931703089570
:104A700010921703809118038823F1F080913F036F
:104A80008430C1F49091E9009F702091EC00822F56
:104A9000817020FD80E8892B93E09093E90090914C
:104AA000EB0090FF04C09091EE0097FD08C08F705E
:104AB0008093E9001092180308951092F1009091EC
:104AC000E80095FDFACF9091E80090FFF0CF90912B
:104AD000E8009E779093E800EACF42E061EC81E045
:104AE0000E94082842E261EC82E00E94082842E22B
:104AF00061EC83E00C94082880914103893089F1AE
:104B000048F4823009F49DC0833009F458C08130E4
:104B100041F008958A3009F484C08B3009F46AC0EA
:104B2000089580914003813A09F048C08091E800DF
:104B3000877F8093E8008091440390914503892BFF
:104B400061F460E289E193E070E00E945327809174
:104B5000E8008B778093E800089560E090E080E0C3
:104B6000F3CF80914003813249F5809144039091C5
:104B70004503029718F58091E800877F8093E8004D
:104B80008091E80082FF16C08091F2009091F300BE
:104B9000029729F48091F1008B7F813021F480917C
:104BA000F100809339038091E8008B778093E800CF
:104BB0000C943C2880913F038111E2CF08958091AD
:104BC0004003813AD9F78091440390914503892BA2
:104BD000A9F78091E800877F8093E8008091E80042
:104BE00080FFFCCF80910C018093F1008091E80060
:104BF0008E77DCCF80914003813201F780914403AE
:104C000090914503892BD1F68091E800877F8093AE
:104C1000E8000E943C288091420380930C010C9490
:104C2000DE1680914003813249F68091E800877F4B
:104C30008093E8000E943C288091430380933A03CC
:104C4000089580914003813A09F0B8CF8091E8003F
:104C5000877F8093E8008091E80080FFFCCF8091FF
:104C60003A03C2CF84B7877F84BF0FB6F894A89564
:104C700080916000886180936000109260000FBE98
:104C800080E890E00FB6F894809361009093610003
:104C90000FBE0E9460120E948C280E94EE28809114
:104CA000E20084608093E20083EA94E20E94D31DD4
:104CB00078940E947A2B0E946A1282E091E00E940E
:104CC000BE118DED9BE00E94ED0680913F03853083
:104CD00019F00E949A12F9CF89ED9BE00E94ED062F
:104CE0000E94FA1F80913C03882379F30E942B20B5
:104CF000882359F30E94EE26E8CF0C947F26FC010E
:104D0000CB01DA012F2F332723303105D1F070F496
:104D10002130310509F44EC02230310569F48BE5AC
:104D200090E024E43CE02D933C930895213231053A
:104D300021F12232310571F190E080E030E020E095
:104D4000F2CFCF019927E230A9F08330910550F4DA
:104D5000009769F0E6E3FCE0019771F7849190E039
:104D60009F01E1CFE2E0FCE00397C1F3E5CFE0E48F
:104D7000FCE0F4CFE8E0FCE0F1CF63307105E0F651
:104D8000880F991FFC01E457FE4F2081318189E093
:104D900090E0C9CF6330710578F6FB01EE0FFF1F7D
:104DA000EA57FE4F208131818D579E4FFC01808153
:104DB00090E0B9CF82E190E02FE93CE0B4CF809160
:104DC0003F03843011F482E0089581E008958091DA
:104DD0003B03811102C00C94DF26089584E189BD54
:104DE00086E189BD09B400FEFDCF8091D8008F7D9A
:104DF0008093D8008091E00082608093E0008091F1
:104E0000E00081FDFCCF0895AF92BF92CF92DF9278
:104E1000FF920F931F93CF93DF936C01EB018A01F5
:104E20000E945B28F82E811123C00115110539F06D
:104E3000F80180819181C81BD90BC80ED91EB12CF5
:104E4000A12C2097A9F08091E80085FD22C08091D7
:104E5000E8008E778093E80001151105A1F0F801B4
:104E600080819181A80EB91EB182A08285E0F82EC2
:104E70008F2DDF91CF911F910F91FF90DF90CF90F9
:104E8000BF90AF9008950E945B288823D1F2F82E3E
:104E9000EFCFF60181916F018093F1002197FFEF31
:104EA000AF1ABF0ACECFFC01CB012091460330914F
:104EB00047032617370790F0009729F42091E80060
:104EC0002E772093E80040E0009751F4411108C08C
:104ED0008091E80082FF31C080E00895C901F3CFDE
:104EE00020913F032223A9F12530A9F12091E80068
:104EF00023FD2DC02091E80022FDEACF2091E8009B
:104F000020FFE2CF2091F2003091F300009719F0DA
:104F10002830310558F041E02830310509F040E0F3
:104F20002091E8002E772093E800CECF4191409366
:104F3000F10001972F5F3F4FE9CF80913F03882316
:104F400041F0853041F08091E80083FFC1CF81E0DE
:104F5000089582E0089583E00895FC01CB0120913B
:104F60004603309147032617370790F0009729F43E
:104F70002091E8002E772093E80040E0009751F45C
:104F8000411108C08091E80082FF32C080E008959E
:104F9000C901F3CF20913F032223B1F12530B1F1B4
:104FA0002091E80023FD2EC02091E80022FDEACFE9
:104FB0002091E80020FFE2CF2091F2003091F30031
:104FC000009719F02830310558F041E028303105BC
:104FD00009F040E02091E8002E772093E800CECF42
:104FE00044914093F100319601972F5F3F4FE8CFF6
:104FF00080913F03882341F0853041F08091E800A3
:1050000083FFC0CF81E0089582E0089583E0089592
:10501000982F973028F08F708093E90081E00895F1
:105020009093E900242F762F50E0981731F070917B
:10503000EC002091ED005091F00021FD02C09F5F37
:10504000E8CF3091EB003E7F3093EB003091ED00E4
:105050003D7F3093ED003091EB0031603093EB00F9
:105060007093EC002093ED005093F0002091EE003F
:1050700027FDE5CF80E008958091400387FF13C0AE
:105080008091E80082FF06C08091E8008B778093D2
:10509000E80004C080913F038111F2CF0895809110
:1050A0003F038823D9F38091E80080FFF8CF8091F7
:1050B000E8008E77ECCF2091E4003091E50095E692
:1050C000A9012091EC00822F817020FF06C0809101
:1050D000E80080FF06C080E008952091E80022FDEE
:1050E0001AC080913F03882389F0853089F0809130
:1050F000EB0085FD0FC02091E4003091E5004217E0
:105100005307F9F29150E1F684E0089582E00895A2
:1051100083E0089581E008950E94FD280E940529FA
:10512000E0EEF0E0808181608083E8EDF0E0808156
:105130008F77808319BCA7EDB0E08C918E7F8C9324
:1051400080818F7E80831092480308950F931F9370
:10515000CF93DF930E94FD280E940529C8EDD0E07F
:1051600088818F77888388818068888388818F7D14
:105170008883E7EDF0E080818068808319BC10921D
:105180003F0310923E0310923C0310923D0300EE49
:1051900010E0F80180818B7F808388818160888323
:1051A00042E060E080E00E940828E1EEF0E08081CB
:1051B0008E7F8083E2EEF0E0808181608083808159
:1051C00088608083F80180818E7F80838881806100
:1051D0008883DF91CF911F910F910895E8EDF0E062
:1051E00080818F7E8083E7EDF0E080818160808325
:1051F00081E0809348030C94A628E8EDF0E08081DC
:105200008C7F80831092E20008951092DA00109251
:10521000E10008951F920F920FB60F9211240BB662
:105220000F922F933F934F935F936F937F938F933F
:105230009F93AF93BF93EF93FF938091E10082FF21
:105240000BC08091E20082FF07C08091E1008B7F5C
:105250008093E1000E942C258091DA0080FF19C024
:105260008091D80080FF15C08091DA008E7F8093F6
:10527000DA008091D90080FF96C084E189BD86E183
:1052800089BD09B400FEFDCF81E080933F030E94F9
:1052900005258091E10080FF19C08091E20080FF28
:1052A00015C08091E2008E7F8093E2008091E20041
:1052B00080618093E2008091D80080628093D80062
:1052C00019BC85E080933F030E9422258091E10074
:1052D00084FF29C08091E20084FF25C084E189BD5C
:1052E00086E189BD09B400FEFDCF8091D8008F7D95
:1052F0008093D8008091E1008F7E8093E1008091BF
:10530000E2008F7E8093E2008091E20081608093D2
:10531000E20080913E03882309F44BC084E080932F
:105320003F030E9426258091E10083FF29C08091E0
:10533000E20083FF25C08091E100877F8093E10038
:1053400082E080933F0310923E038091E1008E7FC4
:105350008093E1008091E2008E7F8093E200809153
:10536000E20080618093E20042E060E080E00E9421
:1053700008288091F00088608093F0000E941E252C
:10538000FF91EF91BF91AF919F918F917F916F911D
:105390005F914F913F912F910F900BBE0F900FBED9
:1053A0000F901F90189519BC10923F030E9417256B
:1053B00070CF8091E30087FD02C081E0B0CF83E031
:1053C000AECF1F920F920FB60F9211240BB60F9211
:1053D0002F933F934F935F936F937F938F939F93FD
:1053E000AF93BF93CF93DF93EF93FF93D091E900F7
:1053F000DF708091EC00C82FC17080FDC0E8109272
:10540000E9008091F000877F8093F00078940E94FB
:10541000292A1092E9008091F00088608093F000C2
:10542000CD2BCF70C093E900FF91EF91DF91CF9129
:10543000BF91AF919F918F917F916F915F914F91AC
:105440003F912F910F900BBE0F900FBE0F901F90AA
:1054500018951F93CF93DF93CDB7DEB7AA970FB6FA
:10546000F894DEBF0FBECDBF80E493E0FC0101964F
:105470002091F100208323E088349207B9F70E943D
:105480007C258091E80083FF1DC1809140039091AD
:1054900041039A3008F016C1E92FF0E0E558F34DCA
:1054A0000C94C32B803899F0823809F00BC180919D
:1054B00044038F70873008F005C18093E900809124
:1054C000EB0085FB882780F91092E90006C08091E7
:1054D0003D0390913C03911182609091E800977F89
:1054E0009093E8008093F1001092F1008091E80021
:1054F0008E77E4C0882309F4D2C0823009F0E2C07C
:10550000809142038111D5C0809144038F702FEFA9
:10551000280F263008F0D6C08093E9002091EB00D8
:1055200020FFC7C0933031F48091EB0080628093FC
:10553000EB00BFC09091EB0090619093EB0021E0F5
:1055400030E001C0220F8A95EAF72093EA0010921A
:10555000EA008091EB008860EACF8111B3C010911E
:1055600042031F778091E3008078812B8093E300D2
:105570008091E800877F8093E8000E943C2880911A
:10558000E80080FFFCCF8091E30080688093E30017
:1055900082E0111183E080933F0394C080588230F1
:1055A00008F090C080914203909143038C3D23E02A
:1055B000920799F583E08A838AE289834FB7F8944A
:1055C000DE01139620E03EE051E2E32FF0E050933D
:1055D0005700849120FF03C082958F703F5F8F70CA
:1055E0008A30C8F0895C90E08D939D932F5F2431C1
:1055F00061F74FBF8091E800877F8093E8006AE2FF
:1056000070E0CE0101960E9453278091E8008B77CD
:105610008093E80057C0805DE6CF609144037091AD
:105620004503AE014F5F5F4F0E947D26BC01892B71
:1056300009F448C08091E800877F8093E800898161
:105640009A810E94AD27E1CF8038E1F58091E80092
:10565000877F8093E80080913E038093F10046CFDE
:10566000811130C090914203923060F58091E80042
:10567000877F8093E80090933E030E943C288091AE
:105680003E03882311F084E005C08091E30087FD8C
:10569000FACF81E080933F030E946D2513C0809173
:1056A0004203813079F481E0933009F080E0809307
:1056B0003C031092E9008091E800877F8093E80026
:1056C0000E943C288091E80083FF0AC08091E80096
:1056D000877F8093E8008091EB0080628093EB00ED
:1056E000AA960FB6F894DEBF0FBECDBFDF91CF9163
:1056F0001F910895CF9380913F038823A1F0C0911B
:10570000E900CF709091EC00892F817090FD80E8C6
:10571000C82B1092E9008091E80083FD0E94292A9D
:10572000CF70C093E900CF910895991B79E004C030
:10573000991F961708F0961B881F7A95C9F78095D0
:105740000895A1E21A2EAA1BBB1BFD010DC0AA1FC2
:10575000BB1FEE1FFF1FA217B307E407F50720F0DA
:10576000A21BB30BE40BF50B661F771F881F991F55
:105770001A9469F760957095809590959B01AC019E
:10578000BD01CF010895EE0FFF1F0024001C0BBECA
:105790000790F691E02D0994F999FECF92BD81BD55
:1057A000F89A992780B50895A8E1B0E042E050E06A
:1057B0000C94002C262FF999FECF92BD81BDF89A4A
:1057C000019700B4021639F01FBA20BD0FB6F89445
:1057D000FA9AF99A0FBE08950396272F0E94DB2BA1
:1057E0000E94DA2B252F0E94DB2B242F0C94DB2B1D
:1057F0000196272F0E94DB2B0C94DA2BDC01CB01C6
:10580000FC01F999FECF06C0F2BDE1BDF89A3196D0
:1058100000B40D9241505040B8F70895F894FFCF6E
:1058200009110F1113112111251129112D113311F6
:105830003B113F1143114711531157115B115F1178
:10584000651183116D1117111D114B114F11371176
:10585000691179118C11901166146614C814C8145A
:105860001D159614961496143915EE15FF15FF158F
:105870005F16961496146816FA22E72201238321F4
:10588000BE23BE23E222BE23BE232D23BE233D23FF
:10589000A423BE23BE23BE23BE236023BE23BE2378
:1058A0004D23BE231823BE23BE23BC23BC23BC230D
:1058B000BC23BC23BC23BC23BC23BC23B623BE23F4
:1058C000FA22DB22BE23BE23BE23BE23BE23BE2379
:1058D000BE23BE23BE23BE23B623BE23BE23E222A5
:1058E000BE23BA23BA23BA23BA23BA23BA23BA23CC
:1058F000BA23BA23B623522A7A2A622B7A2A622B37
:0A590000AD2ACE2A622B242B302B97
:10590A00EA020B245A240E245624422401E200E916
:10591A0000EA00B500B600B700CD008301CC008ACA
:10592A000192019401210223022402250226022760
:10593A00022A02B300B4006F007000F2F1F0C6C789
:10594A003031323334353637949597C0C16061624D
:10595A006364656667E200E900EA00B500B600B76D
:10596A0000CD008301CC008A019201940121022317
:10597A000224022502260227022A02B300B4006F7B
:10598A00007000406D22400DD30CB10C560C6F0C08
:02599A00880C77
:00000001FF
