:100000000C941B060C943A060C943A060C943A068F
:100010000C943A060C943A060C943A060C943A0660
:100020000C943A060C943A060C9484260C945B27A4
:100030000C947F210C943A060C943A060C943A06E0
:100040000C943A060C943A060C943A060C943A0630
:100050000C943A060C94CA210C943A060C943A0675
:100060000C943A060C94110B0C94E70A0C943A0683
:100070000C943A060C943A060C943A060C943A0600
:100080000C943A060C943A060C943A060C943A06F0
:100090000C943A060C943A060102E00102E1750163
:1000A00003E10103E06661010128000102E265014C
:1000B00003E275000102E201016201015A01015DE2
:1000C0000101620103E2000102E00102E1750103A6
:1000D000E10103E06461010128000102E26501031E
:1000E000E255000102E201016201015A01015901D8
:1000F00001600103E2000102E00102E1750103E198
:100100000103E06633010128000102E2650103E218
:100110006F000102E201016201015A01015C01016B
:100120005B0103E2000102E00102E1750103E1016C
:1001300003E06433010128000102E2650103E24F9C
:10014000000102E201016201015A01015901015954
:100150000103E2000102E00102E1750103E1010394
:10016000E06564010128000102E2650103E2690023
:100170000102E201016201015A01015B01015F011B
:1001800003E2000102E00102E1750103E10103E085
:100190006364010128000102E2650103E2490001F4
:1001A00002E201016201015A01016201015D0103E4
:1001B000E2000102E00102E1750103E10103E063F5
:1001C00039010128000102E2650103E24500010254
:1001D000E201016201015A0101620101590103E2D8
:1001E000000102E00102E1750103E10103E0633176
:1001F000010128000102E2650103E241000102E27F
:1002000001016201015901016101015B0103E20089
:100210000102E00102E1750103E10103E06539013A
:100220000128000102E2650103E265000102E2012A
:10023000016201015A01015B01015B0103E200015E
:1002400002E00102E1750103E10103E06531010112
:1002500028000102E2650103E261000102E20101FE
:100260006201015A01015A01015D0103E20001012D
:100270002D000102E101012D0103E1000101370020
:100280000102E10101370103E1000102E101013353
:100290000103E100010136000102E1010136010321
:1002A000E100010133000102E10101200103E1004D
:1002B0000102E101011F0103E1000102E101012E40
:1002C0000103E100010130000102E1010125010308
:1002D000E1000102E00102E1750103E10103E066D2
:1002E00039010128000102E2600103E27500010208
:1002F000E201016201015A01015C0101610103E2B5
:10030000000102E00102E1750103E10103E064394B
:10031000010128000102E2600103E255000102E24E
:1003200001016201015A01015901015F0103E2006B
:100330000102E00102E1750103E10103E06632011F
:100340000128000102E2600103E26F000102E20104
:10035000016201015A01015C01015A0103E200013D
:1003600002E00102E1750103E10103E064320101F1
:1003700028000102E2600103E24F000102E20101F4
:100380006201015A0101590101620103E200010207
:10039000E00102E1750103E10103E0656301012869
:1003A000000102E2600103E269000102E201016270
:1003B00001015A01015B01015E0103E2000102E05B
:1003C0000102E1750103E10103E06363010128001B
:1003D0000102E2600103E249000102E2010162015F
:1003E000015A01016201015C0103E2000102E00126
:1003F00002E1750103E10103E06538010128000114
:1004000002E2600103E265000102E2010162010112
:100410005A01015B01015A0103E2000102E00102FD
:10042000E1750103E10103E06338010128000102E5
:10043000E2600103E245000102E201016201015AAA
:100440000101620101620103E2000102E00102E137
:10045000750103E10103E06530010128000102E2BA
:10046000600103E261000102E201016201015A013F
:10047000015A01015C0103E2000102E00102E175A1
:100480000103E10103E06330010128000102E260A1
:100490000103E241000102E201016201015901018F
:1004A0006101015A0103E2000102E00102E175016C
:1004B00003E10103E06230010128000102E20102D0
:1004C000E1380103E10103E2000102E201016201FE
:1004D000015901015F01015E0103E2000102E00137
:1004E00002E1750103E10103E06537010128000124
:1004F00002E2630103E2000102E201016201015A2A
:1005000001015B0101590103E2000102E00102E186
:10051000750103E10103E0613701012800360001A4
:1005200002E201015A0101590103E2000102E00166
:1005300002E1750103E10103E0323061630101284A
:10054000000102E20102E1320103E10103E20001E4
:1005500002E201016201015901015A010160010336
:10056000E2000102E00102E1750103E10103E06143
:1005700033010128000102E2330103E2000102E23B
:1005800001015901015D01015E0103E20057696E3D
:10059000646F7773004D61634F53004C696E7578DB
:1005A00000554900495400454E00430B29003A00CC
:1005B0003B003C003D003E003F0040004100420047
:1005C000430044004500115004513A0B3B0B3C0BD7
:1005D0003D0B1D011C0135001E001F0021002200E3
:1005E000230024002500260027002D002A004600B5
:1005F0004B0000005400550056003E0B3F0B2B00F3
:1006000014001A00200015001C0018000C00120035
:1006100013002F002E0049004A00530060006100C3
:1006200057001B01400B39000400160008000900A8
:1006300017000D000E000F003300340030004C0096
:100640004D005F005D005E0058000601410BE100B7
:100650001D001B00070019000A000B0010003700E6
:100660003800E5002800310052004E005C005B00BD
:1006700063001901420BE000E200E30006002C00D9
:100680000500110036000351E600E700E4005000C9
:1006900051004F0059005A006200010001000100A2
:1006A0000100010001000100010001000100010042
:1006B00001000100010012500100010001000100D1
:1006C00001000100010031000100165D0100010080
:1006D000185D195D1A5D1B5D1C5D265D0100010042
:1006E0000100000001000100010001000100010003
:1006F00001000100175D010001000100010001007F
:1007000001001E5D1F5D01000100010001000100EC
:1007100001000100010001000100010001000100D1
:100720000100010001000100205D1D5D225D01004E
:1007300001000100010001000100010001000100B1
:100740000100010001000100010001000100255D20
:10075000235D01000100215D010001000100010095
:100760000100010001000100010001000100010081
:1007700001000100245D01000100010001000100F1
:100780000100010001000100010001000100010061
:100790000100010001000100010001000100010051
:1007A00001000100010010500100010001000100E2
:1007B00001000100010035001E001F002100220081
:1007C000230024002500260027002D000100010041
:1007D0000100000001000100010001000100010012
:1007E00001000100200001000100010001000100E2
:1007F00001002F002E000100010001000100010096
:1008000001000100010001000100010001000100E0
:10081000010001000100010033003400300001003C
:1008200001000100010001000100010001000100C0
:10083000010001000100010001000100010037007A
:100840003800010001003100010001000100010039
:100850000100010001000100010001000100010090
:10086000010001003600010001000100010001004B
:1008700001000100010001000100B500055D035DFC
:10088000045D010001000100010001000100010000
:10089000010001000100085D0100010001000100EC
:1008A000005C01001D03010001000100095D010061
:1008B0000100010001000100010001000100010030
:1008C0000100000001000100010001000100010021
:1008D00001000100010001000100105D0E5D0F5DCF
:1008E0000100010001000100010001000100010000
:1008F00001004C02010001000C5D01000D5D0100D2
:1009000001000100010001000100010001000100DF
:100910000100010001000100010049010100010086
:10092000010001000100010001000100A800010018
:100930000100010001000B5D010001000100010048
:100940000100490201000100010001000100010055
:10095000010001000100010001000100010001008F
:100960000100010001000100010001000100065D1D
:10097000075D01000100010001000100010001000C
:10098000010001000100010001000100010001005F
:10099000010001000100010001000100010001004F
:1009A000010001000100010001000100010001003F
:1009B0000100000001000100010001000100010030
:1009C000010001000100010001000100010001001F
:1009D000010001000100010001000100010001000F
:1009E00001000100010001000100010001000100FF
:1009F00001000100010001000100010001000100EF
:100A000001000100010001000100010001000100DE
:100A100001000100010001000100010001000100CE
:100A200001000100010001000100010001000100BE
:100A300001000100010001000100010001000100AE
:100A4000010001000100010001000100010001009E
:100A50000100010001000100010000000000000091
:100A600000002A2B28000000000000000000000009
:100A7000000000000029000000002C1E342021226C
:100A800024342627252E362D3738271E1F202122D5
:100A9000232425263333362E37381F04050607084E
:100AA000090A0B0C0D0E0F1011121314151617183E
:100AB000191A1B1C1D2F3130232D3504050607087C
:100AC000090A0B0C0D0E0F1011121314151617181E
:100AD000191A1B1C1D2F3130354C0000000000007E
:100AE00000000000000000000000000000007E0F79
:100AF00000D4FFFFFFC700000078040330000000AF
:100B00002C03460061007400200042006F00740056
:100B100074006F006D006500640020004B006500EC
:100B2000790062006F006100720064000000080339
:100B3000420065006E0000000403090409023B0046
:100B4000020100A0FA0904000001030101000921CB
:100B5000110100012240000705810308000A090471
:100B600001000103000000092111010001226D00B4
:100B70000705820320000A1201100100000008DEB0
:100B800008DEC001000102030105010980A1018501
:100B90000319012AB700150126B7009501751081C8
:100BA00000C0050C0901A101850419012AA0021544
:100BB0000126A002950175108100C005010906A15A
:100BC000018505050719E029E71500250195087538
:100BD0000181020507190029EF1500250195F0751F
:100BE00001810205081901290595057501910295F4
:100BF0000175039101C005010906A101050719E06E
:100C000029E71500250195087501810295017508F0
:100C100081010507190029FF150026FF00950675BB
:100C200008810005081901290595057501910295AE
:100C30000175039101C011241FBECFEFD0E2DEBFCA
:100C4000CDBF11E0A0E0B1E0EAECF3E500E00BBFBE
:100C500002C007900D92A838B107D9F726E0A8E89E
:100C6000B1E001C01D92A733B207E1F70E94B7239C
:100C70000C947D290C9400000E942E0A813041F0D2
:100C8000823049F48DE795E00E94F40C80E00895ED
:100C900085E795E0F9CF82E695E0F6CF0E942E0A2F
:100CA000813041F0823049F48FE495E00E94F40CE9
:100CB00080E0089581E495E0F9CF8CE295E0F6CFED
:100CC0000E942E0A813041F0823049F48FE195E094
:100CD0000E94F40C80E008958DE195E0F9CF8AE060
:100CE00095E0F6CF0E942E0A813041F0823049F41F
:100CF00087EF94E00E94F40C80E008958FEE94E07A
:100D0000F9CF8CED94E0F6CF0E942E0A813041F0AD
:100D1000823049F489EC94E00E94F40C80E008955C
:100D20008BEB94E0F9CF88EA94E0F6CF0E94B61EF0
:100D3000827291F00E942E0A813041F0823049F493
:100D400085E994E00E94F40C80E008958CE894E03A
:100D5000F9CF89E794E0F6CF0E942E0A813029F07E
:100D6000823031F486E694E0EDCF8DE594E0EACF71
:100D70008AE494E0E7CF0E94B61E827291F00E944E
:100D80002E0A813041F0823049F487E394E00E94DA
:100D9000F40C80E008958EE294E0F9CF8BE194E0CA
:100DA000F6CF0E942E0A813029F0823031F488E09B
:100DB00094E0EDCF8FEF93E0EACF8CEE93E0E7CFB6
:100DC0000E94B61E827291F00E942E0A813041F07C
:100DD000823049F489ED93E00E94F40C80E008959C
:100DE00080ED93E0F9CF8DEB93E0F6CF0E942E0AD1
:100DF000813029F0823031F48AEA93E0EDCF81EA44
:100E000093E0EACF8EE893E0E7CF0E94B61E8272AD
:100E100091F00E942E0A813041F0823049F48BE734
:100E200093E00E94F40C80E0089582E793E0F9CF0C
:100E30008FE593E0F6CF0E942E0A813029F08230B0
:100E400031F48CE493E0EDCF83E493E0EACF80E3E8
:100E500093E0E7CF0E94B61E827291F00E942E0AA4
:100E6000813041F0823049F48DE193E00E94F40C2E
:100E700080E0089584E193E0F9CF81E093E0F6CF3C
:100E80000E942E0A813029F0823031F48EEE92E0F9
:100E9000EDCF85EE92E0EACF82ED92E0E7CF0E94BF
:100EA000B61E86FF04C00E94CA1E0C943C0681E058
:100EB00008950E94B61E827241F081EE0E94421592
:100EC00084E30E94421580E008958FE1FACF0E94EA
:100ED000B61E827241F084E30E94861581EE0E9464
:100EE000861580E008958FE1FACF0E94B61E8272C7
:100EF00011F00C943C0680E20E94421580E00895B7
:100F00000E94B61E827219F480E20E94861580E06B
:100F100008950E94B61E827229F084E20E94421552
:100F200080E0089583E2FACF0E94B61E827229F013
:100F300084E20E94861580E0089583E2FACFCF9381
:100F40000E94B61EC82F827259F00E94CA1E88E302
:100F50000E9442158C2F0E94C71E80E0CF910895F9
:100F600084E20E944215F9CFCF930E94B61EC82F8B
:100F7000827259F00E94CA1E88E30E9486158C2F47
:100F80000E94C71E80E0CF91089584E20E948615DA
:100F9000F9CF0E94B61E827229F086E20E944215A5
:100FA00080E0089585E2FACF0E94B61E827229F091
:100FB00086E20E94861580E0089585E2FACF0E94BD
:100FC000B61E827229F087E20E94421580E00895E1
:100FD00086E2FACF0E94B61E827229F087E20E9452
:100FE000861580E0089586E2FACFCF930E94B61E60
:100FF000C82F827259F00E94CA1E8EE20E944215CA
:101000008C2F0E94C71E80E0CF91089587E20E9436
:101010004215F9CFCF930E94B61EC82F827259F0A5
:101020000E94CA1E8EE20E9486158C2F0E94C71E47
:1010300080E0CF91089587E20E948615F9CF0E9443
:10104000B61E827229F088E30E94421580E008955E
:1010500084E3FACF0E94B61E827229F088E30E94D0
:10106000861580E0089584E3FACF0E94B61E82724E
:1010700029F083E20E94421580E008950E94E00674
:10108000FBCF0E94B61E827219F083E20E94861581
:1010900080E00895CF930E94B61EC82F86FD03C03E
:1010A0008570853041F40E94CA1E8FE20E94861529
:1010B0008C2F0E94C71E80E0CF910895CF930E948D
:1010C000B61EC82F0E94CA1E8C2F827251F088EC67
:1010D00092E00E94F40C8C2F0E94C71E80E0CF91FA
:1010E0000895C6FD04C08C2F8570853019F484ECFA
:1010F00092E0EFCF8AEB92E0ECCFCF930E94B61E46
:10110000C82F0E94CA1E8C2F827241F00E94600676
:101110008C2F0E94C71E80E0CF9108950E942A075D
:10112000F7CFCF930E94B61EC82F0E94CA1E8C2FE5
:10113000827241F00E9472068C2F0E94C71E80E0CE
:10114000CF910895C6FD04C08C2F8570853029F499
:1011500080EB92E00E94F40CEFCF0E940507ECCFE9
:10116000CF930E94B61EC82F0E94CA1E8C2F827277
:1011700041F00E9484068C2F0E94C71E80E0CF9110
:101180000895C6FD04C08C2F8570853029F486EA49
:1011900092E00E94F40CEFCF0E949606ECCFCF9322
:1011A0000E94B61EC82F0E94CA1E8C2F827251F058
:1011B00082EA92E00E94F40C8C2F0E94C71E80E00D
:1011C000CF910895C6FD04C08C2F8570853019F429
:1011D00088E992E0EFCF84E992E0ECCFCF930E94D0
:1011E000B61EC82F0E94CA1E8C2F827251F08AE848
:1011F00092E00E94F40C8C2F0E94C71E80E0CF91D9
:101200000895C6FD04C08C2F8570853019F480E8E0
:1012100092E0EFCF8CE792E0ECCF0E94B61E827294
:1012200031F082E792E00E94F40C80E008958EE6AF
:1012300092E0F9CF0E942E0A813041F0823049F4C9
:101240008BE592E00E94F40C80E0089582E592E044
:10125000F9CF8FE392E0F6CF0E942E0A813041F061
:10126000823049F48CE292E00E94F40C80E0089510
:1012700083E292E0F9CF80E192E0F6CFCF930E9433
:10128000B61EC82F0E94CA1E8C2F827241F00E9487
:101290002C098C2F0E94C71E80E0CF910895C6FDB7
:1012A00004C08C2F8570853021F48FE20E94421596
:1012B000F0CF0E94BB06EDCFCF930E94B61EC82F81
:1012C00081E0C6FF0FC00E94CA1EC27299F00E9440
:1012D0002E0A813049F0823051F48DEF91E00E9466
:1012E000F40C80E0CF91089584EF91E0F8CF81EE87
:1012F00091E0F5CFCF910C941A09CF930E94B61EBE
:10130000C82F81E0C6FF0FC00E94CA1EC27299F0AA
:101310000E942E0A813049F0823051F48EEC91E027
:101320000E94F40C80E0CF91089585EC91E0F8CF15
:1013300082EB91E0F5CFCF910C942C09CF930E94D2
:10134000B61EC82F81E0C6FF0FC00E94CA1EC2721F
:1013500099F00E942E0A813049F0823051F48FE9D1
:1013600091E00E94F40C80E0CF91089586E991E02D
:10137000F8CF83E891E0F5CF0E942E0A813029F062
:10138000823031F480E791E0ECCF87E691E0E9CF5D
:1013900084E591E0E6CFCF930E94B61EC82F81E08E
:1013A000C6FF0FC00E94CA1EC27299F00E942E0A88
:1013B000813049F0823051F481E491E00E94F40CD4
:1013C00080E0CF91089588E391E0F8CF85E291E045
:1013D000F5CF0E942E0A813029F0823031F482E16B
:1013E00091E0ECCF89E091E0E9CF86EF90E0E6CFA5
:1013F000CF930E94B61EC82F81E0C6FF0FC00E9487
:10140000CA1EC27299F00E942E0A813049F08230C1
:1014100051F483EE90E00E94F40C80E0CF910895A7
:101420008AED90E0F8CF87EC90E0F5CF0E942E0A8D
:10143000813029F0823031F484EB90E0ECCF8BEAFC
:1014400090E0E9CF88E990E0E6CF0C943A0B0C9459
:101450003B0B0C94ED0B80938801089580918801DB
:1014600008959B01AC01F89460E079E08DE390E091
:101470000E9410292150310941095109569547957B
:10148000379527953093CD002093CC0082E0809350
:10149000C80088E98093C90086E08093CA00109252
:1014A000CB011092CC011092890110928A0178949C
:1014B000089560E875E280E090E00E94310A0C94A3
:1014C000370B9091CC019F5F983208F090E020910B
:1014D000CB012917E1F3E92FF0E0E353FE4F8083BE
:1014E0009093CC0188EB8093C9000895CF93DF934C
:1014F000EC01FE0184912196882361F00E94610A2B
:10150000FFEF29EF80E0F15020408040E1F700C07C
:101510000000EFCFDF91CF910895CF93DF93D82FC5
:10152000C92F2FEF81EE94E0215080409040E1F7E9
:1015300000C000008CE60E94610A2FEF89EF90E066
:10154000215080409040E1F700C000008D2F9C2F7B
:101550000E94760A8AE0DF91CF910C94610A2FEF06
:1015600081EE94E0215080409040E1F700C00000FF
:101570008FE60E94610A2FEF89EF90E021508040B2
:101580009040E1F700C0000080918801882329F095
:10159000813051F08DE895E002C08BE995E00E9422
:1015A000760A8AE00C94610A85E995E0F8CF80918B
:1015B0008801882329F0813041F01092880103C00E
:1015C00081E0809388010C94AF0A82E0FACF8F9378
:1015D0008FB78F938BB78F939F93EF93FF939091D8
:1015E000CC018091CB0198130CC088E98093C9008D
:1015F000FF91EF919F918F918BBF8F918FBF8F91B3
:1016000018958091CB018F5F883208F080E0E82F39
:10161000F0E0E353FE4F90819093CE008093CB0196
:10162000E7CF2F932FB72F932BB72F938F939F93A2
:10163000EF93FF939091CE0080918A018F5F803469
:1016400008F080E020918901281739F0E82FF0E0B8
:10165000E557FE4F908380938A01FF91EF919F9110
:101660008F912F912BBF2F912FBF2F91189580E035
:101670000C942B0A0895FC01DB0112968C918823AF
:1016800009F46BC0E732BDE5FB0708F084C0E83021
:101690009DE5F90788F4E231F10509F45AC0B0F488
:1016A000E830F10509F451C0EC30F10509F44FC000
:1016B000349709F448C00895E850FD45EF31F1052D
:1016C00008F069C0E158F64D0C943229E831F10573
:1016D00009F441C0B197A9F108950E94D70A80E0AA
:1016E00008950C944E060C9460060C9496060C9487
:1016F000BB060C94E0060C9405070C942A070C9486
:1017000059070C9475070C9489070C949F070C9447
:10171000C9070C94DF070C94F5070C941F080C9470
:1017200035080C943E090C945E080C947D080C94CA
:1017300091080C94B0080C94CF080C94EE080C940B
:101740000D090C944F070C945C090C947D090C94C2
:101750009E090C94CB090C94F809E651FD45E13142
:10176000F105C0F4E256F64D0C9432290C9467074B
:101770000C9480070C9494070C94B4070C94D40731
:101780000C94EA070C940A080C942A080C9441085B
:101790000C944A0881E008950F931F93CF93DF9331
:1017A0008B01D82FC92F0E946B1F813081F08230AE
:1017B00089F0811104C087EA95E00E948D0AB80182
:1017C0008D2F9C2FDF91CF911F910F91089584EA67
:1017D00095E0F3CF81EA95E0F0CF089581E0089598
:1017E00008950C94F00B1F93CF93DF9300D000D09B
:1017F0000F92CDB7DEB749835A836B8330914E0584
:1018000089819A8131111DC06623B9F02223A9F084
:101810000E94191E182F682F89819A810E94C21D6B
:1018200069817A81812F0F900F900F900F900F9008
:10183000DF91CF911F910C94630D0E94F01D182F22
:10184000EFCF0E94191E69817A81EDCFFC01262F0E
:10185000408151816281738184810C94F30BCF9319
:10186000DF93D82FC92F60E00E94260C6D2F7C2FAC
:10187000DF91CF910C94F10BFF920F931F93CF93B5
:10188000DF93E82FF0E0E65AF54FF490C82FC695A5
:10189000C695C695D0E0FE01E651F54F04918770DC
:1018A00010E0082E02C0159507950A94E2F7017022
:1018B0001127C652D54FFE01C491D0E002C0D59584
:1018C000C7958A95E2F7C170DD270115110519F05A
:1018D00081EE0E944215209719F086EE0E94421573
:1018E0008F2D0E94AE15CD2B19F086EE0E94861525
:1018F000012B41F081EEDF91CF911F910F91FF906D
:101900000C948615DF91CF911F910F91FF90089550
:10191000EF92FF920F931F93CF93DF938C01F62EDC
:101920008AE0E82EF8018491882309F456C08130BA
:1019300009F04FC0E8012196FE018491813099F4AD
:101940002196FE0184910E94AE158E010F5F1F4FFC
:101950008F2D882339F3EFE9FFE03197F1F700C0CD
:1019600000008150F6CF823039F4E8012296FE0162
:1019700084910E944215E9CF833039F4E801229620
:10198000FE0184910E948615E0CF8430F1F6E801D3
:101990002296FE01249180E090E0FE0131962053D2
:1019A000330B2A30310550F0009779F2EFE9FFE070
:1019B0003197F1F700C000000197F6CFE89EA00133
:1019C000E99E500D1124C901840F951F2491EF0148
:1019D000E4CF0E943C0CE801B8CFDF91CF911F917A
:1019E0000F91FF90EF90089560E00C94880C0E9496
:1019F000B61F811102C00E9453200C94590A0C9406
:101A0000250A81E008950C94010DCF93C82F0E9400
:101A1000290A8C2FCF910C94030D08950E947618FB
:101A20000E940D0D2FEF84E39CE0215080409040F8
:101A3000E1F700C000000C94EE210F931F93CF93A9
:101A4000DF93EC0161E00E94260C8C01BE010E9434
:101A50004013882359F1BE01C8010E94270A882338
:101A600029F1BE01C8010E9449118823F9F0BE0185
:101A7000C8010E948D118823C9F0BE01C8010E94CF
:101A80006012882399F08A81882339F001158CE54A
:101A9000180751F00E3D1C4579F0CE01DF91CF9132
:101AA0001F910F910C94EE0B0E940E0D80E0DF91C0
:101AB000CF911F910F9108950E945320F7CF90E08E
:101AC00080E008950895972F70E024E1929F600DC3
:101AD000711D1124FB0198E7899FE00DF11D112470
:101AE000EE0FFF1FE655FA4F859194910895FC0182
:101AF000EE0FFF1FE650F54F859194910895CF9317
:101B0000DF930E94630D0E948A0EEC01811521E58E
:101B1000920708F048C0811530E5930708F0AFC080
:101B2000803E910518F5803C910508F096C0883AF2
:101B3000910570F4853A910508F08CC081309105CB
:101B400031F10497813A910510F1D0E0C0E01FC057
:101B50008F3B9105D1F3C85AD0E0CC0FDD1FCF5E8B
:101B6000DE4F0990D881C02DD46411C0811540E3A7
:101B7000940788F4C11580E2D80708F074C0C83E05
:101B8000D10528F0CE019A9581159F41F0F6CE013E
:101B9000DF91CF910895811530E4930708F466C072
:101BA000DF70D06AF4CF8115964560F5C11585E5E3
:101BB000D80708F096C0C11594E5D907F0F4C1150F
:101BC00023E5D20708F079C0C11532E5D30708F440
:101BD0006FC0CE018370992721E030E002C0220F50
:101BE000331F8A95E2F7C695C69540E2C49FE0018F
:101BF0001124C22BD32BDC68CACFDC2FCC27C46FB7
:101C0000D06AC5CFC1158AE5D80788F4C11599E512
:101C1000D90708F071C0CE0198558F3F910511F09A
:101C200008F093CFDC2FCC27C06FD06AB0CFCE01A5
:101C300090568115904208F088CF8D2F8F710E94A9
:101C4000220F90E0982F882788279F719C012C2BCA
:101C5000E90150C0A497D0649ACF805C91090E949A
:101C6000770DEC0194CFCE019F70F9CF9927D3FF68
:101C700003C0EC01D86C8BCFEC01D06C88CF74E042
:101C8000969587957A95E1F783702C2F2695269562
:101C9000237040E2249F90011124382B8C2F8370F5
:101CA000C1E0D0E002C0CC0FDD1F8A95E2F7A1CFE2
:101CB000DC2FCC27C16FD06A6ACFCE018370992701
:101CC00021E030E002C0220F331F8A95E2F7C6956B
:101CD000C69580E2C89FE0011124C22BD32BDA689D
:101CE00056CF8C2F0E94220FC82FD0E0DC2FCC279C
:101CF000CC27DF71D0624BCF8C2F8F700E94220FC8
:101D000034E0D695C7953A95E1F7CF70DC2FC82F10
:101D1000D0693DCF803E910599F1C8F4813391059A
:101D200009F476C048F48932910509F46AC08A3210
:101D3000910509F474C0089589339105D1F0823872
:101D40009105B9F08533910509F454C00895843E96
:101D5000910599F138F4823E9105F9F0833E9105A1
:101D600009F10895863E910599F1873E9105B9F1F3
:101D70000895209105062370A1F080EE90E008956B
:101D80002091050620FD52C03091060630FF09C0A3
:101D900024FF4FC090E080E004C02091050622FDA2
:101DA000F7CF08952091050622FD46C03091060622
:101DB00030FDE3CF24FFF5CFEDCF2091060621FFC4
:101DC000F0CF8091050684FDE5CF87EE90E0089581
:101DD0002091050623FFE5CF24FDDCCFF6CF20912F
:101DE000050623FD2CC03091060631FFE3CF84EEBB
:101DF00090E008952091050625FFD3CF89E290E079
:101E000008952091050625FFCCCF85E390E0089545
:101E10002091050626FFC5CF8AE290E00895209123
:101E2000050626FFBECF81E390E0089589E390E0A8
:101E3000089583EE90E0089582EE90E0089586EE96
:101E400090E008959091050692FF06C0282F287112
:101E50002830F9F4877F846093FF06C0282F28710B
:101E60002831F1F4877E84612091060620FF06C0A8
:101E7000382F38713830D9F4877F816021FF06C050
:101E8000282F28712831D1F4877E816194FD877EC7
:101E90000895282F24712430F9F68B7F8860DCCFD9
:101EA000282F2471243101F78B7E8861DDCF382FF4
:101EB0003171313019F78E7F8860E0CF282F217182
:101EC000213121F78E7E8861E1CFCF93DF9300D05F
:101ED00000D0CDB7DEB794E0899FF0011124EB501C
:101EE000FE4F80819181A281B381BC01CD010F9011
:101EF0000F900F900F90DF91CF910895089580EA91
:101F00008A95F1F70895CF93DF93C3E5D1E029E5F2
:101F100031E041E050E08991E82FE295EF70A1E2D5
:101F2000AE0FB0E0FC918F70BA0101C0660F8A95C8
:101F3000EAF7962F90959F239C93EE5DF0E08081C9
:101F4000862B80832C173D0731F7CFE3D1E023E5C3
:101F500031E041E050E08991E82FE295EF70A1E295
:101F6000AE0FB0E0FC918F70BA0101C0660F8A9588
:101F7000EAF7962F90959F239C93EE5DF0E0808189
:101F8000862B80832C173D0731F788E1EDE0F2E0E6
:101F9000DF01982F1D929A95E9F7E5EFF1E0DF0157
:101FA0001D928A95E9F786E00E949E10DF91CF91FD
:101FB0000C94F70C2F923F924F925F926F927F9208
:101FC0008F929F92AF92BF92CF92DF92EF92FF9249
:101FD0000F931F93CF93DF9300D000D00F92CDB714
:101FE000DEB783E5C82E81E0D82E9DE0E92E92E091
:101FF000F92E712C812C912C54018394F60181913E
:102000006F01F82FF295FF70FB830F2F0F5D10E02B
:10201000F80190818F7021E030E002C0220F331F61
:102020008A95E2F73A832983822F892B80833B812B
:102030003E5D832F90E09D838C83FC018081622E26
:102040006094862180830E947F0FAFE3B1E090E02F
:1020500080E040E050E0BA015D90E52DE295EF7040
:10206000E05EF0E0208130E0E52DEF7002C03595B4
:102070002795EA95E2F720FD5AC014012501082EA4
:1020800004C0220C331C441C551C0A94D2F742296C
:10209000532964297529019684319105E9F6F801DF
:1020A000808168226082EC81FD818081F9818F2BA3
:1020B000EC81FD818083F70180819181A281B381D0
:1020C000481759076A077B07B9F140835183628338
:1020D000738381E0782AF4E0EF0EF11C29E5C21643
:1020E00021E0D20609F08ACF272D46E065EF71E0A6
:1020F0008DE092E00E949F100E94FF0C872D0F90B0
:102100000F900F900F900F90DF91CF911F910F9133
:10211000FF90EF90DF90CF90BF90AF909F908F9007
:102120007F906F905F904F903F902F900895212C5B
:10213000312C412C512CABCF80E0CCCF0895FF92B5
:102140000F931F93CF93DF93F82E092F162FD72FBE
:10215000C42F222349F081E0809327020E94AF21FF
:102160009093260280932502809127028823A1F074
:1021700080912502909126020E94BB21069760F073
:10218000EF2DF02FA12FBD2F90E080E0D0E08C1735
:102190009D0744F010922702DF91CF911F910F917C
:1021A000FF90089501911191219131910D931D930B
:1021B0002D933D930196EBCF0F931F93CF93DF9316
:1021C000C62FD42F022FFC0182818823C9F060938F
:1021D0002A020E94AF21909329028093280280E274
:1021E0008C0F883008F050C0C77081E001C0880FA4
:1021F000CA95EAF7DF91CF911F910F910C94C11509
:1022000010912A02161335C080912802909129025C
:102210000E94BB21883C910560F5C0E2CD0F1D17DF
:10222000B9F080E2810F883040F4177081E001C07E
:10223000880F1A95EAF70E94C815C83048F481E063
:102240009D2F977001C0880F9A95EAF70E94C115DB
:10225000802F0E94AE15C830B8F4D77081E001C05D
:10226000880FDA95EAF7DF91CF911F910F910C94C7
:10227000C81580E28C0F883038F4C77081E001C047
:10228000880FCA95EAF7EFCFDF91CF911F910F9199
:1022900008959C01CB01233F4CE5340769F190F48C
:1022A000283DFCE53F0721F1293D4CE5340781F14C
:1022B000273D3C45B1F0FC018281882361F11092F9
:1022C0002A020895253FFCE53F07D1F0263F4CE563
:1022D0003407D1F0243F3C4571F727E245EE64EE28
:1022E00003C026E241EE61EE0E94DC1080E008951A
:1022F00027E245EE65EEF8CF26E241EE60EEF4CF40
:1023000026E241EE62EEF0CF27E245EE66EEECCF3C
:1023100028E241E0EFCF81E00895CF93DF93EC0115
:10232000FB018281882309F4C9C0C631FCE5DF07BF
:10233000E0F4C2309CE5D907F0F00E94C91F9093E9
:10234000060680930506C631ECE5DE0720F5C230AF
:10235000FCE5DF0798F480910506909106060E943F
:10236000D71F0E94761880E006C09E012A5F3C4578
:102370002930310510F3DF91CF910895FE01E3502C
:10238000FC45809105068160E331F10588F4E15553
:10239000F64D0C943229CA5FDC45C930D105D8F618
:1023A000CE53D64DFE010C943229809105068260F1
:1023B00080930506D0CF809105068460F9CF809187
:1023C00005068860F5CF8091060681608093060639
:1023D000C2CF809106068260F9CF809105068061A8
:1023E000E7CF809105068062E3CF80910506806487
:1023F000DFCF0E947618809105068068D9CF809142
:1024000005068C60D5CF809106068360DFCF809172
:1024100005068E7FCDCF809105068D7FC9CF809137
:1024200005068B7FC5CF80910506877FC1CF809140
:1024300006068E7FCBCF809106068D7FC7CF809119
:1024400005068F7EB5CF809105068F7DB1CF809137
:1024500005068F7BADCF0E947618809105068F7799
:10246000A7CF80910506837FA3CF809106068C7F3E
:10247000ADCF8091050682FB992790F921E0922744
:1024800090FB82F990FB83F993CF80910606982FF9
:10249000909591708E7F892B90FB81F997CF0E9448
:1024A000761890910506892F97FB87F9805880CF81
:1024B00081E00E9455204FCF80E0FBCF81E05BCFD1
:1024C000CF93DF93EB0186319C4511F50E94B61E38
:1024D0009A81992399F08A7A91E009F490E0909397
:1024E0002B02811109C089E20E94911E0E94081FDF
:1024F00080E0DF91CF91089585E3F6CF80912B02A4
:10250000811104C089E20E94981EF0CF85E3FBCFC1
:1025100081E0EFCF08950895089508950F931F93D4
:10252000CF93DF93EC018B010E948A120E947618F0
:102530000E94881C08831983DF91CF911F910F910E
:1025400008958F929F92AF92BF92CF92DF92EF92B7
:10255000FF921F93CF93DF93EC017B01142F8090A8
:10256000D2059090D305A090D405B090D5050E94D7
:1025700076180E94881C86E0180260011124CE158E
:10258000DF05C1F40E9476188092D2059092D3059F
:10259000A092D405B092D505812FDF91CF911F91E4
:1025A000FF90EF90DF90CF90BF90AF909F908F9073
:1025B0000C948B12CE010E943C18CC0DDD1DDFCF98
:1025C000EF92FF920F931F93CF93DF937C01EB0168
:1025D000BA01822FF801A881B9819281911103C0BB
:1025E000EA16FB06A9F096E0890290011124AD01DC
:1025F000421B530B6417750791F086E001900D9212
:102600008A95E1F788819981820F931F9983888346
:10261000DF91CF911F910F91FF90EF900895BF012F
:10262000DF91CF911F910F91FF90EF900C948C123E
:10263000CF92DF92EF92FF921F93CF93DF936C01C3
:10264000EB01142F7901842F0E948D128AEF18025A
:10265000A0011124CC15DD0531F0FE01E40FF51FBA
:10266000828181110BC0F701D183C083DF91CF91AB
:102670001F91FF90EF90DF90CF900895EF01EACF88
:102680000F931F93CF939C01FB0180912E05811125
:102690003CC0C281C11122C026304DE5340759F13A
:1026A00048F423304DE5340781F024303D45D9F01E
:1026B000C1E014C027303D45D9F760910001709109
:1026C00001014FEF86E295E01DC06CE272E08CE202
:1026D00095E00E948E1281E080932E058C2FCF9181
:1026E0001F910F91089566E275E08CE295E00E94DB
:1026F0008E1282E0F1CF609102017091030141E0FE
:102700008CE292E00E94A112E9CFA90143505D45FD
:102710004330510530F591E025303D4509F490E016
:102720002281291731F0813031F0823081F010920E
:102730002E05C0E0D3CF60912C0570912D0522E0CD
:1027400031E041E08CE292E00E941813F0CF6091FA
:102750002C0570912D0520E031E04FEF86E295E0E9
:10276000F3CF813071F0823009F0A2CF40910201A5
:10277000509103018B012FEF6CE275E086E295E04A
:102780000AC040910001509101018B0121E06CE2EF
:1027900075E08CE292E00E94E0128ACF90933405BB
:1027A000809333050895E0913305F0913405309717
:1027B00021F00190F081E02D099480E00895DC0182
:1027C000E0913305F0913405309799F08091100134
:1027D000882351F08091050687FF06C08C911196E1
:1027E0008C93119785E08C930280F381E02DCD01CD
:1027F0000994089520913105309132052817390741
:1028000071F09093320580933105E0913305F0919A
:102810003405309721F00680F781E02D0994089562
:1028200020912F05309130052817390771F09093CA
:10283000300580932F05E0913305F09134053097F2
:1028400021F00084F185E02D0994089585B7806812
:1028500085BF85B7806885BF0895089508950C9455
:102860002D1408950C9431140E9426140E942E14E5
:102870000C942F1481E008950C943A140E94A62120
:102880000E94830F0E9420220C9432144F925F9278
:102890006F927F929F92AF92BF92CF92DF92EF9210
:1028A000FF920F931F93CF93DF9300D000D00F922E
:1028B000CDB7DEB70E94DA0F0E943C14882309F4DA
:1028C0008DC046E3A42E45E0B42E10E000E0902E2B
:1028D000802F0E94650F6B017C01F50141905190A2
:1028E000619071905F014C145D046E047F0409F4E3
:1028F0006FC08091FF0581FD0E947E0FB301A20190
:102900004C255D256E257F2520E0412C512C320180
:102910004394DB01CA0184219521A621B721892B8B
:102920008A2B8B2B09F44CC029839A82C420D52092
:10293000E620F72081E0CD28CE28CF2809F480E0DA
:102940008B830E94AF218160782F9D838C83498186
:102950005A816B818D810E941415000F111F000F89
:10296000111FF801EA5CFA4F80819181A281B38145
:1029700084259525A625B72580839183A283B383DB
:102980000E94D313909135058917C9F10E94D31382
:10299000809335050F900F900F900F900F90DF915F
:1029A000CF911F910F91FF90EF90DF90CF90BF904C
:1029B000AF909F907F906F905F904F900C94050D1B
:1029C0002F5F440C551C661C771C243109F0A1CFE5
:1029D0000F5F1F4F0630110509F079CF8FEF898304
:1029E0008A831B820E94AF218160782F9D838C8314
:1029F00049815A816B818D810E941415C1CF0F903E
:102A00000F900F900F900F90DF91CF911F910F912A
:102A1000FF90EF90DF90CF90BF90AF909F907F900E
:102A20006F905F904F900895CF93DF93CDB7DEB74F
:102A30002B970FB6F894DEBF0FBECDBF4F835887DC
:102A400069877A878B871E8285E0FE013796DE01D3
:102A5000119601900D928A95E1F749815A816B8117
:102A60007C818D819E812B960FB6F894DEBF0FBEC0
:102A7000CDBFDF91CF910C94D81AFC018081918158
:102A80000C945B1ECF93C82F8823F1F18CEF8C0F31
:102A9000813AA0F46C2F80910401909105010E946D
:102AA0006E20882329F08C2F0E94981E0E94081FF8
:102AB0008C2F0E94911ECF910C94081F80E28C0FE6
:102AC000883048F4C77081E001C0880FCA95EAF7E2
:102AD0000E94B91EF0CF8BE58C0F833038F42C2F79
:102AE0002452330BC901CF910C94FA13C85AC73141
:102AF00058F4EC2FF0E0EE0FFF1FE75AFE4F8081F5
:102B00009181CF910C941014CF910895882329F1CD
:102B10009CEF980F913A20F40E94981E0C94081F85
:102B200090E2980F983050F4877091E001C0990FAF
:102B30008A95EAF7892F0E94BF1EF0CF9BE5980F78
:102B4000933020F490E080E00C94FA13885A873197
:102B500020F490E080E00C9410140895CF93C82FD7
:102B60000E944215C93349F42FEF87EE93E02150BC
:102B700080409040E1F700C000008C2FCF910C9472
:102B80008615882321F00E94B91E0C94081F089511
:102B9000882321F00E94BF1E0C94081F0895AF9255
:102BA000BF92CF92DF92EF92FF920F931F93CF933A
:102BB000DF9300D000D00F92CDB7DEB76C016D83EC
:102BC0007983FC01058102950F70128111110E9419
:102BD000DB1E0E94AF1EE82E882391F01123D1F056
:102BE0008981807F803421F08D81805E883090F0F3
:102BF00082E00E94531F0E94AF1E91E0E82EE9265A
:102C0000A980A2949FE0A922B12CF501E553F64DCD
:102C10000C943229E12CF4CF09810F70F981F07FF7
:102C200011F00295007F1123B1F0002361F08D8136
:102C3000805E883018F02D81211109C0802F0E94FC
:102C4000B91E0E94081F8D810E94421515C0802F59
:102C50000E94CD1EF6CF8D810E948615002361F063
:102C60008D81805E883018F04D81411133C0802FF6
:102C70000E94BF1E0E94081F48E0A41AB10854E039
:102C8000A516B10420F40E94D3130E94050DEE2076
:102C900009F4CBC10E94AB1E80FDC7C1F6011282B0
:102CA0000E94A51E0E94B21CC6010E943C180E94F0
:102CB000A51E0F900F900F900F900F90DF91CF9166
:102CC0001F910F91FF90EF90DF90CF90BF90AF904A
:102CD0000C94E31C802F0E94D31ECCCF59815F70CF
:102CE000F52E6981607F603219F0F29480EFF8224E
:102CF0007D81772369F0713049F1112391F100232F
:102D000051F1F601858180FF9ECF8F70858323C0AE
:102D1000112381F0011106C00E94EF1E8F290E942D
:102D2000C115AACF0130C1F70E94EF1E8F290E9462
:102D3000F51EA2CF011106C00E94FE1E8F2D0E941B
:102D4000C8159ACF013009F497CFF6CF112329F097
:102D5000063008F091CF8F2DE2CF053008F08CCFF0
:102D6000EDCF002359F3FD81F93349F42FEF47EEFE
:102D700053E0215040405040E1F700C000008D81F9
:102D80000E94861579CF898186958695837069F032
:102D9000813009F071CF8D8199819370111102C03A
:102DA00090E080E00E94101467CF8D81998193702C
:102DB000111102C090E080E00E94FA135DCF89817A
:102DC000837009F050C0111157CF4D81429546953F
:102DD0004770440F440F8D818F7090E0B0E0A0E009
:102DE000042E04C0880F991FAA1FBB1F0A94D2F794
:102DF0006D8100E010E0980164FF0FC00FE010E06B
:102E000020E030E004C0000F111F221F331F4A953D
:102E1000D2F7009510952095309579817695769525
:102E200073707D83B901A801482B592B6A2B7B2B2A
:102E300049835A836B837C835D8169817A818B812D
:102E40009C81523051F0533059F0513019F00E94AA
:102E50002A1C12CF0E94021C0FCF0E94521C0CCFC2
:102E60000E94001C09CF112309F445C0698160FF4D
:102E700003CF4D81429546954770440F440F8D8195
:102E80008F7090E0B0E0A0E0042E04C0880F991F7E
:102E9000AA1FBB1F0A94D2F7ED8100E010E0980151
:102EA000E4FF0FC00FE010E020E030E004C0000FAE
:102EB000111F221F331F4A95D2F7009510952095B8
:102EC0003095F981F695F695F370FD83B901A80167
:102ED000482B592B6A2B7B2B49835A836B837C832A
:102EE000F230A1F0F330C9F0F13049F0CB01BA0172
:102EF0000E94711DC1CE798171FFBECEBACF6981AA
:102F00007A818B819C810E94491DB6CE69817A812C
:102F10008B819C810E94991DAFCE69817A818B81C2
:102F20009C810E947C1CA8CE59815F70598311231B
:102F300029F0852F0E94B21C8D81F1CE8D810E94D7
:102F4000C81589810E94E31C97CE6D81623F99F17B
:102F500060F4603FD9F0613F39F1112309F444C0B6
:102F6000011171CE89818F7123C07D81733F41F141
:102F7000743F99F7112371F189818F7189830E94C0
:102F8000B21C63E089810E943E1F76CE112341F07E
:102F9000053008F071CE89818F710E94181D6CCEAA
:102FA000063008F069CEF7CF89818F71112351F275
:102FB0000E94B21C61CE89818F711123C9F3C2CFE7
:102FC000112329F089818F710E948D1C55CE0E949A
:102FD000881C52CE81E00E94531F023008F44CCE70
:102FE00082E00E94531F48CE002361F09D819933F7
:102FF00009F0C5CEEFEFF7EE23E0E150F0402040BE
:10300000E1F7BBCE89818F719DCF49814F706D8172
:10301000C6010E945F0D0E94721B2ECE49814F7027
:103020006D81C6010E94620D27CE0F900F900F9008
:103030000F900F90DF91CF911F910F91FF90EF9024
:10304000DF90CF90BF90AF9008950F931F93CF93D1
:10305000DF93EC01688179818A810E94671E8C016F
:103060000E94C11D0E94FF1BB801CE01DF91CF91CC
:103070001F910F910C94CF15CF93DF93EC018B81AF
:103080009C81892B29F08981988189238F3F59F46C
:10309000DF91CF910895CE010E942518CE01DF91D6
:1030A000CF910C942F0CCE010E941D0D8111F3CFF6
:1030B0000E94AF1E882361F38A81882349F382E04E
:1030C000DF91CF910C94531F0E94DB1E0E94EC1ED7
:1030D0000E94081F90E080E00E94FA1390E080E0D8
:1030E0000C9410140E949F1E0C9464180E94CA1E17
:1030F0000C947218282F892F82958F70903C80F441
:103100008A30B0F4843020F4823090F480E0089566
:103110008630E1F781E0283E88F0213FB9F70EC004
:103120008C3011F08F3091F793FB882780F9089548
:1031300081E0203F39F018F4283E40F70895243FFD
:1031400029F7FCCF08950E945B1E0C947A18CF9348
:10315000DF9300D000D00F92CDB7DEB70F900F9065
:103160000F900F900F90DF91CF910895CF93DF9341
:1031700000D000D000D0CDB7DEB726960FB6F894B9
:10318000DEBF0FBECDBFDF91CF9108951F93CF93C8
:10319000DF93E0914F0516E0809150058E1304C037
:1031A000DF91CF911F910895CE2FD0E01E9FF001A7
:1031B0001124EF5AFA4F40815181628173818481D9
:1031C00095810E94B618FE013196E770E5CF4091D7
:1031D00081055091820560918305709184058091ED
:1031E0008505909186050C94B6181F93CF93DF93B5
:1031F00080918605807FA9F480918305882389F0DA
:1032000080914F05C09150057091810560918205B4
:10321000A0918405B0918505D62FD72316E0C81359
:1032200004C0DF91CF911F91089590E0109711F0A5
:10323000DF3F19F401968770F2CF189F9001199F14
:10324000300D1124F901EF5AFA4F41816413F2CF86
:1032500040814713EFCF42814111ECCF438154812C
:103260004A1B5B0B483C510528F7809186058F70FF
:10327000806180938605F901EA5AFA4F80818F7048
:103280008061808381E895E00E943C18DF91CF91B6
:103290001F910C94C618AF92BF92CF92DF92EF921B
:1032A000FF920F931F93CF93DF93CDB7DEB72B978A
:1032B0000FB6F894DEBF0FBECDBF8C0185E0F801DC
:1032C000DE01179601900D928A95E1F7F801408191
:1032D0005181E28081E8A82E85E0B82E60918405B6
:1032E000709185056115710549F0909181052091D6
:1032F0008205892F82238F3F09F045C1EE2009F412
:1033000053C14F8358878F8198850E94A318F82E48
:10331000882309F449C186E0F801A1E8B5E00190ED
:103320000D928A95E1F781E895E00E943D150E9493
:10333000F51826C180918605382F307F683C7105CD
:1033400008F07CC03111B5C0FE2C251324C09413A5
:1033500022C0E11020C08F708061809386050E949A
:10336000E71881E895E00E943C1880918605F801F5
:1033700085838F2D2B960FB6F894DEBF0FBECDBF81
:10338000DF91CF911F910F91FF90EF90DF90CF9041
:10339000BF90AF900895CD2829F0842F85238F3FCB
:1033A00009F084C080E0F82FF170DF2EE0914F0526
:1033B0002091500536E080FD1CC0EE20D1F28091B6
:1033C0008605816080938605F12CD3CF8E2F90E007
:1033D0003E9FF0011124EF5AFA4F6181651306C038
:1033E0006081641303C062816E11E7CFFC013196E6
:1033F000E770E213EBCF4F8358878F8198850E9447
:103400005B1E292F22952F70903260F0225F2F7063
:10341000223078F49F7051F0F8019581907F31F45B
:10342000D12C0AC09F7011F08823D1F3805E8830C0
:10343000B8F3C8010E943C18FD2C9BCF31116EC01F
:103440006E2D7A858B850E94A71881E895E00E94F1
:103450003C1886E0F50111928A95E9F70E94E71879
:10346000B3CF86E0F801A1E8B5E001900D928A950E
:10347000E1F77FCF4F8358878F8198850E94A318EB
:1034800081113DC080918605816080938605C801C9
:103490000E943C186ECF6E2D7A858B850E94A718EE
:1034A00086E0F50111928A95E9F76AC081E08E25E0
:1034B0007ACF251306C0941304C0F801EE2009F456
:1034C00053C04F8358878F8198850E94A318882303
:1034D00009F46AC0EE2009F467C080918605803245
:1034E00070F020918105309182053A8329831B82F7
:1034F000DD82CC828E83CE0101960E943C1886E04C
:10350000F801A1E8B5E001900D928A95E1F70E94DB
:10351000F5180E94E718FF24F3942BCF2513D1CF81
:103520009413CFCFE110CDCFF8018583C8010E945D
:103530003C1886E0F50111928A95E9F71ACF251318
:1035400099CF941397CF8091860580FD8ACF982FCD
:10355000907F09F486CFF8018583903F31F0982F52
:10356000907F905F8F70892B8583C8010E943C18E3
:1035700086E0F801A1E8B5E001900D928A95E1F7A7
:103580000E94E718F6CEC380D480F0908305F60140
:10359000E61BF70BBF01F110CDCE683C710508F0BA
:1035A0007ACFFE2CE110CBCFC8010E943C18B3CFDC
:1035B0001F93CF93DF93CDB7DEB72C970FB6F89458
:1035C000DEBF0FBECDBF4F83588769877A878B8751
:1035D0009C87CE0107960E944B19882369F08A8543
:1035E0009B85892B39F058854F81852F84238F3F08
:1035F00009F071C016E05FC086E0FE013796DE017B
:10360000119601900D928A95E1F78A859B85892B09
:1036100089F38F81988589238F3F61F3209150052D
:1036200030E0C90101968770992740914F054817EE
:10363000190671F40E9476181092500510924F05E9
:1036400086E0E1E8F5E0DF011D928A95E9F7D2CF47
:1036500096E0929FD001939FB00D1124AF5ABA4FBC
:10366000FE01319601900D929A95E1F780935005F5
:103670000E94C618BFCF819FC00111248F5A9A4F54
:103680000E944B198823E9F0E0914F051E9FF0013D
:103690001124EF5AFA4F40815181628173818481F4
:1036A00095810E94B61880914F0590E00196877031
:1036B000992780934F0580914F059091500589136C
:1036C000DACF2C960FB6F894DEBF0FBECDBFDF91D8
:1036D000CF911F91089569857A858B859C850E947D
:1036E000B61888CFEF92FF920F931F93CF93DF937B
:1036F0008C01892B89F0F12CEE24E394E8012196CA
:10370000F8018491843709F458C0A0F4823009F498
:103710003FC048F48130D1F0DF91CF911F910F91DC
:10372000FF90EF9008959CEF980F9037A8F70E94B4
:1037300042150AC0853709F44EC09CE7980F9037B0
:1037400058F78F770E9486158E0116C00E5F1F4FA7
:10375000FE01849190E2980F983060F48770FE2DFE
:1037600001C0FF0F8A95EAF78F2F0E94DE1E0E948C
:10377000081F02C00E9442158F2D882309F4BECF76
:10378000EFE9FFE03197F1F700C000008150F5CF7D
:103790000E5F1F4FFE01849190E2980F983050F415
:1037A0008770FE2D01C0FF0F8A95EAF78F2F0E94C8
:1037B000E41EDDCF0E948615DFCF0E5F1F4FFE0196
:1037C000C491CC23C9F28FE99FE00197F1F700C0C3
:1037D0000000C150F6CF0E5F1F4FFE01F490CCCF1A
:1037E00008950C94F01B0E94F11B6093D605709312
:1037F000D7058093D8059093D9050C946418089543
:103800000C94F31BCF93DF9300D000D0CDB7DEB77D
:1038100069837A838B839C838091D6059091D705A9
:10382000A091D805B091D90529813A814B815C815D
:10383000282B392B4A2B5B2B29833A834B835C83C0
:10384000CA01B9010F900F900F900F90DF91CF91A7
:103850000C94F31BCF93DF9300D000D0CDB7DEB72D
:1038600069837A838B839C838091D6059091D70559
:10387000A091D805B091D90529813A814B815C810D
:10388000282339234A235B2329833A834B835C8390
:10389000CA01B9010F900F900F900F90DF91CF9157
:1038A0000C94F31BCF93DF9300D000D0CDB7DEB7DD
:1038B00069837A838B839C838091D6059091D70509
:1038C000A091D805B091D90529813A814B815C81BD
:1038D000282739274A275B2729833A834B835C8330
:1038E000CA01B9010F900F900F900F90DF91CF9107
:1038F0000C94F31B0C94CC0B0E947A1C6093D205A1
:103900007093D3058093D4059093D5050C946418D7
:1039100060E070E0CB010C947C1C0F931F93CF935D
:10392000DF9300D000D0CDB7DEB741E050E060E0DB
:1039300070E08A019B0104C0000F111F221F331F7A
:103940008A95D2F709831A832B833C83C901B80176
:103950000F900F900F900F90DF91CF911F910F91CB
:103960000C947C1C0F931F93CF93DF9300D000D057
:10397000CDB7DEB741E050E060E070E004C0440F36
:10398000551F661F771F8A95D2F78091D2059091B7
:10399000D305A091D405B091D5058A019B01082BD0
:1039A000192B2A2B3B2B09831A832B833C83C901B8
:1039B000B8010F900F900F900F90DF91CF911F9152
:1039C0000F910C947C1C0F931F93CF93DF9300D027
:1039D00000D0CDB7DEB741E050E060E070E004C059
:1039E000440F551F661F771F8A95D2F74095509553
:1039F000609570958091D2059091D305A091D405E2
:103A0000B091D5058A019B01082319232A233B2362
:103A100009831A832B833C83C901B8010F900F904F
:103A20000F900F90DF91CF911F910F910C947C1C00
:103A30000F931F93CF93DF9300D000D0CDB7DEB7A5
:103A400041E050E060E070E004C0440F551F661F85
:103A5000771F8A95D2F78091D2059091D305A091D6
:103A6000D405B091D5058A019B01082719272A277B
:103A70003B2709831A832B833C83C901B8010F902C
:103A80000F900F900F90DF91CF911F910F910C9499
:103A90007C1CCF93DF9300D000D0CDB7DEB7698315
:103AA0007A838B839C838091D2059091D305A091DA
:103AB000D405B091D50529813A814B815C81282BB1
:103AC000392B4A2B5B2B29833A834B835C83CA01B6
:103AD000B9010F900F900F900F90DF91CF910C9440
:103AE0007C1CCF93DF9300D000D0CDB7DEB76983C5
:103AF0007A838B839C838091D2059091D305A0918A
:103B0000D405B091D50529813A814B815C81282368
:103B100039234A235B2329833A834B835C83CA017D
:103B2000B9010F900F900F900F90DF91CF910C94EF
:103B30007C1CCF93DF9300D000D0CDB7DEB7698374
:103B40007A838B839C838091D2059091D305A09139
:103B5000D405B091D50529813A814B815C81282714
:103B600039274A275B2729833A834B835C83CA0121
:103B7000B9010F900F900F900F90DF91CF910C949F
:103B80007C1C0895E82F24E1929FE00D11248E2FD4
:103B9000877041E001C0440F8A95EAF7E695E69503
:103BA000E69585E0E89FF0011124E957FA4F30E0EF
:103BB00020E070E05191DF011197CB01022E02C08D
:103BC000969587950A94E2F78170819585278423DD
:103BD00085278C932F5F3F4F2530310559F7089586
:103BE000E82F24E1929FE00D11249E2F9770E69517
:103BF000E695E69585E0E89FF0011124E957FA4F34
:103C000050E040E080E0219130E0092E02C036957E
:103C100027950A94E2F721703327042E01C0220F62
:103C20000A94EAF7822B4F5F5F4F4530510559F7F1
:103C30000895BF92CF92DF92EF92FF920F931F935E
:103C4000CF93DF938C01C090D205D090D305E09044
:103C5000D405F090D5058091D6059091D705A09117
:103C6000D805B091D905C82AD92AEA2AFB2ACFE17A
:103C7000D0E0BC2ED701C6010C2E04C0B695A79586
:103C8000979587950A94D2F780FD0EC0219788F703
:103C9000B12C8B2DDF91CF911F910F91FF90EF9061
:103CA000DF90CF90BF900895B8018C2F0E947F0DB8
:103CB000019761F3EECFCF93DF93D82FC92F0E94E6
:103CC000191E6D2F7C2FDF91CF910C947F0D1F93C8
:103CD000CF93DF93162FD72F90914E05992339F06C
:103CE000862F972FDF91CF911F910C945B1E882315
:103CF00091F0862F972F0E94191EC82F682F812FB1
:103D00009D2F0E94C21D612F7D2F8C2FDF91CF919F
:103D10001F910C947F0D862F972F0E94F01DC82FA6
:103D2000F2CF682F80910401909105010C94F2204C
:103D3000682F80910401909105010C94FD208091E1
:103D40000401909105010C9408218091DA05859574
:103D50008595859508958091DA05877008959091ED
:103D6000DA05977081E009F480E008958091FE05FE
:103D700008959091FE05982B9093FE050895982F35
:103D800090958091FE0589238093FE050895809388
:103D9000FE0508951092FE0508959091FD05982B5B
:103DA0009093FD050895982F90958091FD058923A6
:103DB0008093FD0508951092FD0508959091FC05EE
:103DC000982B9093FC050895982F90958091FC0571
:103DD00089238093FC0508951092FC050895809135
:103DE000DB05089508950C94F21E9091DB05981759
:103DF00021F08093DB050C94F31E08958091DB0580
:103E0000882329F01092DB0580E00C94F31E0895BE
:103E1000E0910401F09105018091FE058083E0911D
:103E20000401F091050180819091FD05892B80832B
:103E3000E0910401F091050180819091FC05892BAE
:103E400080839091DB05992381F0E0910401F0914A
:103E500005018081892B8083809104019091050167
:103E60000E945A2081110E94FE1E809104019091AF
:103E700005010C94DF1308950C943B1F98E0899F73
:103E800090011124622B6093DA050E94B21C80918C
:103E9000DA058595859585950C943C1F1092DA0579
:103EA00080E00C943C1F9091DA05809589238093E3
:103EB000DA05282F277071F4282F082E000C330BF9
:103EC0009217130639F08595859585950E94E31C18
:103ED0000C944E1F08950F931F93462F572FBC012C
:103EE000CB01AA27BB270097A105B105E9F1AC01D9
:103EF000BD0180E1052F162F272F3327011511054E
:103F00002105310519F0885FB901A8018A019B01DB
:103F1000F4E03695279517950795FA95D1F7011591
:103F200011052105310519F08C5FB901A8018A013D
:103F30009B01E2E03695279517950795EA95D1F70D
:103F4000011511052105310519F08E5FB901A80190
:103F50007695679557954795452B462B472B09F046
:103F60008F5F1F910F91089580E0C4CF90E080E0B3
:103F70000E9443299C0181E02C3E3E4F09F080E0E5
:103F8000089582E090E00C943B2983E090E00C944B
:103F90003B29CF9384E090E00E943B29C82F81E227
:103FA00090E00E943B29982F8C2FCF910895CF93BA
:103FB000682FC92F84E090E00E9449296C2F81E28C
:103FC00090E0CF910C944929AB01BC018FE090E0C7
:103FD0000C945B29AB01BC0183E190E00C945B295C
:103FE00060E070E0CB010C94EA1F60E070E0CB0170
:103FF0000E94E41F0C94F01F6CEE7EEF90E080E0D6
:104000000E94672960E082E090E00E94492960E018
:1040100083E090E00E9449291092D6051092D705BE
:104020001092D8051092D90560E084E090E00E94DB
:10403000492960E081E290E00E94492960E085E042
:1040400090E00E94492960E086E090E00E944929C2
:104050006FEF87E090E00E94492940E050E0BA010C
:1040600088E090E00E945B2960E08DE090E00E9493
:10407000492940E050E0BA0188E190E00E945B29C4
:1040800060E087E190E00E94492940E050E0BA01F9
:104090008CE190E00E945B2960E080E290E00E9469
:1040A00049290C94F51F0C94FC1F682F8EE090E0BA
:1040B0000C944929FC01329680911001882321F04B
:1040C000809105069EE187FF96E080E0915008F41C
:1040D000089521912223D1F38F5FF8CF9C016623AD
:1040E00001F1809110018823F1F08091050687FF8E
:1040F0001AC0462F469546954695603F90F46770E6
:1041000081E090E002C0880F991F6A95E2F7240FC2
:10411000311DF901228130E02823392381E0232B4E
:1041200071F480E00895F9013296285F3F4F819144
:10413000861721F0E217F307D1F7F3CF81E0089556
:104140009C01FC0132968FEF90E04191461751F0AF
:104150008F3F19F4411101C0892F9F5F9630A9F755
:104160008F3F09F40895280F311D87FD3A95F90115
:10417000628308959C01FC013296285F3F4F819134
:10418000861303C0DF0111971C92E217F307B9F7FA
:104190000895FC01862F869586958695603F60F48C
:1041A000E80FF11D677021E030E001C0220F6A9531
:1041B000EAF78281822B82830895FC01862F8695FF
:1041C00086958695603F68F4E80FF11D677081E081
:1041D00090E001C0880F6A95EAF780959281892363
:1041E0008283089520911001222329F02091050651
:1041F00027FD0C94C9200C94A020209110012223AB
:1042000029F02091050627FD0C94DD200C94BA209E
:10421000FC01329680911001882351F080910506AF
:1042200087FF06C08EE1DF011D928A95E9F70895A8
:1042300086E0F9CF089508950C941B210E941C215B
:1042400080912D06843049F11092000688E190E0BB
:1042500020E40FB6F894A895809360000FBE2093D9
:10426000600080E00E94050D0E941C2183B7817FC1
:10427000846083BF83B7816083BF7894889583B758
:104280008E7F83BF0FB6F894A895809160008861F7
:1042900080936000109260000FBE08950895CF9340
:1042A000DF9300D000D00F92CDB7DEB70E941A2165
:1042B0000E94DA0F0E944E211D828D810E94650F9F
:1042C000672B682B692B71F48D818F5F8D8386300E
:1042D000A1F780E00F900F900F900F900F90DF915B
:1042E000CF91089581E0F6CF08950C9474210E9437
:1042F00076180E94D3130E94050D0C9475211F920D
:104300001FB61F9211248F939F93AF93BF938091F9
:104310000006811113C08091010690910206A091C0
:104320000306B09104064196A11DB11D80930106BC
:1043300090930206A0930306B0930406BF91AF9139
:104340009F918F911F901FBE1F90189582E084BD92
:1043500093E095BD9AEF97BD80936E0008952FB7B7
:10436000F8948091010690910206A0910306B09105
:1043700004062FBF08959C014FB7F8948091010661
:1043800090910206A0910306B09104064FBF821BD4
:10439000930B089578941F921FB61F9211248F9348
:1043A0009F93AF93BF938091010690910206A091D5
:1043B0000306B09104060196A11DB11D809301066C
:1043C00090930206A0930306B0930406BF91AF91A9
:1043D0009F918F911F901FBE1F901895F89481E0B8
:1043E0008093E00080E28093D800E9ECF0E0108256
:1043F0008FE19EE40197F1F700C000001DBA109212
:1044000068001CBC10BE1FBA10927A0010926E0099
:1044100010926F0010927000109271001082109232
:10442000BC0011B814B817B81AB81DB810BA12B831
:1044300015B818B81BB81EB811BA0C9400FE089530
:10444000CF93DF9300D000D0CDB7DEB70E94B61F68
:10445000811102C00E9453200E94C11F8093FF055A
:104460000E94C91F90930606809305060E94C51FEF
:10447000282F30E050E040E029833A834B835C836F
:10448000CA01B9010F900F900F900F90DF91CF915B
:104490000C94001C8091270608950895CF93DF9314
:1044A00000D00F92CDB7DEB790912D06943019F55C
:1044B00089836A837B8382E08093E9008FEF909108
:1044C000E800815095FD06C095ED9A95F1F7000042
:1044D0008111F5CF8091E80085FF0DC050E040E0EC
:1044E00063E070E0CE0101960E947E248091E80096
:1044F0008E778093E8000F900F900F90DF91CF910F
:104500000895CF93DF93D82FC92F0E946124823062
:1045100011F0843039F46D2F7C2F84E0DF91CF913E
:104520000C944E22DF91CF910895BC0183E00C944E
:104530004E22CF93DF93D82FC92F0E94612482305F
:1045400011F08430C9F5809110018823C1F1809168
:10455000050687FF34C060E282E08093E9008FEFB8
:104560009091E800815095FD06C095ED9A95F1F780
:1045700000008111F5CF8091E80085FF1DC080917A
:10458000100170E050E040E0811104C050E040E0D4
:1045900068E070E08D2F9C2F0E947E248091E800BF
:1045A0008E778093E80080E2ED2FFC2FA7E0B6E045
:1045B00001900D928A95E1F7DF91CF91089568E01F
:1045C00081E0CBCF80913606811109C00E9406267A
:1045D0000E9468268091E20084608093E200089542
:1045E000109236060895089508950C94772142E0BC
:1045F00061EC81E00E94822542E261EC82E00C9451
:10460000822580912F06893089F148F4823009F49F
:104610009DC0833009F458C0813041F008958A303C
:1046200009F484C08B3009F46AC0089580912E0685
:10463000813A09F048C08091E800877F8093E800C4
:104640008091320690913306892B61F460E287E015
:1046500096E070E00E94CD248091E8008B778093F3
:10466000E800089560E090E080E0F3CF80912E06AE
:10467000813249F58091320690913306029718F500
:104680008091E800877F8093E8008091E80082FFB6
:1046900016C08091F2009091F300029729F4809166
:1046A000F1008B7F813021F48091F1008093270607
:1046B0008091E8008B778093E8000C94B625809178
:1046C0002D068111E2CF089580912E06813AD9F707
:1046D0008091320690913306892BA9F78091E800EA
:1046E000877F8093E8008091E80080FFFCCF809175
:1046F00010018093F1008091E8008E77DCCF8091EB
:104700002E06813201F78091320690913306892B73
:10471000D1F68091E800877F8093E8000E94B6255B
:1047200080913006809310010C94761880912E06AB
:10473000813249F68091E800877F8093E8000E94EB
:10474000B6258091310680932806089580912E0623
:10475000813A09F0B8CF8091E800877F8093E80024
:104760008091E80080FFFCCF80912806C2CF84B7FB
:10477000877F84BF0FB6F894A89580916000886108
:1047800080936000109260000FBE80E890E00FB64A
:10479000F89480936100909361000FBE0E943414DE
:1047A0000E9406260E9468268091E2008460809321
:1047B000E20078940E94F5280E943E1486E091E081
:1047C0000E94CE1380912D06853019F00E94461468
:1047D000F9CF0E941E2180912A06882399F30E9416
:1047E0004F21882379F30E946824ECCF0C94F8239E
:1047F000FC01CB01DA012F2F332723303105D1F013
:1048000070F42130310509F445C02230310569F4D6
:104810008BE390E02CE33BE02D933C930895213211
:10482000310521F12232310559F190E080E030E08C
:1048300020E0F2CFCF019927E230A9F08330910533
:1048400050F4009769F0EEE2FBE0019771F7849174
:1048500090E09F01E1CFEAEFFAE00397C1F3E5CFE3
:10486000E8E3FBE0F4CFE0E0FBE0F1CF892BB9F027
:1048700061307105D1F689E090E027E63BE0CCCFCE
:10488000892B91F06130710581F68DE690E029E881
:104890003BE0C2CF82E190E027E73BE0BDCF89E07B
:1048A00090E02EE43BE0B8CF80E490E026EF3BE0E0
:1048B000B3CF80912D06843011F482E0089581E019
:1048C000089580912906811102C00C9459240895FD
:1048D00084E189BD86E189BD09B400FEFDCF8091E8
:1048E000D8008F7D8093D8008091E0008260809313
:1048F000E0008091E00081FDFCCF0895AF92BF926F
:10490000CF92DF92FF920F931F93CF93DF936C01AF
:10491000EB018A010E94D525F82E811123C00115D3
:10492000110539F0F80180819181C81BD90BC80E9F
:10493000D91EB12CA12C2097A9F08091E80085FD0B
:1049400022C08091E8008E778093E8000115110560
:10495000A1F0F80180819181A80EB91EB182A082D8
:1049600085E0F82E8F2DDF91CF911F910F91FF9051
:10497000DF90CF90BF90AF9008950E94D5258823F7
:10498000D1F2F82EEFCFF60181916F018093F10003
:104990002197FFEFAF1ABF0ACECFFC01CB012091C8
:1049A0003406309135062617370790F0009729F422
:1049B0002091E8002E772093E80040E0009751F422
:1049C000411108C08091E80082FF31C080E0089565
:1049D000C901F3CF20912D062223A9F12530A9F199
:1049E0002091E80023FD2DC02091E80022FDEACFB0
:1049F0002091E80020FFE2CF2091F2003091F300F7
:104A0000009719F02830310558F041E02830310581
:104A100009F040E02091E8002E772093E800CECF07
:104A200041914093F10001972F5F3F4FE9CF809173
:104A30002D06882341F0853041F08091E80083FF06
:104A4000C1CF81E0089582E0089583E00895FC01DC
:104A5000CB0120913406309135062617370790F0A8
:104A6000009729F42091E8002E772093E80040E099
:104A7000009751F4411108C08091E80082FF32C0D4
:104A800080E00895C901F3CF20912D062223B1F1D2
:104A90002530B1F12091E80023FD2EC02091E800DF
:104AA00022FDEACF2091E80020FFE2CF2091F20022
:104AB0003091F300009719F02830310558F041E0AB
:104AC0002830310509F040E02091E8002E7720934E
:104AD000E800CECF44914093F100319601972F5FCB
:104AE0003F4FE8CF80912D06882341F0853041F07B
:104AF0008091E80083FFC0CF81E0089582E00895AF
:104B000083E00895982F973028F08F708093E90004
:104B100081E008959093E900242F762F50E09817B4
:104B200031F07091EC002091ED005091F00021FDEA
:104B300002C09F5FE8CF3091EB003E7F3093EB00E7
:104B40003091ED003D7F3093ED003091EB0031600E
:104B50003093EB007093EC002093ED005093F00045
:104B60002091EE0027FDE5CF80E0089580912E068C
:104B700087FF13C08091E80082FF06C08091E800A3
:104B80008B778093E80004C080912D068111F2CFCD
:104B9000089580912D068823D9F38091E80080FF45
:104BA000F8CF8091E8008E77ECCF2091E40030912F
:104BB000E50095E6A9012091EC00822F817020FF8D
:104BC00006C08091E80080FF06C080E00895209133
:104BD000E80022FD1AC080912D06882389F08530D7
:104BE00089F08091EB0085FD0FC02091E4003091A9
:104BF000E50042175307F9F29150E1F684E0089579
:104C000082E0089583E0089581E008950E94772668
:104C10000E947F26E0EEF0E0808181608083E8EDF5
:104C2000F0E080818F77808319BCA7EDB0E08C9194
:104C30008E7F8C9380818F7E8083109236060895BC
:104C40000F931F93CF93DF930E9477260E947F26B6
:104C5000C8EDD0E088818F778883888180688883D9
:104C600088818F7D8883E7EDF0E080818068808394
:104C700019BC10922D0610922C0610922A06109242
:104C80002B0600EE10E0F80180818B7F8083888105
:104C90008160888342E060E080E00E948225E1EE4E
:104CA000F0E080818E7F8083E2EEF0E080818160A1
:104CB0008083808188608083F80180818E7F8083FB
:104CC000888180618883DF91CF911F910F91089532
:104CD000E8EDF0E080818F7E8083E7EDF0E0808179
:104CE0008160808381E0809336060C942026E8ED75
:104CF000F0E080818C7F80831092E2000895109212
:104D0000DA001092E10008951F920F920FB60F92F1
:104D100011240BB60F922F933F934F935F936F9392
:104D20007F938F939F93AF93BF93EF93FF93809164
:104D3000E10082FF0BC08091E20082FF07C08091FA
:104D4000E1008B7F8093E1000E94F4288091DA00DB
:104D500080FF19C08091D80080FF15C08091DA00D3
:104D60008E7F8093DA008091D90080FF96C084E125
:104D700089BD86E189BD09B400FEFDCF81E0809345
:104D80002D060E94E2228091E10080FF19C08091EF
:104D9000E20080FF15C08091E2008E7F8093E200E8
:104DA0008091E20080618093E2008091D80080626F
:104DB0008093D80019BC85E080932D060E94F422D0
:104DC0008091E10084FF29C08091E20084FF25C02A
:104DD00084E189BD86E189BD09B400FEFDCF8091E3
:104DE000D8008F7D8093D8008091E1008F7E8093E2
:104DF000E1008091E2008F7E8093E2008091E200EA
:104E000081608093E20080912C06882309F44BC0D6
:104E100084E080932D060E94F5228091E10083FFBB
:104E200029C08091E20083FF25C08091E100877F47
:104E30008093E10082E080932D0610922C068091F1
:104E4000E1008E7F8093E1008091E2008E7F80936D
:104E5000E2008091E20080618093E20042E060E045
:104E600080E00E9482258091F00088608093F000AD
:104E70000E94F322FF91EF91BF91AF919F918F918B
:104E80007F916F915F914F913F912F910F900BBE4A
:104E90000F900FBE0F901F90189519BC10922D0601
:104EA0000E94F02270CF8091E30087FD02C081E074
:104EB000B0CF83E0AECF1F920F920FB60F921124A6
:104EC0000BB60F922F933F934F935F936F937F9304
:104ED0008F939F93AF93BF93CF93DF93EF93FF9302
:104EE000D091E900DF708091EC00C82FC17080FD87
:104EF000C0E81092E9008091F000877F8093F00075
:104F000078940E94A3271092E9008091F0008860B5
:104F10008093F000CD2BCF70C093E900FF91EF910B
:104F2000DF91CF91BF91AF919F918F917F916F91C1
:104F30005F914F913F912F910F900BBE0F900FBE3D
:104F40000F901F9018951F93CF93DF93CDB7DEB7C7
:104F5000AA970FB6F894DEBF0FBECDBF8EE296E0E3
:104F6000FC0101962091F100208326E08633920710
:104F7000B9F70E9401238091E80083FF1DC1809151
:104F80002E0690912F069A3008F016C1E92FF0E016
:104F9000E552F64D0C943229803899F0823809F0A8
:104FA0000BC1809132068F70873008F005C1809365
:104FB000E9008091EB0085FB882780F91092E900D9
:104FC00006C080912B0690912A06911182609091E3
:104FD000E800977F9093E8008093F1001092F10031
:104FE0008091E8008E77E4C0882309F4D2C0823033
:104FF00009F0E2C0809130068111D5C0809132065F
:105000008F702FEF280F263008F0D6C08093E9006C
:105010002091EB0020FFC7C0933031F48091EB006A
:1050200080628093EB00BFC09091EB009061909301
:10503000EB0021E030E001C0220F8A95EAF72093CF
:10504000EA001092EA008091EB008860EACF8111BB
:10505000B3C0109130061F778091E3008078812BD8
:105060008093E3008091E800877F8093E8000E94AE
:10507000B6258091E80080FFFCCF8091E300806836
:105080008093E30082E0111183E080932D0694C0A9
:105090008058823008F090C080913006909131069F
:1050A0008C3D23E0920799F583E08A838AE2898325
:1050B0004FB7F894DE01139620E03EE051E2E32F73
:1050C000F0E050935700849120FF03C082958F70C9
:1050D0003F5F8F708A30C8F0895C90E08D939D931C
:1050E0002F5F243161F74FBF8091E800877F809365
:1050F000E8006AE270E0CE0101960E94CD24809122
:10510000E8008B778093E80057C0805DE6CF609120
:10511000320670913306AE014F5F5F4F0E94F62357
:10512000BC01892B09F448C08091E800877F8093F7
:10513000E80089819A810E942725E1CF8038E1F536
:105140008091E800877F8093E80080912C0680930F
:10515000F10046CF811130C090913006923060F559
:105160008091E800877F8093E80090932C060E944E
:10517000B62580912C06882311F084E005C080912B
:10518000E30087FDFACF81E080932D060E94F7228D
:1051900013C080913006813079F481E0933009F0BA
:1051A00080E080932A061092E9008091E800877FD2
:1051B0008093E8000E94B6258091E80083FF0AC032
:1051C0008091E800877F8093E8008091EB00806207
:1051D0008093EB00AA960FB6F894DEBF0FBECDBF4A
:1051E000DF91CF911F9108950895CF9380912D065F
:1051F0008823A1F0C091E900CF709091EC00892F35
:10520000817090FD80E8C82B1092E9008091E80041
:1052100083FD0E94A327CF70C093E900CF9108952A
:10522000A1E21A2EAA1BBB1BFD010DC0AA1FBB1FAA
:10523000EE1FFF1FA217B307E407F50720F0A21B1C
:10524000B30BE40BF50B661F771F881F991F1A9489
:1052500069F760957095809590959B01AC01BD01B3
:10526000CF010895EE0FFF1F0024001C0BBE079016
:10527000F691E02D0994F999FECF92BD81BDF89A7F
:10528000992780B50895A8E1B0E042E050E00C9481
:105290006F29262FF999FECF92BD81BDF89A01970B
:1052A00000B4021639F01FBA20BD0FB6F894FA9A6E
:1052B000F99A0FBE08950396272F0E944A290E944B
:1052C0004929252F0E944A29242F0C944A29019606
:1052D000272F0E944A290C944929DC01CB01FC01AB
:1052E000F999FECF06C0F2BDE1BDF89A319600B43F
:1052F0000D9241505040B8F70895F894FFCF6D0BD0
:10530000710BCB0B730B750B770B790B7B0B7D0B39
:10531000CB0BCB0BCB0BCB0BCB0B7F0B810B830BBB
:10532000850B870B890B8B0B990B910B8F0B970BB5
:10533000950B930B9F0B9B0B9D0B8D0BB60BB80B1B
:10534000BA0BBC0BBE0BC00BC20BCA0BC80BC60BF7
:10535000CA0BCA0BCA0BCA0BCA0BCA0BC40BD5119A
:10536000DB11DF11ED11F111F511F911FF11071228
:105370000B120F1213121F12231227122B123112AB
:105380004F123912E311E91117121B1203123512D1
:10539000451258125C120C160C166E166E16C316B9
:1053A0003C163C163C16DF169417A517A5170518D2
:1053B0003C163C160E18CC27F427DC28F427DC28F2
:0A53C00027284828DC289E28AA2888
:1053CA0026052C02DC054A2299224D2295228122A9
:1053DA0001E200E900EA00B500B600B700CD00839B
:1053EA0001CC008A019201940121022302240225A0
:1053FA0002260227022A02B300B4006F007000F2EC
:10540A00F1F0C6C73031323334353637949597C008
:10541A00C16061626364656667E200E900EA00B53B
:10542A0000B600B700CD008301CC008A0192019436
:10543A00012102230224022502260227022A02B39C
:08544A0000B4006F00700000C7
:00000001FF
