:100000000C943A060C9459060C9459060C94590613
:100010000C9459060C9459060C9459060C945906E4
:100020000C9459060C9459060C946C260C94432796
:100030000C9467210C9459060C9459060C9459069B
:100040000C9459060C9459060C9459060C945906B4
:100050000C9459060C94B2210C9459060C94590630
:100060000C9459060C940A0B0C94E00A0C94590653
:100070000C9459060C9459060C9459060C94590684
:100080000C9459060C9459060C9459060C94590674
:100090000C9459060C9459060102E00102E1750125
:1000A00003E10103E032306163010128000102E253
:1000B0000102E1320103E10103E2000102E2010178
:1000C0006201015901015A0101600103E2000102CC
:1000D000E00102E1750103E10103E066610101282D
:1000E000000102E2650103E275000102E201016222
:1000F00001015A01015D0101620103E2000102E018
:100100000102E1750103E10103E0646101012800DE
:100110000102E2650103E255000102E20101620110
:10012000015A0101590101600103E2000102E001ED
:1001300002E1750103E10103E066330101280001DA
:1001400002E2650103E26F000102E20101620101C6
:100150005A01015C01015B0103E2000102E00102BE
:10016000E1750103E10103E06433010128000102AC
:10017000E2650103E24F000102E201016201015A5E
:100180000101590101590103E2000102E00102E10C
:10019000750103E10103E06564010128000102E249
:1001A000650103E269000102E201016201015A01F5
:1001B000015B01015F0103E2000102E00102E17560
:1001C0000103E10103E06364010128000102E2652B
:1001D0000103E249000102E201016201015A010149
:1001E0006201015D0103E2000102E00102E175012B
:1001F00003E10103E06339010128000102E2650126
:1002000003E245000102E201016201015A010162BB
:100210000101590103E2000102E00102E17501035D
:10022000E10103E06331010128000102E2650103FD
:10023000E241000102E20101620101590101610193
:10024000015B0103E20001012D000102E101012D2A
:100250000103E100010137000102E101013701035F
:10026000E1000102E10101330103E1000101360077
:100270000102E10101360103E10001013300010245
:10028000E10101200103E1000102E101011F01037D
:10029000E1000102E101012E0103E1000101300052
:1002A0000102E10101250103E10001012F0001022A
:1002B000E10101230103E1000101340001013800E3
:1002C0000101270001012E00010126000101270084
:1002D000010125000101260001012400010138006F
:1002E0000101230001012400010120000102E001BD
:1002F00002E1750103E10103E06539010128000114
:1003000002E2650103E265000102E201016201010E
:100310005A01015B01015B0103E2000102E00102FD
:10032000E1750103E10103E06531010128000102EB
:10033000E2650103E261000102E201016201015A8A
:1003400001015A01015D0103E2000102E00102E145
:10035000750103E10103E06639010128000102E2B1
:10036000600103E275000102E201016201015A012C
:10037000015C0101610103E2000102E00102E1759B
:100380000103E10103E06439010128000102E26098
:100390000103E255000102E201016201015A01017B
:1003A0005901015F0103E2000102E00102E1750170
:1003B00003E10103E06632010128000102E260016D
:1003C00003E26F000102E201016201015A01015CD6
:1003D00001015A0103E2000102E00102E17501039B
:1003E000E10103E06432010128000102E26001033F
:1003F000E24F000102E201016201015A01015901CB
:1004000001620103E2000102E00102E1750103E182
:100410000103E06563010128000102E2600103E2DB
:1004200069000102E201016201015A01015B01015F
:100430005E0103E2000102E00102E1750103E10156
:1004400003E06363010128000102E2600103E24965
:10045000000102E201016201015A01016201015C35
:100460000103E2000102E00102E1750103E1010381
:10047000E06538010128000102E2600103E2650045
:100480000102E201016201015A01015B01015A010D
:1004900003E2000102E00102E1750103E10103E072
:1004A0006338010128000102E2600103E245000116
:1004B00002E201016201015A0101620101620103CC
:1004C000E2000102E00102E1750103E10103E065E0
:1004D00030010128000102E2600103E26100010233
:1004E000E201016201015A01015A01015C0103E2CA
:1004F000000102E00102E1750103E10103E0633064
:10050000010128000102E2600103E241000102E270
:1005100001016201015901016101015A0103E20077
:100520000102E00102E1750103E10103E062300133
:100530000128000102E20102E1380103E10103E2C6
:10054000000102E201016201015901015F01015E46
:100550000103E2000102E00102E1750103E1010390
:10056000E06537010128000102E2630103E20001B6
:1005700002E201016201015A01015B01015901031B
:10058000E2000102E00102E1750103E10103E06123
:10059000370101280036000102E201016201015920
:1005A00001015E01015F0103E200010118613301F5
:1005B0000128000102E2330103E2000102E201012D
:1005C0005901015D01015E0103E20057696E646F2C
:1005D0007773004D61634F53004C696E7578005519
:1005E0004900495400454E00430B29003A003B00A6
:1005F0003C003D003E003F004000410042004300FF
:1006000044004500115004513A0B3B0B3C0B3D0B91
:100610001D011C0135001E001F00210022002300C7
:1006200024002500260027002D002A0046004B004C
:1006300000005400550056003E0B3F0B2B001400E9
:100640001A00200015001C0018000C0012001300F6
:100650002F002E0049004A0053006000610057003F
:100660001B01400B390004001600080009001700A8
:100670000D000E000F003300340030004C004D0020
:100680005F005D005E0058000601410BE1001D00A7
:100690001B00070019000A000B001000370038008B
:1006A000E5002800310052004E005C005B00630052
:1006B0001901420BE000E200E30006002C000500F7
:1006C000110036000351E600E700E400500051003D
:1006D0004F0059005A0062000100010001000100B2
:1006E0000100010001000100010001000100010002
:1006F0000100010012500100010001000100010091
:100700000100010031000100165D01000100185DCB
:10071000195D1A5D1B5D1C5D265D01000100010075
:1007200000000100010001000100010001000100C2
:100730000100175D0100010001000100010001003E
:100740001E5D1F5D010001000100010001000100AC
:100750000100010001000100010001000100010091
:10076000010001000100205D1D5D225D010001000E
:100770000100010001000100010001000100010071
:10078000010001000100010001000100255D235D61
:1007900001000100215D01000100010001000100D4
:1007A0000100010001000100010001000100010041
:1007B0000100245D010001000100010001000100B1
:1007C0000100010001000100010001000100010021
:1007D0000100010001000100010001000100010011
:1007E00001000100105001000100010001000100A2
:1007F0000100010035001E001F002100220023001F
:1008000024002500260027002D0001000100010022
:1008100000000100010001000100010001000100D1
:1008200001002000010001000100010001000100A1
:100830002F002E0001000100010001000100010055
:1008400001000100010001000100010001000100A0
:1008500001000100010033003400300001000100FC
:100860000100010001000100010001000100010080
:100870000100010001000100010001003700380003
:100880000100010031000100010001000100010030
:100890000100010001000100010001000100010050
:1008A000010036000100010001000100010001000B
:1008B0000100010001000100B500055D035D045D5C
:1008C0000100010001000100010001000100010020
:1008D00001000100085D0100010001000100005C51
:1008E00001001D030100010001000A5D010001007B
:1008F00001000100010001000100010001000100F0
:1009000000000100010001000100010001000100E0
:100910000100010001000100105D0E5D0F5D01008E
:1009200001000100010001000100010001000100BF
:100930004C02010001000C5D01000D5D0100010091
:10094000010001000100010001000100010001009F
:100950000100010001000100490101000100010046
:1009600001000100010001000100A80001000100D8
:10097000010001000B5D0100010001000100010008
:100980004902010001000100010001000100010015
:10099000010001000100010001000100010001004F
:1009A000010001000100010001000100065D075D7A
:1009B000010001000100010001000100010001002F
:1009C000010001000100010001000100010001001F
:1009D000010001000100010001000100010001000F
:1009E00001000100010001000100010001000100FF
:1009F00000000100010001000100010001000100F0
:100A000001000100010001000100010001000100DE
:100A100001000100010001000100010001000100CE
:100A200001000100010001000100010001000100BE
:100A300001000100010001000100010001000100AE
:100A4000010001000100010001000100010001009E
:100A5000010001000100010001000100010001008E
:100A6000010001000100010001000100010001007E
:100A7000010001000100010001000100010001006E
:100A8000010001000100010001000100010001005E
:100A90000100010001000100000000000000000052
:100AA0002A2B2800000000000000000000000000C9
:100AB00000000029000000002C1E342021222434D4
:100AC0002627252E362D3738271E1F2021222324A6
:100AD00025263333362E37381F0405060708090A42
:100AE0000B0C0D0E0F101112131415161718191ADE
:100AF0001B1C1D2F3130232D350405060708090A5C
:100B00000B0C0D0E0F101112131415161718191ABD
:100B10001B1C1D2F3130354C000000000000000070
:100B20000000000000000000000000007E0F00D464
:100B3000FFFFFFC7000000780403300000002C0313
:100B4000460061007400200042006F0074007400D1
:100B50006F006D006500640020004B0065007900A7
:100B600062006F0061007200640000000803420030
:100B700065006E0000000403090409023B00020145
:100B800000A0FA090400000103010100092111017C
:100B900000012240000705810308000A0904010042
:100BA0000103000000092111010001226D00070569
:100BB000820320000A1201100100000008DE08DE96
:100BC000C001000102030105010980A1018503198B
:100BD000012AB700150126B700950175108100C0E4
:100BE000050C0901A101850419012AA0021501269D
:100BF000A002950175108100C005010906A10185BB
:100C000005050719E029E7150025019508750181FB
:100C1000020507190029EF1500250195F0750181DE
:100C200002050819012905950575019102950175BF
:100C3000039101C005010906A101050719E029E793
:100C4000150025019508750181029501750881013E
:100C50000507190029FF150026FF00950675088174
:100C60000005081901290595057501910295017581
:100C7000039101C011241FBECFEFD0E2DEBFCDBF74
:100C800011E0A0E0B1E0E8E7F3E500E00BBF02C04F
:100C900007900D92A838B107D9F726E0A8E8B1E08F
:100CA00001C01D92A733B207E1F70E949F230C9465
:100CB00065290C9400008823C1F00E94270A813026
:100CC00041F0823049F48BEB95E00E94DC0C80E02F
:100CD000089583EB95E0F9CF80EE0E942A1581EE0E
:100CE0000E942A158AEA95E0F0CF0E94270A811116
:100CF000EECF81EE0E946E1580EE0E946E15E7CF5A
:100D00000E94270A813041F0823049F487E995E05A
:100D10000E94DC0C80E0089585E995E0F9CF82E837
:100D200095E0F6CF0E94270A813041F0823049F4E5
:100D30008FE695E00E94DC0C80E0089587E695E060
:100D4000F9CF84E595E0F6CF0E94270A813041F083
:100D5000823049F481E495E00E94DC0C80E0089543
:100D600083E395E0F9CF80E295E0F6CF0E949E1EE6
:100D70008272A1F00E94B21E0E94270A813041F0C7
:100D8000823049F48DE095E00E94DC0C80E008950B
:100D900084E095E0F9CF81EF94E0F6CF0E94B21E97
:100DA0000E94270A813029F0823031F48EED94E0E0
:100DB000EBCF85ED94E0E8CF82EC94E0E5CF0E94A4
:100DC0009E1E8272A1F00E94B21E0E94270A8130EC
:100DD00041F0823049F48FEA94E00E94DC0C80E01C
:100DE000089586EA94E0F9CF83E994E0F6CF0E9473
:100DF000B21E0E94270A813029F0823031F480E847
:100E000094E0EBCF87E794E0E8CF84E694E0E5CF89
:100E10000E949E1E8272A1F00E94B21E0E94270AAA
:100E2000813041F0823049F481E594E00E94DC0C8D
:100E300080E0089588E494E0F9CF85E394E0F6CF6C
:100E40000E94B21E0E94270A813029F0823031F4BC
:100E500082E294E0EBCF89E194E0E8CF86E094E091
:100E6000E5CF0E949E1E8272A1F00E94B21E0E94D7
:100E7000270A813041F0823049F483EF93E00E94E9
:100E8000DC0C80E008958AEE93E0F9CF87ED93E0E3
:100E9000F6CF0E94B21E0E94270A813029F08230CC
:100EA00031F484EC93E0EBCF8BEB93E0E8CF88EA6E
:100EB00093E0E5CF0E949E1E8272A1F00E94B21EB6
:100EC0000E94270A813041F0823049F485E993E09D
:100ED0000E94DC0C80E008958CE893E0F9CF89E76C
:100EE00093E0F6CF0E94B21E0E94270A813029F0BB
:100EF000823031F486E693E0EBCF8DE593E0E8CFE6
:100F00008AE493E0E5CF0E94270A813041F08230E5
:100F100049F487E393E00E94DC0C80E008958EE2C0
:100F200093E0F9CF8BE193E0F6CF0E94270A81305E
:100F300041F0823049F488E093E00E94DC0C80E0CC
:100F400008958FEF92E0F9CF8CEE92E0F6CF8823F0
:100F500071F00E949E1E827241F081EE0E942A155D
:100F600084E30E942A1580E008958FE1FACF0E9461
:100F70009E1E827239F084E30E946E1581EE0E94FB
:100F80006E15F1CF8FE1FBCFCF93882369F00E94DC
:100F90009E1EC82F827259F00E94B21E81E00E94EC
:100FA0005B068C2F0E94AF1E80E0CF91089588EEE3
:100FB00092E00E94DC0CF8CF0E949E1E827231F0FB
:100FC00084EE92E00E94DC0C80E0089580EE92E0D6
:100FD000F9CFCF930E949E1EC82F827261F00E94AB
:100FE000B21E8CED92E00E94DC0C8C2F0E94AF1E92
:100FF00080E0CF91089588ED92E00E94DC0CF8CF5C
:101000000E949E1E827231F084ED92E00E94DC0C00
:1010100080E0089580ED92E0F9CF0E949E1E8272DA
:1010200031F08CEC92E00E94DC0C80E0089588ECBA
:1010300092E0F9CFCF930E949E1EC82F827261F07A
:101040000E94B21E84EC92E00E94DC0C8C2F0E9465
:10105000AF1E80E0CF91089580EC92E00E94DC0CFE
:10106000F8CF0E949E1E827231F08CEB92E00E94BB
:10107000DC0C80E0089588EB92E0F9CFCF930E94DA
:101080009E1EC82F0E94B21E8C2F827251F08EEAD3
:1010900092E00E94DC0C8C2F0E94AF1E80E0CF916A
:1010A00008950E940807F7CFCF930E949E1EC82F75
:1010B0000E94B21E8C2F827241F00E9495078C2FE5
:1010C0000E94AF1E80E0CF910895C6FD04C08C2F12
:1010D0008570853029F48AEA92E00E94DC0CEFCF1B
:1010E0000E94DF06ECCFCF930E949E1EC82F0E9465
:1010F000B21E8C2F827251F080EA92E00E94DC0CCA
:101100008C2F0E94AF1E80E0CF910895C6FD04C0D1
:101110008C2F8570853019F48CE992E0EFCF82E94D
:1011200092E0ECCFCF93DF93D82F0E949E1EC82F62
:101130000E94B21E8C2F827251F08D2F0E94800669
:101140008C2F0E94AF1E80E0DF91CF9108950E9406
:101150005A07F6CFCF93DF93D82F0E949E1EC82F39
:101160000E94B21E8C2F827251F08D2F0E94920627
:101170008C2F0E94AF1E80E0DF91CF910895C6FDB5
:1011800004C08C2F8570853029F488E892E00E9495
:10119000DC0CEECF0E943107EBCFCF93DF93D82F3B
:1011A0000E949E1EC82F0E94B21E8C2F827251F088
:1011B0008D2F0E94A4068C2F0E94AF1E80E0DF912D
:1011C000CF910895C6FD04C08C2F8570853029F419
:1011D0008EE792E00E94DC0CEECF0E94B606EBCFC9
:1011E000CF930E949E1EC82F0E94B21E8C2F827227
:1011F00051F08AE792E00E94DC0C8C2F0E94AF1E17
:1012000080E0CF910895C6FD04C08C2F8570853095
:1012100019F480E792E0EFCF8CE692E0ECCFCF9329
:101220000E949E1EC82F0E94B21E8C2F827251F007
:1012300082E692E00E94DC0C8C2F0E94AF1E80E0C0
:10124000CF910895C6FD04C08C2F8570853019F4A8
:1012500088E592E0EFCF84E592E0ECCF0E949E1EFD
:10126000827231F08AE492E00E94DC0C80E0089502
:1012700086E492E0F9CFCF930E949E1EC82F81E0B2
:10128000C6FF0FC00E94B21EC27299F00E94270AC8
:10129000813049F0823051F483E392E00E94DC0C0B
:1012A00080E0CF9108958AE292E0F8CF87E192E062
:1012B000F5CFCF910C948307CF930E949E1EC82F29
:1012C00081E0C6FF0FC00E94B21EC27299F00E9458
:1012D000270A813049F0823051F484E092E00E9484
:1012E000DC0C80E0CF9108958BEF91E0F8CF88EE91
:1012F00091E0F5CFCF910C949507CF930E949E1E5D
:10130000C82F81E0C6FF0FC00E94B21EC27299F0C2
:101310000E94270A813049F0823051F485ED91E036
:101320000E94DC0C80E0CF9108958CEC91E0F8CF26
:1013300089EB91E0F5CF0E94270A813029F08230B5
:1013400031F486EA91E0ECCF8DE991E0E9CF8AE8CB
:1013500091E0E6CFCF930E949E1EC82F81E0C6FF8A
:101360000FC00E94B21EC27299F00E94270A8130FB
:1013700049F0823051F487E791E00E94DC0C80E074
:10138000CF9108958EE691E0F8CF8BE591E0F5CF0F
:101390000E94270A813029F0823031F488E491E0FC
:1013A000ECCF8FE391E0E9CF8CE291E0E6CFCF93F1
:1013B0000E949E1EC82F81E0C6FF0FC00E94B21E71
:1013C000C27299F00E94270A813049F0823051F4AC
:1013D00089E191E00E94DC0C80E0CF91089580E1EA
:1013E00091E0F8CF8DEF90E0F5CF0E94270A813091
:1013F00029F0823031F48AEE90E0ECCF81EE90E07B
:10140000E9CF8EEC90E0E6CF0E949E1E86FF14C0CE
:101410000E94B21E0E94270A813041F0823049F4B6
:101420008BEB90E00E94DC0C80E008958DEA90E068
:10143000F9CF88E990E0F6CF81E008950C94330B62
:101440000C94340B0C94D50B8093880108958091F3
:10145000880108959B01AC01F89460E079E08DE388
:1014600090E00E94F8282150310941095109569510
:101470004795379527953093CD002093CC0082E097
:101480008093C80088E98093C90086E08093CA00F1
:101490001092CB011092CC011092890110928A0116
:1014A0007894089560E875E280E090E00E942A0A4E
:1014B0000C94300B9091CC019F5F983208F090E033
:1014C0002091CB012917E1F3E92FF0E0E353FE4F20
:1014D00080839093CC0188EB8093C9000895CF93CB
:1014E000DF93EC01FE0184912196882361F00E9434
:1014F0005A0AFFEF29EF80E0F15020408040E1F7E9
:1015000000C00000EFCFDF91CF910895CF93DF931C
:10151000D82FC92F2FEF81EE94E0215080409040CA
:10152000E1F700C000008CE60E945A0A2FEF89EF15
:1015300090E0215080409040E1F700C000008D2FE6
:101540009C2F0E946F0A8AE0DF91CF910C945A0A77
:101550002FEF81EE94E0215080409040E1F700C0F1
:1015600000008FE60E945A0A2FEF89EF90E0215089
:1015700080409040E1F700C00000809188018823FE
:1015800029F0813051F08BEC95E002C089ED95E0B7
:101590000E946F0A8AE00C945A0A83ED95E0F8CF16
:1015A00080918801882329F0813041F010928801D0
:1015B00003C081E0809388010C94A80A82E0FACFEE
:1015C0008F938FB78F938BB78F939F93EF93FF93E7
:1015D0009091CC018091CB0198130CC088E9809345
:1015E000C900FF91EF919F918F918BBF8F918FBF1A
:1015F0008F9118958091CB018F5F883208F080E041
:10160000E82FF0E0E353FE4F90819093CE0080935B
:10161000CB01E7CF2F932FB72F932BB72F938F9318
:101620009F93EF93FF939091CE0080918A018F5FFB
:10163000803408F080E020918901281739F0E82FE4
:10164000F0E0E557FE4F908380938A01FF91EF9180
:101650009F918F912F912BBF2F912FBF2F91189575
:1016600080E00C94240A08959C01FB018281F90119
:10167000E850FD45EF31F10588F5E959F64D0C9438
:101680001A29882309F46FC00E94D00A80E00895C7
:101690000C945B060C9480060C94A7070C94C4076A
:1016A0000C94DC070C94E9070C9400080C940D08CA
:1016B0000C941A080C9431080C943E080C945408AD
:1016C0000C9473080C9492080C94AA080C94CD08FE
:1016D0000C94F0080C940F090C942E09882309F43B
:1016E00041C021323105E1F190F42C30310591F106
:1016F00038F42430310551F12830310549F108958D
:101700002231310549F12831310541F108952E305A
:10171000FDE53F07A9F040F42C30EDE53E0761F010
:101720002D303D4559F008952F309DE5390751F092
:1017300020313D4549F008950C94B6060C94DF061F
:101740000C9408070C9431070C945A070C943B092D
:101750000C945C090C947D090C94AA090C94D7098B
:101760000C94040A81E008950F931F93CF93DF93A5
:101770008B01D82FC92F0E94531F813081F08230F6
:1017800089F0811104C085EE95E00E94860AB801B7
:101790008D2F9C2FDF91CF911F910F91089582EE95
:1017A00095E0F3CF8FED95E0F0CF089581E00895B7
:1017B00008950C94D80B1F93CF93DF9300D000D0E3
:1017C0000F92CDB7DEB749835A836B8330914E05B4
:1017D00089819A8131111DC06623B9F02223A9F0B5
:1017E0000E94011E182F682F89819A810E94AA1DCC
:1017F00069817A81812F0F900F900F900F900F9039
:10180000DF91CF911F910C944B0D0E94D81D182F82
:10181000EFCF0E94011E69817A81EDCFFC01262F56
:10182000408151816281738184810C94DB0BCF9361
:10183000DF93D82FC92F60E00E940E0C6D2F7C2FF4
:10184000DF91CF910C94D90BFF920F931F93CF93FD
:10185000DF93E82FF0E0E856F54FF490C82FC695D7
:10186000C695C695D0E0FE01E85DF44F04918770FF
:1018700010E0082E02C0159507950A94E2F7017052
:101880001127C85ED44FFE01C491D0E002C0D595A7
:10189000C7958A95E2F7C170DD270115110519F08A
:1018A00081EE0E942A15209719F086EE0E942A15D3
:1018B0008F2D0E949615CD2B19F086EE0E946E1585
:1018C000012B41F081EEDF91CF911F910F91FF909D
:1018D0000C946E15DF91CF911F910F91FF90089599
:1018E000EF92FF920F931F93CF93DF938C01F62E0D
:1018F0008AE0E82EF8018491882309F456C08130EB
:1019000009F04FC0E8012196FE018491813099F4DD
:101910002196FE0184910E9496158E010F5F1F4F44
:101920008F2D882339F3EFE9FFE03197F1F700C0FD
:1019300000008150F6CF823039F4E8012296FE0192
:1019400084910E942A15E9CF833039F4E801229668
:10195000FE0184910E946E15E0CF8430F1F6E8011B
:101960002296FE01249180E090E0FE013196205302
:10197000330B2A30310550F0009779F2EFE9FFE0A0
:101980003197F1F700C000000197F6CFE89EA00163
:10199000E99E500D1124C901840F951F2491EF0178
:1019A000E4CF0E94240CE801B8CFDF91CF911F91C2
:1019B0000F91FF90EF90089560E00C94700C0E94DE
:1019C0009E1F811102C00E943B200C94520A0C946D
:1019D0001E0A81E008950C94E90CCF93C82F0E9451
:1019E000220A8C2FCF910C94EB0C08950E945E1864
:1019F0000E94F50C2FEF84E39CE021508040904042
:101A0000E1F700C000000C94D6210F931F93CF93F1
:101A1000DF93EC0161E00E940E0C8C01BE010E947C
:101A20002813882359F1BE01C8010E94200A882387
:101A300029F1BE01C8010E9431118823F9F0BE01CD
:101A4000C8010E9475118823C9F0BE01C8010E9417
:101A50004812882399F08A81882339F001158CE592
:101A6000180751F00E3D1C4579F0CE01DF91CF9162
:101A70001F910F910C94D60B0E94F60C80E0DF9121
:101A8000CF911F910F9108950E943B20F7CF90E0D6
:101A900080E008950895972F70E024E1929F600DF3
:101AA000711D1124FB0198E7899FE00DF11D1124A0
:101AB000EE0FFF1FE851FA4F859194910895FC01B4
:101AC000EE0FFF1FE85CF44F859194910895CF933A
:101AD000DF930E944B0D0E94720EEC01811521E5EF
:101AE000920708F048C0811530E5930708F0AFC0B1
:101AF000803E910518F5803C910508F096C0883A23
:101B0000910570F4853A910508F08CC081309105FB
:101B100031F10497813A910510F1D0E0C0E01FC087
:101B20008F3B9105D1F3C85AD0E0CC0FDD1FCF5EBB
:101B3000DE4F0990D881C02DD46411C0811540E3D7
:101B4000940788F4C11580E2D80708F074C0C83E35
:101B5000D10528F0CE019A9581159F41F0F6CE016E
:101B6000DF91CF910895811530E4930708F466C0A2
:101B7000DF70D06AF4CF8115964560F5C11585E513
:101B8000D80708F096C0C11594E5D907F0F4C1153F
:101B900023E5D20708F079C0C11532E5D30708F470
:101BA0006FC0CE018370992721E030E002C0220F80
:101BB000331F8A95E2F7C695C69540E2C49FE001BF
:101BC0001124C22BD32BDC68CACFDC2FCC27C46FE7
:101BD000D06AC5CFC1158AE5D80788F4C11599E543
:101BE000D90708F071C0CE0198558F3F910511F0CB
:101BF00008F093CFDC2FCC27C06FD06AB0CFCE01D6
:101C000090568115904208F088CF8D2F8F710E94D9
:101C10000A0F90E0982F882788279F719C012C2B12
:101C2000E90150C0A497D0649ACF805C91090E94CA
:101C30005F0DEC0194CFCE019F70F9CF9927D3FFB0
:101C400003C0EC01D86C8BCFEC01D06C88CF74E072
:101C5000969587957A95E1F783702C2F2695269592
:101C6000237040E2249F90011124382B8C2F837025
:101C7000C1E0D0E002C0CC0FDD1F8A95E2F7A1CF12
:101C8000DC2FCC27C16FD06A6ACFCE018370992731
:101C900021E030E002C0220F331F8A95E2F7C6959B
:101CA000C69580E2C89FE0011124C22BD32BDA68CD
:101CB00056CF8C2F0E940A0FC82FD0E0DC2FCC27E4
:101CC000CC27DF71D0624BCF8C2F8F700E940A0F10
:101CD00034E0D695C7953A95E1F7CF70DC2FC82F41
:101CE000D0693DCF803E910599F1C8F481339105CB
:101CF00009F476C048F48932910509F46AC08A3241
:101D0000910509F474C0089589339105D1F08238A2
:101D10009105B9F08533910509F454C00895843EC6
:101D2000910599F138F4823E9105F9F0833E9105D1
:101D300009F10895863E910599F1873E9105B9F123
:101D40000895209105062370A1F080EE90E008959B
:101D50002091050620FD52C03091060630FF09C0D3
:101D600024FF4FC090E080E004C02091050622FDD2
:101D7000F7CF08952091050622FD46C03091060652
:101D800030FDE3CF24FFF5CFEDCF2091060621FFF4
:101D9000F0CF8091050684FDE5CF87EE90E00895B1
:101DA0002091050623FFE5CF24FDDCCFF6CF20915F
:101DB000050623FD2CC03091060631FFE3CF84EEEB
:101DC00090E008952091050625FFD3CF89E290E0A9
:101DD00008952091050625FFCCCF85E390E0089576
:101DE0002091050626FFC5CF8AE290E00895209154
:101DF000050626FFBECF81E390E0089589E390E0D9
:101E0000089583EE90E0089582EE90E0089586EEC6
:101E100090E008959091050692FF06C0282F287142
:101E20002830F9F4877F846093FF06C0282F28713B
:101E30002831F1F4877E84612091060620FF06C0D8
:101E4000382F38713830D9F4877F816021FF06C080
:101E5000282F28712831D1F4877E816194FD877EF7
:101E60000895282F24712430F9F68B7F8860DCCF09
:101E7000282F2471243101F78B7E8861DDCF382F24
:101E80003171313019F78E7F8860E0CF282F2171B2
:101E9000213121F78E7E8861E1CFCF93DF9300D08F
:101EA00000D0CDB7DEB794E0899FF0011124EB504C
:101EB000FE4F80819181A281B381BC01CD010F9041
:101EC0000F900F900F90DF91CF910895089580EAC1
:101ED0008A95F1F70895CF93DF93C3E5D1E029E523
:101EE00031E041E050E08991E82FE295EF70A1E206
:101EF000AE0FB0E0FC918F70BA0101C0660F8A95F9
:101F0000EAF7962F90959F239C93EE5DF0E08081F9
:101F1000862B80832C173D0731F7CFE3D1E023E5F3
:101F200031E041E050E08991E82FE295EF70A1E2C5
:101F3000AE0FB0E0FC918F70BA0101C0660F8A95B8
:101F4000EAF7962F90959F239C93EE5DF0E08081B9
:101F5000862B80832C173D0731F788E1EDE0F2E016
:101F6000DF01982F1D929A95E9F7E5EFF1E0DF0187
:101F70001D928A95E9F786E00E948610DF91CF9145
:101F80000C94DF0C2F923F924F925F926F927F9250
:101F90008F929F92AF92BF92CF92DF92EF92FF9279
:101FA0000F931F93CF93DF9300D000D00F92CDB744
:101FB000DEB783E5C82E81E0D82E9DE0E92E92E0C1
:101FC000F92E712C812C912C54018394F60181916E
:101FD0006F01F82FF295FF70FB830F2F0F5D10E05C
:101FE000F80190818F7021E030E002C0220F331F92
:101FF0008A95E2F73A832983822F892B80833B815C
:102000003E5D832F90E09D838C83FC018081622E56
:102010006094862180830E94670FAFE3B1E090E077
:1020200080E040E050E0BA015D90E52DE295EF7070
:10203000E05EF0E0208130E0E52DEF7002C03595E4
:102040002795EA95E2F720FD5AC014012501082ED4
:1020500004C0220C331C441C551C0A94D2F742299C
:10206000532964297529019684319105E9F6F8010F
:10207000808168226082EC81FD818081F9818F2BD3
:10208000EC81FD818083F70180819181A281B38100
:10209000481759076A077B07B9F140835183628368
:1020A000738381E0782AF4E0EF0EF11C29E5C21673
:1020B00021E0D20609F08ACF272D46E065EF71E0D6
:1020C0008DE092E00E9487100E94E70C872D0F9010
:1020D0000F900F900F900F90DF91CF911F910F9164
:1020E000FF90EF90DF90CF90BF90AF909F908F9038
:1020F0007F906F905F904F903F902F900895212C8C
:10210000312C412C512CABCF80E0CCCF0895FF92E5
:102110000F931F93CF93DF93F82E092F162FD72FEE
:10212000C42F222349F081E0809327020E94972147
:102130009093260280932502809127028823A1F0A4
:1021400080912502909126020E94A321069760F0BB
:10215000EF2DF02FA12FBD2F90E080E0D0E08C1765
:102160009D0744F010922702DF91CF911F910F91AC
:10217000FF90089501911191219131910D931D933B
:102180002D933D930196EBCF0F931F93CF93DF9346
:10219000C62FD42F022FFC0182818823C9F06093BF
:1021A0002A020E949721909329028093280280E2BC
:1021B0008C0F883008F050C0C77081E001C0880FD4
:1021C000CA95EAF7DF91CF911F910F910C94A91551
:1021D00010912A02161335C080912802909129028D
:1021E0000E94A321883C910560F5C0E2CD0F1D1728
:1021F000B9F080E2810F883040F4177081E001C0AF
:10220000880F1A95EAF70E94B015C83048F481E0AB
:102210009D2F977001C0880F9A95EAF70E94A91523
:10222000802F0E949615C830B8F4D77081E001C0A5
:10223000880FDA95EAF7DF91CF911F910F910C94F7
:10224000B01580E28C0F883038F4C77081E001C08F
:10225000880FCA95EAF7EFCFDF91CF911F910F91C9
:1022600008959C01CB01233F4CE5340769F190F4BC
:10227000283DFCE53F0721F1293D4CE5340781F17C
:10228000273D3C45B1F0FC018281882361F1109229
:102290002A020895253FFCE53F07D1F0263F4CE593
:1022A0003407D1F0243F3C4571F727E245EE64EE58
:1022B00003C026E241EE61EE0E94C41080E0089562
:1022C00027E245EE65EEF8CF26E241EE60EEF4CF70
:1022D00026E241EE62EEF0CF27E245EE66EEECCF6D
:1022E00028E241E0EFCF81E00895CF93DF93EC0146
:1022F000FB018281882309F4C9C0C631FCE5DF07F0
:10230000E0F4C2309CE5D907F0F00E94B11F909331
:10231000060680930506C631ECE5DE0720F5C230DF
:10232000FCE5DF0798F480910506909106060E946F
:10233000BF1F0E945E1880E006C09E012A5F3C45D8
:102340002930310510F3DF91CF910895FE01E3505C
:10235000FC45809105068160E331F10588F4EA5778
:10236000F64D0C941A29CA5FDC45C930D105D8F660
:10237000C756D64DFE010C941A298091050682603D
:1023800080930506D0CF809105068460F9CF8091B7
:1023900005068860F5CF8091060681608093060669
:1023A000C2CF809106068260F9CF809105068061D8
:1023B000E7CF809105068062E3CF809105068064B7
:1023C000DFCF0E945E18809105068068D9CF80918A
:1023D00005068C60D5CF809106068360DFCF8091A3
:1023E00005068E7FCDCF809105068D7FC9CF809168
:1023F00005068B7FC5CF80910506877FC1CF809171
:1024000006068E7FCBCF809106068D7FC7CF809149
:1024100005068F7EB5CF809105068F7DB1CF809167
:1024200005068F7BADCF0E945E18809105068F77E1
:10243000A7CF80910506837FA3CF809106068C7F6E
:10244000ADCF8091050682FB992790F921E0922774
:1024500090FB82F990FB83F993CF80910606982F29
:10246000909591708E7F892B90FB81F997CF0E9478
:102470005E1890910506892F97FB87F9805880CFC9
:1024800081E00E943D204FCF80E0FBCF81E05BCF19
:10249000CF93DF93EB0186319C4511F50E949E1E80
:1024A0009A81992399F08A7A91E009F490E09093C7
:1024B0002B02811109C089E20E94791E0E94F01E40
:1024C00080E0DF91CF91089585E3F6CF80912B02D4
:1024D000811104C089E20E94801EF0CF85E3FBCF0A
:1024E00081E0EFCF08950895089508950F931F9305
:1024F000CF93DF93EC018B010E9472120E945E1851
:102500000E94701C08831983DF91CF911F910F9156
:1025100008958F929F92AF92BF92CF92DF92EF92E7
:10252000FF921F93CF93DF93EC017B01142F8090D8
:10253000D2059090D305A090D405B090D5050E9407
:102540005E180E94701C86E0180260011124CE15EE
:10255000DF05C1F40E945E188092D2059092D305E7
:10256000A092D405B092D505812FDF91CF911F9114
:10257000FF90EF90DF90CF90BF90AF909F908F90A3
:102580000C947312CE010E942418CC0DDD1DDFCFF8
:10259000EF92FF920F931F93CF93DF937C01EB0198
:1025A000BA01822FF801A881B9819281911103C0EB
:1025B000EA16FB06A9F096E0890290011124AD010C
:1025C000421B530B6417750791F086E001900D9242
:1025D0008A95E1F788819981820F931F9983888377
:1025E000DF91CF911F910F91FF90EF900895BF0160
:1025F000DF91CF911F910F91FF90EF900C94741287
:10260000CF92DF92EF92FF921F93CF93DF936C01F3
:10261000EB01142F7901842F0E9475128AEF1802A2
:10262000A0011124CC15DD0531F0FE01E40FF51FEA
:10263000828181110BC0F701D183C083DF91CF91DB
:102640001F91FF90EF90DF90CF900895EF01EACFB8
:102650000F931F93CF939C01FB0180912E05811155
:102660003CC0C281C11122C026304DE5340759F16A
:1026700048F423304DE5340781F024303D45D9F04E
:10268000C1E014C027303D45D9F760910001709139
:1026900001014FEF86E295E01DC06CE272E08CE232
:1026A00095E00E94761281E080932E058C2FCF91C9
:1026B0001F910F91089566E275E08CE295E00E940B
:1026C000761282E0F1CF609102017091030141E046
:1026D0008CE292E00E948912E9CFA90143505D4546
:1026E0004330510530F591E025303D4509F490E047
:1026F0002281291731F0813031F0823081F010923F
:102700002E05C0E0D3CF60912C0570912D0522E0FD
:1027100031E041E08CE292E00E940013F0CF609142
:102720002C0570912D0520E031E04FEF86E295E019
:10273000F3CF813071F0823009F0A2CF40910201D5
:10274000509103018B012FEF6CE275E086E295E07A
:102750000AC040910001509101018B0121E06CE21F
:1027600075E08CE292E00E94C8128ACF9093340503
:10277000809333050895E0913305F0913405309747
:1027800021F00190F081E02D099480E00895DC01B2
:10279000E0913305F0913405309799F08091100164
:1027A000882351F08091050687FF06C08C91119611
:1027B0008C93119785E08C930280F381E02DCD01FD
:1027C0000994089520913105309132052817390771
:1027D00071F09093320580933105E0913305F091CB
:1027E0003405309721F00680F781E02D0994089593
:1027F00020912F05309130052817390771F09093FB
:10280000300580932F05E0913305F0913405309722
:1028100021F00084F185E02D0994089585B7806842
:1028200085BF85B7806885BF0895089508950C9485
:10283000151408950C9419140E940E140E94161475
:102840000C94171481E008950C9422140E948E2198
:102850000E946B0F0E9408220C941A144F925F92F0
:102860006F927F929F92AF92BF92CF92DF92EF9240
:10287000FF920F931F93CF93DF9300D000D00F925E
:10288000CDB7DEB70E94C20F0E942414882309F43A
:102890008DC046E3A42E45E0B42E10E000E0902E5B
:1028A000802F0E944D0F6B017C01F50141905190EA
:1028B000619071905F014C145D046E047F0409F413
:1028C0006FC08091FF0581FD0E94660FB301A201D8
:1028D0004C255D256E257F2520E0412C512C3201B1
:1028E0004394DB01CA0184219521A621B721892BBC
:1028F0008A2B8B2B09F44CC029839A82C420D520C3
:10290000E620F72081E0CD28CE28CF2809F480E00A
:102910008B830E9497218160782F9D838C834981CE
:102920005A816B818D810E94FC14000F111F000FD2
:10293000111FF801EA5CFA4F80819181A281B38175
:1029400084259525A625B72580839183A283B3830B
:102950000E94BB13909135058917C9F10E94BB13E2
:10296000809335050F900F900F900F900F90DF918F
:10297000CF911F910F91FF90EF90DF90CF90BF907C
:10298000AF909F907F906F905F904F900C94ED0C64
:102990002F5F440C551C661C771C243109F0A1CF15
:1029A0000F5F1F4F0630110509F079CF8FEF898334
:1029B0008A831B820E9497218160782F9D838C835C
:1029C00049815A816B818D810E94FC14C1CF0F9087
:1029D0000F900F900F900F90DF91CF911F910F915B
:1029E000FF90EF90DF90CF90BF90AF909F907F903F
:1029F0006F905F904F900895CF93DF93CDB7DEB780
:102A00002B970FB6F894DEBF0FBECDBF4F8358870C
:102A100069877A878B871E8285E0FE013796DE0103
:102A2000119601900D928A95E1F749815A816B8147
:102A30007C818D819E812B960FB6F894DEBF0FBEF0
:102A4000CDBFDF91CF910C94C01AFC0180819181A0
:102A50000C94431ECF93C82F8823F1F18CEF8C0F79
:102A6000813AA0F46C2F80910401909105010E949D
:102A70005620882329F08C2F0E94801E0E94F01E71
:102A80008C2F0E94791ECF910C94F01E80E28C0F47
:102A9000883048F4C77081E001C0880FCA95EAF712
:102AA0000E94A11EF0CF8BE58C0F833038F42C2FC1
:102AB0002452330BC901CF910C94E213C85AC73189
:102AC00058F4EC2FF0E0EE0FFF1FE75AFE4F808125
:102AD0009181CF910C94F813CF910895882329F117
:102AE0009CEF980F913A20F40E94801E0C94F01EE7
:102AF00090E2980F983050F4877091E001C0990FE0
:102B00008A95EAF7892F0E94A71EF0CF9BE5980FC0
:102B1000933020F490E080E00C94E213885A8731DF
:102B200020F490E080E00C94F8130895CF93C82F20
:102B30000E942A15C93349F42FEF87EE93E0215004
:102B400080409040E1F700C000008C2FCF910C94A2
:102B50006E15882321F00E94A11E0C94F01E08958A
:102B6000882321F00E94A71E0C94F01E0895AF92B6
:102B7000BF92CF92DF92EF92FF920F931F93CF936A
:102B8000DF9300D000D00F92CDB7DEB76C016D831C
:102B90007983FC01058102950F70128111110E9449
:102BA000C31E0E94971EE82E882391F01123D1F0B6
:102BB0008981807F803421F08D81805E883090F023
:102BC00082E00E943B1F0E94971E91E0E82EE926BA
:102BD000A980A2949FE0A922B12CF501EE55F64DF3
:102BE0000C941A29E12CF4CF09810F70F981F07F40
:102BF00011F00295007F1123B1F0002361F08D8167
:102C0000805E883018F02D81211109C0802F0E942C
:102C1000A11E0E94F01E8D810E942A1515C0802FD2
:102C20000E94B51EF6CF8D810E946E15002361F0C3
:102C30008D81805E883018F04D81411133C0802F26
:102C40000E94A71E0E94F01E48E0A41AB10854E09A
:102C5000A516B10420F40E94BB130E94ED0CEE20D7
:102C600009F4CBC10E94931E80FDC7C1F6011282F8
:102C70000E948D1E0E949A1CC6010E9424180E9468
:102C80008D1E0F900F900F900F900F90DF91CF91AE
:102C90001F910F91FF90EF90DF90CF90BF90AF907A
:102CA0000C94CB1C802F0E94BB1ECCCF59815F702F
:102CB000F52E6981607F603219F0F29480EFF8227E
:102CC0007D81772369F0713049F1112391F100235F
:102CD00051F1F601858180FF9ECF8F70858323C0DF
:102CE000112381F0011106C00E94D71E8F290E9476
:102CF000A915AACF0130C1F70E94D71E8F290E94C3
:102D0000DD1EA2CF011106C00E94E61E8F2D0E947B
:102D1000B0159ACF013009F497CFF6CF112329F0DF
:102D2000063008F091CF8F2DE2CF053008F08CCF20
:102D3000EDCF002359F3FD81F93349F42FEF47EE2E
:102D400053E0215040405040E1F700C000008D8129
:102D50000E946E1579CF898186958695837069F07A
:102D6000813009F071CF8D8199819370111102C06A
:102D700090E080E00E94F81367CF8D819981937075
:102D8000111102C090E080E00E94E2135DCF8981C2
:102D9000837009F050C0111157CF4D81429546956F
:102DA0004770440F440F8D818F7090E0B0E0A0E039
:102DB000042E04C0880F991FAA1FBB1F0A94D2F7C4
:102DC0006D8100E010E0980164FF0FC00FE010E09B
:102DD00020E030E004C0000F111F221F331F4A956E
:102DE000D2F7009510952095309579817695769556
:102DF00073707D83B901A801482B592B6A2B7B2B5B
:102E000049835A836B837C835D8169817A818B815D
:102E10009C81523051F0533059F0513019F00E94DA
:102E2000121C12CF0E94EA1B0FCF0E943A1C0CCF3B
:102E30000E94E81B09CF112309F445C0698160FF96
:102E400003CF4D81429546954770440F440F8D81C5
:102E50008F7090E0B0E0A0E0042E04C0880F991FAE
:102E6000AA1FBB1F0A94D2F7ED8100E010E0980181
:102E7000E4FF0FC00FE010E020E030E004C0000FDE
:102E8000111F221F331F4A95D2F7009510952095E8
:102E90003095F981F695F695F370FD83B901A80197
:102EA000482B592B6A2B7B2B49835A836B837C835A
:102EB000F230A1F0F330C9F0F13049F0CB01BA01A2
:102EC0000E94591DC1CE798171FFBECEBACF6981F2
:102ED0007A818B819C810E94311DB6CE69817A8175
:102EE0008B819C810E94811DAFCE69817A818B810B
:102EF0009C810E94641CA8CE59815F705983112364
:102F000029F0852F0E949A1C8D81F1CE8D810E941F
:102F1000B01589810E94CB1C97CE6D81623F99F1DB
:102F200060F4603FD9F0613F39F1112309F444C0E6
:102F3000011171CE89818F7123C07D81733F41F171
:102F4000743F99F7112371F189818F7189830E94F0
:102F50009A1C63E089810E94261F76CE112341F0DE
:102F6000053008F071CE89818F710E94001D6CCEF2
:102F7000063008F069CEF7CF89818F71112351F2A5
:102F80000E949A1C61CE89818F711123C9F3C2CF2F
:102F9000112329F089818F710E94751C55CE0E94E2
:102FA000701C52CE81E00E943B1F023008F44CCED0
:102FB00082E00E943B1F48CE002361F09D8199333F
:102FC00009F0C5CEEFEFF7EE23E0E150F0402040EE
:102FD000E1F7BBCE89818F719DCF49814F706D81A3
:102FE000C6010E94470D0E945A1B2ECE49814F7088
:102FF0006D81C6010E944A0D27CE0F900F900F9051
:103000000F900F90DF91CF911F910F91FF90EF9054
:10301000DF90CF90BF90AF9008950F931F93CF9301
:10302000DF93EC01688179818A810E944F1E8C01B7
:103030000E94A91D0E94E71BB801CE01DF91CF912C
:103040001F910F910C94B715CF93DF93EC018B81F7
:103050009C81892B29F08981988189238F3F59F49C
:10306000DF91CF910895CE010E940D18CE01DF911E
:10307000CF910C94170CCE010E94050D8111F3CF56
:103080000E94971E882361F38A81882349F382E096
:10309000DF91CF910C943B1F0E94C31E0E94D41E4F
:1030A0000E94F01E90E080E00E94E21390E080E039
:1030B0000C94F8130E94871E0C944C180E94B21EA8
:1030C0000C945A18282F892F82958F70903C80F489
:1030D0008A30B0F4843020F4823090F480E0089597
:1030E0008630E1F781E0283E88F0213FB9F70EC035
:1030F0008C3011F08F3091F793FB882780F9089579
:1031000081E0203F39F018F4283E40F70895243F2D
:1031100029F7FCCF08950E94431E0C946218CF93A8
:10312000DF9300D000D00F92CDB7DEB70F900F9095
:103130000F900F900F90DF91CF910895CF93DF9371
:1031400000D000D000D0CDB7DEB726960FB6F894E9
:10315000DEBF0FBECDBFDF91CF9108951F93CF93F8
:10316000DF93E0914F0516E0809150058E1304C067
:10317000DF91CF911F910895CE2FD0E01E9FF001D7
:103180001124EF5AFA4F4081518162817381848109
:1031900095810E949E18FE013196E770E5CF40911F
:1031A000810550918205609183057091840580911D
:1031B0008505909186050C949E181F93CF93DF93FD
:1031C00080918605807FA9F480918305882389F00A
:1031D00080914F05C09150057091810560918205E5
:1031E000A0918405B0918505D62FD72316E0C8138A
:1031F00004C0DF91CF911F91089590E0109711F0D6
:10320000DF3F19F401968770F2CF189F9001199F44
:10321000300D1124F901EF5AFA4F41816413F2CFB6
:1032200040814713EFCF42814111ECCF438154815C
:103230004A1B5B0B483C510528F7809186058F702F
:10324000806180938605F901EA5AFA4F80818F7078
:103250008061808381E895E00E942418DF91CF91FE
:103260001F910C94AE18AF92BF92CF92DF92EF9263
:10327000FF920F931F93CF93DF93CDB7DEB72B97BA
:103280000FB6F894DEBF0FBECDBF8C0185E0F8010C
:10329000DE01179601900D928A95E1F7F8014081C1
:1032A0005181E28081E8A82E85E0B82E60918405E6
:1032B000709185056115710549F090918105209106
:1032C0008205892F82238F3F09F045C1EE2009F442
:1032D00053C14F8358878F8198850E948B18F82E91
:1032E000882309F449C186E0F801A1E8B5E001901E
:1032F0000D928A95E1F781E895E00E9425150E94DC
:10330000DD1826C180918605382F307F683C710515
:1033100008F07CC03111B5C0FE2C251324C09413D5
:1033200022C0E11020C08F708061809386050E94CA
:10333000CF1881E895E00E94241880918605F80155
:1033400085838F2D2B960FB6F894DEBF0FBECDBFB1
:10335000DF91CF911F910F91FF90EF90DF90CF9071
:10336000BF90AF900895CD2829F0842F85238F3FFB
:1033700009F084C080E0F82FF170DF2EE0914F0556
:103380002091500536E080FD1CC0EE20D1F28091E6
:103390008605816080938605F12CD3CF8E2F90E037
:1033A0003E9FF0011124EF5AFA4F6181651306C068
:1033B0006081641303C062816E11E7CFFC01319616
:1033C000E770E213EBCF4F8358878F8198850E9477
:1033D000431E292F22952F70903260F0225F2F70AC
:1033E000223078F49F7051F0F8019581907F31F48C
:1033F000D12C0AC09F7011F08823D1F3805E8830F1
:10340000B8F3C8010E942418FD2C9BCF31116EC067
:103410006E2D7A858B850E948F1881E895E00E9439
:10342000241886E0F50111928A95E9F70E94CF18D9
:10343000B3CF86E0F801A1E8B5E001900D928A953E
:10344000E1F77FCF4F8358878F8198850E948B1833
:1034500081113DC080918605816080938605C801F9
:103460000E9424186ECF6E2D7A858B850E948F184E
:1034700086E0F50111928A95E9F76AC081E08E2510
:103480007ACF251306C0941304C0F801EE2009F486
:1034900053C04F8358878F8198850E948B1888234B
:1034A00009F46AC0EE2009F467C080918605803275
:1034B00070F020918105309182053A8329831B8227
:1034C000DD82CC828E83CE0101960E94241886E094
:1034D000F801A1E8B5E001900D928A95E1F70E940C
:1034E000DD180E94CF18FF24F3942BCF2513D1CFE2
:1034F0009413CFCFE110CDCFF8018583C8010E948E
:10350000241886E0F50111928A95E9F71ACF251360
:1035100099CF941397CF8091860580FD8ACF982FFD
:10352000907F09F486CFF8018583903F31F0982F82
:10353000907F905F8F70892B8583C8010E9424182B
:1035400086E0F801A1E8B5E001900D928A95E1F7D7
:103550000E94CF18F6CEC380D480F0908305F60188
:10356000E61BF70BBF01F110CDCE683C710508F0EA
:103570007ACFFE2CE110CBCFC8010E942418B3CF24
:103580001F93CF93DF93CDB7DEB72C970FB6F89488
:10359000DEBF0FBECDBF4F83588769877A878B8781
:1035A0009C87CE0107960E943319882369F08A858B
:1035B0009B85892B39F058854F81852F84238F3F38
:1035C00009F071C016E05FC086E0FE013796DE01AB
:1035D000119601900D928A95E1F78A859B85892B3A
:1035E00089F38F81988589238F3F61F3209150055E
:1035F00030E0C90101968770992740914F0548171F
:10360000190671F40E945E181092500510924F0531
:1036100086E0E1E8F5E0DF011D928A95E9F7D2CF77
:1036200096E0929FD001939FB00D1124AF5ABA4FEC
:10363000FE01319601900D929A95E1F78093500525
:103640000E94AE18BFCF819FC00111248F5A9A4F9C
:103650000E9433198823E9F0E0914F051E9FF00185
:103660001124EF5AFA4F4081518162817381848124
:1036700095810E949E1880914F0590E00196877079
:10368000992780934F0580914F059091500589139C
:10369000DACF2C960FB6F894DEBF0FBECDBFDF9108
:1036A000CF911F91089569857A858B859C850E94AD
:1036B0009E1888CFEF92FF920F931F93CF93DF93C3
:1036C0008C01892B89F0F12CEE24E394E8012196FA
:1036D000F8018491843709F458C0A0F4823009F4C9
:1036E0003FC048F48130D1F0DF91CF911F910F910D
:1036F000FF90EF9008959CEF980F9037A8F70E94E5
:103700002A150AC0853709F44EC09CE7980F9037F8
:1037100058F78F770E946E158E0116C00E5F1F4FEF
:10372000FE01849190E2980F983060F48770FE2D2E
:1037300001C0FF0F8A95EAF78F2F0E94C61E0E94D4
:10374000F01E02C00E942A158F2D882309F4BECFD7
:10375000EFE9FFE03197F1F700C000008150F5CFAD
:103760000E5F1F4FFE01849190E2980F983050F445
:103770008770FE2D01C0FF0F8A95EAF78F2F0E94F8
:10378000CC1EDDCF0E946E15DFCF0E5F1F4FFE01F6
:10379000C491CC23C9F28FE99FE00197F1F700C0F3
:1037A0000000C150F6CF0E5F1F4FFE01F490CCCF4A
:1037B00008950C94D81B0E94D91B6093D605709372
:1037C000D7058093D8059093D9050C944C1808958B
:1037D0000C94DB1BCF93DF9300D000D0CDB7DEB7C6
:1037E00069837A838B839C838091D6059091D705DA
:1037F000A091D805B091D90529813A814B815C818E
:10380000282B392B4A2B5B2B29833A834B835C83F0
:10381000CA01B9010F900F900F900F90DF91CF91D7
:103820000C94DB1BCF93DF9300D000D0CDB7DEB775
:1038300069837A838B839C838091D6059091D70589
:10384000A091D805B091D90529813A814B815C813D
:10385000282339234A235B2329833A834B835C83C0
:10386000CA01B9010F900F900F900F90DF91CF9187
:103870000C94DB1BCF93DF9300D000D0CDB7DEB725
:1038800069837A838B839C838091D6059091D70539
:10389000A091D805B091D90529813A814B815C81ED
:1038A000282739274A275B2729833A834B835C8360
:1038B000CA01B9010F900F900F900F90DF91CF9137
:1038C0000C94DB1B0C94B40B0E94621C6093D20519
:1038D0007093D3058093D4059093D5050C944C1820
:1038E00060E070E0CB010C94641C0F931F93CF93A6
:1038F000DF9300D000D0CDB7DEB741E050E060E00C
:1039000070E08A019B0104C0000F111F221F331FAA
:103910008A95D2F709831A832B833C83C901B801A6
:103920000F900F900F900F90DF91CF911F910F91FB
:103930000C94641C0F931F93CF93DF9300D000D09F
:10394000CDB7DEB741E050E060E070E004C0440F66
:10395000551F661F771F8A95D2F78091D2059091E7
:10396000D305A091D405B091D5058A019B01082B00
:10397000192B2A2B3B2B09831A832B833C83C901E8
:10398000B8010F900F900F900F90DF91CF911F9182
:103990000F910C94641C0F931F93CF93DF9300D06F
:1039A00000D0CDB7DEB741E050E060E070E004C089
:1039B000440F551F661F771F8A95D2F74095509583
:1039C000609570958091D2059091D305A091D40512
:1039D000B091D5058A019B01082319232A233B2393
:1039E00009831A832B833C83C901B8010F900F9080
:1039F0000F900F90DF91CF911F910F910C94641C49
:103A00000F931F93CF93DF9300D000D0CDB7DEB7D5
:103A100041E050E060E070E004C0440F551F661FB5
:103A2000771F8A95D2F78091D2059091D305A09106
:103A3000D405B091D5058A019B01082719272A27AB
:103A40003B2709831A832B833C83C901B8010F905C
:103A50000F900F900F90DF91CF911F910F910C94C9
:103A6000641CCF93DF9300D000D0CDB7DEB769835D
:103A70007A838B839C838091D2059091D305A0910A
:103A8000D405B091D50529813A814B815C81282BE1
:103A9000392B4A2B5B2B29833A834B835C83CA01E6
:103AA000B9010F900F900F900F90DF91CF910C9470
:103AB000641CCF93DF9300D000D0CDB7DEB769830D
:103AC0007A838B839C838091D2059091D305A091BA
:103AD000D405B091D50529813A814B815C81282399
:103AE00039234A235B2329833A834B835C83CA01AE
:103AF000B9010F900F900F900F90DF91CF910C9420
:103B0000641CCF93DF9300D000D0CDB7DEB76983BC
:103B10007A838B839C838091D2059091D305A09169
:103B2000D405B091D50529813A814B815C81282744
:103B300039274A275B2729833A834B835C83CA0151
:103B4000B9010F900F900F900F90DF91CF910C94CF
:103B5000641C0895E82F24E1929FE00D11248E2F1C
:103B6000877041E001C0440F8A95EAF7E695E69533
:103B7000E69585E0E89FF0011124E957FA4F30E01F
:103B800020E070E05191DF011197CB01022E02C0BD
:103B9000969587950A94E2F781708195852784230D
:103BA00085278C932F5F3F4F2530310559F70895B6
:103BB000E82F24E1929FE00D11249E2F9770E69547
:103BC000E695E69585E0E89FF0011124E957FA4F64
:103BD00050E040E080E0219130E0092E02C03695AF
:103BE00027950A94E2F721703327042E01C0220F93
:103BF0000A94EAF7822B4F5F5F4F4530510559F722
:103C00000895BF92CF92DF92EF92FF920F931F938E
:103C1000CF93DF938C01C090D205D090D305E09074
:103C2000D405F090D5058091D6059091D705A09147
:103C3000D805B091D905C82AD92AEA2AFB2ACFE1AA
:103C4000D0E0BC2ED701C6010C2E04C0B695A795B6
:103C5000979587950A94D2F780FD0EC0219788F733
:103C6000B12C8B2DDF91CF911F910F91FF90EF9091
:103C7000DF90CF90BF900895B8018C2F0E94670D00
:103C8000019761F3EECFCF93DF93D82FC92F0E9416
:103C9000011E6D2F7C2FDF91CF910C94670D1F9328
:103CA000CF93DF93162FD72F90914E05992339F09C
:103CB000862F972FDF91CF911F910C94431E88235D
:103CC00091F0862F972F0E94011EC82F682F812FF9
:103CD0009D2F0E94AA1D612F7D2F8C2FDF91CF91E8
:103CE0001F910C94670D862F972F0E94D81DC82F07
:103CF000F2CF682F80910401909105010C94DA2095
:103D0000682F80910401909105010C94E520809129
:103D10000401909105010C94F0208091DA058595BD
:103D20008595859508958091DA058770089590911D
:103D3000DA05977081E009F480E008958091FE052E
:103D400008959091FE05982B9093FE050895982F65
:103D500090958091FE0589238093FE0508958093B8
:103D6000FE0508951092FE0508959091FD05982B8B
:103D70009093FD050895982F90958091FD058923D6
:103D80008093FD0508951092FD0508959091FC051E
:103D9000982B9093FC050895982F90958091FC05A1
:103DA00089238093FC0508951092FC050895809165
:103DB000DB05089508950C94DA1E9091DB059817A1
:103DC00021F08093DB050C94DB1E08958091DB05C8
:103DD000882329F01092DB0580E00C94DB1E089507
:103DE000E0910401F09105018091FE058083E0914E
:103DF0000401F091050180819091FD05892B80835C
:103E0000E0910401F091050180819091FC05892BDE
:103E100080839091DB05992381F0E0910401F0917A
:103E200005018081892B8083809104019091050197
:103E30000E94422081110E94E61E8091040190910F
:103E400005010C94C71308950C94231F98E0899FD3
:103E500090011124622B6093DA050E949A1C8091D4
:103E6000DA058595859585950C94241F1092DA05C1
:103E700080E00C94241F9091DA058095892380932B
:103E8000DA05282F277071F4282F082E000C330B29
:103E90009217130639F08595859585950E94CB1C60
:103EA0000C94361F08950F931F93462F572FBC0174
:103EB000CB01AA27BB270097A105B105E9F1AC0109
:103EC000BD0180E1052F162F272F3327011511057E
:103ED0002105310519F0885FB901A8018A019B010C
:103EE000F4E03695279517950795FA95D1F70115C2
:103EF00011052105310519F08C5FB901A8018A016E
:103F00009B01E2E03695279517950795EA95D1F73D
:103F1000011511052105310519F08E5FB901A801C0
:103F20007695679557954795452B462B472B09F076
:103F30008F5F1F910F91089580E0C4CF90E080E0E3
:103F40000E942B299C0181E02C3E3E4F09F080E02D
:103F5000089582E090E00C94232983E090E00C9493
:103F60002329CF9384E090E00E942329C82F81E287
:103F700090E00E942329982F8C2FCF910895CF9302
:103F8000682FC92F84E090E00E9431296C2F81E2D4
:103F900090E0CF910C943129AB01BC018FE090E00F
:103FA0000C944329AB01BC0183E190E00C944329BC
:103FB00060E070E0CB010C94D21F60E070E0CB01B8
:103FC0000E94CC1F0C94D81F6CEE7EEF90E080E036
:103FD0000E944F2960E082E090E00E94312960E079
:103FE00083E090E00E9431291092D6051092D70507
:103FF0001092D8051092D90560E084E090E00E940C
:10400000312960E081E290E00E94312960E085E0A2
:1040100090E00E94312960E086E090E00E94312922
:104020006FEF87E090E00E94312940E050E0BA0154
:1040300088E090E00E94432960E08DE090E00E94DB
:10404000312940E050E0BA0188E190E00E94432924
:1040500060E087E190E00E94312940E050E0BA0141
:104060008CE190E00E94432960E080E290E00E94B1
:1040700031290C94DD1F0C94E41F682F8EE090E032
:104080000C943129FC01329680911001882321F093
:10409000809105069EE187FF96E080E0915008F44C
:1040A000089521912223D1F38F5FF8CF9C016623DD
:1040B00001F1809110018823F1F08091050687FFBE
:1040C0001AC0462F469546954695603F90F4677016
:1040D00081E090E002C0880F991F6A95E2F7240FF3
:1040E000311DF901228130E02823392381E0232B7F
:1040F00071F480E00895F9013296285F3F4F819175
:10410000861721F0E217F307D1F7F3CF81E0089586
:104110009C01FC0132968FEF90E04191461751F0DF
:104120008F3F19F4411101C0892F9F5F9630A9F785
:104130008F3F09F40895280F311D87FD3A95F90145
:10414000628308959C01FC013296285F3F4F819164
:10415000861303C0DF0111971C92E217F307B9F72A
:104160000895FC01862F869586958695603F60F4BC
:10417000E80FF11D677021E030E001C0220F6A9561
:10418000EAF78281822B82830895FC01862F86952F
:1041900086958695603F68F4E80FF11D677081E0B1
:1041A00090E001C0880F6A95EAF780959281892393
:1041B0008283089520911001222329F02091050681
:1041C00027FD0C94B1200C9488202091100122230B
:1041D00029F02091050627FD0C94C5200C94A220FF
:1041E000FC01329680911001882351F080910506E0
:1041F00087FF06C08EE1DF011D928A95E9F70895D9
:1042000086E0F9CF089508950C9403210E940421BB
:1042100080912D06843049F11092000688E190E0EB
:1042200020E40FB6F894A895809360000FBE209309
:10423000600080E00E94ED0C0E94042183B7817F22
:10424000846083BF83B7816083BF7894889583B788
:104250008E7F83BF0FB6F894A89580916000886127
:1042600080936000109260000FBE08950895CF9370
:10427000DF9300D000D00F92CDB7DEB70E940221AD
:104280000E94C20F0E9436211D828D810E944D0F17
:10429000672B682B692B71F48D818F5F8D8386303E
:1042A000A1F780E00F900F900F900F900F90DF918B
:1042B000CF91089581E0F6CF08950C945C210E947F
:1042C0005E180E94BB130E94ED0C0C945D211F929E
:1042D0001FB61F9211248F939F93AF93BF9380912A
:1042E0000006811113C08091010690910206A091F1
:1042F0000306B09104064196A11DB11D80930106ED
:1043000090930206A0930306B0930406BF91AF9169
:104310009F918F911F901FBE1F90189582E084BDC2
:1043200093E095BD9AEF97BD80936E0008952FB7E7
:10433000F8948091010690910206A0910306B09135
:1043400004062FBF08959C014FB7F8948091010691
:1043500090910206A0910306B09104064FBF821B04
:10436000930B089578941F921FB61F9211248F9378
:104370009F93AF93BF938091010690910206A09105
:104380000306B09104060196A11DB11D809301069C
:1043900090930206A0930306B0930406BF91AF91D9
:1043A0009F918F911F901FBE1F901895F89481E0E8
:1043B0008093E00080E28093D800E9ECF0E0108286
:1043C0008FE19EE40197F1F700C000001DBA109242
:1043D00068001CBC10BE1FBA10927A0010926E00CA
:1043E00010926F0010927000109271001082109263
:1043F000BC0011B814B817B81AB81DB810BA12B862
:1044000015B818B81BB81EB811BA0C9400FE089560
:10441000CF93DF9300D000D0CDB7DEB70E949E1FB0
:10442000811102C00E943B200E94A91F8093FF05BA
:104430000E94B11F90930606809305060E94AD1F4F
:10444000282F30E050E040E029833A834B835C839F
:10445000CA01B9010F900F900F900F90DF91CF918B
:104460000C94E81B8091270608950895CF93DF935D
:1044700000D00F92CDB7DEB790912D06943019F58C
:1044800089836A837B8382E08093E9008FEF909138
:10449000E800815095FD06C095ED9A95F1F7000072
:1044A0008111F5CF8091E80085FF0DC050E040E01C
:1044B00063E070E0CE0101960E9466248091E800DE
:1044C0008E778093E8000F900F900F90DF91CF913F
:1044D0000895CF93DF93D82FC92F0E9449248230AB
:1044E00011F0843039F46D2F7C2F84E0DF91CF916F
:1044F0000C943622DF91CF910895BC0183E00C9497
:104500003622CF93DF93D82FC92F0E9449248230BF
:1045100011F08430C9F5809110018823C1F1809198
:10452000050687FF34C060E282E08093E9008FEFE8
:104530009091E800815095FD06C095ED9A95F1F7B0
:1045400000008111F5CF8091E80085FF1DC08091AA
:10455000100170E050E040E0811104C050E040E004
:1045600068E070E08D2F9C2F0E9466248091E80007
:104570008E778093E80080E2ED2FFC2FA7E0B6E075
:1045800001900D928A95E1F7DF91CF91089568E04F
:1045900081E0CBCF80913606811109C00E94EE25C3
:1045A0000E9450268091E20084608093E20008958A
:1045B000109236060895089508950C945F2142E004
:1045C00061EC81E00E946A2542E261EC82E00C9499
:1045D0006A2580912F06893089F148F4823009F4E8
:1045E0009DC0833009F458C0813041F008958A306D
:1045F00009F484C08B3009F46AC0089580912E06B6
:10460000813A09F048C08091E800877F8093E800F4
:104610008091320690913306892B61F460E287E045
:1046200096E070E00E94B5248091E8008B7780933B
:10463000E800089560E090E080E0F3CF80912E06DE
:10464000813249F58091320690913306029718F530
:104650008091E800877F8093E8008091E80082FFE6
:1046600016C08091F2009091F300029729F4809196
:10467000F1008B7F813021F48091F1008093270637
:104680008091E8008B778093E8000C949E258091C0
:104690002D068111E2CF089580912E06813AD9F737
:1046A0008091320690913306892BA9F78091E8001A
:1046B000877F8093E8008091E80080FFFCCF8091A5
:1046C00010018093F1008091E8008E77DCCF80911B
:1046D0002E06813201F78091320690913306892BA4
:1046E000D1F68091E800877F8093E8000E949E25A4
:1046F00080913006809310010C945E1880912E06F4
:10470000813249F68091E800877F8093E8000E941B
:104710009E258091310680932806089580912E066B
:10472000813A09F0B8CF8091E800877F8093E80054
:104730008091E80080FFFCCF80912806C2CF84B72B
:10474000877F84BF0FB6F894A89580916000886138
:1047500080936000109260000FBE80E890E00FB67A
:10476000F89480936100909361000FBE0E941C1426
:104770000E94EE250E9450268091E2008460809382
:10478000E20078940E94DD280E94261486E091E0E1
:104790000E94B61380912D06853019F00E942E14C8
:1047A000F9CF0E94062180912A06882399F30E945E
:1047B0003721882379F30E945024ECCF0C94E02316
:1047C000FC01CB01DA012F2F332723303105D1F043
:1047D00070F42130310509F445C02230310569F407
:1047E0008BE390E02AE73BE02D933C930895213240
:1047F000310521F12232310559F190E080E030E0BD
:1048000020E0F2CFCF019927E230A9F08330910563
:1048100050F4009769F0ECE6FBE0019771F78491A2
:1048200090E09F01E1CFE8E3FBE00397C1F3E5CF20
:10483000E6E7FBE0F4CFEEE3FBE0F1CF892BB9F044
:1048400061307105D1F689E090E025EA3BE0CCCFFC
:10485000892B91F06130710581F68DE690E027ECAF
:104860003BE0C2CF82E190E025EB3BE0BDCF89E0A9
:1048700090E02CE83BE0B8CF80E490E024E33CE01B
:10488000B3CF80912D06843011F482E0089581E049
:10489000089580912906811102C00C944124089545
:1048A00084E189BD86E189BD09B400FEFDCF809118
:1048B000D8008F7D8093D8008091E0008260809343
:1048C000E0008091E00081FDFCCF0895AF92BF929F
:1048D000CF92DF92FF920F931F93CF93DF936C01E0
:1048E000EB018A010E94BD25F82E811123C001151C
:1048F000110539F0F80180819181C81BD90BC80ED0
:10490000D91EB12CA12C2097A9F08091E80085FD3B
:1049100022C08091E8008E778093E8000115110590
:10492000A1F0F80180819181A80EB91EB182A08208
:1049300085E0F82E8F2DDF91CF911F910F91FF9081
:10494000DF90CF90BF90AF9008950E94BD2588233F
:10495000D1F2F82EEFCFF60181916F018093F10033
:104960002197FFEFAF1ABF0ACECFFC01CB012091F8
:104970003406309135062617370790F0009729F452
:104980002091E8002E772093E80040E0009751F452
:10499000411108C08091E80082FF31C080E0089595
:1049A000C901F3CF20912D062223A9F12530A9F1C9
:1049B0002091E80023FD2DC02091E80022FDEACFE0
:1049C0002091E80020FFE2CF2091F2003091F30027
:1049D000009719F02830310558F041E028303105B2
:1049E00009F040E02091E8002E772093E800CECF38
:1049F00041914093F10001972F5F3F4FE9CF8091A4
:104A00002D06882341F0853041F08091E80083FF36
:104A1000C1CF81E0089582E0089583E00895FC010C
:104A2000CB0120913406309135062617370790F0D8
:104A3000009729F42091E8002E772093E80040E0C9
:104A4000009751F4411108C08091E80082FF32C004
:104A500080E00895C901F3CF20912D062223B1F102
:104A60002530B1F12091E80023FD2EC02091E8000F
:104A700022FDEACF2091E80020FFE2CF2091F20052
:104A80003091F300009719F02830310558F041E0DB
:104A90002830310509F040E02091E8002E7720937E
:104AA000E800CECF44914093F100319601972F5FFB
:104AB0003F4FE8CF80912D06882341F0853041F0AB
:104AC0008091E80083FFC0CF81E0089582E00895DF
:104AD00083E00895982F973028F08F708093E90035
:104AE00081E008959093E900242F762F50E09817E5
:104AF00031F07091EC002091ED005091F00021FD1B
:104B000002C09F5FE8CF3091EB003E7F3093EB0017
:104B10003091ED003D7F3093ED003091EB0031603E
:104B20003093EB007093EC002093ED005093F00075
:104B30002091EE0027FDE5CF80E0089580912E06BC
:104B400087FF13C08091E80082FF06C08091E800D3
:104B50008B778093E80004C080912D068111F2CFFD
:104B6000089580912D068823D9F38091E80080FF75
:104B7000F8CF8091E8008E77ECCF2091E40030915F
:104B8000E50095E6A9012091EC00822F817020FFBD
:104B900006C08091E80080FF06C080E00895209163
:104BA000E80022FD1AC080912D06882389F0853007
:104BB00089F08091EB0085FD0FC02091E4003091D9
:104BC000E50042175307F9F29150E1F684E00895A9
:104BD00082E0089583E0089581E008950E945F26B1
:104BE0000E946726E0EEF0E0808181608083E8ED3E
:104BF000F0E080818F77808319BCA7EDB0E08C91C5
:104C00008E7F8C9380818F7E8083109236060895EC
:104C10000F931F93CF93DF930E945F260E94672616
:104C2000C8EDD0E088818F77888388818068888309
:104C300088818F7D8883E7EDF0E0808180688083C4
:104C400019BC10922D0610922C0610922A06109272
:104C50002B0600EE10E0F80180818B7F8083888135
:104C60008160888342E060E080E00E946A25E1EE96
:104C7000F0E080818E7F8083E2EEF0E080818160D1
:104C80008083808188608083F80180818E7F80832B
:104C9000888180618883DF91CF911F910F91089562
:104CA000E8EDF0E080818F7E8083E7EDF0E08081A9
:104CB0008160808381E0809336060C940826E8EDBD
:104CC000F0E080818C7F80831092E2000895109242
:104CD000DA001092E10008951F920F920FB60F9222
:104CE00011240BB60F922F933F934F935F936F93C3
:104CF0007F938F939F93AF93BF93EF93FF93809195
:104D0000E10082FF0BC08091E20082FF07C080912A
:104D1000E1008B7F8093E1000E94DC288091DA0023
:104D200080FF19C08091D80080FF15C08091DA0003
:104D30008E7F8093DA008091D90080FF96C084E155
:104D400089BD86E189BD09B400FEFDCF81E0809375
:104D50002D060E94CA228091E10080FF19C0809137
:104D6000E20080FF15C08091E2008E7F8093E20018
:104D70008091E20080618093E2008091D80080629F
:104D80008093D80019BC85E080932D060E94DC2218
:104D90008091E10084FF29C08091E20084FF25C05A
:104DA00084E189BD86E189BD09B400FEFDCF809113
:104DB000D8008F7D8093D8008091E1008F7E809312
:104DC000E1008091E2008F7E8093E2008091E2001A
:104DD00081608093E20080912C06882309F44BC007
:104DE00084E080932D060E94DD228091E10083FF04
:104DF00029C08091E20083FF25C08091E100877F78
:104E00008093E10082E080932D0610922C06809121
:104E1000E1008E7F8093E1008091E2008E7F80939D
:104E2000E2008091E20080618093E20042E060E075
:104E300080E00E946A258091F00088608093F000F5
:104E40000E94DB22FF91EF91BF91AF919F918F91D3
:104E50007F916F915F914F913F912F910F900BBE7A
:104E60000F900FBE0F901F90189519BC10922D0631
:104E70000E94D82270CF8091E30087FD02C081E0BC
:104E8000B0CF83E0AECF1F920F920FB60F921124D6
:104E90000BB60F922F933F934F935F936F937F9334
:104EA0008F939F93AF93BF93CF93DF93EF93FF9332
:104EB000D091E900DF708091EC00C82FC17080FDB7
:104EC000C0E81092E9008091F000877F8093F000A5
:104ED00078940E948B271092E9008091F0008860FE
:104EE0008093F000CD2BCF70C093E900FF91EF913C
:104EF000DF91CF91BF91AF919F918F917F916F91F2
:104F00005F914F913F912F910F900BBE0F900FBE6D
:104F10000F901F9018951F93CF93DF93CDB7DEB7F7
:104F2000AA970FB6F894DEBF0FBECDBF8EE296E013
:104F3000FC0101962091F100208326E08633920740
:104F4000B9F70E94E9228091E80083FF1DC180919A
:104F50002E0690912F069A3008F016C1E92FF0E046
:104F6000EE54F64D0C941A29803899F0823809F0E5
:104F70000BC1809132068F70873008F005C1809395
:104F8000E9008091EB0085FB882780F91092E90009
:104F900006C080912B0690912A0691118260909113
:104FA000E800977F9093E8008093F1001092F10061
:104FB0008091E8008E77E4C0882309F4D2C0823063
:104FC00009F0E2C0809130068111D5C0809132068F
:104FD0008F702FEF280F263008F0D6C08093E9009D
:104FE0002091EB0020FFC7C0933031F48091EB009B
:104FF00080628093EB00BFC09091EB009061909332
:10500000EB0021E030E001C0220F8A95EAF72093FF
:10501000EA001092EA008091EB008860EACF8111EB
:10502000B3C0109130061F778091E3008078812B08
:105030008093E3008091E800877F8093E8000E94DE
:105040009E258091E80080FFFCCF8091E30080687E
:105050008093E30082E0111183E080932D0694C0D9
:105060008058823008F090C08091300690913106CF
:105070008C3D23E0920799F583E08A838AE2898355
:105080004FB7F894DE01139620E03EE051E2E32FA3
:10509000F0E050935700849120FF03C082958F70F9
:1050A0003F5F8F708A30C8F0895C90E08D939D934C
:1050B0002F5F243161F74FBF8091E800877F809395
:1050C000E8006AE270E0CE0101960E94B52480916A
:1050D000E8008B778093E80057C0805DE6CF609151
:1050E000320670913306AE014F5F5F4F0E94DE23A0
:1050F000BC01892B09F448C08091E800877F809328
:10510000E80089819A810E940F25E1CF8038E1F57E
:105110008091E800877F8093E80080912C0680933F
:10512000F10046CF811130C090913006923060F589
:105130008091E800877F8093E80090932C060E947E
:105140009E2580912C06882311F084E005C0809173
:10515000E30087FDFACF81E080932D060E94DF22D5
:1051600013C080913006813079F481E0933009F0EA
:1051700080E080932A061092E9008091E800877F02
:105180008093E8000E949E258091E80083FF0AC07A
:105190008091E800877F8093E8008091EB00806237
:1051A0008093EB00AA960FB6F894DEBF0FBECDBF7A
:1051B000DF91CF911F9108950895CF9380912D068F
:1051C0008823A1F0C091E900CF709091EC00892F65
:1051D000817090FD80E8C82B1092E9008091E80072
:1051E00083FD0E948B27CF70C093E900CF91089573
:1051F000A1E21A2EAA1BBB1BFD010DC0AA1FBB1FDB
:10520000EE1FFF1FA217B307E407F50720F0A21B4C
:10521000B30BE40BF50B661F771F881F991F1A94B9
:1052200069F760957095809590959B01AC01BD01E3
:10523000CF010895EE0FFF1F0024001C0BBE079046
:10524000F691E02D0994F999FECF92BD81BDF89AAF
:10525000992780B50895A8E1B0E042E050E00C94B1
:105260005729262FF999FECF92BD81BDF89A019753
:1052700000B4021639F01FBA20BD0FB6F894FA9A9E
:10528000F99A0FBE08950396272F0E9432290E9493
:105290003129252F0E943229242F0C94322901967E
:1052A000272F0E9432290C943129DC01CB01FC010B
:1052B000F999FECF06C0F2BDE1BDF89A319600B46F
:1052C0000D9241505040B8F70895F894FFCF410B2C
:1052D0006E0B480B4A0B6E0B6E0B6E0B6E0B6E0B50
:1052E0006E0B6E0B6E0B6E0B6E0B4C0B4E0B500B56
:1052F000520B540B560B580B660B5E0B5C0B640B7E
:10530000620B600B6C0B680B6A0B5A0BBD11C3115F
:10531000C711D511D911DD11E111E711EF11F31109
:10532000F711FB1107120B120F1213121912371279
:105330002112CB11D111FF110312EB111D122D12ED
:1053400040124412F415F41556165616AB162416D0
:1053500024162416C7167C178D178D17ED172416E3
:105360002416F617B427DC27C428DC27C4280F2806
:085370003028C4288628922889
:1053780026052C02DC053222812235227D22692273
:1053880001E200E900EA00B500B600B700CD0083ED
:1053980001CC008A019201940121022302240225F2
:1053A80002260227022A02B300B4006F007000F23E
:1053B800F1F0C6C73031323334353637949597C05B
:1053C800C16061626364656667E200E900EA00B58E
:1053D80000B600B700CD008301CC008A0192019489
:1053E800012102230224022502260227022A02B3EF
:0853F80000B4006F007000001A
:00000001FF
