:100000000C94A4050C94C3050C94C3050C94C3056F
:100010000C94C3050C94C3050C94C3050C94C30540
:100020000C94C3050C94C3050C9429230C94002450
:100030000C94241E0C94C3050C94C3050C94C305A6
:100040000C94C3050C94C3050C94C3050C94C30510
:100050000C94C3050C946F1E0C94C3050C94C3053B
:100060000C94C3050C94DB080C94B1080C94C305E4
:100070000C94C3050C94C3050C94C3050C94C305E0
:100080000C94C3050C94C3050C94C3050C94C305D0
:100090000C94C3050C94C3050102E00102E1750153
:1000A00003E10103E0323061630A000102E2010270
:1000B000E1320103E10103E2000102E20101620118
:1000C000015901015A0101600103E2000102E0014E
:1000D00002E1750103E10103E066610A000102E249
:1000E000650103E275000102E201016201015A01AA
:1000F000015D0101620103E2000102E00102E1751C
:100100000103E10103E064610A000102E265010309
:10011000E255000102E201016201015A01015901A7
:1001200001600103E2000102E00102E1750103E167
:100130000103E066330A000102E2650103E26F0099
:100140000102E201016201015A01015C01015B014E
:1001500003E2000102E00102E1750103E10103E0B5
:1001600064330A000102E2650103E24F000102E28A
:1001700001016201015A0101590101590103E20023
:100180000102E00102E1750103E10103E065640A97
:10019000000102E2650103E269000102E20101627D
:1001A00001015A01015B01015F0103E2000102E06C
:1001B0000102E1750103E10103E063640A00010249
:1001C000E2650103E249000102E201016201015A14
:1001D00001016201015D0103E2000102E00102E1AF
:1001E000750103E10103E065390A000102E26501DE
:1001F00003E265000102E201016201015A01015BB3
:1002000001015B0103E2000102E00102E17501036B
:10021000E10103E063390A000102E2650103E245FE
:10022000000102E201016201015A0101620101596A
:100230000103E2000102E00102E1750103E10103B3
:10024000E065310A000102E2650103E2610001029A
:10025000E201016201015A01015A01015D0103E25B
:10026000000102E00102E1750103E10103E06331F5
:100270000A000102E2650103E241000102E201011C
:100280006201015901016101015B0103E200010208
:10029000E00102E1750103E10103E066390A0001B2
:1002A00002E2600103E275000102E2010162010164
:1002B0005A01015C0101610103E2000102E0010257
:1002C000E1750103E10103E064390A000102E26023
:1002D0000103E255000102E201016201015A01013C
:1002E0005901015F0103E2000102E00102E1750131
:1002F00003E10103E066320A000102E2600103E269
:100300006F000102E201016201015A01015C010179
:100310005A0103E2000102E00102E1750103E1017B
:1003200003E064320A000102E2600103E24F0001CF
:1003300002E201016201015A010159010162010356
:10034000E2000102E00102E1750103E10103E06561
:10035000630A000102E2600103E269000102E201B6
:10036000016201015A01015B01015E0103E200012A
:1003700002E00102E1750103E10103E063630A00A9
:100380000102E2600103E249000102E201016201AF
:10039000015A01016201015C0103E2000102E00176
:1003A00002E1750103E10103E065380A000102E2A0
:1003B000600103E265000102E201016201015A01EC
:1003C000015B01015A0103E2000102E00102E17553
:1003D0000103E10103E063380A000102E260010366
:1003E000E245000102E201016201015A01016201DC
:1003F00001620103E2000102E00102E1750103E193
:100400000103E065300A000102E2600103E26100DD
:100410000102E201016201015A01015A01015C017C
:1004200003E2000102E00102E1750103E10103E0E2
:1004300063300A000102E2600103E241000102E2CE
:1004400001016201015901016101015A0103E20048
:100450000102E00102E1750103E10103E061370AF5
:100460000036000102E201016201015901015E0151
:10047000015F0103E2000102E00102E1750103E115
:100480000103E061330A000102E2330103E20001EB
:1004900002E201015901015D01015E0103E2005721
:1004A000696E646F7773004D61634F53004C696EE2
:1004B000757800554900495400454E00430B29000A
:1004C0003A003B003C003D003E003F004000410040
:1004D0004200430044004500115004513A0B3B0BCD
:1004E0003C0B3D0B1D011C0135001E001F002100AF
:1004F0002200230024002500260027002D002A00CA
:1005000046004B0000005400550056003E0B3F0BC8
:100510002B0014001A00200015001C0018000C000D
:10052000120013002F002E0049004A005300600003
:10053000610057001B01400B390004001600080041
:10054000090017000D000E000F00330034003000CA
:100550004C004D005F005D005E0058000601410B3D
:10056000E1001D001B00070019000A000B0010002D
:1005700037003800E5002800310052004E005C00D2
:100580005B0063001901420BE000E200E30006009B
:100590002C000500110036000351E600E700E400DE
:1005A000500051004F0059005A0062000100010044
:1005B0000100010001000100010001000100010033
:1005C00001000100010001001250010001000100C2
:1005D00001000100010001003100010001000100E3
:1005E00001000100010001000100010034000100D0
:1005F00001000100000001000100010001000100F4
:1006000001000100010001000100010001000100E2
:10061000010001000D5D0E5D0100010001000100FF
:1006200001000100010001000100010001000100C2
:10063000010001000100010001000F5D0C5D570089
:1006400001000100010001000100010001000100A2
:100650000100010001000100010001000100010092
:1006600001002D0001000100105D010001000100EA
:100670000100010001000100010001000100010072
:100680000100010001000100010001000100010062
:100690000100010001000100010001000100010052
:1006A0000100010001000100010001000100010042
:1006B00001000100010001001050010001000100D3
:1006C00001000100010001003500010001000100EE
:1006D0000100010001000100010001002D000100E6
:1006E0000100010000000100010001000100010003
:1006F00001000100010001000100010001000100F2
:10070000010001002F002E00010001000100010086
:1007100001000100010001000100010001000100D1
:10072000010001000100010001003300340030002D
:1007300001000100010001000100010001000100B1
:1007400001000100010001000100010001000100A1
:100750003700380001000100010001000100010024
:100760000100010001000100010001000100010081
:10077000010001000100360001000100010001003C
:10078000010001000100010001000100B500055D4C
:10079000035D045D01000100010001000100010092
:1007A0000100010001000100085D010001000100DD
:1007B0000100005C01001D030100010001000A5D51
:1007C0000100010001000100010001000100010021
:1007D0000100010000000100010001000100010012
:1007E000010001000100010001000100105D0E5D2B
:1007F0000F5D010001000100010001000100010086
:10080000010001004C02010001000C5D01000D5DC2
:1008100001000100010001000100010001000100D0
:100820000100010001000100010001004901010077
:100830000100010001000100010001000100A80009
:1008400001000100010001000B5D01000100010039
:100850000100010049020100010001000100010046
:100860000100010001000100010001000100010080
:100870000100010001000100010001000100010070
:10088000065D075D0100010001000100010001009B
:100890000100010001000100010001000100010050
:1008A0000100010001000100010001000100010040
:1008B0000100010001000100010001000100010030
:1008C0000100010000000100010001000100010021
:1008D0000100010001000100010001000100010010
:1008E0000100010001000100010001000100010000
:1008F00001000100010001000100010001000100F0
:1009000001000100010001000100010001000100DF
:1009100001000100010001000100010001000100CF
:1009200001000100010001000100010001000100BF
:1009300001000100010001000100010001000100AF
:10094000010001000100010001000100010001009F
:10095000010001000100010001000100010001008F
:100960000100010001000100010001000000000081
:10097000000000002A2B28000000000000000000FA
:100980000000000000000029000000002C1E3420A0
:10099000212224342627252E362D3738271E1F20C6
:1009A0002122232425263333362E37381F0405060B
:1009B0000708090A0B0C0D0E0F101112131415164F
:1009C0001718191A1B1C1D2F3130232D350405064D
:1009D0000708090A0B0C0D0E0F101112131415162F
:1009E0001718191A1B1C1D2F3130354C0000000040
:1009F00000000000000000000000000000000000F7
:100A00007E0F00D4FFFFFFC7000000780403300012
:100A100000002C03460061007400200042006F00BB
:100A2000740074006F006D006500640020004B00CE
:100A30006500790062006F006100720064000000D0
:100A40000803420065006E00000004030904090267
:100A50003B00020100A0FA090400000103010100AB
:100A60000921110100012240000705810308000A45
:100A70000904010001030000000921110100012205
:100A80006D000705820320000A120110010000001A
:100A900008DE08DEC001000102030105010980A192
:100AA00001850319012AB700150126B700950175C4
:100AB000108100C0050C0901A101850419012AA0BB
:100AC00002150126A002950175108100C0050109DB
:100AD00006A1018505050719E029E71500250195FF
:100AE00008750181020507190029EF1500250195F8
:100AF000F075018102050819012905950575019117
:100B000002950175039101C005010906A1010507C0
:100B100019E029E715002501950875018102950165
:100B2000750881010507190029FF150026FF0095AA
:100B300006750881000508190129059505750191BB
:100B400002950175039101C011241FBECFEFD0E2C1
:100B5000DEBFCDBF11E0A0E0B1E0E6E6F2E500E0E7
:100B60000BBF02C007900D92A838B107D9F723E058
:100B7000A8E8B1E001C01D92A433B207E1F70E94DA
:100B80005C200C94F2280C9400000E94EF07813046
:100B900041F0823049F48FE894E00E94E60A80E058
:100BA000089587E894E0F9CF86E794E0F6CF0E94B5
:100BB000EF07813041F0823049F483E694E00E94EF
:100BC000E60A80E0089581E694E0F9CF80E594E0BC
:100BD000F6CF0F931F93CF93DF93CDB7DEB72A974E
:100BE0000FB6F894DEBF0FBECDBF8091D2028F93B7
:100BF0008091D1028F938091D0028F938091CF0208
:100C00008F938DE091E09F938F938E010F5F1F4F25
:100C10001F930F930E94E025C8010E94770A0E944B
:100C20005E1B82720FB6F894DEBF0FBECDBFF1F02F
:100C30000E946F1B0E94EF07813091F0823099F47F
:100C40008DE394E00E94E60A80E02A960FB6F894BD
:100C5000DEBF0FBECDBFDF91CF911F910F910895E1
:100C600084E394E0EFCF83E294E0ECCF0E946F1B2B
:100C70000E94EF07813029F0823031F480E194E066
:100C8000E1CF87E094E0DECF86EF93E0DBCF0E94F8
:100C90005E1B8272A1F00E946F1B0E94EF078130E1
:100CA00041F0823049F483EE93E00E94E60A80E04E
:100CB00008958AED93E0F9CF89EC93E0F6CF0E9496
:100CC0006F1B0E94EF07813029F0823031F486EBF0
:100CD00093E0EBCF8DEA93E0E8CF8CE993E0E5CFAA
:100CE0000E945E1B8272A1F00E946F1B0E94EF07A0
:100CF000813041F0823049F489E893E00E94E60AAD
:100D000080E0089580E893E0F9CF8FE693E0F6CF96
:100D10000E946F1B0E94EF07813029F0823031F46E
:100D20008CE593E0EBCF83E593E0E8CF82E493E0BA
:100D3000E5CF0E945E1B8272A1F00E946F1B0E9491
:100D4000EF07813041F0823049F48FE293E00E9456
:100D5000E60A80E0089586E293E0F9CF85E193E02A
:100D6000F6CF0E946F1B0E94EF07813029F082307E
:100D700031F482E093E0EBCF89EF92E0E8CF88EEA8
:100D800092E0E5CF0E945E1B8272A1F00E946F1B71
:100D90000E94EF07813041F0823049F485ED92E006
:100DA0000E94E60A80E008958CEC92E0F9CF8BEB8C
:100DB00092E0F6CF0E946F1B0E94EF07813029F06E
:100DC000823031F488EA92E0EBCF8FE992E0E8CF0D
:100DD0008EE892E0E5CFCF930E945E1BC82F81E0A2
:100DE000C6FF0FC00E946F1BC27299F00E94EF07EE
:100DF000813049F0823051F48BE792E00E94E60A9C
:100E000080E0CF91089582E792E0F8CF81E692E00A
:100E1000F5CF0E94EF07813029F0823031F48EE463
:100E200092E0ECCF85E492E0E9CF84E392E0E6CF74
:100E3000CF930E945E1BC82F81E0C6FF0FC00E94A7
:100E40006F1BC27299F00E94EF07813049F0823027
:100E500051F481E292E00E94E60A80E0CF91089589
:100E600088E192E0F8CF87E092E0F5CF0E94EF07AB
:100E7000813029F0823031F484EF91E0ECCF8BEEB9
:100E800091E0E9CF8AED91E0E6CFCF930E945E1B1F
:100E9000C82F81E0C6FF0FC00E946F1BC27299F07D
:100EA0000E94EF07813049F0823051F487EC91E0E5
:100EB0000E94E60A80E0CF9108958EEB91E0F8CF92
:100EC0008DEA91E0F5CF0E94EF07813029F0823062
:100ED00031F48AE991E0ECCF81E991E0E9CF80E853
:100EE00091E0E6CFCF930E945E1BC82F81E0C6FF42
:100EF0000FC00E946F1BC27299F00E94EF078130F1
:100F000049F0823051F48DE691E00E94E60A80E0DB
:100F1000CF91089584E691E0F8CF83E591E0F5CF95
:100F20000E94EF07813029F0823031F480E491E0B3
:100F3000ECCF87E391E0E9CF86E291E0E6CFCF9373
:100F40000E945E1BC82F81E0C6FF0FC00E946F1B6E
:100F5000C27299F00E94EF07813049F0823051F45B
:100F600083E191E00E94E60A80E0CF9108958AE053
:100F700091E0F8CF89EF90E0F5CF0E94EF07813044
:100F800029F0823031F486EE90E0ECCF8DED90E0E8
:100F9000E9CF8CEC90E0E6CF0E945E1B86FF14C088
:100FA0000E946F1B0E94EF07813041F0823049F4AC
:100FB00089EB90E00E94E60A80E008958BEA90E0D9
:100FC000F9CF88E990E0F6CF81E008950C94040908
:100FD0000C9405090C9472098093880108958091FE
:100FE000880108959B01AC01F89460E079E08DE3FD
:100FF00090E00E94B52521503109410951095695CB
:101000004795379527953093CD002093CC0082E00B
:101010008093C80088E98093C90086E08093CA0065
:101020001092CB011092CC011092890110928A018A
:10103000789408952FEF83ED90E321508040904005
:10104000E1F700C0000060E875E280E090E00E94F7
:10105000F2070C9401099091CC019F5F983208F03F
:1010600090E02091CB012917E1F3E92FF0E0E35361
:10107000FE4F80839093CC0188EB8093C900089544
:10108000CF93DF93EC01FE0184912196882361F0D8
:101090000E942B08FFEF29EF80E0F15020408040B4
:1010A000E1F700C00000EFCFDF91CF910895CF931B
:1010B000DF93D82FC92F2FEF81EE94E0215080408D
:1010C0009040E1F700C000008CE60E942B082FEF53
:1010D00089EF90E0215080409040E1F700C000008F
:1010E0008D2F9C2F0E9440088AE0DF91CF910C94B5
:1010F0002B082FEF81EE94E0215080409040E1F7E3
:1011000000C000008FE60E942B082FEF89EF90E0CF
:10111000215080409040E1F700C00000809188019C
:10112000882329F0813051F08FE994E002C08DEAE4
:1011300094E00E9440088AE00C942B0887EA94E02F
:10114000F8CF80918801882329F0813041F01092F6
:10115000880103C081E0809388010C94790882E0C3
:10116000FACF8F938FB78F938BB78F939F93EF9314
:10117000FF939091CC018091CB0198130CC088E92A
:101180008093C900FF91EF919F918F918BBF8F91B9
:101190008FBF8F9118958091CB018F5F883208F0B7
:1011A00080E0E82FF0E0E353FE4F90819093CE0073
:1011B0008093CB01E7CF2F932FB72F932BB72F938C
:1011C0008F939F93EF93FF939091CE0080918A012C
:1011D0008F5F803408F080E020918901281739F072
:1011E000E82FF0E0E557FE4F908380938A01FF914E
:1011F000EF919F918F912F912BBF2F912FBF2F9107
:10120000189580E00C94EC070895FC01DB01129620
:101210008C91882309F443C0E131BDE5FB0708F058
:101220003FC0E8309DE5F90768F4E231F10589F146
:1012300090F4E830F10549F1EC30F10541F13497D3
:1012400011F10895E850FD45E930F10548F5EC50FD
:10125000F74D0C94D725E831F105E9F0B197E9F0A5
:1012600008950E94A10880E008950C94C5050C948F
:10127000D7050C94E9050C9447060C9470060C9461
:1012800099060C94C2060C94EB060C9418070C9467
:1012900045070C9472070C949F070C94CC0781E0CF
:1012A00008950F931F93CF93DF938B01D82FC92FEE
:1012B0000E94101C813081F0823089F0811104C0BD
:1012C00089EB94E00E945708B8018D2F9C2FDF9185
:1012D000CF911F910F91089586EB94E0F3CF83EBAC
:1012E00094E0F0CF089581E0089508950C94750975
:1012F0001F93CF93DF9300D000D00F92CDB7DEB70E
:1013000049835A836B8330914B0289819A813111D1
:101310001DC06623B9F02223A9F00E94C11A182F1C
:10132000682F89819A810E946A1A69817A81812F46
:101330000F900F900F900F900F90DF91CF911F9112
:101340000C944F0B0E94981A182FEFCF0E94C11ACD
:1013500069817A81EDCFFC01262F40815181628124
:10136000738184810C947809CF93DF93D82FC92F90
:1013700060E00E94AB096D2F7C2FDF91CF910C9420
:101380007609FF920F931F93CF93DF93E82FF0E03E
:10139000E459F64FF490C82FC695C695C695D0E08F
:1013A000FE01E450F64F0491877010E0082E02C051
:1013B000159507950A94E2F701701127C451D64F8D
:1013C000FE01C491D0E002C0D595C7958A95E2F799
:1013D000C170DD270115110519F081EE0E94EA1197
:1013E000209719F086EE0E94EA118F2D0E94561266
:1013F000CD2B19F086EE0E942E12012B41F081EECA
:10140000DF91CF911F910F91FF900C942E12DF91DD
:10141000CF911F910F91FF900895EF92FF920F933C
:101420001F93CF93DF93EC01162F0AE08881882366
:1014300009F456C0813009F050C089818130A1F48F
:101440007E0182E0E80EF11C8A810E945612E701BB
:101450002196812F882351F3EFE9FFE03197F1F7CF
:1014600000C000008150F6CF823041F47E01E2E0FE
:10147000EE0EF11C8A810E94EA11E9CF833041F41B
:101480007E01F2E0EF0EF11C8A810E942E12DFCF66
:10149000843011F02196DCCF2A81229680E090E002
:1014A000AE014F5F5F4F2053330B2A30310550F0B0
:1014B000009771F2EFE9FFE03197F1F700C000000B
:1014C0000197F6CF089FB001099F700D1124C90143
:1014D000860F971F2981EA01E3CF0E94C109B8CF87
:1014E000DF91CF911F910F91FF90EF90089560E0F1
:1014F0000C940D0AEF92FF920F931F93CF93DF93FB
:101500008C01F62E8AE0E82EF8018491882309F4F4
:1015100056C0813009F04FC0E8012196FE01849148
:10152000813099F42196FE0184910E9456128E0119
:101530000F5F1F4F8F2D882339F3EFE9FFE03197BD
:10154000F1F700C000008150F6CF823039F4E80195
:101550002296FE0184910E94EA11E9CF833039F48A
:10156000E8012296FE0184910E942E12E0CF843081
:10157000F1F6E8012296FE01249180E090E0FE0160
:1015800031962053330B2A30310550F0009779F211
:10159000EFE9FFE03197F1F700C000000197F6CFC7
:1015A000E89EA001E99E500D1124C901840F951FEA
:1015B0002491EF01E4CF0E94C109E801B8CFDF9187
:1015C000CF911F910F91FF90EF90089560E00C94E0
:1015D0007A0A0E945B1C811102C00E94F81C0C94C4
:1015E0001A080C94E60781E008950C94F30ACF934F
:1015F000C82F0E94EA078C2FCF910C94F50A08950A
:101600000E941E150E94FF0A2FEF84E39CE02150E8
:1016100080409040E1F700C000000C94931E0F93AF
:101620001F93CF93DF93EC0161E00E94AB098C0123
:10163000BE010E94E807882329F1BE01C8010E946B
:10164000350F8823F9F0BE01C8010E94790F882365
:10165000C9F0BE01C8010E944C10882399F08A810C
:10166000882339F001158CE5180751F00E3D1C4513
:1016700079F0CE01DF91CF911F910F910C947309F6
:101680000E94000B80E0DF91CF911F910F91089590
:101690000E94F81CF7CF90E080E008950895972FFE
:1016A00070E024E1929F600D711D1124FB0198E709
:1016B000899FE00DF11D1124EE0FFF1FE454FB4F35
:1016C000859194910895FC01EE0FFF1FE45FF54FA3
:1016D000859194910895CF93DF930E944F0B0E94C0
:1016E000760CEC01811521E5920708F048C08115C0
:1016F00030E5930708F0AFC0803E910518F5803CB7
:10170000910508F096C0883A910570F4853A9105E4
:1017100008F08CC08130910531F10497813A910530
:1017200010F1D0E0C0E01FC08F3B9105D1F3C85A43
:10173000D0E0CC0FDD1FCF5EDE4F0990D881C02DE9
:10174000D46411C0811540E3940788F4C11580E288
:10175000D80708F074C0C83ED10528F0CE019A958C
:1017600081159F41F0F6CE01DF91CF91089581154B
:1017700030E4930708F466C0DF70D06AF4CF8115B7
:10178000964560F5C11585E5D80708F096C0C115E6
:1017900094E5D907F0F4C11523E5D20708F079C024
:1017A000C11532E5D30708F46FC0CE0183709927C5
:1017B00021E030E002C0220F331F8A95E2F7C69580
:1017C000C69540E2C49FE0011124C22BD32BDC68F4
:1017D000CACFDC2FCC27C46FD06AC5CFC1158AE52C
:1017E000D80788F4C11599E5D90708F071C0CE0172
:1017F00098558F3F910511F008F093CFDC2FCC273F
:10180000C06FD06AB0CFCE0190568115904208F0DB
:1018100088CF8D2F8F710E940E0D90E0982F882712
:1018200088279F719C012C2BE90150C0A497D0649C
:101830009ACF805C91090E94630BEC0194CFCE019A
:101840009F70F9CF9927D3FF03C0EC01D86C8BCFE1
:10185000EC01D06C88CF74E0969587957A95E1F786
:1018600083702C2F26952695237040E2249F9001AB
:101870001124382B8C2F8370C1E0D0E002C0CC0F34
:10188000DD1F8A95E2F7A1CFDC2FCC27C16FD06A8C
:101890006ACFCE018370992721E030E002C0220F89
:1018A000331F8A95E2F7C695C69580E2C89FE0018E
:1018B0001124C22BD32BDA6856CF8C2F0E940E0D29
:1018C000C82FD0E0DC2FCC27CC27DF71D0624BCFE4
:1018D0008C2F8F700E940E0D34E0D695C7953A95E7
:1018E000E1F7CF70DC2FC82FD0693DCF803E910546
:1018F00099F1C8F48133910509F476C048F489322E
:10190000910509F46AC08A32910509F474C00895FA
:1019100089339105D1F082389105B9F0853391056D
:1019200009F454C00895843E910599F138F4823E3B
:101930009105F9F0833E910509F10895863E9105E0
:1019400099F1873E9105B9F1089520910203237022
:10195000A1F080EE90E008952091020320FD52C096
:101960003091030330FF09C024FF4FC090E080E0B6
:1019700004C02091020322FDF7CF089520910203B5
:1019800022FD46C03091030330FDE3CF24FFF5CFA5
:10199000EDCF2091030321FFF0CF8091020384FD5E
:1019A000E5CF87EE90E008952091020323FFE5CF75
:1019B00024FDDCCFF6CF2091020323FD2CC0309113
:1019C000030331FFE3CF84EE90E0089520910203FA
:1019D00025FFD3CF89E290E008952091020325FFEF
:1019E000CCCF85E390E008952091020326FFC5CF78
:1019F0008AE290E008952091020326FFBECF81E3A2
:101A000090E0089589E390E0089583EE90E00895D2
:101A100082EE90E0089586EE90E0089590910203A2
:101A200092FF06C0282F28712830F9F4877F846040
:101A300093FF06C0282F28712831F1F4877E846136
:101A40002091030320FF06C0382F38713830D9F4B5
:101A5000877F816021FF06C0282F28712831D1F4AB
:101A6000877E816194FD877E0895282F247124301C
:101A7000F9F68B7F8860DCCF282F2471243101F7A1
:101A80008B7E8861DDCF382F3171313019F78E7F31
:101A90008860E0CF282F2171213121F78E7E886167
:101AA000E1CFCF93DF9300D000D0CDB7DEB794E085
:101AB000899FF0011124EB50FE4F80819181A2811A
:101AC000B381BC01CD010F900F900F900F90DF916B
:101AD000CF910895089580EA8A95F1F70895CF93FC
:101AE000DF93C3E5D1E029E531E041E050E08991A1
:101AF000E82FE295EF70A1E2AE0FB0E0FC918F709D
:101B0000BA0101C0660F8A95EAF7962F90959F2338
:101B10009C93EE5DF0E08081862B80832C173D073F
:101B200031F7CFE3D1E023E531E041E050E08991A6
:101B3000E82FE295EF70A1E2AE0FB0E0FC918F705C
:101B4000BA0101C0660F8A95EAF7962F90959F23F8
:101B50009C93EE5DF0E08081862B80832C173D07FF
:101B600031F788E1EDE0F2E0DF01982F1D929A95C0
:101B7000E9F7E5EFF1E0DF011D928A95E9F786E0EC
:101B80000E948A0EDF91CF910C94E90A2F923F9226
:101B90004F925F926F927F928F929F92AF92BF927D
:101BA000CF92DF92EF92FF920F931F93CF93DF9329
:101BB00000D000D00F92CDB7DEB783E5C82E81E00C
:101BC000D82E9DE0E92E92E0F92E712C812C912CDB
:101BD00054018394F60181916F01F82FF295FF7003
:101BE000FB830F2F0F5D10E0F80190818F7021E0D3
:101BF00030E002C0220F331F8A95E2F73A8329832F
:101C0000822F892B80833B813E5D832F90E09D83D3
:101C10008C83FC018081622E6094862180830E94E7
:101C20006B0DAFE3B1E090E080E040E050E0BA013E
:101C30005D90E52DE295EF70E05EF0E0208130E010
:101C4000E52DEF7002C035952795EA95E2F720FD66
:101C50005AC014012501082E04C0220C331C441C58
:101C6000551C0A94D2F742295329642975290196F3
:101C700084319105E9F6F801808168226082EC8167
:101C8000FD818081F9818F2BEC81FD818083F701BB
:101C900080819181A281B381481759076A077B0728
:101CA000B9F1408351836283738381E0782AF4E041
:101CB000EF0EF11C29E5C21621E0D20609F08ACF09
:101CC000272D46E065EF71E08DE092E00E948B0EDB
:101CD0000E94F10A872D0F900F900F900F900F9098
:101CE000DF91CF911F910F91FF90EF90DF90CF90F8
:101CF000BF90AF909F908F907F906F905F904F902C
:101D00003F902F900895212C312C412C512CABCF9A
:101D100080E0CCCF0895FF920F931F93CF93DF9372
:101D2000F82E092F162FD72FC42F222349F081E038
:101D3000809327020E94541E9093260280932502CE
:101D4000809127028823A1F080912502909126029C
:101D50000E94601E069760F0EF2DF02FA12FBD2F7F
:101D600090E080E0D0E08C179D0744F010922702AD
:101D7000DF91CF911F910F91FF90089501911191E3
:101D8000219131910D931D932D933D930196EBCFAE
:101D90000F931F93CF93DF93C62FD42F022FFC01F5
:101DA00082818823C9F060932A020E94541E909376
:101DB00029028093280280E28C0F883008F050C0FE
:101DC000C77081E001C0880FCA95EAF7DF91CF9113
:101DD0001F910F910C94691210912A02161335C0AD
:101DE00080912802909129020E94601E883C9105F2
:101DF00060F5C0E2CD0F1D17B9F080E2810F883089
:101E000040F4177081E001C0880F1A95EAF70E942C
:101E10007012C83048F481E09D2F977001C0880F80
:101E20009A95EAF70E946912802F0E945612C830D4
:101E3000B8F4D77081E001C0880FDA95EAF7DF9136
:101E4000CF911F910F910C94701280E28C0F88300B
:101E500038F4C77081E001C0880FCA95EAF7EFCF68
:101E6000DF91CF911F910F9108959C01CB01233FEA
:101E70004CE5340769F190F4283DFCE53F0721F17A
:101E8000293D4CE5340781F1273D3C45B1F0FC018B
:101E90008281882361F110922A020895253FFCE592
:101EA0003F07D1F0263F4CE53407D1F0243F3C45B5
:101EB00071F727E245EE64EE03C026E241EE61EEE3
:101EC0000E94C80E80E0089527E245EE65EEF8CF47
:101ED00026E241EE60EEF4CF26E241EE62EEF0CF74
:101EE00027E245EE66EEECCF28E241E0EFCF81E05D
:101EF0000895CF93DF93EC01FB018281882309F4DD
:101F0000C9C0C631FCE5DF07E0F4C2309CE5D90763
:101F1000F0F00E946E1C9093030380930203C6317D
:101F2000ECE5DE0720F5C230FCE5DF0798F4809190
:101F30000203909103030E947C1C0E941E1580E006
:101F400006C09E012A5F3C452930310510F3DF9120
:101F5000CF910895FE01E350FC458091020381601A
:101F6000E331F10588F4E350F74D0C94D725CA5FAF
:101F7000DC45C930D105D8F6C05FD64DFE010C94C2
:101F8000D72580910203826080930203D0CF809195
:101F900002038460F9CF809102038860F5CF8091BD
:101FA0000303816080930303C2CF809103038260A7
:101FB000F9CF809102038061E7CF809102038062B4
:101FC000E3CF809102038064DFCF0E941E158091D1
:101FD00002038068D9CF809102038C60D5CF8091B5
:101FE00003038360DFCF809102038E7FCDCF80918A
:101FF00002038D7FC9CF809102038B7FC5CF809173
:102000000203877FC1CF809103038E7FCBCF809166
:1020100003038D7FC7CF809102038F7EB5CF809160
:1020200002038F7DB1CF809102038F7BADCF0E94E1
:102030001E15809102038F77A7CF80910203837FC3
:10204000A3CF809103038C7FADCF8091020382FBED
:10205000992790F921E0922790FB82F990FB83F970
:1020600093CF80910303982F909591708E7F892B49
:1020700090FB81F997CF0E941E1590910203892F42
:1020800097FB87F9805880CF81E00E94FA1C4FCFE0
:1020900080E0FBCF81E05BCFCF93DF93EB01863114
:1020A0009C4511F50E945E1B9A81992399F08A7ACA
:1020B00091E009F490E090932B02811109C089E22C
:1020C0000E94391B0E94AD1B80E0DF91CF910895E3
:1020D00085E3F6CF80912B02811104C089E20E9432
:1020E000401BF0CF85E3FBCF81E0EFCF909331022F
:1020F000809330020895E0913002F09131023097E0
:1021000021F00190F081E02D099480E00895DC0138
:10211000E0913002F0913102309799F080910C01FA
:10212000882351F08091020387FF06C08C9111969D
:102130008C93119785E08C930280F381E02DCD0183
:102140000994089520912E0230912F022817390703
:1021500071F090932F0280932E02E0913002F09163
:102160003102309721F00680F781E02D099408951F
:1021700020912C0230912D022817390771F090938D
:102180002D0280932C02E0913002F09131023097C1
:1021900021F00084F185E02D0994089585B78068C9
:1021A00085BF85B7806885BF0895089508950C940C
:1021B000D51008950C94D9100E94CE100E94D6100C
:1021C0000C94D71081E008950C94E2100E944B1EED
:1021D0000E946F0D0E94C51E0C94DA104F925F9200
:1021E0006F927F929F92AF92BF92CF92DF92EF92C7
:1021F000FF920F931F93CF93DF9300D000D00F92E5
:10220000CDB7DEB70E94C60D0E94E410882309F402
:102210008DC043E3A42E42E0B42E10E000E0902EE7
:10222000802F0E94510D6B017C01F501419051906E
:10223000619071905F014C145D046E047F0409F499
:102240006FC08091FC0281FD0E946A0DB301A20162
:102250004C255D256E257F2520E0412C512C320137
:102260004394DB01CA0184219521A621B721892B42
:102270008A2B8B2B09F44CC029839A82C420D52049
:10228000E620F72081E0CD28CE28CF2809F480E091
:102290008B830E94541E8160782F9D838C8349819B
:1022A0005A816B818D810E94BC11000F111F000F9C
:1022B000111FF801ED5CFD4F80819181A281B381F6
:1022C00084259525A625B72580839183A283B38392
:1022D0000E947B10909132028917C9F10E947B10F5
:1022E000809332020F900F900F900F900F90DF911C
:1022F000CF911F910F91FF90EF90DF90CF90BF9003
:10230000AF909F907F906F905F904F900C94F70AE2
:102310002F5F440C551C661C771C243109F0A1CF9B
:102320000F5F1F4F0630110509F079CF8FEF8983BA
:102330008A831B820E94541E8160782F9D838C8328
:1023400049815A816B818D810E94BC11C1CF0F9050
:102350000F900F900F900F90DF91CF911F910F91E1
:10236000FF90EF90DF90CF90BF90AF909F907F90C5
:102370006F905F904F900895CF93DF93CDB7DEB706
:102380002B970FB6F894DEBF0FBECDBF4F83588793
:1023900069877A878B871E8285E0FE013796DE018A
:1023A000119601900D928A95E1F749815A816B81CE
:1023B0007C818D819E812B960FB6F894DEBF0FBE77
:1023C000CDBFDF91CF910C948017FC01808191816A
:1023D0000C94031BCF93C82F8823F1F18CEF8C0F43
:1023E000813AA0F46C2F80910001909101010E942C
:1023F000131D882329F08C2F0E94401B0E94AD1BC7
:102400008C2F0E94391BCF910C94AD1B80E28C0F56
:10241000883048F4C77081E001C0880FCA95EAF798
:102420000E94611BF0CF8BE58C0F833038F42C2F8A
:102430002452330BC901CF910C94A210C85AC73152
:1024400058F4EC2FF0E0EE0FFF1FE75AFE4F8081AB
:102450009181CF910C94B810CF910895882329F1E0
:102460009CEF980F913A20F40E94401B0C94AD1BF6
:1024700090E2980F983050F4877091E001C0990F66
:102480008A95EAF7892F0E94671BF0CF9BE5980F8A
:10249000933020F490E080E00C94A210885A8731A9
:1024A00020F490E080E00C94B8100895CF93C82FEA
:1024B0000E94EA11C93349F42FEF87EE93E02150CF
:1024C00080409040E1F700C000008C2FCF910C9429
:1024D0002E12882321F00E94611B0C94AD1B0895DD
:1024E000882321F00E94671B0C94AD1B0895AF92C6
:1024F000BF92CF92DF92EF92FF920F931F93CF93F1
:10250000DF9300D000D00F92CDB7DEB76C016D83A2
:102510007983FC01058102950F70128111110E94CF
:10252000801B0E94571BE82E882391F01123D1F0C5
:102530008981807F803421F08D81805E883090F0A9
:1025400082E00E94F81B0E94571B91E0E82EE926CA
:10255000A980A2949FE0A922B12CF501E75EF64D77
:102560000C94D725E12CF4CF09810F70F981F07F0D
:1025700011F00295007F1123B1F0002361F08D81ED
:10258000805E883018F02D81211109C0802F0E94B3
:10259000611B0E94AD1B8D810E94EA1115C0802F26
:1025A0000E94721BF6CF8D810E942E12002361F0D3
:1025B0008D81805E883018F04D81411133C0802FAD
:1025C0000E94671B0E94AD1B48E0A41AB10854E0AA
:1025D000A516B10420F40E947B100E94F70AEE2099
:1025E00009F4CBC10E94531B80FDC7C1F6011282C2
:1025F0000E944D1B0E945A19C6010E94E4140E94B9
:102600004D1B0F900F900F900F900F90DF91CF9177
:102610001F910F91FF90EF90DF90CF90BF90AF9000
:102620000C948B19802F0E94781BCCCF59815F703E
:10263000F52E6981607F603219F0F29480EFF82204
:102640007D81772369F0713049F1112391F10023E5
:1026500051F1F601858180FF9ECF8F70858323C065
:10266000112381F0011106C00E94941B8F290E9442
:102670006912AACF0130C1F70E94941B8F290E94D2
:102680009A1BA2CF011106C00E94A31B8F2D0E948E
:1026900070129ACF013009F497CFF6CF112329F0A9
:1026A000063008F091CF8F2DE2CF053008F08CCFA7
:1026B000EDCF002359F3FD81F93349F42FEF47EEB5
:1026C00053E0215040405040E1F700C000008D81B0
:1026D0000E942E1279CF898186958695837069F044
:1026E000813009F071CF8D8199819370111102C0F1
:1026F00090E080E00E94B81067CF8D81998193703F
:10270000111102C090E080E00E94A2105DCF89818B
:10271000837009F050C0111157CF4D8142954695F5
:102720004770440F440F8D818F7090E0B0E0A0E0BF
:10273000042E04C0880F991FAA1FBB1F0A94D2F74A
:102740006D8100E010E0980164FF0FC00FE010E021
:1027500020E030E004C0000F111F221F331F4A95F4
:10276000D2F70095109520953095798176957695DC
:1027700073707D83B901A801482B592B6A2B7B2BE1
:1027800049835A836B837C835D8169817A818B81E4
:102790009C81523051F0533059F0513019F00E9461
:1027A000D21812CF0E94AA180FCF0E94FA180CCF8D
:1027B0000E94A81809CF112309F445C0698160FF60
:1027C00003CF4D81429546954770440F440F8D814C
:1027D0008F7090E0B0E0A0E0042E04C0880F991F35
:1027E000AA1FBB1F0A94D2F7ED8100E010E0980108
:1027F000E4FF0FC00FE010E020E030E004C0000F65
:10280000111F221F331F4A95D2F70095109520956E
:102810003095F981F695F695F370FD83B901A8011D
:10282000482B592B6A2B7B2B49835A836B837C83E0
:10283000F230A1F0F330C9F0F13049F0CB01BA0128
:102840000E94191AC1CE798171FFBECEBACF6981BB
:102850007A818B819C810E94F119B6CE69817A813F
:102860008B819C810E94411AAFCE69817A818B81D4
:102870009C810E942419A8CE59815F70598311232D
:1028800029F0852F0E945A198D81F1CE8D810E94E9
:10289000701289810E948B1997CE6D81623F99F1E8
:1028A00060F4603FD9F0613F39F1112309F444C06D
:1028B000011171CE89818F7123C07D81733F41F1F8
:1028C000743F99F7112371F189818F7189830E9477
:1028D0005A1963E089810E94E31B76CE112341F0EF
:1028E000053008F071CE89818F710E94C0196CCEBD
:1028F000063008F069CEF7CF89818F71112351F22C
:102900000E945A1961CE89818F711123C9F3C2CFF8
:10291000112329F089818F710E94351955CE0E94AB
:10292000301952CE81E00E94F81B023008F44CCEE0
:1029300082E00E94F81B48CE002361F09D8199330C
:1029400009F0C5CEEFEFF7EE23E0E150F040204074
:10295000E1F7BBCE89818F719DCF49814F706D8129
:10296000C6010E944B0B0E941A182ECE49814F704F
:102970006D81C6010E944E0B27CE0F900F900F90D5
:102980000F900F90DF91CF911F910F91FF90EF90DB
:10299000DF90CF90BF90AF9008950F931F93CF9388
:1029A000DF93EC01688179818A810E940F1B8C0181
:1029B0000E94691A0E94A718B801CE01DF91CF9139
:1029C0001F910F910C947712CF93DF93EC018B81C1
:1029D0009C81892B29F08981988189238F3F59F423
:1029E000DF91CF910895CE010E94CD14CE01DF91E9
:1029F000CF910C94B409CE010E940F0B8111F3CF3B
:102A00000E94571B882361F38A81882349F382E05F
:102A1000DF91CF910C94F81B0E94801B0E94911BA8
:102A20000E94AD1B90E080E00E94A21090E080E048
:102A30000C94B8100E94471B0C940C150E946F1B3D
:102A40000C941A15282F892F82958F70903C80F452
:102A50008A30B0F4843020F4823090F480E008951D
:102A60008630E1F781E0283E88F0213FB9F70EC0BB
:102A70008C3011F08F3091F793FB882780F90895FF
:102A800081E0203F39F018F4283E40F70895243FB4
:102A900029F7FCCF08950E94031B0C942215CF93B5
:102AA000DF9300D000D00F92CDB7DEB70F900F901C
:102AB0000F900F900F90DF91CF910895CF93DF93F8
:102AC00000D000D000D0CDB7DEB726960FB6F89470
:102AD000DEBF0FBECDBFDF91CF9108951F93CF937F
:102AE000DF93E0914C0216E080914D028E1304C0FA
:102AF000DF91CF911F910895CE2FD0E01E9FF0015E
:102B00001124E25BFD4F4081518162817381848198
:102B100095810E945E15FE013196E770E5CF4091E8
:102B20007E0250917F0260918002709181028091BB
:102B30008202909183020C945E151F93CF93DF93D2
:102B400080918302807FA9F480918002882389F09C
:102B500080914C02C0914D0270917E0260917F0283
:102B6000A0918102B0918202D62FD72316E0C8131C
:102B700004C0DF91CF911F91089590E0109711F05C
:102B8000DF3F19F401968770F2CF189F9001199FCB
:102B9000300D1124F901E25BFD4F41816413F2CF46
:102BA00040814713EFCF42814111ECCF43815481E3
:102BB0004A1B5B0B483C510528F7809183028F70BC
:102BC000806180938302F901ED5AFD4F80818F70FF
:102BD000806180838EE792E00E94E414DF91CF91C0
:102BE0001F910C946E15AF92BF92CF92DF92EF922D
:102BF000FF920F931F93CF93DF93CDB7DEB72B9741
:102C00000FB6F894DEBF0FBECDBF8C0185E0F80192
:102C1000DE01179601900D928A95E1F7F801408147
:102C20005181E2808EE7A82E82E0B82E6091810269
:102C3000709182026115710549F090917E02209198
:102C40007F02892F82238F3F09F045C1EE2009F4CE
:102C500053C14F8358878F8198850E944B15F82E5A
:102C6000882309F449C186E0F801AEE7B2E001909B
:102C70000D928A95E1F78EE792E00E94E5110E949D
:102C80009D1526C180918302382F307F683C7105E5
:102C900008F07CC03111B5C0FE2C251324C094135C
:102CA00022C0E11020C08F708061809383020E9457
:102CB0008F158EE792E00E94E41480918302F80160
:102CC00085838F2D2B960FB6F894DEBF0FBECDBF38
:102CD000DF91CF911F910F91FF90EF90DF90CF90F8
:102CE000BF90AF900895CD2829F0842F85238F3F82
:102CF00009F084C080E0F82FF170DF2EE0914C02E3
:102D000020914D0236E080FD1CC0EE20D1F2809172
:102D10008302816080938302F12CD3CF8E2F90E0C9
:102D20003E9FF0011124E25BFD4F6181651306C0F7
:102D30006081641303C062816E11E7CFFC0131969C
:102D4000E770E213EBCF4F8358878F8198850E94FD
:102D5000031B292F22952F70903260F0225F2F7075
:102D6000223078F49F7051F0F8019581907F31F412
:102D7000D12C0AC09F7011F08823D1F3805E883077
:102D8000B8F3C8010E94E414FD2C9BCF31116EC032
:102D90006E2D7A858B850E944F158EE792E00E94FA
:102DA000E41486E0F50111928A95E9F70E948F15E7
:102DB000B3CF86E0F801AEE7B2E001900D928A95BC
:102DC000E1F77FCF4F8358878F8198850E944B15FD
:102DD00081113DC080918302816080938302C8018C
:102DE0000E94E4146ECF6E2D7A858B850E944F155C
:102DF00086E0F50111928A95E9F76AC081E08E2597
:102E00007ACF251306C0941304C0F801EE2009F40C
:102E100053C04F8358878F8198850E944B15882314
:102E200009F46AC0EE2009F467C080918302803201
:102E300070F020917E0230917F023A8329831B82B9
:102E4000DD82CC828E83CE0101960E94E41486E05E
:102E5000F801AEE7B2E001900D928A95E1F70E9489
:102E60009D150E948F15FF24F3942BCF2513D1CFEE
:102E70009413CFCFE110CDCFF8018583C8010E9414
:102E8000E41486E0F50111928A95E9F71ACF25132B
:102E900099CF941397CF8091830280FD8ACF982F8A
:102EA000907F09F486CFF8018583903F31F0982F09
:102EB000907F905F8F70892B8583C8010E94E414F6
:102EC00086E0F801AEE7B2E001900D928A95E1F755
:102ED0000E948F15F6CEC380D480F0908002F60158
:102EE000E61BF70BBF01F110CDCE683C710508F071
:102EF0007ACFFE2CE110CBCFC8010E94E414B3CFEF
:102F00001F93CF93DF93CDB7DEB72C970FB6F8940E
:102F1000DEBF0FBECDBF4F83588769877A878B8707
:102F20009C87CE0107960E94F315882369F08A8555
:102F30009B85892B39F058854F81852F84238F3FBE
:102F400009F071C016E05FC086E0FE013796DE0131
:102F5000119601900D928A95E1F78A859B85892BC0
:102F600089F38F81988589238F3F61F320914D02EA
:102F700030E0C90101968770992740914C024817AB
:102F8000190671F40E941E1510924D0210924C0207
:102F900086E0EEE7F2E0DF011D928A95E9F7D2CFF5
:102FA00096E0929FD001939FB00D1124A25BBD4F7C
:102FB000FE01319601900D929A95E1F780934D02B2
:102FC0000E946E15BFCF819FC0011124825B9D4F6F
:102FD0000E94F3158823E9F0E0914C021E9FF00156
:102FE0001124E25BFD4F40815181628173818481B4
:102FF00095810E945E1580914C0290E00196877049
:10300000992780934C0280914C0290914D02891334
:10301000DACF2C960FB6F894DEBF0FBECDBFDF918E
:10302000CF911F91089569857A858B859C850E9433
:103030005E1588CFEF92FF920F931F93CF93DF938C
:103040008C01892B89F0F12CEE24E394E801219680
:10305000F8018491843709F458C0A0F4823009F44F
:103060003FC048F48130D1F0DF91CF911F910F9193
:10307000FF90EF9008959CEF980F9037A8F70E946B
:10308000EA110AC0853709F44EC09CE7980F9037C3
:1030900058F78F770E942E128E0116C00E5F1F4FB9
:1030A000FE01849190E2980F983060F48770FE2DB5
:1030B00001C0FF0F8A95EAF78F2F0E94831B0E94A1
:1030C000AD1B02C00E94EA118F2D882309F4BECFE8
:1030D000EFE9FFE03197F1F700C000008150F5CF34
:1030E0000E5F1F4FFE01849190E2980F983050F4CC
:1030F0008770FE2D01C0FF0F8A95EAF78F2F0E947F
:10310000891BDDCF0E942E12DFCF0E5F1F4FFE0105
:10311000C491CC23C9F28FE99FE00197F1F700C079
:103120000000C150F6CF0E5F1F4FFE01F490CCCFD0
:1031300008950C9498180E9499186093D302709384
:10314000D4028093D5029093D6020C940C15089566
:103150000C949B18CF93DF9300D000D0CDB7DEB78F
:1031600069837A838B839C838091D3029091D4026C
:10317000A091D502B091D60229813A814B815C8120
:10318000282B392B4A2B5B2B29833A834B835C8377
:10319000CA01B9010F900F900F900F90DF91CF915E
:1031A0000C949B18CF93DF9300D000D0CDB7DEB73F
:1031B00069837A838B839C838091D3029091D4021C
:1031C000A091D502B091D60229813A814B815C81D0
:1031D000282339234A235B2329833A834B835C8347
:1031E000CA01B9010F900F900F900F90DF91CF910E
:1031F0000C949B18CF93DF9300D000D0CDB7DEB7EF
:1032000069837A838B839C838091D3029091D402CB
:10321000A091D502B091D60229813A814B815C817F
:10322000282739274A275B2729833A834B835C83E6
:10323000CA01B9010F900F900F900F90DF91CF91BD
:103240000C949B180C9451090E9422196093CF0290
:103250007093D0028093D1029093D2020C940C15FB
:1032600060E070E0CB010C9424190F931F93CF936F
:10327000DF9300D000D0CDB7DEB741E050E060E092
:1032800070E08A019B0104C0000F111F221F331F31
:103290008A95D2F709831A832B833C83C901B8012D
:1032A0000F900F900F900F90DF91CF911F910F9182
:1032B0000C9424190F931F93CF93DF9300D000D069
:1032C000CDB7DEB741E050E060E070E004C0440FED
:1032D000551F661F771F8A95D2F78091CF02909174
:1032E000D002A091D102B091D2028A019B01082B99
:1032F000192B2A2B3B2B09831A832B833C83C9016F
:10330000B8010F900F900F900F90DF91CF911F9108
:103310000F910C9424190F931F93CF93DF9300D038
:1033200000D0CDB7DEB741E050E060E070E004C00F
:10333000440F551F661F771F8A95D2F74095509509
:10334000609570958091CF029091D002A091D102AA
:10335000B091D2028A019B01082319232A233B231F
:1033600009831A832B833C83C901B8010F900F9006
:103370000F900F90DF91CF911F910F910C94241912
:103380000F931F93CF93DF9300D000D0CDB7DEB75C
:1033900041E050E060E070E004C0440F551F661F3C
:1033A000771F8A95D2F78091CF029091D002A09199
:1033B000D102B091D2028A019B01082719272A273E
:1033C0003B2709831A832B833C83C901B8010F90E3
:1033D0000F900F900F90DF91CF911F910F910C9450
:1033E0002419CF93DF9300D000D0CDB7DEB7698327
:1033F0007A838B839C838091CF029091D002A0919D
:10340000D102B091D20229813A814B815C81282B73
:10341000392B4A2B5B2B29833A834B835C83CA016C
:10342000B9010F900F900F900F90DF91CF910C94F6
:103430002419CF93DF9300D000D0CDB7DEB76983D6
:103440007A838B839C838091CF029091D002A0914C
:10345000D102B091D20229813A814B815C8128232B
:1034600039234A235B2329833A834B835C83CA0134
:10347000B9010F900F900F900F90DF91CF910C94A6
:103480002419CF93DF9300D000D0CDB7DEB7698386
:103490007A838B839C838091CF029091D002A091FC
:1034A000D102B091D20229813A814B815C812827D7
:1034B00039274A275B2729833A834B835C83CA01D8
:1034C000B9010F900F900F900F90DF91CF910C9456
:1034D00024190895E82F24E1929FE00D11248E2FE6
:1034E000877041E001C0440F8A95EAF7E695E695BA
:1034F000E69585E0E89FF0011124EC57FD4F30E0A0
:1035000020E070E05191DF011197CB01022E02C043
:10351000969587950A94E2F7817081958527842393
:1035200085278C932F5F3F4F2530310559F708953C
:10353000E82F24E1929FE00D11249E2F9770E695CD
:10354000E695E69585E0E89FF0011124EC57FD4FE4
:1035500050E040E080E0219130E0092E02C0369535
:1035600027950A94E2F721703327042E01C0220F19
:103570000A94EAF7822B4F5F5F4F4530510559F7A8
:103580000895BF92CF92DF92EF92FF920F931F9315
:10359000CF93DF938C01C090CF02D090D002E09007
:1035A000D102F090D2028091D3029091D402A091E6
:1035B000D502B091D602C82AD92AEA2AFB2ACFE13D
:1035C000D0E0BC2ED701C6010C2E04C0B695A7953D
:1035D000979587950A94D2F780FD0EC0219788F7BA
:1035E000B12C8B2DDF91CF911F910F91FF90EF9018
:1035F000DF90CF90BF900895B8018C2F0E946B0B85
:10360000019761F3EECFCF93DF93D82FC92F0E949C
:10361000C11A6D2F7C2FDF91CF910C946B0B1F93F0
:10362000CF93DF93162FD72F90914B02992339F028
:10363000862F972FDF91CF911F910C94031B882326
:1036400091F0862F972F0E94C11AC82F682F812FC3
:103650009D2F0E946A1A612F7D2F8C2FDF91CF91B1
:103660001F910C946B0B862F972F0E94981AC82FCE
:10367000F2CF682F80910001909101010C94971D69
:10368000682F80910001909101010C94A21D8091FE
:103690000001909101010C94AD1D8091D702859598
:1036A0008595859508958091D702877008959091AA
:1036B000D702977081E009F480E008958091FB02C1
:1036C00008959091FB02982B9093FB020895982FF8
:1036D00090958091FB0289238093FB0208951092BC
:1036E000FB0208959091FA02982B9093FA020895A4
:1036F000982F90958091FA0289238093FA02089579
:103700001092FA0208959091F902982B9093F90281
:103710000895982F90958091F90289238093F9025A
:1037200008951092F90208958091D802089508959D
:103730000C94971B9091D802981721F08093D8028F
:103740000C94981B08958091D802882329F0109238
:10375000D80280E00C94981B0895E0910001F0914C
:1037600001018091FB028083E0910001F091010151
:1037700080819091FA02892B8083E0910001F09181
:10378000010180819091F902892B80839091D80268
:10379000992381F0E0910001F09101018081892B52
:1037A000808380910001909101010E94FF1C811192
:1037B0000E94A31B80910001909101010C9487103D
:1037C00008950C94E01B98E0899F90011124622BCE
:1037D0006093D7020E945A198091D70285958595EA
:1037E00085950C94E11B1092D70280E00C94E11BAC
:1037F0009091D702809589238093D702282F277034
:1038000071F4282F082E000C330B9217130639F091
:103810008595859585950E948B190C94F31B0895C9
:103820000F931F93462F572FBC01CB01AA27BB270D
:103830000097A105B105E9F1AC01BD0180E1052FBB
:10384000162F272F3327011511052105310519F0F2
:10385000885FB901A8018A019B01F4E0369527959C
:1038600017950795FA95D1F7011511052105310531
:1038700019F08C5FB901A8018A019B01E2E036953D
:10388000279517950795EA95D1F70115110521059B
:10389000310519F08E5FB901A801769567955795A6
:1038A0004795452B462B472B09F08F5F1F910F91B2
:1038B000089580E0C4CF90E080E00E94B8289C0189
:1038C00081E02C3E3E4F09F080E0089582E090E0D8
:1038D0000C94B02883E090E00C94B028CF9384E05F
:1038E00090E00E94B028C82F81E290E00E94B028AA
:1038F000982F8C2FCF910895CF93682FC92F84E0F4
:1039000090E00E94BE286C2F81E290E0CF910C9451
:10391000BE28AB01BC018FE090E00C94D028AB0135
:10392000BC0183E190E00C94D02860E070E0CB0112
:103930000C948F1C60E070E0CB010E94891C0C94F9
:10394000951C6CEE7EEF90E080E00E94DC2860E049
:1039500082E090E00E94BE2860E083E090E00E9458
:10396000BE281092D3021092D4021092D502109267
:10397000D60260E084E090E00E94BE2860E081E230
:1039800090E00E94BE2860E085E090E00E94BE28A2
:1039900060E086E090E00E94BE286FEF87E090E054
:1039A0000E94BE2840E050E0BA0188E090E00E940A
:1039B000D02860E08DE090E00E94BE2840E050E01A
:1039C000BA0188E190E00E94D02860E087E190E0B1
:1039D0000E94BE2840E050E0BA018CE190E00E94D5
:1039E000D02860E080E290E00E94BE280C949A1CEF
:1039F0000C94A11C682F8EE090E00C94BE28FC0172
:103A0000329680910C01882321F0809102039EE17F
:103A100087FF96E080E0915008F4089521912223D9
:103A2000D1F38F5FF8CF9C01662301F180910C01E7
:103A30008823F1F08091020387FF1AC0462F469534
:103A400046954695603F90F4677081E090E002C033
:103A5000880F991F6A95E2F7240F311DF901228121
:103A600030E02823392381E0232B71F480E008958E
:103A7000F9013296285F3F4F8191861721F0E217B6
:103A8000F307D1F7F3CF81E008959C01FC01329652
:103A90008FEF90E04191461751F08F3F19F441119B
:103AA00001C0892F9F5F9630A9F78F3F09F40895D1
:103AB000280F311D87FD3A95F901628308959C0115
:103AC000FC013296285F3F4F8191861303C0DF01CE
:103AD00011971C92E217F307B9F70895FC01862F9E
:103AE000869586958695603F60F4E80FF11D6770B6
:103AF00021E030E001C0220F6A95EAF78281822B33
:103B000082830895FC01862F869586958695603F71
:103B100068F4E80FF11D677081E090E001C0880F44
:103B20006A95EAF78095928189238283089520918E
:103B30000C01222329F02091020327FD0C946E1D15
:103B40000C94451D20910C01222329F020910203A1
:103B500027FD0C94821D0C945F1DFC013296809110
:103B60000C01882351F08091020387FF06C08EE18B
:103B7000DF011D928A95E9F7089586E0F9CF08954F
:103B800008950C94C01D0E94C11D80912A038430A9
:103B900049F11092FD0288E190E020E40FB6F8941C
:103BA000A895809360000FBE2093600080E00E9483
:103BB000F70A0E94C11D83B7817F846083BF83B7EA
:103BC000816083BF7894889583B78E7F83BF0FB65B
:103BD000F894A895809160008861809360001092AD
:103BE00060000FBE08950895CF93DF9300D000D0FA
:103BF0000F92CDB7DEB70E94BF1D0E94C60D0E9476
:103C0000F31D1D828D810E94510D672B682B692B3E
:103C100071F48D818F5F8D838630A1F780E00F90E6
:103C20000F900F900F900F90DF91CF91089581E04A
:103C3000F6CF08950C94191E0E941E150E947B1049
:103C40000E94F70A0C941A1E1F921FB61F9211248D
:103C50008F939F93AF93BF938091FD02811113C007
:103C60008091FE029091FF02A0910003B0910103A8
:103C70004196A11DB11D8093FE029093FF02A09377
:103C80000003B0930103BF91AF919F918F911F905B
:103C90001FBE1F90189582E084BD93E095BD9AEFFA
:103CA00097BD80936E0008952FB7F8948091FE021F
:103CB0009091FF02A0910003B09101032FBF0895DE
:103CC0009C014FB7F8948091FE029091FF02A09161
:103CD0000003B09101034FBF821B930B08957894AA
:103CE0001F921FB61F9211248F939F93AF93BF9380
:103CF0008091FE029091FF02A0910003B091010318
:103D00000196A11DB11D8093FE029093FF02A09326
:103D10000003B0930103BF91AF919F918F911F90CA
:103D20001FBE1F901895F89481E08093E00080E218
:103D30008093D800E9ECF0E010828FE19EE40197D7
:103D4000F1F700C000001DBA109268001CBC10BE44
:103D50001FBA10927A0010926E0010926F001092AB
:103D600070001092710010821092BC0011B814B84B
:103D700017B81AB81DB810BA12B815B818B81BB8C9
:103D80001EB811BA0C9400FE0895CF93DF9300D0B3
:103D900000D0CDB7DEB70E945B1C811102C00E942B
:103DA000F81C0E94661C8093FC020E946E1C90937B
:103DB0000303809302030E946A1C282F30E050E026
:103DC00040E029833A834B835C83CA01B9010F9099
:103DD0000F900F900F90DF91CF910C94A8188091C5
:103DE000240308950895CF93DF9300D00F92CDB7A9
:103DF000DEB790912A03943019F589836A837B8317
:103E000082E08093E9008FEF9091E800815095FD6A
:103E100006C095ED9A95F1F700008111F5CF8091DC
:103E2000E80085FF0DC050E040E063E070E0CE01A7
:103E300001960E9423218091E8008E778093E8000C
:103E40000F900F900F90DF91CF910895CF93DF9354
:103E5000D82FC92F0E940621823011F0843039F406
:103E60006D2F7C2F84E0DF91CF910C94F31EDF91B6
:103E7000CF910895BC0183E00C94F31ECF93DF93A0
:103E8000D82FC92F0E940621823011F08430C9F545
:103E900080910C018823C1F18091020387FF34C017
:103EA00060E282E08093E9008FEF9091E80081501A
:103EB00095FD06C095ED9A95F1F700008111F5CFBB
:103EC0008091E80085FF1DC080910C0170E050E0FA
:103ED00040E0811104C050E040E068E070E08D2FC8
:103EE0009C2F0E9423218091E8008E778093E80028
:103EF00080E2ED2FFC2FA4E0B3E001900D928A95B3
:103F0000E1F7DF91CF91089568E081E0CBCF809118
:103F10003303811109C00E94AB220E940D238091BE
:103F2000E20084608093E2000895109233030895C4
:103F3000089508950C941C1E42E061EC81E00E94FB
:103F4000272242E261EC82E00C94272280912C032C
:103F5000893089F148F4823009F49DC0833009F436
:103F600058C0813041F008958A3009F484C08B3004
:103F700009F46AC0089580912B03813A09F048C082
:103F80008091E800877F8093E80080912F039091D3
:103F90003003892B61F460E284E093E070E00E94DA
:103FA00072218091E8008B778093E800089560E0AB
:103FB00090E080E0F3CF80912B03813249F580912E
:103FC0002F0390913003029718F58091E800877FC6
:103FD0008093E8008091E80082FF16C08091F20093
:103FE0009091F300029729F48091F1008B7F81304A
:103FF00021F48091F100809324038091E8008B7775
:104000008093E8000C945B2280912A038111E2CF17
:10401000089580912B03813AD9F780912F039091D5
:104020003003892BA9F78091E800877F8093E8000F
:104030008091E80080FFFCCF80910C018093F1001B
:104040008091E8008E77DCCF80912B03813201F7DD
:1040500080912F0390913003892BD1F68091E80055
:10406000877F8093E8000E945B2280912D038093DC
:104070000C010C941E1580912B03813249F680911E
:10408000E800877F8093E8000E945B2280912E03E6
:1040900080932503089580912B03813A09F0B8CFCE
:1040A0008091E800877F8093E8008091E80080FF9E
:1040B000FCCF80912503C2CF84B7877F84BF0FB622
:1040C000F894A895809160008861809360001092B8
:1040D00060000FBE80E890E00FB6F8948093610016
:1040E000909361000FBE0E94DC100E94AB220E94E0
:1040F0000D238091E20084608093E20078940E9416
:104100009A250E94E61082E091E00E94761080914C
:104110002A03853019F00E94EE10F9CF0E94C31DCA
:1041200080912703882399F30E94F41D882379F353
:104130000E940D21ECCF0C949D20FC01CB01DA01F3
:104140002F2F332723303105D1F070F42130310582
:1041500009F445C02230310569F48BE390E02EE488
:104160003AE02D933C9308952132310521F122321A
:10417000310559F190E080E030E020E0F2CFCF014E
:104180009927E230A9F08330910550F4009769F047
:10419000E0E4FAE0019771F7849190E09F01E1CFAC
:1041A000ECE0FAE00397C1F3E5CFEAE4FAE0F4CFFC
:1041B000E2E1FAE0F1CF892BB9F061307105D1F677
:1041C00089E090E029E73AE0CCCF892B91F061308B
:1041D000710581F68DE690E02BE93AE0C2CF82E1ED
:1041E00090E029E83AE0BDCF89E090E020E63AE0AF
:1041F000B8CF80E490E028E03BE0B3CF80912A0381
:10420000843011F482E0089581E0089580912603BE
:10421000811102C00C94FE20089584E189BD86E1DD
:1042200089BD09B400FEFDCF8091D8008F7D8093B9
:10423000D8008091E00082608093E0008091E000EF
:1042400081FDFCCF0895AF92BF92CF92DF92FF9293
:104250000F931F93CF93DF936C01EB018A010E94B0
:104260007A22F82E811123C00115110539F0F801C9
:1042700080819181C81BD90BC80ED91EB12CA12CED
:104280002097A9F08091E80085FD22C08091E80088
:104290008E778093E80001151105A1F0F801808167
:1042A0009181A80EB91EB182A08285E0F82E8F2DD3
:1042B000DF91CF911F910F91FF90DF90CF90BF9032
:1042C000AF9008950E947A228823D1F2F82EEFCF82
:1042D000F60181916F018093F1002197FFEFAF1AF2
:1042E000BF0ACECFFC01CB012091310330913203C4
:1042F0002617370790F0009729F42091E8002E77D1
:104300002093E80040E0009751F4411108C08091EB
:10431000E80082FF31C080E00895C901F3CF209109
:104320002A032223A9F12530A9F12091E80023FDD9
:104330002DC02091E80022FDEACF2091E80020FF67
:10434000E2CF2091F2003091F300009719F028306D
:10435000310558F041E02830310509F040E0209166
:10436000E8002E772093E800CECF41914093F100F2
:1043700001972F5F3F4FE9CF80912A03882341F0B7
:10438000853041F08091E80083FFC1CF81E008953E
:1043900082E0089583E00895FC01CB012091310370
:1043A000309132032617370790F0009729F42091B7
:1043B000E8002E772093E80040E0009751F4411187
:1043C00008C08091E80082FF32C080E00895C901F2
:1043D000F3CF20912A032223B1F12530B1F12091AE
:1043E000E80023FD2EC02091E80022FDEACF2091B5
:1043F000E80020FFE2CF2091F2003091F300009717
:1044000019F02830310558F041E02830310509F025
:1044100040E02091E8002E772093E800CECF449131
:104420004093F100319601972F5F3F4FE8CF809185
:104430002A03882341F0853041F08091E80083FF12
:10444000C0CF81E0089582E0089583E00895982F19
:10445000973028F08F708093E90081E00895909361
:10446000E900242F762F50E0981731F07091EC007E
:104470002091ED005091F00021FD02C09F5FE8CF38
:104480003091EB003E7F3093EB003091ED003D7FAB
:104490003093ED003091EB0031603093EB0070937E
:1044A000EC002093ED005093F0002091EE0027FDEA
:1044B000E5CF80E0089580912B0387FF13C08091A2
:1044C000E80082FF06C08091E8008B778093E800C7
:1044D00004C080912A038111F2CF089580912A03AC
:1044E0008823D9F38091E80080FFF8CF8091E8001D
:1044F0008E77ECCF2091E4003091E50095E6A9019C
:104500002091EC00822F817020FF06C08091E8008E
:1045100080FF06C080E008952091E80022FD1AC0C7
:1045200080912A03882389F0853089F08091EB00FF
:1045300085FD0FC02091E4003091E500421753073C
:10454000F9F29150E1F684E0089582E0089583E065
:10455000089581E008950E941C230E942423E0EE28
:10456000F0E0808181608083E8EDF0E080818F77EA
:10457000808319BCA7EDB0E08C918E7F8C938081F5
:104580008F7E80831092330308950F931F93CF93F0
:10459000DF930E941C230E942423C8EDD0E0888171
:1045A0008F77888388818068888388818F7D8883DE
:1045B000E7EDF0E080818068808319BC10922A03C7
:1045C00010922903109227031092280300EE10E0A6
:1045D000F80180818B7F808388818160888342E0BD
:1045E00060E080E00E942722E1EEF0E080818E7F93
:1045F0008083E2EEF0E0808181608083808188604A
:104600008083F80180818E7F8083888180618883A8
:10461000DF91CF911F910F910895E8EDF0E0808137
:104620008F7E8083E7EDF0E080818160808381E090
:10463000809333030C94C522E8EDF0E080818C7FF9
:1046400080831092E20008951092DA001092E10047
:1046500008951F920F920FB60F9211240BB60F926E
:104660002F933F934F935F936F937F938F939F937A
:10467000AF93BF93EF93FF938091E10082FF0BC054
:104680008091E20082FF07C08091E1008B7F8093E0
:10469000E1000E9499258091DA0080FF19C0809185
:1046A000D80080FF15C08091DA008E7F8093DA00F9
:1046B0008091D90080FF96C084E189BD86E189BDE3
:1046C00009B400FEFDCF81E080932A030E94871F7A
:1046D0008091E10080FF19C08091E20080FF15C049
:1046E0008091E2008E7F8093E2008091E200806101
:1046F0008093E2008091D80080628093D80019BC3A
:1047000085E080932A030E94991F8091E10084FF35
:1047100029C08091E20084FF25C084E189BD86E143
:1047200089BD09B400FEFDCF8091D8008F7D8093B4
:10473000D8008091E1008F7E8093E1008091E200BB
:104740008F7E8093E2008091E20081608093E2009E
:1047500080912903882309F44BC084E080932A03C5
:104760000E949A1F8091E10083FF29C08091E2009E
:1047700083FF25C08091E100877F8093E10082E084
:1047800080932A03109229038091E1008E7F809309
:10479000E1008091E2008E7F8093E2008091E20050
:1047A00080618093E20042E060E080E00E94272286
:1047B0008091F00088608093F0000E94981FFF9124
:1047C000EF91BF91AF919F918F917F916F915F9189
:1047D0004F913F912F910F900BBE0F900FBE0F90F6
:1047E0001F90189519BC10922A030E94951F70CF34
:1047F0008091E30087FD02C081E0B0CF83E0AECFBF
:104800001F920F920FB60F9211240BB60F922F9397
:104810003F934F935F936F937F938F939F93AF9348
:10482000BF93CF93DF93EF93FF93D091E900DF70B5
:104830008091EC00C82FC17080FDC0E81092E900A3
:104840008091F000877F8093F00078940E94482444
:104850001092E9008091F00088608093F000CD2BE9
:10486000CF70C093E900FF91EF91DF91CF91BF919D
:10487000AF919F918F917F916F915F914F913F91F8
:104880002F910F900BBE0F900FBE0F901F90189599
:104890001F93CF93DF93CDB7DEB7AA970FB6F894E7
:1048A000DEBF0FBECDBF8BE293E0FC0101962091ED
:1048B000F100208323E083339207B9F70E94A61FFB
:1048C0008091E80083FF1DC180912B0390912C0300
:1048D0009A3008F016C1E92FF0E0E75DF64D0C9430
:1048E000D725803899F0823809F00BC180912F03C9
:1048F0008F70873008F005C18093E9008091EB004C
:1049000085FB882780F91092E90006C08091280372
:1049100090912703911182609091E800977F909386
:10492000E8008093F1001092F1008091E8008E770A
:10493000E4C0882309F4D2C0823009F0E2C080913B
:104940002D038111D5C080912F038F702FEF280F79
:10495000263008F0D6C08093E9002091EB0020FFBC
:10496000C7C0933031F48091EB0080628093EB00FC
:10497000BFC09091EB0090619093EB0021E030E09C
:1049800001C0220F8A95EAF72093EA001092EA000C
:104990008091EB008860EACF8111B3C010912D03A4
:1049A0001F778091E3008078812B8093E3008091D2
:1049B000E800877F8093E8000E945B228091E800F6
:1049C00080FFFCCF8091E30080688093E30082E069
:1049D000111183E080932A0394C08058823008F03C
:1049E00090C080912D0390912E038C3D23E092077F
:1049F00099F583E08A838AE289834FB7F894DE01D0
:104A0000139620E03EE051E2E32FF0E05093570090
:104A1000849120FF03C082958F703F5F8F708A3032
:104A2000C8F0895C90E08D939D932F5F243161F7EE
:104A30004FBF8091E800877F8093E8006AE270E0D2
:104A4000CE0101960E9472218091E8008B778093BD
:104A5000E80057C0805DE6CF60912F03709130036E
:104A6000AE014F5F5F4F0E949B20BC01892B09F470
:104A700048C08091E800877F8093E80089819A810F
:104A80000E94CC21E1CF8038E1F58091E800877F5A
:104A90008093E800809129038093F10046CF811133
:104AA00030C090912D03923060F58091E800877FAF
:104AB0008093E800909329030E945B228091290350
:104AC000882311F084E005C08091E30087FDFACFD0
:104AD00081E080932A030E949C1F13C080912D03C4
:104AE000813079F481E0933009F080E080932703EE
:104AF0001092E9008091E800877F8093E8000E948F
:104B00005B228091E80083FF0AC08091E800877FE4
:104B10008093E8008091EB0080628093EB00AA967E
:104B20000FB6F894DEBF0FBECDBFDF91CF911F91BE
:104B300008950895CF9380912A038823A1F0C0910E
:104B4000E900CF709091EC00892F817090FD80E892
:104B5000C82B1092E9008091E80083FD0E94482450
:104B6000CF70C093E900CF910895A1E21A2EAA1B3D
:104B7000BB1BFD010DC0AA1FBB1FEE1FFF1FA2170D
:104B8000B307E407F50720F0A21BB30BE40BF50B0A
:104B9000661F771F881F991F1A9469F76095709593
:104BA000809590959B01AC01BD01CF010895EE0F5A
:104BB000FF1F0024001C0BBE0790F691E02D099406
:104BC0000F931F93CF93DF93CDB7DEB72E970FB61A
:104BD000F894DEBF0FBECDBF0D891E8986E08C83A1
:104BE0001A8309838FEF9FE79E838D83AE01475E13
:104BF0005F4F6F89788DCE0101960E9410262F811C
:104C00003885020F131FF80110822E960FB6F89404
:104C1000DEBF0FBECDBFDF91CF911F910F910895E1
:104C20002F923F924F925F926F927F928F929F92BC
:104C3000AF92BF92CF92DF92EF92FF920F931F93AA
:104C4000CF93DF93CDB7DEB72F970FB6F894DEBFC3
:104C50000FBECDBF7C013B018A01DC0117961C927F
:104C60001E92169713968C9181FFD3C19AE0292E3C
:104C7000FE0131964F01D70113969C91F30193FDEC
:104C8000859193FF81913F01882309F444C18532C6
:104C900039F493FD859193FF81913F01853229F489
:104CA000B70190E00E942228E6CFB12C412C512C74
:104CB000BFE1B51538F08B3209F188F4803201F18B
:104CC000833221F157FC3AC020ED280F2A3040F5FD
:104CD00056FE1FC0B29C200D1124B22E06C08D328C
:104CE00091F0803379F7689450F8F30193FD859142
:104CF00093FF81913F018111DBCF20C0689451F86F
:104D0000689452F8F2CF689453F8EFCF689454F84F
:104D1000ECCF429C200D1124422E689455F8E5CF2B
:104D20008E3229F456FCF7C0689456F8DECF8C36E4
:104D300019F4689457F8D9CF8836B9F2982F9F7D27
:104D400095549330C0F08336A1F18337C1F1833598
:104D500009F05BC0D801CD90DD908D016B2D70E026
:104D600056FC02C06FEF7FEFC6010E940C285C0169
:104D7000689457F80AC00C5F1F4FEFE3E983AA2439
:104D8000A394B12C6401E89457F853FC04C04A146E
:104D90001B0409F018F5342CA114B10431F53320AB
:104DA00009F469CFB70180E290E00E9422283A948A
:104DB000F6CFD8018C9189830E5F1F4FE0CFF801A9
:104DC000C190D1908F016B2D70E056FC02C06FEF47
:104DD0007FEFC6010E9417285C01D5CFB70180E2A2
:104DE00090E00E9422284A94D2CFF60157FC859188
:104DF00057FE81916F01B70190E00E942228311087
:104E00003A94B1E0AB1AB108C7CF843619F08936AD
:104E100009F071C0F80157FE67C0619171918191ED
:104E200091918F01E52DEF76DE2E97FF09C09095C9
:104E30008095709561957F4F8F4F9F4F6894D7F8FD
:104E40002AE030E0A4010E945228C82EC818AC2CD9
:104E50005D2CD6FE0CC0E89450F8CB1440F4D4FE80
:104E600005C0D2FC03C05D2D5E7E552EAB2C54FEDA
:104E7000A8C0FE01EC0DF11D8081803309F09AC0BD
:104E8000652D697E562E752D7870372E53FCA8C07F
:104E900050FEA2C0BC2CA41410F4B40CBA1854FEDA
:104EA000A5C0B70180E390E00E94222852FE07C00F
:104EB00088E751FC88E590E0B7010E942228CB14D6
:104EC00008F4A0C0CA94D12C8FEFC81AD80AC80C15
:104ED000D91CD6018E916D01B70190E00E94222865
:104EE0008C149D04B1F75BCF61917191072E000C7A
:104EF000880B990B96CFD52CE894D4F82AE0853707
:104F0000D1F1F52DF97FDF2E803749F100F5883595
:104F100049F18F3679F1F701868197812F960FB687
:104F2000F894DEBF0FBECDBFDF91CF911F910F91DF
:104F3000FF90EF90DF90CF90BF90AF909F908F90B9
:104F40007F906F905F904F903F902F90089588379B
:104F500011F7D4FE02C06894D2F820E10CC0689426
:104F6000D4F8F7CF54FE03C02F2F2660D22E20E1B5
:104F700032E002C028E030E0F801D7FE15C04191D0
:104F80005191619171914C875D876E877F878F0109
:104F9000A4016C857D858E859F850E945228C82E30
:104FA000C818E894D7F853CF81919191AC0170E083
:104FB00060E0E9CF52FC02C0A39465CFA394A39410
:104FC00062CF852D867809F45ECFF6CFB70180E2F7
:104FD00090E00E942228A394A414C0F3312C5FCF48
:104FE000342C3A18A41408F45ACFF8CF852D8678BB
:104FF00009F465CF8BE251FE80E257FC8DE2B701E8
:1050000090E05BCFB70180E390E00E942228BA9441
:1050100056CF8FEF9FEF82CFFC010590615070401B
:105020000110D8F7809590958E0F9F1F0895FC0171
:105030006150704001900110D8F7809590958E0FC7
:105040009F1F08950F931F93CF93DF93182F092F5E
:10505000EB018B8181FD09C01FEF0FEF812F902F96
:10506000DF91CF911F910F91089582FF14C02E817F
:105070003F818C819D81281739073CF4E881F981B3
:10508000CF0101969983888310838E819F81019639
:105090009F838E83E3CFE885F985812F0995892B3E
:1050A000A1F3DACFFA01AA27283051F1203181F19A
:1050B000E8946F936E7F6E5F7F4F8F4F9F4FAF4F20
:1050C000B1E03ED0B4E03CD0670F781F891F9A1F33
:1050D000A11D680F791F8A1F911DA11D6A0F711DE7
:1050E000811D911DA11D20D009F468943F912AE0F3
:1050F000269F11243019305D3193DEF6CF010895DB
:10510000462F4770405D4193B3E00FD0C9F7F6CF0B
:10511000462F4F70405D4A3318F0495D31FD4052D3
:10512000419302D0A9F7EACFB4E0A6959795879569
:1051300077956795BA95C9F7009761057105089548
:105140009B01AC010A2E06945795479537952795F4
:10515000BA95C9F7620F731F841F951FA01D08958C
:10516000F999FECF92BD81BDF89A992780B508952F
:10517000A8E1B0E042E050E00C94E428262FF99931
:10518000FECF92BD81BDF89A019700B4021639F0A6
:105190001FBA20BD0FB6F894FA9AF99A0FBE089577
:1051A0000396272F0E94BF280E94BE28252F0E9409
:1051B000BF28242F0C94BF280196272F0E94BF28B8
:1051C0000C94BE28DC01CB01FC01F999FECF06C08E
:1051D000F2BDE1BDF89A319600B40D9241505040B5
:1051E000B8F70895F894FFCF310950093509370908
:1051F00039093B093D093F094109C10FC70FCB0FD1
:10520000D90FDD0FE10FE50FEB0FF30FF70FFB0FDA
:10521000FF0F0B100F10131017101D103B1025104F
:10522000CF0FD50F03100710EF0F211031104410CE
:105230004810B412B412161316136B13E412E412CE
:10524000E41287133C144D144D14AD14E412E4120F
:10525000B61471249924812599248125CC24ED2428
:06526000812543254F25C6
:10526600D902EF1E3E1FF21E3A1F261F01256C753E
:1052760000E200E900EA00B500B600B700CD008301
:1052860001CC008A01920194012102230224022505
:1052960002260227022A02B300B4006F007000F251
:1052A600F1F0C6C73031323334353637949597C06E
:1052B600C16061626364656667E200E900EA00B5A1
:1052C60000B600B700CD008301CC008A019201949C
:1052D600012102230224022502260227022A02B302
:0852E60000B4006F007000002D
:00000001FF
