:100000000C949A000C9441020C94B7000C94B70025
:100010000C94B7000C94B7000C94B7000C94B70084
:100020000C94B7000C94B7000C94B7000C94B70074
:100030000C94B7000C94B7000C94B7000C94B70064
:100040000C94B7000C94B7000C94FE030C94B7000A
:100050000C94B7000C94B7000C94B7000C94B70044
:100060000C94B7000C94B700040309044E0341003C
:100070006E006400720065006100200042006500AF
:100080006E0069006E0069002000280061006E00AB
:100090006400720065006100620065006E00690026
:1000A0006E006900400067006D00610069006C002F
:1000B0002E0063006F006D002900280342006500D8
:1000C0006E00200043007500730074006F006D0027
:1000D00020004B006500790062006F006100720033
:1000E00064000803360036003600120110010000DB
:1000F00000080F0E000600010102030109022200A0
:10010000010100800A090400000103000000092128
:1001100001010001221600070581030800640600A2
:10012000FF0901A101150026FF007508958009004F
:10013000B20201C011241FBECFEFD4E0DEBFCDBF9D
:1001400011E0A0E0B1E0E2EFF8E002C005900D920E
:10015000A230B107D9F711E0A2E0B1E001C01D92D1
:10016000A037B107E1F70E94DE030C9477040C94EA
:1001700000001F93162F2091100124FF07C020912B
:10018000110138E823272093110103C02AE52093A9
:100190001001212FDC01E2E1F1E08D9181932150EA
:1001A0001216DCF382E191E0612F0E943D021C5F98
:1001B000109310011F9108951F93CF93DF936091C7
:1001C0002101635067FDD0C080911E01CCE0D0E0DA
:1001D000C81BD109CB5DDE4F80911D018D3209F026
:1001E000B0C0683009F0BEC083EC809305018AE599
:1001F00080930001109202018881807639F0CE014F
:100200000E94C1038F3F09F48BC091C09A81109264
:100210000E018981882331F410920F012EE031E024
:1002200082E079C0853019F49093220171C0863044
:1002300009F058C08B81813041F48AEE90E09093B0
:10024000200180931F0182E149C0823041F48CEF8C
:1002500090E09093200180931F0182E23FC08330A1
:1002600041F5992341F488E690E090932001809332
:100270001F0184E033C0913041F48CE690E090930C
:10028000200180931F018EE429C0923041F48AEB53
:1002900090E09093200180931F0188E21FC093306B
:1002A000E1F482EE90E09093200180931F0188E0BA
:1002B00015C0813241F48EE091E09093200180934B
:1002C0001F0189E00BC0823241F48EE191E09093EE
:1002D000200180931F0186E101C080E090E49093AB
:1002E000020125C0883069F0893019F49093240107
:1002F0000FC08A3049F08B3059F48BE480931101A0
:1003000007C024E231E002C02EE031E081E003C00A
:100310002EE031E080E03093200120931F0107C0E0
:10032000988197FD8E8190E89093020107C09F818C
:10033000992321F49E81981708F4892F8093010155
:1003400011C08091020187FF0DC0CE010E949F0362
:100350008F3F21F48EE18093000104C0882311F0C7
:1003600010920101109221018091000184FF55C07B
:10037000809101018F3F09F450C0182F893008F097
:1003800018E0811B809301018091050198E889277D
:1003900080930501112379F18091020187FF09C043
:1003A00086E091E0612F0E946503182F893078F56F
:1003B00022C020911F013091200186FF0AC0F9015F
:1003C000812FA6E0B1E094919D9331968150D9F7A9
:1003D00008C0D901812FE6E0F1E09D919193815011
:1003E000E1F72F5F3F4F812F8150280F311D309350
:1003F000200120931F0186E091E0612F0E943D02C1
:100400001C5F1C3041F08FEF8093010104C08FEF1F
:10041000809301011EE11093000184E199B1947170
:1004200031F48150D9F71092220110921C01DF9112
:10043000CF911F910895E9E6F0E08081826080838A
:10044000E89A8BE4809311018AE580931001089566
:10045000A82FB92F80E090E041E050EA609530E0AD
:1004600009C02D9182279795879510F084279527AD
:10047000305EC8F36F5FA8F30895EADF8D939D9314
:100480000895CF93CFB7CF93DF93C3954C9BE9F7F4
:100490004C9B11C04C9B0FC04C9B0DC04C9B0BC088
:1004A0004C9B09C04C9B07C04C9B05C04C9B03C098
:1004B0004C9B01C083C06F93C0911E01DD27CB5DB3
:1004C000DE4F2F9320E400C065E04C9B03C02F91CA
:1004D0006F91DECF0F931F934F9345E55F9355E5E3
:1004E0003F933BE014E009B104712EC06A95C9F056
:1004F0003150D8F109B1047101130BC0089427954C
:10050000299320E4555500F46A9569F701E069B133
:100510000BC0102F66E02695299320E4555518F35B
:10052000E2CF0FEF69B10000162F455500F04040B3
:1005300066E014710030E2F221F0000009B10471AC
:1005400003C009B10471A9F0011309C008942795EB
:1005500068F200C06A95A9F700E069B1E5CF102FF5
:1005600066E0269528F20000ECCF11E01CBB0027C6
:1005700019C03B503195C31BD04011E01CBB088112
:10058000033C09F10B34F9F020911C011981110F82
:100590001213EDCF4A81441F093651F10D3211F08B
:1005A000013E29F7009323013F915F914F911F91E5
:1005B0000F912F916F91CCB3C0FD67CFDF91CF9199
:1005C000CFBFCF91189520912301222369F3109179
:1005D0002101112381F5343082F1309321012093E0
:1005E0001D0110911E013BE0311B30931E0125C0FF
:1005F000009121010130FCF40AE54F7049F430917B
:10060000000134FD1BC000930001C5E0D1E01AC019
:100610003091100134FD12C000931001C1E1D1E00E
:1006200011C0052710E000C00BB919C0052710E064
:10063000221F00C01DC04AE502C032ED432FC4E1B5
:10064000D0E032E01AB114615C9A0BB11AB954E1EE
:1006500020E869E420FF05270BB92795179500C00E
:1006600000001C3FF0F66695A8F7A1F720FF0527CC
:100670000BB92795179500001C3FC0F629913A95B4
:1006800041F70B7E10912201110F0BB9C651D040DA
:1006900011F010931C0111E01CBB00611AB11B7E0C
:1006A000402F4B7E55E05A95F1F70BB91AB94BB96B
:1006B0007BCF82E3EDE3F1E0DF011D928A95E9F75C
:1006C00010923C0110923B010895FF920F931F93EB
:1006D000F82E092F80910301162F861708F4182F82
:1006E0008F2D902F60E070E0412F50E00E94580461
:1006F000EF2DF02F80E013C090913B0120913C0141
:10070000921750F4A92FB0E0A35CBE4F2C91208328
:100710009F5F90933B0101C010828F5F31968117DC
:1007200058F380910301811B80930301882311F406
:100730000E945903812F1F910F91FF9008951F93DD
:10074000209103012223D1F0162F261708F4122F2F
:100750006091040170E0412F50E00E945F0480919D
:100760000401810F8093040190910301911B9093E8
:10077000030181E0992319F080E001C081E01F911D
:100780000895FC0180818076803261F4818181301E
:1007900011F0893049F480E880930301109204013C
:1007A0008FEF089580E0089580E008953D9A0E94BB
:1007B00047040E9459030E941C0408950E94D60316
:1007C0002EE088E190E00FB6F894A8958093600041
:1007D0000FBE209360000E941B02549A40E028E85C
:1007E00033E104C0A895C9010197F1F74150D1F751
:1007F00054987894A8950E94DC00FCCF1F920F9229
:100800000FB60F9211248F939F93EF93FF938091D4
:100810003C019091C600EDE3F1E0E80FF11D9083FB
:100820008F5F80933C01FF91EF919F918F910F908B
:100830000FBE0F901F90189545980895459A0895FA
:1008400020EC32E105C0F9013197F1F7A895019745
:100850000097C9F708950E941C0484EF91E00E945C
:1008600020040E941E0484EF91E00E942004089559
:100870000F931F93182F09C00E942B0401500023CF
:10088000D9F780ED97E00E942004012FF8CF84E093
:100890008093C50080E18093C40086E08093C2000D
:1008A000E1ECF0E088E180838081806880830895B6
:1008B000DC0101C06D9341505040E0F70895DC0128
:1008C000CB0103C02D910E946A0441505040D0F7E3
:1008D0000895262FF999FECF1FBA92BD81BD20BD84
:1008E0000FB6F894FA9AF99A0FBE01960895F89403
:0208F000FFCF38
:0208F2005AFFAB
:00000001FF
