:030000000215E600
:0C15E600787FE4F6D8FD758120021482A5
:10148200120AD574FFFFFE121511E4900038F0A382
:10149200F074FF900036F0A3F0120AD57F007EF8B8
:1014A2001215117FB87E0B1215997FE07E07121577
:1014B200117FB87E0B1215997F1F7E001215117FC6
:0814C200B87E0B12159980D1D0
:021601002000C7
:101556008F20A2079295C297D297A2069295C2971C
:10156600D297A2059295C297D297A2049295C29756
:10157600D297A2039295C297D297A2029295C2974A
:10158600D297A2019295C297D297A2009295C2973E
:03159600D29722C7
:0D15D4001215FC7F051215E17F3C1215E198
:0515E100D28202155644
:0515BF00E0FEA3E0FFC7
:1015C400AD07AC06D282ECFF121556AF05021556D4
:0515FC00C28202155639
:0A15F2001215FCAE04AF050215C48B
:1014CA00900024EEF0A3EFF07F2A1215FC9000247E
:1014DA00E0FF1215E1A3E0FF1215E1EAFF1215E1A0
:1014EA00AF031215E17F2B1215FCECFF1215E1AFC9
:1014FA00051215E190002AE0FF1215E1A3E0FF12A0
:07150A0015E17F2C0215FC26
:100AD500D28020805BE4FDFCFFFE1215F27BFF7ADD
:100AE500167901E4FDFCFFFE1211FE900004120FC1
:100AF5007800000000E4900008F0FDFCFFFE120FF6
:100B0500A9E4900006F0FBFAFDFCFFFE121292E448
:100B1500FDFCFFFE1213EDE4900006F0A3F0FBFAD6
:100B2500FDFCFFFE121154E4FBFDFCFFFE1206F373
:100B3500D2817F057E00121599C2817F057E001244
:100B45001599D281D2807F057E00121599C2807FCA
:100B5500111215FC7F787E001215997FB11215D4FC
:100B65007FB21215D47FB31215D41215D77FB412E4
:100B750015FC7F031215E17FC01215FC7F281215A5
:100B8500E17F081215E17F041215E17FC11215FC02
:100B95001F1215E17FC21215FC7F0D1215E1E4FF4E
:100BA5001215E17FC31215FC7F8D1215E17F2A1204
:100BB50015E17FC41215FC7F8D1215E17FEE12152C
:100BC500E17FC51215FC7F1A1215E17F361215FC5F
:100BD5007FC01215E17FE01215FC7F041215E17F3D
:100BE500221215E17F071215E17F0A1215E17F2E0A
:100BF5001215E17F301215E17F251215E17F2A12CA
:100C050015E17F281215E17F261215E17F2E1215B9
:100C1500E17F3A1215E1FF1215E10F1215E17F038D
:100C25001215E17F131215E17FE11215FC7F041205
:100C350015E17F161215E17F061215E17F0D1215DC
:100C4500E17F2D1215E17F261215E17F231215E1B3
:100C55007F271215E11215E17F251215E17F2D126F
:100C650015E17F3B1215E1FF1215E10F1215E17F2A
:100C7500041215E17F131215E17F3A1215FC7F0569
:080C85001215E17F290215FCA4
:02151100AC0626
:10151300EC900000F0A90790002AE4F0A3749FF078
:101523007B7F7A00E4FDFCFFFE1214CAE4FBFA9011
:101533000000E0FF1215E1AF011215E10BBB000142
:101543000AEB64A04A70E80DBD00010CED64804C09
:0215530070DA4C
:011555002273
:10108A0090002CEEF0A3EFF0900030EBF090002EE1
:05109A00ECF0A3EDF0F5
:10109F0090003374FFF0A37400F0A37403F090007A
:1010AF002CE0FAA3E0FFAE02C006C007241FFBE44A
:1010BF003AFAA3E0FEA3E0241FFFE43E90002AF0DB
:1010CF00A3EFF0D007D0061214CA900030E075F0ED
:1010DF0080A4FF900034E5F08FF0120E39E49000F9
:1010EF0032F0E4900031F0900031E0FFC3940850EB
:1010FF003D900033E0FBA3E0FAA3E0F9120E20FDD0
:10110F007C0074017E00A807088005C333CE33CE60
:10111F00D8F9FFEE5CFEEF5D4E6005900036800360
:10112F009000381215BF900031E004F080B99000A4
:10113F0034E475F001120E39900032E004F0E0C390
:04114F009480409EAA
:011153002279
:10139B00900004E0FEA3E0FF900001E02FFF90001F
:1013AB0000E03E900006FEE0FCA3E0FD900003E0B1
:0813BB002DFD900002E03CFC56
:1013C300AB07AA068D828C83C006C007AE83AF82AB
:1013D30090002AEEF0A3EFF0D007D0061214CA90C3
:0A13E3000036E0FEA3E0FF0215C48F
:1013ED00AB07AA068D828C83EB24FFFFEA34FFFE48
:1013FD00C006C007E58224FFFDE58334FFFCEB2426
:10140D0001FBE43AFAAE83AF82EF2401FFE43E9094
:10141D000006F0A3EFF0900036E0FFA3E090000887
:0C142D00CFF0A3EFF0D007D00602131A96
:10131A00900000EEF0A3EFF0A3ECF0A3EDF0A3EA47
:04132A00F0A3EBF051
:10132E00C007A3E0FFA3E090002ACFF0A3EFF0D018
:10133E00071214CA900002E0FFA3E090000ACFF05B
:10134E00A3EFF0900006E0FEA3E0FFD390000BE0C9
:10135E009F90000AE09E5034900000E0FEA3E0FB58
:10136E00AA06C3900005E09B900004E09A400D9001
:10137E0000081215BF0BBB00010A80E690000BE0BF
:0C138E0004F070BF90000AE004F080B78B
:01139A002230
:0E08EA00900008EEF0A3EFF0A3ECF0A3EDF009
:1008F800E4900012F0A3F0A3F0A3F0900008E0FE4B
:10090800A3E0FFC3EB9FFFEA9E900016F0A3EFF071
:1009180090000AE0FAA3E0FBC390000FE09BFE9072
:10092800000EE09A900018F0A3CEF0900008E0FFC7
:10093800A3E0900020CFF0A3EFF0A3EAF0A3EBF040
:10094800900016E0FEA3E0FFD39400EE648094804C
:10095800400A90001CE4F0A304F08021EF4E7008D8
:1009680090001CF0A3F0801574FF90001CF0A3F019
:10097800C3E49FFFE49E900016F0A3EFF0900018E8
:10098800E0FEA3E0FFD39400EE64809480400A90D8
:10099800001EE4F0A304F08021EF4E700890001EC2
:1009A800F0A3F0801574FF90001EF0A3F0C3E49F3D
:1009B800FFE49E900018F0A3EFF0900018E0FEA36B
:1009C800E0FF900016E0FCA3E0FDD39FEE6480F802
:1009D800EC64809890001A4007ECF0A3EDF08005D5
:1009E800EEF0A3EFF0E4900010F0A3F090001BE00D
:1009F8002401FF90001AE03400FED3900011E09F1C
:100A0800900010E09E4003020AD4900020E0FEA36C
:100A1800E0FFA3E0FCA3E0FD1213C3900016E0FE84
:100A2800A3E0FF900013E02FF0900012E03EF0905A
:100A38000018E0FEA3E0FF900015E02FF0900014EE
:100A4800E03EF090001AE0FEA3E0FF900012E0FC08
:100A5800A3E0FDD39FEE6480F8EC6480984020ED1D
:100A68009FFFEC9E900012F0A3EFF090001CE0FEB8
:100A7800A3E0FF900021E02FF0900020E03EF090EE
:100A8800001AE0FEA3E0FF900014E0FCA3E0FDD311
:100A98009FEE6480F8EC6480984020ED9FFFEC9E08
:100AA800900014F0A3EFF090001EE0FEA3E0FF908A
:100AB8000023E02FF0900022E03EF0900011E004C7
:0C0AC800F07006900010E004F00209F449
:010AD40022FF
:10115400900004EAF0A3EBF0900000EEF0A3EFF0AF
:10116400A3ECF0A3EDF0C007A3E0FAA3E0FB90002A
:1011740002E0FFA3E090000ECFF0A3EFF0D007123F
:1011840008EA900000E0FAA3E0FBFFAE02C007A368
:10119400E0FCA3E0FD900006E0FFA3E090000ECF8A
:1011A400F0A3EFF0D0071208EA900006E0FCA3E0F9
:1011B400FD900004E0FAA3E0FBA3E0FFA3E09000AD
:1011C4000ECFF0A3EFF0900000E0FEA3E0FF1208C2
:1011D400EA900004E0FAA3E0FBFFAE02C00790002F
:1011E40002E0FCA3E0FD900006E0FFA3E090000E07
:0A11F400CFF0A3EFF0D0070208EAE5
:0E06F300900000EEF0A3EFF0A3ECF0A3EDF00A
:10070100E4A3F0A3F0EBFF7E00A3EEF0A3EFF0254E
:10071100E0FFEE33FEC374039F900009F0E49E9066
:100721000008F0900006E0FEA3E0FFD3900005E092
:100731009FEE6480F8900004E06480984003020812
:10074100E9C3900001E09FFF900000E09EFE900051
:1007510004E0FCA3E0FDC3900003E09DFD900002D6
:10076100E09CFC1213C3900006E0FEA3E0FF9000A2
:1007710001E02FFF900000E03EFE900004E0FCA3AA
:10078100E0FDC3900003E09DFD900002E09CFC129F
:1007910013C3900004E0FEA3E0FFC3900001E09FBB
:1007A100FF900000E09E1213AE900006E0FEA3E071
:1007B100FFC3900001E09FFF900000E09EFE9000CB
:1007C10004E0FCA3E0FDC3900003E09DFD90000266
:1007D100E09CFC1213C3900004E0FEA3E0FFC39071
:1007E1000001E09FFF900000E09EFE900006E0FC0B
:1007F100A3E0FDC3900003E09DFD900002E09CFC9E
:100801001213C3900006E0FEA3E0FF900001E02F69
:10081100FF900000E03E9000041213B1900004E04C
:10082100FEA3E0FF900001E02FFF900000E03EFEFC
:10083100900006E0FCA3E0FDC3900003E09DFD9065
:100841000002E09CFC1213C312139B900006E0FE11
:10085100A3E0FFC3900001E09FFF900000E09EFE37
:100861009000041213B2900005E004F070069000AD
:1008710004E004F0C3900008E06480948050249068
:100881000004E0FEA3E07802C333CE33CED8F924CE
:1008910006FFE43EFE900009E02FF0900008E03EE4
:1008A100F0803F900006E0FEA3E0FFC3900005E06A
:1008B1009FFF900004E09EFEEF7802C333CE33CE5B
:1008C100D8F9240AFFE43EFE900009E02FF09000E1
:1008D10008E03EF0900007E024FFF0900006E034CD
:0808E100FFF012139B02072433
:0108E90022EC
:100C8D0090000CEEF0A3EFF0A3ECF0A3EDF0A3EBCE
:010C9D00F066
:100C9E0090000CE0FEA3E0FF900014EEF0A3EFF046
:100CAE00900036E0FDA3E0900016CDF0A3EDF0D35A
:100CBE00EF9470EE94004003020E1F90000EE0FCC5
:100CCE00A3E0FD9490EC94004003020E1F900010E0
:100CDE00E024E0F090000CE0FAA3E0FFAE02C006C4
:100CEE00C0072407FBE43AFAA3E0FEA3E0240FFFBB
:100CFE00E43E90002AF0A3EFF0D007D0061214CAFB
:100D0E00900011E06003020DA7F9900010E075F05D
:100D1E0010A4FFE97C002FFFEC35F0FE74032FF5D5
:100D2E008274013EF583E493900012F0E4A3F090F8
:100D3E000012E030E0059000168003900038E0FFCE
:100D4E00A3E0900036CFF0A3EFF09000361215BF5F
:100D5E00900012E0C313F090000DE004F0700690C6
:100D6E00000CE004F0900013E004F0E0C39408409F
:100D7E00BE900014E0FFA3E090000CCFF0A3EFF0C4
:100D8E0090000FE004F0700690000EE004F009E908
:100D9E0064106003020D188069E4F9900010E0758C
:100DAE00F010A4FFE97C002FFFEC35F0FE74032F4A
:100DBE00F58274013EF583E493900012F0E4A3F003
:100DCE00900013E0FFC394085033900012E030E01F
:100DDE001F90000DE02FFF90000CE03400FEE9FDA7
:100DEE0090000FE02DFD90000EE03400FC1213C3B6
:100DFE00900012E0C313F0A3E004F080C309E9B43D
:100E0E001099900016E0FFA3E0900036CFF0A3EF0C
:010E1E00F0E3
:010E1F0022B0
:0814390090000CEFF0A3EDF0B0
:10144100A3120F780000000190000DE0FF14F0EFEF
:101451006020A3E0F8A3E0F9A3E0FAA3E0FB900089
:101461000CE0FFE4FCFDFE120E4F90000E120F6C1B
:1014710080D690000EE0FCA3E0FDA3E0FEA3E0FF18
:011481002248
:0E0FA900900000EEF0A3EFF0A3ECF0A3EDF04B
:100FB700E490000BF0900004A3A3E0FEA3E0FFE49D
:100FC700FCFD900004120F6CE4900009F0900008FB
:100FD700E0FFA3E0FEC39F4003021089C3EF9E1406
:100FE700FD7F0A121439A804A905AA06AB079000C9
:100FF70004E0FCA3E0FDA3E0FEA3E0FF120EDAE4A9
:101007007B0AFAF9F8120EDA90000AEBF0A3E07007
:101017003B900008E014FFA3E0FEC39F502EA3E01F
:101027007024EE75F008A4FF900001E02FFF9000F8
:1010370000E035F0FE900002E0FCA3E0FDE4900044
:1010470011F07B20803090000B7401F0900009E0D4
:1010570075F008A4FF900001E02FFF900000E03535
:10106700F0FE900002E0FCA3E0FD90000AE02430CF
:10107700FBE4900011F0120C8D900009E004F002DF
:021087000FD484
:011089002244
:10129200900000EEF0A3EFF0A3ECF0A3EDF0A3EAD0
:0412A200F0A3EBF0DA
:1012A600E4900007F0900006E0F9A3E0FFC3995030
:1012B60062C3E99F14FD7F0A121439A804A905AA7E
:1012C60006AB07900004E0FEA3E0FFE4FCFD120E6F
:1012D600DAE47B0AFAF9F8120EDAAF03900008EFA7
:1012E600F0900007E075F008A4FF900001E02FFFE2
:1012F600900000E035F0FE900002E0FCA3E0FDEB7C
:101306002430FBE4900011F0120C8D900007E004ED
:03131600F08092D2
:0113190022B1
:1011FE00900000EEF0A3EFF0A3ECF0A3EDF0A3EB64
:10120E00F0A3EAF0A3E9F0900004E0FBA3E0FAA358
:10121E00E0F9120E20FB606BD3900001E094709009
:10122E000000E094004012E4F0A3F0900003E024EC
:10123E0010F0900002E03400F0D3900003E09490A0
:10124E00900002E09400400BE4900000F0A3F0A3A5
:10125E00F0A3F0900000E0FEA3E0FFA3E0FCA3E00B
:10126E00FDE4900011F0120C8D900001E02408F0C6
:10127E00900000E03400F0900005E475F001120ECD
:04128E0039808422FD
:10159900E4FDFCC3ED9FEE6480F8EC64809850157F
:1015A900E4FBFA0BBB00010ABA03F8BBE8F50DBD71
:0515B90000010C80DEC2
:0115BE00220A
:1000030000000000000000000000800000FEFF016F
:1000130000FEFF010006C0000006C0000006C0008D
:1000230000FEFF000006C0000006C0000006C0007E
:1000330000FEFF000006C0000006C0000002000032
:1000430030300C1CF07FFC3F30300C1C30300C1C6B
:1000530030300C1C30300C1CF03FFC1F30300C1CBB
:1000630030300C1C30300C1C30300C1CF03FFC1FAB
:10007300F03FFC1F30300C1C3010040C000000005B
:100083000000000000000000C0000808C0F1FF1FCE
:10009300C0F0FF1FC0484C1CC4DCCC1DCCDC8D1D44
:1000A300DC8E8D1DD8060E1FF8C3EF1DF8F1EC1C76
:1000B300D0601D1CC01C770CFE9FE7003483E30C4B
:1000C30030C3FF1F30C3610030E3610030E36106DA
:1000D30030F3FF0F30DB610030FB610438DB610E6E
:1000E30018CFFF0F18C7610098C761000CC36138B0
:1000F30004C2FF3F06C0010002C00100000000006F
:1001030000000000000000000000000000000000EC
:100113000000000808080808080800001818000074
:1001230000486C24120000000000000000000000E2
:100133000000002424247F1212127F1212120000E6
:100143000000081C2A2A0A0C1828282A2A1C080836
:1001530000000022251515152A5854545422000076
:100163000000000C1212120A76252911916E00006C
:100173000006060403000000000000000000000069
:10018300004020101008080808080810102040003C
:1001930000020408081010101010100808040200D0
:1001A3000000000008086B1C1C6B0808000000001E
:1001B30000000000080808087F080808080000007D
:1001C3000000000000000000000000000606040319
:1001D3000000000000000000FE000000000000001E
:1001E3000000000000000000000000000606000000
:1001F3000000804040202010100808040402020080
:1002030000000018244242424242424224180000A5
:10021300000000080E08080808080808083E000047
:100223000000003C4242422020100804427E0000AD
:100233000000003C4242201820404042221C0000A3
:10024300000000203028242422227E202078000071
:100253000000007E0202021A26404042221C0000D7
:10026300000000382402021A2642424224180000E9
:100273000000007E22221010080808080808000069
:100283000000003C4242422418244242423C000007
:10029300000000182442424264584040241C0000DD
:1002A30000000000000018180000000018180000EB
:1002B300000000000000000800000000000808041F
:1002C3000000004020100804020408102040000031
:1002D3000000000000007F0000007F00000000001D
:1002E300000000020408102040201008040200004F
:1002F3000000003C42424640201010001818000045
:100303000000001C225A555555552D42221C000051
:100313000000000808181414243C224242E700009D
:100323000000001F2222221E22424242221F0000FE
:100333000000007C4242010101010142221C000035
:100343000000001F2242424242424242221F00005A
:100353000000003F4212121E12120242423F0000EE
:100363000000003F4212121E121202020207000096
:100373000000003C2222010101712122221C000005
:10038300000000E7424242427E42424242E700000E
:100393000000003E0808080808080808083E000096
:1003A3000000007C10101010101010101010110F0E
:1003B3000000007722120A0E0A121222227700008E
:1003C300000000070202020202020202427F000052
:1003D30000000077363636362A2A2A2A2A6B00008E
:1003E300000000E346464A4A525252626247000006
:1003F3000000001C2241414141414141221C0000B7
:100403000000003F424242423E0202020207000055
:100413000000001C2241414141414D53321C600008
:100423000000003F4242423E1212222242C7000015
:100433000000007C4242020418204042423E000079
:100443000000007F4908080808080808081C000085
:10045300000000E74242424242424242423C000024
:10046300000000E742422224241414180808000064
:100473000000006B494949495555362222220000A4
:10048300000000E7422424181818242442E700003F
:10049300000000772222141408080808081C000032
:1004A3000000007E2120101008040442423F000097
:1004B30000780808080808080808080808087800E9
:1004C3000000020204040808081010202020404005
:1004D300001E1010101010101010101010101E001D
:1004E300003844000000000000000000000000008D
:1004F300000000000000000000000000000000FFFA
:1005030000060800000000000000000000000000DA
:10051300000000000000003C4278444242FC00001E
:10052300000000030202021A26424242261A000079
:1005330000000000000000384402020244380000BA
:1005430000000060404040784442424264D80000CA
:10055300000000000000003C427E0202423C00001A
:10056300000000F08808087E08080808083E00001C
:10057300000000000000007C22221C023C42423C9E
:10058300000000030202023A4642424242E70000F0
:100593000000000C0C00000E08080808083E0000CC
:1005A3000000003030000038202020202020221EB0
:1005B3000000000302020272120A161222770000E0
:1005C3000000000E0808080808080808083E000094
:1005D300000000000000007F9292929292B7000008
:1005E300000000000000003B4642424242E7000098
:1005F300000000000000003C42424242423C000036
:10060300000000000000001B26424242221E020797
:10061300000000000000007844424242447840E079
:1006230000000000000000774C040404041F0000D5
:10063300000000000000007C42023C40423E0000FB
:10064300000000000008083E080808080830000001
:1006530000000000000000634242424262DC0000EE
:1006630000000000000000E74224241408080000F2
:1006730000000000000000EB49495555222200000C
:10068300000000000000007624181818246E0000F3
:1006930000000000000000E74224241418080807A3
:1006A300000000000000007E22100808447E0000C5
:1006B30000C0202020202010202020202020C00047
:1006C3001010101010101010101010101010101027
:1006D30000060808080808100808080808080600A3
:1006E3000C32C20000000000000000000000000007
:100E2000BB010689828A83E0225002E722BBFE02D0
:090E3000E32289828A83E4932203
:100E3900C5F0F8A3E028F0C5F0F8E5821582700244
:060E49001583E038F022E1
:100E4F00E88FF0A4CC8BF0A42CFCE98EF0A42CFC42
:100E5F008AF0EDA42CFCEA8EF0A4CDA8F08BF0A4C0
:100E6F002DCC3825F0FDE98FF0A42CCD35F0FCEB1F
:100E7F008EF0A4FEA9F0EB8FF0A4CFC5F02ECD39E4
:0F0E8F00FEE43CFCEAA42DCE35F0FDE43CFC2251
:100E9E0075F008758200EF2FFFEE33FECD33CDCC0B
:100EAE0033CCC58233C5829BED9AEC99E58298408E
:100EBE000CF582EE9BFEED9AFDEC99FC0FD5F0D66B
:100ECE00E4CEFBE4CDFAE4CCF9A88222B800C1B995
:100EDE000059BA002DEC8BF084CFCECDFCE5F0CBD3
:100EEE00F97818EF2FFFEE33FEED33FDEC33FCEB0C
:100EFE0033FB10D703994004EB99FB0FD8E5E4F9C7
:100F0E00FA227818EF2FFFEE33FEED33FDEC33FCB3
:100F1E00C933C910D7059BE99A4007EC9BFCE99AA7
:100F2E00F90FD8E0E4C9FAE4CCFB2275F010EF2FEC
:100F3E00FFEE33FEED33FDCC33CCC833C810D707EC
:100F4E009BEC9AE899400AED9BFDEC9AFCE899F827
:0E0F5E000FD5F0DAE4CDFBE4CCFAE4C8F922BA
:0C0F6C00ECF0A3EDF0A3EEF0A3EFF022F8
:100F7800A8828583F0D083D082120F8F120F8F1230
:100F88000F8F120F8FE473E493A3C583C5F0C58355
:100F9800C8C582C8F0A3C583C5F0C583C8C582C8C3
:010FA8002226
:00000001FF
