:030000000223A236
:0C23A200787FE4F6D8FD75812002234806
:10236600322E3220696E636820544654203234304F
:052376002A33323000A3
:1022EC0074FF90002EF0A3F090002C74F8F0A3E48F
:1022FC00F0FBFDFC7F0AFE121E257B01E4FDFC7F3A
:10230C002DFE121E257BFF7A2379667D1E7C007FB5
:06231C000A7E00021F9979
:101C3B001222EC900004E4F0A37402F0E490000292
:101C4B00F0A3F0900002E0FAA3E0FB7C007D28FFFC
:101C5B00AE02121926C006C007A3E0FEA3E0FF12D6
:101C6B001926C006C007AF03AE02121926EF2427B0
:101C7B00FBE43EFA900004E0FEA3E0FF121926EF0E
:101C8B002427FFE43E90002AF0A3EFF0D005D00408
:101C9B00D007D00612221DE4900000F0A3F09000B4
:101CAB0000E0FEA3E0FFC39440EE648094865044B2
:101CBB00EF25E0FFEE33FE74042FF58274003EF542
:101CCB0083E493FF12239D900001E025E0FF900039
:101CDB0000E033FE74032FF58274003EF583E4932A
:101CEB00FF12239D900001E004F070B2900000E021
:101CFB0004F080AA900003E004F07006900002E06C
:101D0B0004F0C3900003E09403900002E06480941D
:101D1B00805003021C4E900005E004F0700690000A
:101D2B0004E004F0C3900005E09404900004E06428
:081D3B008094805003021C4754
:011D4300227D
:1023480012175574FFFFFE122264E490002EF0A3CA
:0E235800F074FF90002CF0A3F0121C3B80FEEE
:0223BD002000FE
:1022A9008F20A2079295C297D297A2069295C297BC
:1022B900D297A2059295C297D297A2049295C297F6
:1022C900D297A2039295C297D297A2029295C297EA
:1022D900D297A2019295C297D297A2009295C297DE
:0322E900D2972267
:0D2390001223B87F0512239D7F3C12239D70
:05239D00D2820222A91A
:05237B00E0FEA3E0FFFD
:10238000AD07AC06D282ECFF1222A9AF050222A94A
:0523B800C2820222A90F
:0A23AE001223B8AE04AF050223802D
:10221D00900024EEF0A3EFF07F2A1223B890002453
:10222D00E0FF12239DA3E0FF12239DEAFF12239DE1
:10223D00AF0312239D7F2B1223B8ECFF12239DAF0A
:10224D000512239D90002AE0FF12239DA3E0FF12AB
:07225D00239D7F2C0223B832
:10175500D28020805BE4FDFCFFFE1223AE7BFF7A86
:101765002379BDE4FDFCFFFE121F99900004121AB7
:101775007700000000E4900008F0FDFCFFFE121D5C
:1017850044E4900006F0FBFAFDFCFFFE12202DE478
:10179500FDFCFFFE122188E4900006F0A3F0FBFAA1
:1017A500FDFCFFFE121EEFE4FBFDFCFFFE121373B2
:1017B500D2817F057E00122322C2817F057E001221
:1017C5002322D281D2807F057E00122322C2807F10
:1017D500111223B87F787E001223227FB112239045
:1017E5007FB21223907FB31223901223937FB412FA
:1017F50023B87F0312239D7FC01223B87F281223AD
:101805009D7F0812239D7F0412239D7FC11223B85B
:101815001F12239D7FC21223B87F0D12239DE4FF63
:1018250012239D7FC31223B87F8D12239D7F2A1219
:10183500239D7FC41223B87F8D12239D7FEE122333
:101845009D7FC51223B87F1A12239D7F361223B8B8
:101855007FC012239D7FE01223B87F0412239D7F52
:101865002212239D7F0712239D7F0A12239D7F2E1F
:1018750012239D7F3012239D7F2512239D7F2A12DF
:10188500239D7F2812239D7F2612239D7F2E1223C1
:101895009D7F3A12239DFF12239D0F12239D7F03E7
:1018A50012239D7F1312239D7FE11223B87F04121B
:1018B500239D7F1612239D7F0612239D7F0D1223E4
:1018C5009D7F2D12239D7F2612239D7F2312239D0D
:1018D5007F2712239D12239D7F2512239D7F2D1285
:1018E500239D7F3B12239DFF12239D0F12239D7F76
:1018F5000412239D7F1312239D7F3A1223B87F057F
:0819050012239D7F290223B883
:02226400AC06C6
:10226600EC900000F0A90790002AE4F0A3749FF018
:102276007B7F7A00E4FDFCFFFE12221DE4FBFA9050
:102286000000E0FF12239DAF0112239D0BBB00014E
:102296000AEB64A04A70E80DBD00010CED64804CA9
:0222A60070DAEC
:0122A8002213
:101E2500900006EEF0A3EFF090000AEBF0900008AA
:051E3500ECF0A3EDF04C
:101E3A0090000D74FFF0A3740CF0A37483F090006B
:101E4A0006E0FAA3E0FFAE02C006C007241FFBE4C7
:101E5A003AFAA3E0FEA3E0241FFFE43E90002AF032
:101E6A00A3EFF0D007D00612221D90000AE075F009
:101E7A0080A4FF90000EE5F08FF0121938E490006C
:101E8A000CF0E490000BF090000BE0FFC3940850B4
:101E9A003D90000DE0FBA3E0FAA3E0F912190DFD55
:101EAA007C0074017E00A807088005C333CE33CEB8
:101EBA00D8F9FFEE5CFEEF5D4E600590002C8003C2
:101ECA0090002E12237B90000BE004F080B9900062
:101EDA000EE475F00112193890000CE004F0E0C32A
:041EEA009480409E02
:011EEE0022D1
:10213600900004E0FEA3E0FF900001E02FFF900076
:1021460000E03E900006FEE0FCA3E0FD900003E008
:082156002DFD900002E03CFCAD
:10215E00AB07AA068D828C83C006C007AE83AF8202
:10216E0090002AEEF0A3EFF0D007D00612221D90B9
:0A217E00002CE0FEA3E0FF02238026
:10218800AB07AA068D828C83EB24FFFFEA34FFFE9F
:10219800C006C007E58224FFFDE58334FFFCEB247D
:1021A80001FBE43AFAAE83AF82EF2401FFE43E90EC
:1021B8000006F0A3EFF090002CE0FFA3E0900008E9
:0C21C800CFF0A3EFF0D007D0060220B546
:1020B500900000EEF0A3EFF0A3ECF0A3EDF0A3EA9F
:0420C500F0A3EBF0A9
:1020C900C007A3E0FFA3E090002ACFF0A3EFF0D070
:1020D9000712221D900002E0FFA3E090000ACFF052
:1020E900A3EFF0900006E0FEA3E0FFD390000BE021
:1020F9009F90000AE09E5034900000E0FEA3E0FBB0
:10210900AA06C3900005E09B900004E09A400D9058
:10211900000812237B0BBB00010A80E690000BE04C
:0C21290004F070BF90000AE004F080B7E2
:012135002287
:0E156A00900008EEF0A3EFF0A3ECF0A3EDF07C
:10157800E4900012F0A3F0A3F0A3F0900008E0FEBE
:10158800A3E0FFC3EB9FFFEA9E900016F0A3EFF0E5
:1015980090000AE0FAA3E0FBC390000FE09BFE90E6
:1015A800000EE09A900018F0A3CEF0900008E0FF3B
:1015B800A3E0900020CFF0A3EFF0A3EAF0A3EBF0B4
:1015C800900016E0FEA3E0FFD39400EE64809480C0
:1015D800400A90001CE4F0A304F08021EF4E70084C
:1015E80090001CF0A3F0801574FF90001CF0A3F08D
:1015F800C3E49FFFE49E900016F0A3EFF09000185C
:10160800E0FEA3E0FFD39400EE64809480400A904B
:10161800001EE4F0A304F08021EF4E700890001E35
:10162800F0A3F0801574FF90001EF0A3F0C3E49FB0
:10163800FFE49E900018F0A3EFF0900018E0FEA3DE
:10164800E0FF900016E0FCA3E0FDD39FEE6480F875
:10165800EC64809890001A4007ECF0A3EDF0800548
:10166800EEF0A3EFF0E4900010F0A3F090001BE080
:101678002401FF90001AE03400FED3900011E09F8F
:10168800900010E09E4003021754900020E0FEA353
:10169800E0FFA3E0FCA3E0FD12215E900016E0FE4F
:1016A800A3E0FF900013E02FF0900012E03EF090CE
:1016B8000018E0FEA3E0FF900015E02FF090001462
:1016C800E03EF090001AE0FEA3E0FF900012E0FC7C
:1016D800A3E0FDD39FEE6480F8EC6480984020ED91
:1016E8009FFFEC9E900012F0A3EFF090001CE0FE2C
:1016F800A3E0FF900021E02FF0900020E03EF09062
:10170800001AE0FEA3E0FF900014E0FCA3E0FDD384
:101718009FEE6480F8EC6480984020ED9FFFEC9E7B
:10172800900014F0A3EFF090001EE0FEA3E0FF90FD
:101738000023E02FF0900022E03EF0900011E0043A
:0C174800F07006900010E004F00216742F
:011754002272
:101EEF00900004EAF0A3EBF0900000EEF0A3EFF007
:101EFF00A3ECF0A3EDF0C007A3E0FAA3E0FB900082
:101F0F0002E0FFA3E090000ECFF0A3EFF0D0071296
:101F1F00156A900000E0FAA3E0FBFFAE02C007A332
:101F2F00E0FCA3E0FD900006E0FFA3E090000ECFE1
:101F3F00F0A3EFF0D00712156A900006E0FCA3E0C3
:101F4F00FD900004E0FAA3E0FBA3E0FFA3E0900004
:101F5F000ECFF0A3EFF0900000E0FEA3E0FF12150C
:101F6F006A900004E0FAA3E0FBFFAE02C007900006
:101F7F0002E0FCA3E0FD900006E0FFA3E090000E5E
:0A1F8F00CFF0A3EFF0D00702156AAF
:0E137300900000EEF0A3EFF0A3ECF0A3EDF07D
:10138100E4A3F0A3F0EBFF7E00A3EEF0A3EFF025C2
:10139100E0FFEE33FEC374039F900009F0E49E90DA
:1013A1000008F0900006E0FEA3E0FFD3900005E006
:1013B1009FEE6480F8900004E06480984003021579
:1013C10069C3900001E09FFF900000E09EFE900045
:1013D10004E0FCA3E0FDC3900003E09DFD9000024A
:1013E100E09CFC12215E900006E0FEA3E0FF90006D
:1013F10001E02FFF900000E03EFE900004E0FCA31E
:10140100E0FDC3900003E09DFD900002E09CFC1212
:10141100215E900004E0FEA3E0FFC3900001E09F85
:10142100FF900000E09E122149900006E0FEA3E03B
:10143100FFC3900001E09FFF900000E09EFE90003E
:1014410004E0FCA3E0FDC3900003E09DFD900002D9
:10145100E09CFC12215E900004E0FEA3E0FFC3903B
:101461000001E09FFF900000E09EFE900006E0FC7E
:10147100A3E0FDC3900003E09DFD900002E09CFC11
:1014810012215E900006E0FEA3E0FF900001E02F34
:10149100FF900000E03E90000412214C900004E017
:1014A100FEA3E0FF900001E02FFF900000E03EFE70
:1014B100900006E0FCA3E0FDC3900003E09DFD90D9
:1014C1000002E09CFC12215E122136900006E0FE33
:1014D100A3E0FFC3900001E09FFF900000E09EFEAB
:1014E10090000412214D900005E004F07006900078
:1014F10004E004F0C3900008E064809480502490DC
:101501000004E0FEA3E07802C333CE33CED8F92441
:1015110006FFE43EFE900009E02FF0900008E03E57
:10152100F0803F900006E0FEA3E0FFC3900005E0DD
:101531009FFF900004E09EFEEF7802C333CE33CECE
:10154100D8F9240AFFE43EFE900009E02FF0900054
:1015510008E03EF0900007E024FFF0900006E03440
:08156100FFF01221360213A471
:01156900225F
:101AA80090000DEEF0A3EFF0A3ECF0A3EDF0A3EBA4
:011AB800F03D
:101AB90090000DE0FEA3E0FF900015EEF0A3EFF01B
:101AC90090002CE0FDA3E0900017CDF0A3EDF0D33A
:101AD900EF9470EE94004003021C3A90000FE0FC72
:101AE900A3E0FD9490EC94004003021C3A9000118D
:101AF900E024E0F090000DE0FAA3E0FFAE02C0069A
:101B0900C0072407FBE43AFAA3E0FEA3E0240FFF91
:101B1900E43E90002AF0A3EFF0D007D00612221D70
:101B2900900012E06003021BC2F9900011E075F009
:101B390010A4FFE97C002FFFEC35F0FE74832FF52C
:101B490082740D3EF583E493900013F0E4A3F090C2
:101B59000013E030E005900017800390002EE0FFAD
:101B6900A3E090002CCFF0A3EFF090002C12237B80
:101B7900900013E0C313F090000EE004F07006909B
:101B8900000DE004F0900014E004F0E0C394084074
:101B9900BE900015E0FFA3E090000DCFF0A3EFF099
:101BA900900010E004F0700690000FE004F009E9DD
:101BB90064106003021B338069E4F9900011E07539
:101BC900F010A4FFE97C002FFFEC35F0FE74832FA1
:101BD900F582740D3EF583E493900013F0E4A3F0CD
:101BE900900014E0FFC394085033900013E030E0F4
:101BF9001F90000EE02FFF90000DE03400FEE9FD7C
:101C0900900010E02DFD90000FE03400FC12215EE1
:101C1900900013E0C313F0A3E004F080C309E9B412
:101C29001099900017E0FFA3E090002CCFF0A3EFEC
:011C3900F0BA
:011C3A002287
:0821D40090000CEFF0A3EDF008
:1021DC00A3121A770000000190000DE0FF14F0EF3D
:1021EC006020A3E0F8A3E0F9A3E0FAA3E0FB9000E1
:1021FC000CE0FFE4FCFDFE12194E90000E121A6B5F
:10220C0080D690000EE0FCA3E0FDA3E0FEA3E0FF6F
:01221C00229F
:0E1D4400900000EEF0A3EFF0A3ECF0A3EDF0A2
:101D5200E490000BF0900004A3A3E0FEA3E0FFE4F4
:101D6200FCFD900004121A6BE4900009F090000848
:101D7200E0FFA3E0FEC39F4003021E24C3EF9E14B4
:101D8200FD7F0A1221D4A804A905AA06AB07900078
:101D920004E0FCA3E0FDA3E0FEA3E0FF1219D9E4F6
:101DA2007B0AFAF9F81219D990000AEBF0A3E07055
:101DB2003B900008E014FFA3E0FEC39F502EA3E077
:101DC2007024EE75F008A4FF900001E02FFF900050
:101DD20000E035F0FE900002E0FCA3E0FDE490009C
:101DE20012F07B20803090000B7401F0900009E02B
:101DF20075F008A4FF900001E02FFF900000E0358D
:101E0200F0FE900002E0FCA3E0FD90000AE0243026
:101E1200FBE4900012F0121AA8900009E004F0020C
:021E22001D6F32
:011E2400229B
:10202D00900000EEF0A3EFF0A3ECF0A3EDF0A3EA27
:04203D00F0A3EBF031
:10204100E4900007F0900006E0F9A3E0FFC3995087
:1020510062C3E99F14FD7F0A1221D4A804A905AA2D
:1020610006AB07900004E0FEA3E0FFE4FCFD1219BB
:10207100D9E47B0AFAF9F81219D9AF03900008EFF5
:10208100F0900007E075F008A4FF900001E02FFF39
:10209100900000E035F0FE900002E0FCA3E0FDEBD3
:1020A1002430FBE4900012F0121AA8900007E0041B
:0320B100F080922A
:0120B4002209
:101F9900900006EEF0A3EFF0A3ECF0A3EDF0A3EBB5
:101FA900F0A3EAF0A3E9F090000AE0FBA3E0FAA3AA
:101FB900E0F912190DFB606BD3900007E094709063
:101FC9000006E094004012E4F0A3F0900009E02438
:101FD90010F0900008E03400F0D3900009E09490EC
:101FE900900008E09400400BE4900006F0A3F0A3F1
:101FF900F0A3F0900006E0FEA3E0FFA3E0FCA3E05D
:10200900FDE4900012F0121AA8900007E02408F0ED
:10201900900006E03400F090000BE475F00112190D
:042029003880842255
:10232200E4FDFCC3ED9FEE6480F8EC6480985015E8
:10233200E4FBFA0BBB00010ABA03F8BBE8F50DBDDA
:0523420000010C80DE2B
:012347002273
:10000300FFFFFFFFFFFFFFFFFFFFFFFFFFFFFFFFFD
:10001300FFFFFFFFFFFFFFFFFFFFFFFFBEF77DEFC8
:10002300BAD6B6B5F39CB294B39CB29434A5F7BDDB
:10003300FBDE7DEFFFFFFFFFFFFFFFFFFFFFFFFF84
:10004300FFFFFFFFFFFFFFFFFFFFFFFFFFFFFFFFBD
:10005300FFFFFFFFFFFFFFFFFFFFFFFFFFFFFFFFAD
:10006300FFFFFFFFFFFFFFFFBEF7FBDEF39CCB5A53
:10007300C7390421821042104210410883184529D0
:10008300C7390C6375AD3CE7BEF7FFFFFFFFFFFF0A
:10009300FFFFFFFFFFFFFFFFFFFFFFFFFFFFFFFF6D
:1000A300FFFFFFFFFFFFFFFFFFFFFFFFFFFFFFFF5D
:1000B300FFFFFFFFFFFF3CE7B2940842C318821023
:1000C300042145298631863186318631452904212B
:1000D30082104108C3180842F39C3CE7FFFFFFFF6F
:1000E300FFFFFFFFFFFFFFFFFFFFFFFFFFFFFFFF1D
:1000F300FFFFFFFFFFFFFFFFFFFFFFFFFFFFFFFF0D
:10010300FFFFFFFFFBDE0C63C318C3184529C73984
:10011300084208420842084208420842C739C73920
:1001230086318631042141088210CB5ABAD6FFFFAB
:10013300FFFFFFFFFFFFFFFFFFFFFFFFFFFFFFFFCC
:10014300FFFFFFFFFFFFFFFFFFFFFFFFFFFFFFFFBC
:10015300FFFFFBDECB5A82104529C739084208420C
:10016300094A494A494A494A494A494A0842C73910
:10017300C739C7398631452983180000C84138C6B5
:10018300FFFFFFFFFFFFFFFFFFFFFFFFFFFFFFFF7C
:10019300FFFFFFFFFFFFFFFFFFFFFFFFFFFFFFFF6C
:1001A3007DEF8E7382104529C7390842094A8A5266
:1001B3003084CF7B8A52494A4A52494ACB5ACF7B31
:1001C3000C630842C73986314529C3180000494AE0
:1001D300BAD6FFFFFFFFFFFFFFFFFFFFFFFFFFFF9A
:1001E300FFFFFFFFFFFFFFFFFFFFFFFFFFFFFFFF1C
:1001F300F39CC3180421C7390842494A494A7294F7
:100203007DEF7DEFB2944A52494A8A5275ADBEF7EB
:10021300BAD64D6BC739C73986314529C31841084A
:10022300CF7B7CE7FFFFFFFFFFFFFFFFFFFFFFFF2A
:10023300FFFFFFFFFFFFFFFFFFFFFFFFFFFFBAD639
:1002430008428210C7390842494A494A8E73FBDE85
:10025300FFFFBEF7BAD68E73084230843CE77DEFCA
:10026300FFFFB6B5494AC7398631452904214108FC
:100273004529B6B5FFFFFFFFFFFFFFFFFFFFFFFFAE
:10028300FFFFFFFFFFFFFFFFFFFFFFFFBEF7718CC5
:10029300410845290842494A494A4A52B294BEF79D
:1002A300BEF7B294CF7BCF7B494AB6B5F39C0C63C0
:1002B30038C6BAD60C638739C73986314529C3187E
:1002C300410830847DEFFFFFFFFFFFFFFFFFFFFFCC
:1002D300FFFFFFFFFFFFFFFFFFFFFFFF3CE7CB5ADF
:1002E3004108C7390842494A4A528A52F39CFFFFE0
:1002F3007DEFC739C3180C63CB5AB6B5B294CB5A4A
:1003030075ADFAD64D6B8739C73986314529042136
:1003130041088A5279CEFFFFFFFFFFFFFFFFFFFF78
:10032300FFFFFFFFFFFFFFFFFFFFFFFF38C6863121
:100333000421C841494A494A4A52494AB18CBEF745
:10034300BEF7B294CF7BCF7B494A74A57DEF7CE7A0
:10035300BEF779CE0C63C739C739863145290421E5
:100363008210452975ADBEF7FFFFFFFFFFFFFFFFBB
:10037300FFFFFFFFFFFFFFFFFFFFFFFF34A582101B
:1003830086310842494A494A8A52494A4D6BBAD68C
:10039300FFFFFFFF79CE0D63C739CF7B7DEFFFFFF3
:1003A300FFFF75AD08428631C73986314529452996
:1003B300C318C318B2947DEFFFFFFFFFFFFFFFFFDA
:1003C300FFFFFFFFFFFFFFFFFFFFBEF7B28C4108F8
:1003D300C7390842494A494A8A528A524A4AD07B13
:1003E3007AC67BBE906BC9398831C939B384BBC621
:1003F300F8B5CC5A8631C739C739863145294529DD
:10040300C420410830843CE7FFFFFFFFFFFFFFFFED
:10041300FFFFFFFFFFFFFFFFFFFF3CE78A4AC31019
:10042300C7390842494A494A4A4A4A42093A084AA4
:10043300096B497BC67A05834683C57AC672097BF5
:10044300485A8731882188298631863145294529AB
:10045300042141084A4ABAD6FFFFFFFFFFFFFFFF0F
:10046300FFFFFFFFFFFFFFFFFFFFF7C582500541BF
:10047300C7290842494A4A42494A097B889BC6B36D
:1004830021D4A0DCE1E461ED61ED21EDA0E420DC09
:1004930080CB43ABC482065A472146294529042908
:1004A300041982108218F39C7DEFFFFFFFFFFFFF0B
:1004B300FFFFFFFFFFFFFFFF7DEF4D9300A082B81B
:1004C300C7310932494A867A43C36BEDF4F6EBFD33
:1004D30020FD20FD60FDA0FDA0FD60FD60FD20FD71
:1004E300E0FCA0FC60F4C1DB839AC54945290419EB
:1004F300C42082380050CB6ABAD6FFFFFFFFFFFF4C
:10050300FFFFFFFFFFFFFFFFFBEE04A100C000F0B2
:10051300C3A0C8414942059B20FCA4FC69FDE8FD3A
:1005230063FD20FD60FD60FD60FD20FD20FDE0FC1E
:10053300E0FCA0FC60FC20FC41D3C5494519C4384C
:10054300826841880070495A79CEFFFFFFFFFFFFA1
:10055300FFFFFFFFFFFFFFFFFBF682C000D086C156
:1005630046F141C8457989528862866AC67AC4BB16
:10057300E1FC60FD60FDA0FDA0FD60FD60FDE0FC11
:1005830060E403938472446AC5414529C35841A872
:10059300409800B000600C6B79CEFFFFFFFFFFFFB8
:1005A300FFFFFFFFFFFF7DEFCE83828800F8C4D8F3
:1005B3000CF38AFA82E882B04569C7510842083AC7
:1005C300865A839BA2BC22CD21CDA1C422B4C47A76
:1005D300063A862945290531C450419000C000A838
:1005E30000A000A800304A4ABAD6FFFFFFFFFFFF72
:1005F300FFFFFFFF7DEF8E73C318053982A800F854
:10060300C3F84DFB4DFBC7F9C3F082D8C3B00481D7
:1006130045614651864986494641454145414541E3
:1006230005490461829041B000D000C800A800A829
:1006330000B8415882108210B294BEF7FFFFFFFF4B
:10064300FFFFBEF7CF7B82100421862986410499E0
:1006530040E841F886F9CBFA49FA82F800F800F04D
:1006630000E841D841D041C041C041C041C041C868
:1006730000D000E000E000D800D000B800A8418816
:100683008248821082100000452979CEFFFFFFFFC8
:10069300BEF7F39C8210C31845298631C731307CDD
:1006A300F3DC86E100F000F841F841F800F800F8C7
:1006B30000F800F800F800F800F800F800F800F877
:1006C30000E800E000E000D800C841A08A9A0C636B
:1006D300041182108210410800004D6B7DEFFFFF73
:1006E300FBDE08424210452986318631494A38BE2D
:1006F300FFFF38D686A900C800E000F000F800F834
:1007030000F800F800F800F800F800F800F000F036
:1007130000E800E000D0C3988A8AB2A4BAC6F7B54D
:10072300084241088210410800004529F7BDFFFF38
:10073300718C410804214529863186310C633CE7DD
:10074300FFFF79D646B900E042C882A882B041D8FB
:1007530082E882F041E841E841E841F041E841D8CC
:1007630004C108924D8B34A5FBC6FBD6BACE3CE739
:100773003084C3184108410800004108CF7B7DEF56
:10078300494A000004214529463186313084FFFF60
:10079300FFF7F7DD09DA83F801F042C08298499A3E
:1007A300F3B4F3CC71BC8EBB8EBB30BC71BCF3BC59
:1007B300B6BDFBCEBEE77DE73BDFBAD679CEFBDE27
:1007C30075AD86314108410800000000494AFBDE4F
:1007D300042141080421452945298739B294FFFFA3
:1007E300BEF734DD0CEB09FA00F001D800D88BD248
:1007F3007DE7FFFFFFFFFFFFFFFFFFFFFFFFFFFFA0
:10080300FFFFBEFF7DEFFBDEFBDEBAD679CEBAD6A5
:1008130078C6C7390000410800000000C73979CE07
:1008230000008210C318042105298631B39CFFFF01
:10083300FFF775DDC7E9C7F901F801F000E849E200
:10084300FBEEFFFFFFFFFFFFFFFFFFFFFFFFFFFFCA
:10085300FFFFBEF77DEFFBDEFBDEBAD679CEBAD65D
:10086300B9CE08420000000000000000C73938C6B6
:100873000000821082100421042145293084FFFFE7
:10088300FFFF38DEC4D000F001F800F800F008D212
:10089300FBE6FFFFFFFFFFFFFFFFFFFFFFFFFFFF82
:1008A300FFFFBEF77DEFFBDEBAD679CE79CEBAD69F
:1008B30079CEC7394108000000000000863138C6F0
:1008C30000000000C318CB5A8631C318CB5A7DEF02
:1008D300FFFF7DEFCFBBC3B041D041D082B84DB352
:1008E3007DE7FFFFFFFFFFFFFFFFFFFFFFFFFFFFAF
:1008F300BEF7BEF73DEFFBDEBAD679CE79CEFAD698
:10090300F7BD04218631042100000000863138C67A
:100913008631C318CB5A75ADCF7B41088631F7BDFD
:10092300FFFFFFFFBEEF74B5309C309C72A4BBD6B3
:10093300FFFFFFFFFFFFFFFFFFFFFFFFFFFFFFFFC4
:10094300BEF77DEF3CE7FBDEBAD679CE79CE3CE746
:10095300718C81080C63CF7B821000008A5238C6E9
:1009630075AD718CB6B53CE7FBDEC7390000CF73BC
:10097300FFFFFFFFFFFFFFFFFFFFFFFFFFFFFFFF84
:10098300FFFFFFFFFFFFFFFFFFFFFFFFFFFFBEF7BD
:100993007DEF7DEF3BDFFAD679CE79CEFBDEB9CEA4
:1009A300C739C420718CBAD6718CCB5AB294BAD6DB
:1009B300FFFF7DEF7DEFFFFFFFFFB6B5462905196A
:1009C30075A5FFFFFFFFFFFFFFFFFFFFFFFFFFFF18
:1009D300FFFFFFFFFFFFFFFFFFFFFFFFFFFFBEF76D
:1009E3007DEF3CE7FBDEBAD679CEBAD6FCDE4E63AA
:1009F30042080C63F7BDBEF7FFFFFBDEFBDEBEF76D
:100A0300FFFFFFFFFFFFFFFFFFFFFFFFF49C04213A
:100A13000521B6A5FFFFFFFFFFFFFFFFFFFFFFFF5E
:100A2300FFFFFFFFFFFFFFFFFFFFBEF7BEF77DEFF7
:100A33003CE7FBDEBAD679CEFBDEBBD6D173831897
:100A43008639349DBDEFFFFFFFFFFFFFFFFFFFFF71
:100A5300FFFFFFFFFFFFFFFFBEFF35D6EBCC43B326
:100A630040510519F58CBEEFFFFFFFFFFFFFFFFFAE
:100A7300FFFFFFFFFFFFBEF7BEF77DEF7DEF3CE714
:100A8300FBDEBADEBAD63CDF3ABE4F63824940A3EF
:100A930023B4CC833ABEFFFFFFFFFFFFFFFFFFFF3F
:100AA300FFFFFFFFFFFFBFF7B5BD829220F4A0FC5D
:100AB30060E4408284418F6B77AD3DE7FFFFFFFF2A
:100AC300FEFFBEF7BEF7BEF77DEF7DEF3CE7FBDE33
:100AD300FBDE3DE7BBCE369D0B6B416A60C420FE57
:100AE30060F5008BC76A38C6BEF7FFFFFFFFFFFF45
:100AF300FFFFFFFFFFFF7DEF4B7B80B2A0FCA0FC5D
:100B0300E0FCE0FCC0CBC18A45624D6BB394F7BDFA
:100B13003DDFFFF7FFFFBEF77DEF7DEF7DE73DDFB5
:100B2300BAC675A58D7B847A40B3E0ECE0FDE0FDA9
:100B330060F520E5A0D40A6BFBDEFFFFFFFFFFFF9C
:100B4300FFFFFFFFFFFF7DEFCC9340EB60FCA0FCBA
:100B5300E0FC20FD60FD20F5A0D4C0BB429B458B8B
:100B63006B9CAE9C718CB394339D34A5F2A4F0B40A
:100B7300CA9B049B40BB20E420FDA0FDA0FDE0FD3B
:100B8300E0FDE0FD20C4885A38BEFFFFFFFFFFFFF2
:100B9300FFFFFFFFFFFFFFFF78D646AB40DB20F4EC
:100BA30060FCA0FCE0FC60FDA0FD60FD20F5A0DC86
:100BB300C0B3C05186290D638F7B0D5BC741018292
:100BC30000C3C0E360FCA0FCE0FCE0FC60F560F562
:100BD30020E5809B8662308479CEFFFFFFFFFFFF15
:100BE300FFFFFFFFFFFFFFFFFFFF38C62D9C0593AD
:100BF30043A382B3C2BBC2BB22B482A34293C37AD0
:100C030085620B637184B6B579CE79C6B5AD709440
:100C13004A8B06830493049B439B439B4393048324
:100C230008738D73B39479CE7DEFFFFFFFFFFFFF52
:100C3300FFFFFFFFFFFFFFFFFFFFFFFF3CDF38BEAC
:100C430075B533A533A5F39CF39CF39CF394F39C04
:100C530035A5F8BDFBDEBEF7FFFFFFFFFFFF7EEF0D
:100C6300BBD6F8BDB6AD75AD34A5339D349D35A562
:100C7300B7AD79C63CE7BEF7FFFFFFFFFFFFFFFFFE
:100C830000000000000000000000800000FEFF01E3
:100C930000FEFF010006C0000006C0000006C00001
:100CA30000FEFF000006C0000006C0000006C000F2
:100CB30000FEFF000006C0000006C00000020000A6
:100CC30030300C1CF07FFC3F30300C1C30300C1CDF
:100CD30030300C1C30300C1CF03FFC1F30300C1C2F
:100CE30030300C1C30300C1C30300C1CF03FFC1F1F
:100CF300F03FFC1F30300C1C3010040C00000000CF
:100D03000000000000000000C0000808C0F1FF1F41
:100D1300C0F0FF1FC0484C1CC4DCCC1DCCDC8D1DB7
:100D2300DC8E8D1DD8060E1FF8C3EF1DF8F1EC1CE9
:100D3300D0601D1CC01C770CFE9FE7003483E30CBE
:100D430030C3FF1F30C3610030E3610030E361064D
:100D530030F3FF0F30DB610030FB610438DB610EE1
:100D630018CFFF0F18C7610098C761000CC3613823
:100D730004C2FF3F06C0010002C0010000000000E2
:100D83000000000000000000000000000000000060
:100D930000000008080808080808000018180000E8
:100DA30000486C2412000000000000000000000056
:100DB3000000002424247F1212127F12121200005A
:100DC3000000081C2A2A0A0C1828282A2A1C0808AA
:100DD30000000022251515152A58545454220000EA
:100DE3000000000C1212120A76252911916E0000E0
:100DF30000060604030000000000000000000000DD
:100E030000402010100808080808081010204000AF
:100E13000002040808101010101010080804020043
:100E23000000000008086B1C1C6B08080000000091
:100E330000000000080808087F08080808000000F0
:100E4300000000000000000000000000060604038C
:100E53000000000000000000FE0000000000000091
:100E63000000000000000000000000000606000073
:100E730000008040402020101008080404020200F3
:100E83000000001824424242424242422418000019
:100E9300000000080E08080808080808083E0000BB
:100EA3000000003C4242422020100804427E000021
:100EB3000000003C4242201820404042221C000017
:100EC300000000203028242422227E2020780000E5
:100ED3000000007E0202021A26404042221C00004B
:100EE300000000382402021A26424242241800005D
:100EF3000000007E222210100808080808080000DD
:100F03000000003C4242422418244242423C00007A
:100F1300000000182442424264584040241C000050
:100F2300000000000000181800000000181800005E
:100F33000000000000000008000000000008080492
:100F430000000040201008040204081020400000A4
:100F53000000000000007F0000007F000000000090
:100F630000000002040810204020100804020000C2
:100F73000000003C424246402010100018180000B8
:100F83000000001C225A555555552D42221C0000C5
:100F93000000000808181414243C224242E7000011
:100FA3000000001F2222221E22424242221F000072
:100FB3000000007C4242010101010142221C0000A9
:100FC3000000001F2242424242424242221F0000CE
:100FD3000000003F4212121E12120242423F000062
:100FE3000000003F4212121E12120202020700000A
:100FF3000000003C2222010101712122221C000079
:10100300000000E7424242427E42424242E7000081
:101013000000003E0808080808080808083E000009
:101023000000007C10101010101010101010110F81
:101033000000007722120A0E0A1212222277000001
:10104300000000070202020202020202427F0000C5
:1010530000000077363636362A2A2A2A2A6B000001
:10106300000000E346464A4A525252626247000079
:101073000000001C2241414141414141221C00002A
:101083000000003F424242423E02020202070000C9
:101093000000001C2241414141414D53321C60007C
:1010A3000000003F4242423E1212222242C7000089
:1010B3000000007C4242020418204042423E0000ED
:1010C3000000007F4908080808080808081C0000F9
:1010D300000000E74242424242424242423C000098
:1010E300000000E7424222242414141808080000D8
:1010F3000000006B49494949555536222222000018
:10110300000000E7422424181818242442E70000B2
:10111300000000772222141408080808081C0000A5
:101123000000007E2120101008040442423F00000A
:10113300007808080808080808080808080878005C
:101143000000020204040808081010202020404078
:10115300001E1010101010101010101010101E0090
:101163000038440000000000000000000000000000
:10117300000000000000000000000000000000FF6D
:10118300000608000000000000000000000000004E
:10119300000000000000003C4278444242FC000092
:1011A300000000030202021A26424242261A0000ED
:1011B300000000000000003844020202443800002E
:1011C30000000060404040784442424264D800003E
:1011D300000000000000003C427E0202423C00008E
:1011E300000000F08808087E08080808083E000090
:1011F300000000000000007C22221C023C42423C12
:10120300000000030202023A4642424242E7000063
:101213000000000C0C00000E08080808083E00003F
:101223000000003030000038202020202020221E23
:101233000000000302020272120A16122277000053
:101243000000000E0808080808080808083E000007
:10125300000000000000007F9292929292B700007B
:10126300000000000000003B4642424242E700000B
:10127300000000000000003C42424242423C0000A9
:10128300000000000000001B26424242221E02070B
:10129300000000000000007844424242447840E0ED
:1012A30000000000000000774C040404041F000049
:1012B300000000000000007C42023C40423E00006F
:1012C300000000000008083E080808080830000075
:1012D30000000000000000634242424262DC000062
:1012E30000000000000000E7422424140808000066
:1012F30000000000000000EB494955552222000080
:10130300000000000000007624181818246E000066
:1013130000000000000000E7422424141808080716
:10132300000000000000007E22100808447E000038
:1013330000C0202020202010202020202020C000BA
:10134300101010101010101010101010101010109A
:101353000006080808080810080808080808060016
:101363000C32C2000000000000000000000000007A
:10190D00BB010689828A83E0225002E722BBFE02D8
:09191D00E32289828A83E493220B
:10192600EF8DF0A4A8F0CF8CF0A428CE8DF0A42ED5
:02193600FE228F
:10193800C5F0F8A3E028F0C5F0F8E582158270023A
:061948001583E038F022D7
:10194E00E88FF0A4CC8BF0A42CFCE98EF0A42CFC38
:10195E008AF0EDA42CFCEA8EF0A4CDA8F08BF0A4B6
:10196E002DCC3825F0FDE98FF0A42CCD35F0FCEB15
:10197E008EF0A4FEA9F0EB8FF0A4CFC5F02ECD39DA
:0F198E00FEE43CFCEAA42DCE35F0FDE43CFC2247
:10199D0075F008758200EF2FFFEE33FECD33CDCC01
:1019AD0033CCC58233C5829BED9AEC99E582984084
:1019BD000CF582EE9BFEED9AFDEC99FC0FD5F0D661
:1019CD00E4CEFBE4CDFAE4CCF9A88222B800C1B98B
:1019DD000059BA002DEC8BF084CFCECDFCE5F0CBC9
:1019ED00F97818EF2FFFEE33FEED33FDEC33FCEB02
:1019FD0033FB10D703994004EB99FB0FD8E5E4F9BD
:101A0D00FA227818EF2FFFEE33FEED33FDEC33FCA9
:101A1D00C933C910D7059BE99A4007EC9BFCE99A9D
:101A2D00F90FD8E0E4C9FAE4CCFB2275F010EF2FE2
:101A3D00FFEE33FEED33FDCC33CCC833C810D707E2
:101A4D009BEC9AE899400AED9BFDEC9AFCE899F81D
:0E1A5D000FD5F0DAE4CDFBE4CCFAE4C8F922B0
:0C1A6B00ECF0A3EDF0A3EEF0A3EFF022EE
:101A7700A8828583F0D083D082121A8E121A8E1212
:101A87001A8E121A8EE473E493A3C583C5F0C58337
:101A9700C8C582C8F0A3C583C5F0C583C8C582C8B9
:011AA700221C
:00000001FF
