:100000000C94B2060C94D1060C94D1060C94D10633
:100010000C94D1060C94D1060C94D1060C94D10604
:100020000C94D1060C94D1060C9454270C942B28D4
:100030000C94A51E0C94D1060C94D1060C94D106F8
:100040000C94D1060C94D1060C94D1060C94D106D4
:100050000C94D1060C94101F0C94D1060C94D1066C
:100060000C94D1060C94D1060C94D1060C94D106B4
:100070000C94D1060C94D1060C94D1060C94D106A4
:100080000C94D1060C94D1060C94D1060C94D10694
:100090000C94D1060C94D106010118000103E6006E
:1000A000010135000102E600010112000103E60032
:1000B000010135000102E60001010C000103E60028
:1000C000010135000102E600010108000103E6001C
:1000D000010135000102E600010104000103E60010
:1000E000010135000102E6006F0029003A003B00E3
:1000F0003C003D003E003F00400041004200430004
:10010000440045000152010070007100720073004C
:100110007A00790035001E001F0021002200230014
:1001200024002500260027002D002A0046004B0051
:1001300000005400550056006A006B002B001400AC
:100140001A00200015001C0018000C0012001300FB
:100150002F002E0049004A00530060006100570044
:100160007B006C003900040016000800090017002D
:100170000D000E000F003300340030004C004D0025
:100180005F005D005E0058007C006D00E1001D0016
:100190001B00070019000A000B0010003700380090
:1001A000E5002800310052004E005C005B00630057
:1001B0007D006E00E000E200E30006002C00050078
:1001C000110036000351E600E700E4005000510042
:1001D0004F0059005A0062000100010001000100B7
:1001E0000100010001000100010001000100010007
:1001F00001000100005201000100010001000100A6
:1002000001000100010001000100010001000100E6
:1002100001000100010001000100010001000100D6
:1002200000000100010001000100010001000100C7
:1002300001000100010001000100010001000100B6
:1002400001000100010001000100010001000100A6
:100250000100010001000100010001000100010096
:100260000100010001000100010001000100010086
:100270000100010001000100010001000100010076
:100280000100010001000100010001000100010066
:100290000100010001000100010001000100010056
:1002A0000100010001000100010001000100010046
:1002B0000100010001000100010001000100010036
:1002C0000100010001000100010001000100010026
:1002D0000100010001000100010001000100010016
:1002E00001000100025201000100010001000100B3
:1002F00001000100010001000100010001000100F6
:1003000001000100010001003400010001000100B2
:1003100000000100010001000100010001000100D6
:1003200001000100010001000100010001000100C5
:1003300001000100010001000100010001000100B5
:1003400001000100010001000100010001000100A5
:100350000100010001000100010001000100010095
:100360000100010001000100010001000100010085
:1003700001000100010001000100010001002D0049
:100380000100010001000100010001000100010065
:100390000100010001000100010001000100010055
:1003A0000100010001000100010001000100010045
:1003B0000100010001000100010001000100010035
:1003C0000100010001000100010001000100010025
:1003D000010001000100005C0100010001000100BA
:1003E0000100010001000100010001000100010005
:1003F00001000100010001000100010001000100F5
:1004000000000100010001000100010001000100E5
:1004100001000100010001000C5D0A5D0B5D01009F
:1004200001000100010001000100010001000100C4
:10043000010001000100085D0100095D01000100EB
:1004400001000100010001000100010001000100A4
:100450000100010001000100010001000100010094
:100460000100010001000100010001000100010084
:100470000100010001000100010001000100010074
:100480000100010001000100010001000100010064
:100490000100010001000100010001000100010054
:1004A000010001000100010044454255473A206423
:1004B000697361626C65642E0A0044454255473A8F
:1004C00020656E61626C65642E0A00000000000009
:1004D0000000002A2B28000000000000000000009F
:1004E00000000000000029000000002C1E34202124
:1004F0002224342627252E362D3738271E1F20216B
:1005000022232425263333362E37381F04050607C9
:1005100008090A0B0C0D0E0F1011121314151617E3
:1005200018191A1B1C1D2F3130232D350405060701
:1005300008090A0B0C0D0E0F1011121314151617C3
:1005400018191A1B1C1D2F3130354C0000000000FB
:100550000000000000000000000000000000007E1D
:100560000F00D4FFFFFFC7000000780A00253033DA
:10057000326C62003A200025303258000A722F6334
:1005800020303132333435363738394142434445EF
:1005900046303132333435363738394142434445B9
:1005A000460A00556E69636F646520696E707574E4
:1005B000206D6F64652073657420746F3A20257513
:1005C0000A00556E69636F646520696E70757420EA
:1005D0006D6F646520696E697420746F3A202575AB
:1005E0000A000A002530325820006B6579626F617D
:1005F00072645F7265706F72743A20000A00253071
:100600003258006B6579626F6172645F7365745F05
:100610006C65643A200064656C5F6B65795F626944
:10062000743A2063616E27742064656C3A2025302B
:1006300032580A006164645F6B65795F6269743A7D
:100640002063616E2774206164643A20253032583B
:100650000A003F00433E20004C25640A0074696D87
:1006600065725F72656164333228293A202530341F
:100670006C580A006B65796D61705F636F6E6669B7
:10068000672E6E6B726F3A2025580A006B6579628F
:100690006F6172645F69646C653A2025580A006B6B
:1006A0006579626F6172645F70726F746F636F6C93
:1006B0003A2025580A00686F73745F6B6579626F22
:1006C0006172645F6C65647328293A2025580A00BA
:1006D0000A092D20537461747573202D0A00474355
:1006E000433A2031302E312E30204156522D4C4984
:1006F00042433A20322E302E30204156525F415232
:1007000043483A2061767235310A004F5054494FC0
:100710004E533A204C5546412045585452414B4582
:100720005920434F4E534F4C4520434F4D4D414E62
:1007300044204E4B524F20313032340A004255494A
:100740004C443A2022302E392E34342D342D673546
:10075000653831326322202830323A33383A31302A
:10076000204A756C2032362032303230290A005649
:1007700049443A203078303844452842656E292073
:100780005049443A2030784330444528466174202B
:10079000426F74746F6D6564204B6579626F61722E
:1007A0006429205645523A203078303030310A00E2
:1007B0000A092D2056657273696F6E202D0A000A92
:1007C000092D20436F6E736F6C65202D0A455343CE
:1007D0002F713A09717569740A000A092D204D615B
:1007E000676963202D0A443A094465627567204DA4
:1007F00065737361676520546F67676C650A583A63
:10080000094D6174726978204465627567204D6F87
:10081000646520546F67676C65202D2053686F777F
:10082000206B65797072657373657320696E206DD6
:10083000617472697820677269640A4B3A094B6582
:1008400079626F61726420446562756720546F67D6
:10085000676C65202D2053686F77206B6579707207
:10086000657373207265706F72740A4D3A0944653E
:10087000627567204D6F75736520546F67676C658F
:100880000A563A0956657273696F6E0A533A0953EC
:1008900074617475730A433A0941637469766174CB
:1008A0006520436F6E736F6C65204D6F64650A46FB
:1008B000312D4631303A0953776974636820746F7B
:1008C000204C6179657220302D3920284631302046
:1008D0003D204C30290A302D393A09537769746329
:1008E0006820746F204C6179657220302D390A4779
:1008F000524156453A0953776974636820746F20F2
:100900004C6179657220302028616C7465726E616B
:100910007465290A423A094A756D7020746F204245
:100920006F6F746C6F616465720A4553433A094A8C
:10093000756D7020746F20426F6F746C6F616465A9
:10094000722028616C7465726E617465290A453A7B
:10095000095072696E7420454550524F4D205365C1
:100960007474696E67730A4253504143453A0943B0
:100970006C65617220454550524F4D0A4E3A094E02
:100980004B524F20546F67676C650A000A0025754B
:10099000002E6E6B726F3A20000A002575002E73D0
:1009A0007761705F6261636B736C6173685F6261D2
:1009B000636B73706163653A20000A002575002E31
:1009C000737761705F67726176655F6573633A2004
:1009D000000A002575002E6E6F5F6775693A20006A
:1009E0000A002575002E737761705F72616C745F09
:1009F000726775693A20000A002575002E737761C9
:100A0000705F6C616C745F6C6775693A20000A00F6
:100A10002575002E737761705F7263746C5F726707
:100A200075693A20000A002575002E737761705FA2
:100A30006C63746C5F6C6775693A20000A002575F9
:100A4000002E636170736C6F636B5F746F5F636FB5
:100A50006E74726F6C3A20000A002575002E737751
:100A600061705F636F6E74726F6C5F636170736CE3
:100A70006F636B3A20000A0025303258006B6579AD
:100A80006D61705F636F6E6669672E7261773A2081
:100A9000000A002575002E6D6F7573653A20000AF7
:100AA000002575002E6B6579626F6172643A2000D3
:100AB0000A002575002E6D61747269783A20000A6B
:100AC000002575002E656E61626C653A20000A0093
:100AD000253032580064656275675F636F6E6669C2
:100AE000672E7261773A20000A00257500646566FA
:100AF00061756C745F6C617965723A20003F004EDD
:100B00004B524F3A206F66660A004E4B524F3A20C6
:100B10006F6E0A000A6D6F7573653A206F66660A1C
:100B2000000A6D6F7573653A206F6E0A000A6B6577
:100B300079626F6172643A206F66660A000A6B65BB
:100B400079626F6172643A206F6E0A000A6D617497
:100B50007269783A206F66660A000A6D617472697C
:100B6000783A206F6E0A000A64656275673A206FF2
:100B700066660A000A64656275673A206F6E0A004D
:100B80000A0A4A756D70696E6720746F20626F6F14
:100B9000746C6F616465722E2E2E2000433E20001F
:100BA000436C656172696E6720454550524F4D0A2E
:100BB000006565636F6E6669673A0A005B735D0086
:100BC0004B6579626F6172642073746172742E0A6E
:100BD000005B575D005B535D005B525D005B445DF5
:100BE000005B435D000403300000002C03460061FD
:100BF000007400200042006F00740074006F006DEC
:100C0000006500640020004B006500790062006F01
:100C10000061007200640000000803420065006E7D
:100C20000000000403090409025B00030100A0FAAC
:100C30000904000001030101000921110100012242
:100C400040000705810308000A09040100010300B0
:100C50000000092111010001226D00070582032017
:100C6000000A09040200020300000009211101002A
:100C7000012222000705830320000107050303204A
:100C800000011201100100000008DE08DEC00100B2
:100C9000010203010631FF0974A10109751500263F
:100CA000FF009520750881020976150026FF009542
:100CB0002075089102C005010980A1018503190171
:100CC0002AB700150126B700950175108100C005EF
:100CD0000C0901A101850419012AA002150126A011
:100CE00002950175108100C005010906A101850565
:100CF000050719E029E7150025019508750181020E
:100D00000507190029EF1500250195F075018102ED
:100D100005081901290595057501910295017503CD
:100D20009101C005010906A101050719E029E71590
:100D3000002501950875018102950175088101055D
:100D400007190029FF150026FF0095067508810088
:100D5000050819012905950575019102950175038D
:100D60009101C00011241FBECFEFD0E2DEBFCDBF86
:100D700011E0A0E0B1E0EAE5F5E500E00BBF02C05C
:100D800007900D92A239B107D9F722E0A2E9B1E0AC
:100D900001C01D92AC3DB207E1F70E947C240C9487
:100DA000362A0C940000FF93EF93E0919201F091AA
:100DB0009301309709F00995EF91FF910895FC0197
:100DC0008591803011F0EFDFFBCF0895FF27E0E23F
:100DD00030E247FF0CC0419597FF09C0EDE26095F6
:100DE000709580959095611D711D811D911D27FF46
:100DF00002C0219530E350E2AA27660F771F881FB3
:100E0000991FAA1FA41710F0A41B63955A95A9F760
:100E1000AA3008F0A95FA05DAF93F3956115710545
:100E20008105910541F7ED3211F4EF93F395F21737
:100E300018F43F93F395FBCF8F91B5DFFA95E1F767
:100E40000895E991F9918591803021F0853219F06A
:100E5000AADFF9CF089520E0E89455915532C1F307
:100E6000503311F4689455915A3348F4505390F329
:100E7000220F022E220F220F200D250FF4CF0EF489
:100E8000219589919991533619F3533729F15335A7
:100E900059F1BC0188279927E8945C3621F489919F
:100EA000999168945591543639F446EF7EF077FF66
:100EB0000DC08FEF9FEF0AC055374AE039F0583523
:100EC00040E121F0523642E009F00895FF93EF939C
:100ED0007DDFEF91FF91B7CFFF93EF93FC018191FD
:100EE0008030B9F360DFFBCFFF93EF9368DFF1CF82
:100EF000DF93CF93CDB7DEB72596A3DFCF91DF91F8
:100F000008950C9489070C948A070C948B070C9411
:100F1000F707089508959C01FB018281882309F455
:100F200064C02A30FDE53F0799F140F42830EDE533
:100F30003E0769F029303D45E1F008952B309DE5ED
:100F40003907A9F12C303D4509F440C0089584EEDD
:100F500090E00E946B0980EE90E00E946B098CED9E
:100F600090E00E946B0988ED90E00E946B0980E0A0
:100F7000089584ED90E00E946B0980ED90E00E945E
:100F80006B098CEC90E00E946B0988EC90E0EDCF4F
:100F900084EC90E00E946B0980EC90E00E946B0969
:100FA0008CEB90E00E946B0988EB90E0DECF84EB45
:100FB00090E00E946B0980EB90E00E946B098CEA44
:100FC00090E00E946B0988EA90E0CFCF84EA90E03D
:100FD0000E946B0980EA90E00E946B098CE990E026
:100FE0000E946B0988E990E0C0CF81E008950895E0
:100FF000CF93DF939C01FB019A9581159F4160F58A
:10100000E901CC27D170D901AA27B270B9016627AE
:101010007470A9014427587034FF10C080E1CD2BB3
:1010200009F480E0AB2B09F08062672B09F0806443
:10103000452B09F08068DF91CF91099481E0CD2B99
:1010400009F480E0AB2B09F08260672B09F0846023
:10105000452B89F38860EFCFDF91CF910895CF932F
:10106000DF93EC01805E9109089720F061E575E15E
:10107000209711F46EEA72E1CE010E94F8078C2FDE
:10108000DF91CF910C942912CF93DF93EC010E9452
:101090007312CE01805E9109089720F068E575E132
:1010A000209711F465EB72E1CE01DF91CF910C94A2
:1010B000F807CF93DF93D82FC92F0E942F088D2FC9
:1010C0009C2FDF91CF910C94440881E008950895FE
:1010D0000C9467081F93CF93DF9300D000D00F923A
:1010E000CDB7DEB749835A836B833091EF01898195
:1010F0009A8131111DC06623B9F02223A9F00E9404
:10110000161B182F682F89819A810E94BF1A698146
:101110007A81812F0F900F900F900F900F90DF9199
:10112000CF911F910C94FF090E94ED1A182FEFCF59
:101130000E94161B69817A81EDCFFC01262F408128
:1011400051816281738184810C946A08CF93DF930B
:10115000D82FC92F60E00E949D086D2F7C2FDF9152
:10116000CF910C946808FF920F931F93CF93DF9356
:10117000E82FF0E0E553FB4FF490C82FC695C695D5
:10118000C695D0E0FE01E55AFA4F0491877010E051
:10119000082E02C0159507950A94E2F701701127F1
:1011A000C55BDA4FFE01C491D0E002C0D595C7956A
:1011B0008A95E2F7C170DD270115110519F081EE5E
:1011C0000E942912209719F086EE0E9429128F2D75
:1011D0000E949B12CD2B19F086EE0E947312012BF8
:1011E00041F081EEDF91CF911F910F91FF900C9410
:1011F0007312DF91CF911F910F91FF900895EF929D
:10120000FF920F931F93CF93DF938C01F62E8AE00A
:10121000E82EF8018491882309F456C0813009F042
:101220004FC0E8012196FE018491813099F4219606
:10123000FE0184910E949B128E010F5F1F4F8F2D24
:10124000882339F3EFE9FFE03197F1F700C00000A0
:101250008150F6CF823039F4E8012296FE01849164
:101260000E942912E9CF833039F4E8012296FE0169
:1012700084910E947312E0CF8430F1F6E801229647
:10128000FE01249180E090E0FE0131962053330B63
:101290002A30310550F0009779F2EFE9FFE03197FD
:1012A000F1F700C000000197F6CFE89EA001E99E8B
:1012B000500D1124C901840F951F2491EF01E4CF33
:1012C0000E94B308E801B8CFDF91CF911F910F9131
:1012D000FF90EF90089560E00C94FF080E94BA1C04
:1012E000811102C00E94571D0E94EA0D0C948107D3
:1012F0000C9483078F7041F08A3018F4835E90E07D
:1013000008958650990B089587E290E0089581E052
:1013100008950C948709CF93C82F0E9487078C2FBC
:10132000CF910C94890908950E9471150E94930928
:101330002FEF84E39CE0215080409040E1F700C013
:1013400000000C94341F0F931F93CF93DF93EC0195
:1013500061E00E949D088C01BE010E9485078823E0
:1013600041F1BE01C8010E94870E882311F1BE0120
:10137000C8010E94100F8823E1F0BE01C8010E943D
:10138000540F8823B1F0BE01C8010E9427108823A2
:1013900081F08A81882341F101308CE5180779F0CA
:1013A0000E3D8CE51807E9F001151C45E9F40E9493
:1013B000940980E0DF91CF911F910F910895909152
:1013C000A002892F8E7F90FF81608093A00280FF12
:1013D00005C08AEB94E00E94DF06EBCF88EA94E038
:1013E000FACF0E94571DE5CFCE01DF91CF911F911B
:1013F0000F910C94650890E080E008950895972F70
:1014000070E024E1929F600D711D1124FB0198E7AB
:10141000899FE00DF11D1124EE0FFF1FE851FF4FD2
:10142000859194910895FC01EE0FFF1FE559FA4F45
:10143000859194910895CF93DF930E94FF090E94B4
:10144000260BEC01811521E5920708F048C08115B3
:1014500030E5930708F0AFC0803E910518F5803C59
:10146000910508F096C0883A910570F4853A910587
:1014700008F08CC08130910531F10497813A9105D3
:1014800010F1D0E0C0E01FC08F3B9105D1F3C85AE6
:10149000D0E0CC0FDD1FC35FDE4F0990D881C02D97
:1014A000D46411C0811540E3940788F4C11580E22B
:1014B000D80708F074C0C83ED10528F0CE019A952F
:1014C00081159F41F0F6CE01DF91CF9108958115EE
:1014D00030E4930708F466C0DF70D06AF4CF81155A
:1014E000964560F5C11585E5D80708F096C0C11589
:1014F00094E5D907F0F4C11523E5D20708F079C0C7
:10150000C11532E5D30708F46FC0CE018370992767
:1015100021E030E002C0220F331F8A95E2F7C69522
:10152000C69540E2C49FE0011124C22BD32BDC6896
:10153000CACFDC2FCC27C46FD06AC5CFC1158AE5CE
:10154000D80788F4C11599E5D90708F071C0CE0114
:1015500098558F3F910511F008F093CFDC2FCC27E1
:10156000C06FD06AB0CFCE0190568115904208F07E
:1015700088CF8D2F8F710E94BE0B90E0982F882707
:1015800088279F719C012C2BE90150C0A497D0643F
:101590009ACF805C91090E94130AEC0194CFCE018E
:1015A0009F70F9CF9927D3FF03C0EC01D86C8BCF84
:1015B000EC01D06C88CF74E0969587957A95E1F729
:1015C00083702C2F26952695237040E2249F90014E
:1015D0001124382B8C2F8370C1E0D0E002C0CC0FD7
:1015E000DD1F8A95E2F7A1CFDC2FCC27C16FD06A2F
:1015F0006ACFCE018370992721E030E002C0220F2C
:10160000331F8A95E2F7C695C69580E2C89FE00130
:101610001124C22BD32BDA6856CF8C2F0E94BE0B1D
:10162000C82FD0E0DC2FCC27CC27DF71D0624BCF86
:101630008C2F8F700E94BE0B34E0D695C7953A95DB
:10164000E1F7CF70DC2FC82FD0693DCF803E9105E8
:1016500099F1C8F48133910509F476C048F48932D0
:10166000910509F46AC08A32910509F474C008959D
:1016700089339105D1F082389105B9F08533910510
:1016800009F454C00895843E910599F138F4823EDE
:101690009105F9F0833E910509F10895863E910583
:1016A00099F1873E9105B9F108952091A602237022
:1016B000A1F080EE90E008952091A60220FD52C096
:1016C0003091A70230FF09C024FF4FC090E080E0B6
:1016D00004C02091A60222FDF7CF08952091A60212
:1016E00022FD46C03091A70230FDE3CF24FFF5CFA5
:1016F000EDCF2091A70221FFF0CF8091A60284FDBB
:10170000E5CF87EE90E008952091A60223FFE5CF74
:1017100024FDDCCFF6CF2091A60223FD2CC0309112
:10172000A70231FFE3CF84EE90E008952091A60256
:1017300025FFD3CF89E290E008952091A60225FFEE
:10174000CCCF85E390E008952091A60226FFC5CF77
:101750008AE290E008952091A60226FFBECF81E3A1
:1017600090E0089589E390E0089583EE90E0089575
:1017700082EE90E0089586EE90E008959091A602A2
:1017800092FF06C0282F28712830F9F4877F8460E3
:1017900093FF06C0282F28712831F1F4877E8461D9
:1017A0002091A70220FF06C0382F38713830D9F4B5
:1017B000877F816021FF06C0282F28712831D1F44E
:1017C000877E816194FD877E0895282F24712430BF
:1017D000F9F68B7F8860DCCF282F2471243101F744
:1017E0008B7E8861DDCF382F3171313019F78E7FD4
:1017F0008860E0CF282F2171213121F78E7E88610A
:10180000E1CFCF93DF9300D000D0CDB7DEB794E027
:10181000899FF0011124EC56FE4F80819181A281B5
:10182000B381BC01CD010F900F900F900F90DF910D
:10183000CF910895CF92DF92EF92FF920F931F9373
:10184000CF93DF9300D000D000D0CDB7DEB78CE7C8
:1018500095E00E94DF0684E9E82E81E0F82E1E82E2
:101860001D8297E7C92E95E0D92E0DE615E08E81F1
:101870008F939D819F93DF92CF920E94780784E798
:1018800095E00E94DF06F70181919191A191B191BC
:101890007F0189839A83AB83BC83BC01CD010E9405
:1018A0008E1C9F938F937F936F931F930F930E9430
:1018B00078078BE695E00E94DF068D819E81019678
:1018C0009E838D830FB6F894DEBF0FBECDBF069703
:1018D00071F626960FB6F894DEBF0FBECDBFDF912E
:1018E000CF911F910F91FF90EF90DF90CF900895CF
:1018F00080EA8A95F1F70895CF93DF93CFE4D1E0A2
:1019000025E531E041E050E08991E82FE295EF7064
:10191000A1E2AE0FB0E0FC918F70BA0101C0660F7A
:101920008A95EAF7962F90959F239C93EE5DF0E0C1
:101930008081862B80832C173D0731F7CBE3D1E0E4
:101940002FE431E041E050E08991E82FE295EF701B
:10195000A1E2AE0FB0E0FC918F70BA0101C0660F3A
:101960008A95EAF7962F90959F239C93EE5DF0E081
:101970008081862B80832C173D0731F788E1ECEAC4
:10198000F1E0DF01982F1D929A95E9F7E4E9F1E083
:10199000DF011D928A95E9F786E00E94970DDF919D
:1019A000CF910C946E092F923F924F925F926F925B
:1019B0007F928F929F92AF92BF92CF92DF92EF92DF
:1019C000FF920F931F93CF93DF9300D000D00F921D
:1019D000CDB7DEB78FE4C82E81E0D82E9CEAE92E81
:1019E00091E0F92E712C812C912C54018394F601F5
:1019F00081916F01F82FF295FF70FB830F2F0F5D20
:101A000010E0F80190818F7021E030E002C0220FD9
:101A1000331F8A95E2F73A832983822F892B8083AB
:101A20003B813E5D832F90E09D838C83FC01808110
:101A3000622E6094862180830E94780CABE3B1E033
:101A400090E080E040E050E0BA015D90E52DE29545
:101A5000EF70E05EF0E0208130E0E52DEF7002C035
:101A600035952795EA95E2F720FD5AC01401250126
:101A7000082E04C0220C331C441C551C0A94D2F7B7
:101A80004229532964297529019684319105E9F683
:101A9000F801808168226082EC81FD818081F9817A
:101AA0008F2BEC81FD818083F70180819181A28160
:101AB000B381481759076A077B07B9F140835183FF
:101AC0006283738381E0782AF4E0EF0EF11C25E550
:101AD000C21621E0D20609F08ACF272D46E064E93C
:101AE00071E08CEA91E00E94980D0E947809872DA0
:101AF0000F900F900F900F900F90DF91CF911F914B
:101B00000F91FF90EF90DF90CF90BF90AF909F909C
:101B10008F907F906F905F904F903F902F9008959F
:101B2000212C312C412C512CABCF80E0CCCF08950F
:101B3000FF920F931F93CF93DF93F82E092F162F49
:101B4000D72FC42F222349F081E08093C6010E9441
:101B5000D51E9093C5018093C4018091C60188234E
:101B6000A1F08091C4019091C5010E94011F0697C8
:101B700060F0EF2DF02FA12FBD2F90E080E0D0E09E
:101B80008C179D0744F01092C601DF91CF911F91F1
:101B90000F91FF90089501911191219131910D9331
:101BA0001D932D933D930196EBCFCF93DF93EC01E3
:101BB000FB0197FF0BC08281882341F00E94280E11
:101BC000CE019F770E946A0E0E94530E81E0DF9142
:101BD000CF9108958CE090E00E94F429482F50E0C6
:101BE00070E060E04093C8015093C9016093CA015E
:101BF0007093CB019091A00290FF0CC01F928F9325
:101C000082EC95E09F938F930E9478070F900F903E
:101C10000F900F9008956091C8018CE090E00C94B3
:101C2000022A8093C8010E940B0E8091A00280FFBF
:101C30000EC08091C8011F928F9383EA95E09F9315
:101C40008F930E9478070F900F900F900F90089538
:101C50000E94B31B8093C7010E94C71B8091C801DB
:101C60008230A9F030F481110DC082EE0E94291259
:101C700002C0843099F08FE39CE90197F1F700C02E
:101C80000000089588E193E00E945908F4CF82EEA5
:101C90000E94291287E50E949B12EDCF86EE0E94DA
:101CA0009B1288E1F8CF8091C801823019F030F49E
:101CB00081110AC082EE0E94731202C0843041F08A
:101CC0008091C7010C94C41B8CE20E949B12F8CF38
:101CD00088E2FBCF0F931F93CF93DF938C01CCE06F
:101CE000D0E0C8010C2E02C0969587950A94E2F7C1
:101CF0008F700E947A090E949B122497CC3F8FEF2D
:101D0000D80779F7DF91CF911F910F9108950F9325
:101D10001F93CF93DF93EC018B01FB01828188231A
:101D200051F00E94B31BCE01815E9C458530910528
:101D300010F40E94110EB801CE01DF91CF911F91D6
:101D40000F910C94D50D0F931F93CF93DF93C62F54
:101D5000D42F022FFC0182818823C9F06093CE0129
:101D60000E94D51E9093CD018093CC0180E28C0F10
:101D7000883008F050C0C77081E001C0880FCA9554
:101D8000EAF7DF91CF911F910F910C94AE12109151
:101D9000CE01161335C08091CC019091CD010E94E7
:101DA000011F883C910560F5C0E2CD0F1D17B9F009
:101DB00080E2810F883040F4177081E001C0880F05
:101DC0001A95EAF70E94B512C83048F481E09D2FB9
:101DD000977001C0880F9A95EAF70E94AE12802F83
:101DE0000E949B12C830B8F4D77081E001C0880F00
:101DF000DA95EAF7DF91CF911F910F910C94B5120C
:101E000080E28C0F883038F4C77081E001C0880F01
:101E1000CA95EAF7EFCFDF91CF911F910F91089507
:101E20009C01CB01233F4CE5340769F190F4283D38
:101E3000FCE53F0721F1293D4CE5340781F1273DC1
:101E40003C45B1F0FC018281882361F11092CE0102
:101E50000895253FFCE53F07D1F0263F4CE53407C8
:101E6000D1F0243F3C4571F727E245EE64EE03C014
:101E700026E241EE61EE0E94A30E80E0089527E283
:101E800045EE65EEF8CF26E241EE60EEF4CF26E2B5
:101E900041EE62EEF0CF27E245EE66EEECCF28E2AF
:101EA00041E0EFCF81E00895CF93DF93EC01FB0198
:101EB0008281882309F4C9C0C631FCE5DF07E0F45C
:101EC000C2309CE5D907F0F00E94CD1C9093A70288
:101ED0008093A602C631ECE5DE0720F5C230FCE5B2
:101EE000DF0798F48091A6029091A7020E94DB1C64
:101EF0000E94711580E006C09E012A5F3C45293092
:101F0000310510F3DF91CF910895FE01E350FC45B8
:101F10008091A6028160E331F10588F4E85CF54D1B
:101F20000C94EB29CA5FDC45C930D105D8F6C55BF6
:101F3000D54DFE010C94EB298091A602826080931E
:101F4000A602D0CF8091A6028460F9CF8091A6022C
:101F50008860F5CF8091A70281608093A702C2CFED
:101F60008091A7028260F9CF8091A6028061E7CFBD
:101F70008091A6028062E3CF8091A6028064DFCFC9
:101F80000E9471158091A6028068D9CF8091A60227
:101F90008C60D5CF8091A7028360DFCF8091A602AD
:101FA0008E7FCDCF8091A6028D7FC9CF8091A60272
:101FB0008B7FC5CF8091A602877FC1CF8091A7027A
:101FC0008E7FCBCF8091A7028D7FC7CF8091A60255
:101FD0008F7EB5CF8091A6028F7DB1CF8091A60272
:101FE0008F7BADCF0E9471158091A6028F77A7CF0E
:101FF0008091A602837FA3CF8091A7028C7FADCF73
:102000008091A60282FB992790F921E0922790FB0C
:1020100082F990FB83F993CF8091A702982F909536
:1020200091708E7F892B90FB81F997CF0E9471155B
:102030009091A602892F97FB87F9805880CF81E085
:102040000E94591D4FCF80E0FBCF81E05BCFCF9343
:10205000DF93EB0186319C4511F50E94B31B9A81F9
:10206000992399F08A7A91E009F490E09093CF0156
:10207000811109C089E20E948E1B0E94051C80E02C
:10208000DF91CF91089585E3F6CF8091CF01811143
:1020900004C089E20E94951BF0CF85E3FBCF81E06D
:1020A000EFCF9093D5018093D4010895E091D401AE
:1020B000F091D501309721F00190F081E02D099445
:1020C00080E00895EF92FF920F931F93CF93DF93D9
:1020D000EC01E091D401F091D501309709F442C0B0
:1020E00080910C01882341F08091A60287FF04C0F3
:1020F0008881898385E088830280F381E02DCE0189
:1021000009958091A00282FF2DC080FF04C08AEE55
:1021100095E00E94DF067E0188E0E80EF11C04EEE7
:1021200015E08091A00280FF0BC088811F928F93E1
:102130001F930F930E9478070F900F900F900F90AE
:102140002196CE15DF0569F78091A00280FF0AC0B5
:1021500082EE95E0DF91CF911F910F91FF90EF906C
:102160000C94DF06DF91CF911F910F91FF90EF90BC
:1021700008952091D2013091D3012817390771F0C9
:102180009093D3018093D201E091D401F091D501D5
:10219000309721F00680F781E02D09940895209171
:1021A000D0013091D1012817390771F09093D101F6
:1021B0008093D001E091D401F091D501309721F0C6
:1021C0000084F185E02D0994089585B7806885BF66
:1021D00085B7806885BF0895089508950C94EC1024
:1021E00008950C94F0100E94E5100E94ED100C94DC
:1021F000EE1081E008950C94F9100E94CC1E0E940C
:102200007C0C0E94661F0C94F110CF93C82F809114
:10221000A00282FF1EC080FF1CC083E096E00E94E7
:10222000DF068091A00280FF14C01F92CF938EEF33
:1022300095E09F938F930E9478078091A0020F9062
:102240000F900F900F9080FF04C08CEF95E00E94DC
:10225000DF068C2FCF910C948B094F925F926F9277
:102260007F929F92AF92BF92CF92DF92EF92FF92B6
:102270000F931F93CF93DF9300D000D00F92CDB771
:10228000DEB70E94D30C0E94FB10882309F48DC096
:1022900047EDA42E41E0B42E10E000E0902E802FF8
:1022A0000E94010C6B017C01F501419051906190FD
:1022B00071905F014C145D046E047F0409F46FC0DB
:1022C0008091A00281FD0E941A0CB301A2014C254D
:1022D0005D256E257F2520E0412C512C3201439451
:1022E000DB01CA0184219521A621B721892B8A2BE4
:1022F0008B2B09F44CC029839A82C420D520E62078
:10230000F72081E0CD28CE28CF2809F480E08B8308
:102310000E94D51E8160782F9D838C8349815A81CC
:102320006B818D810E94FB11000F111F000F111F87
:10233000F801E952FE4F80819181A281B381842509
:102340009525A625B72580839183A283B3830E9418
:1023500056109091D6018917C9F10E9456108093AA
:10236000D6010F900F900F900F900F90DF91CF91AB
:102370001F910F91FF90EF90DF90CF90BF90AF90A3
:102380009F907F906F905F904F900C9405112F5FFE
:10239000440C551C661C771C243109F0A1CF0F5F3B
:1023A0001F4F0630110509F079CF8FEF89838A839B
:1023B0001B820E94D51E8160782F9D838C8349816A
:1023C0005A816B818D810E94FB11C1CF0F900F90BC
:1023D0000F900F900F90DF91CF911F910F91FF9071
:1023E000EF90DF90CF90BF90AF909F907F906F90D5
:1023F0005F904F900895CF93DF93CDB7DEB72B97C3
:102400000FB6F894DEBF0FBECDBF4F8358876987E4
:102410007A878B871E8285E0FE013796DE01119652
:1024200001900D928A95E1F749815A816B817C81F7
:102430008D819E812B960FB6F894DEBF0FBECDBF67
:10244000DF91CF910C94D317FC01808191810C9482
:10245000581BCF93C82F882309F443C08CEF8C0FEF
:10246000813AC8F48C2F0E94122281113AC06C2F3D
:1024700080910001909101010E94721D882329F032
:102480008C2F0E94951B0E94051C8C2F0E948E1B76
:10249000CF910C94051C80E28C0F883048F4C770F3
:1024A00081E001C0880FCA95EAF70E94B61BF0CF01
:1024B0008BE58C0F833038F42C2F2452330BC90159
:1024C000CF910C94B910C85AC73158F4EC2FF0E0F2
:1024D000EE0FFF1FEB5AFE4F80819181CF910C943C
:1024E000CF10CF910895882329F19CEF980F913A4E
:1024F00020F40E94951B0C94051C90E2980F9830D4
:1025000050F4877091E001C0990F8A95EAF7892FFE
:102510000E94BC1BF0CF9BE5980F933020F490E015
:1025200080E00C94B910885A873120F490E080E064
:102530000C94CF100895CF93C82F0E942912C9334D
:1025400049F42FEF87EE93E0215080409040E1F76F
:1025500000C000008C2FCF910C947312882321F0BF
:102560000E94B61B0C94051C0895882321F00E943C
:10257000BC1B0C94051C0895AF92BF92CF92DF92C2
:10258000EF92FF920F931F93CF93DF9300D000D071
:102590000F92CDB7DEB76C016D837983FC010581A5
:1025A00002950F70128111110E94D81B0E94AC1B62
:1025B000E82E882391F01123D1F08981807F803427
:1025C00021F08D81805E883090F082E00E94501C66
:1025D0000E94AC1B91E0E82EE926A980A2949FE01E
:1025E000A922B12CF501EC5AF54D0C94EB29E12C04
:1025F000F4CF09810F70F981F07F11F00295007F0F
:102600001123B1F0002361F08D81805E883018F0D5
:102610002D81211109C0802F0E94B61B0E94051C2C
:102620008D810E94291215C0802F0E94CA1BF6CFEF
:102630008D810E947312002361F08D81805E88304D
:1026400018F04D81411133C0802F0E94BC1B0E94A5
:10265000051C48E0A41AB10854E0A516B10420F402
:102660000E9456100E948B09EE2009F4CBC10E94F3
:10267000A81B80FDC7C1F60112820E94A21B0E9406
:10268000AF19C6010E9429150E94A21B0F900F903E
:102690000F900F900F90DF91CF911F910F91FF90AE
:1026A000EF90DF90CF90BF90AF900C94E019802F07
:1026B0000E94D01BCCCF59815F70F52E6981607F5D
:1026C000603219F0F29480EFF8227D81772369F06F
:1026D000713049F1112391F1002351F1F601858107
:1026E00080FF9ECF8F70858323C0112381F001115D
:1026F00006C00E94EC1B8F290E94AE12AACF0130A7
:10270000C1F70E94EC1B8F290E94F21BA2CF01117E
:1027100006C00E94FB1B8F2D0E94B5129ACF01307C
:1027200009F497CFF6CF112329F0063008F091CFA6
:102730008F2DE2CF053008F08CCFEDCF002359F379
:10274000FD81F93349F42FEF47EE53E0215040402B
:102750005040E1F700C000008D810E94731279CFD4
:10276000898186958695837069F0813009F071CFF3
:102770008D8199819370111102C090E080E00E94D8
:10278000CF1067CF8D8199819370111102C090E0B5
:1027900080E00E94B9105DCF8981837009F050C03C
:1027A000111157CF4D81429546954770440F440F04
:1027B0008D818F7090E0B0E0A0E0042E04C0880FFF
:1027C000991FAA1FBB1F0A94D2F76D8100E010E089
:1027D000980164FF0FC00FE010E020E030E004C07B
:1027E000000F111F221F331F4A95D2F70095109535
:1027F0002095309579817695769573707D83B901B2
:10280000A801482B592B6A2B7B2B49835A836B8356
:102810007C835D8169817A818B819C81523051F00A
:10282000533059F0513019F00E94251912CF0E94EF
:10283000FD180FCF0E944D190CCF0E94FB1809CF35
:10284000112309F445C0698160FF03CF4D81429592
:1028500046954770440F440F8D818F7090E0B0E033
:10286000A0E0042E04C0880F991FAA1FBB1F0A9462
:10287000D2F7ED8100E010E09801E4FF0FC00FE017
:1028800010E020E030E004C0000F111F221F331FB2
:102890004A95D2F70095109520953095F981F695D7
:1028A000F695F370FD83B901A801482B592B6A2BCB
:1028B0007B2B49835A836B837C83F230A1F0F33006
:1028C000C9F0F13049F0CB01BA010E946E1AC1CEB5
:1028D000798171FFBECEBACF69817A818B819C816B
:1028E0000E94461AB6CE69817A818B819C810E94B2
:1028F000961AAFCE69817A818B819C810E94791969
:10290000A8CE59815F705983112329F0852F0E9429
:10291000AF198D81F1CE8D810E94B51289810E94FF
:10292000E01997CE6D81623F99F160F4603FD9F074
:10293000613F39F1112309F444C0011171CE89813D
:102940008F7123C07D81733F41F1743F99F711234B
:1029500071F189818F7189830E94AF1963E0898148
:102960000E943B1C76CE112341F0053008F071CE59
:1029700089818F710E94151A6CCE063008F069CEDD
:10298000F7CF89818F71112351F20E94AF1961CE67
:1029900089818F711123C9F3C2CF112329F0898155
:1029A0008F710E948A1955CE0E94851952CE81E0FE
:1029B0000E94501C023008F44CCE82E00E94501C51
:1029C00048CE002361F09D81993309F0C5CEEFEF29
:1029D000F7EE23E0E150F0402040E1F7BBCE8981E3
:1029E0008F719DCF49814F706D81C6010E94FB0997
:1029F0000E946D182ECE49814F706D81C6010E94D4
:102A0000FE0927CE0F900F900F900F900F90DF913F
:102A1000CF911F910F91FF90EF90DF90CF90BF90DB
:102A2000AF9008950F931F93CF93DF93EC016881CC
:102A300079818A810E94641B8C010E94BE1A0E94C7
:102A4000FA18B801CE01DF91CF911F910F910C942C
:102A5000BC12CF93DF93EC018B819C81892B29F0F1
:102A60008981988189238F3F59F4DF91CF9108950F
:102A7000CE010E941215CE01DF91CF910C94A608D1
:102A8000CE010E94A3098111F3CF0E94AC1B8823C1
:102A900061F38A81882349F382E0DF91CF910C941E
:102AA000501C882321F00E94CA1B0C94051C089519
:102AB000882321F00E94D01B0C94051C08950E94CD
:102AC000D81B0E94E91B0E94051C90E080E00E9438
:102AD000B91090E080E00C94CF100E949C1B0C94E5
:102AE0005F150E94C71B0C946D15282F892F8295A6
:102AF0008F70903C80F48A30B0F4843020F48230BF
:102B000090F480E008958630E1F781E0283E88F077
:102B1000213FB9F70EC08C3011F08F3091F793FB45
:102B2000882780F9089581E0203F39F018F4283E85
:102B300040F70895243F29F7FCCF08950E94581BC1
:102B40000C947515CF93DF9300D000D00F92CDB7C2
:102B5000DEB70F900F900F900F900F90DF91CF91F5
:102B60000895CF93DF9300D000D000D0CDB7DEB76B
:102B700026960FB6F894DEBF0FBECDBFDF91CF9182
:102B800008951F93CF93DF93E091F00116E08091B9
:102B9000F1018E1304C0DF91CF911F910895CE2FC4
:102BA000D0E01E9FF0011124EE50FE4F4081518174
:102BB00062817381848195810E94B115FE013196F5
:102BC000E770E5CF409122025091230260912402E8
:102BD0007091250280912602909127020C94B115E4
:102BE0001F93CF93DF9380912702807FA9F4809178
:102BF0002402882389F08091F001C091F101709145
:102C0000220260912302A0912502B0912602D62FC4
:102C1000D72316E0C81304C0DF91CF911F91089508
:102C200090E0109711F0DF3F19F401968770F2CF12
:102C3000189F9001199F300D1124F901EE50FE4F9D
:102C400041816413F2CF40814713EFCF428141119C
:102C5000ECCF438154814A1B5B0B483C510528F75C
:102C6000809127028F70806180932702F901E950DB
:102C7000FE4F80818F708061808382E292E00E94AB
:102C80002915DF91CF911F910C94C115AF92BF927E
:102C9000CF92DF92EF92FF920F931F93CF93DF9328
:102CA000CDB7DEB72B970FB6F894DEBF0FBECDBF02
:102CB0008C0185E0F801DE01179601900D928A954E
:102CC000E1F7F80140815181E28082E2A82E82E0A2
:102CD000B82E60912502709126026115710549F0A8
:102CE0009091220220912302892F82238F3F09F0A5
:102CF00045C1EE2009F453C14F8358878F819885D1
:102D00000E949E15F82E882309F449C186E0F80137
:102D1000A2E2B2E001900D928A95E1F782E292E0A0
:102D20000E9424120E94F01526C180912702382F9C
:102D3000307F683C710508F07CC03111B5C0FE2CB5
:102D4000251324C0941322C0E11020C08F7080612D
:102D5000809327020E94E21582E292E00E942915E8
:102D600080912702F80185838F2D2B960FB6F8945A
:102D7000DEBF0FBECDBFDF91CF911F910F91FF90AE
:102D8000EF90DF90CF90BF90AF900895CD2829F0BD
:102D9000842F85238F3F09F084C080E0F82FF170E5
:102DA000DF2EE091F0012091F10136E080FD1CC0A2
:102DB000EE20D1F280912702816080932702F12CCE
:102DC000D3CF8E2F90E03E9FF0011124EE50FE4FA6
:102DD0006181651306C06081641303C062816E1156
:102DE000E7CFFC013196E770E213EBCF4F835887B2
:102DF0008F8198850E94581B292F22952F70903221
:102E000060F0225F2F70223078F49F7051F0F8014B
:102E10009581907F31F4D12C0AC09F7011F08823E6
:102E2000D1F3805E8830B8F3C8010E942915FD2CCB
:102E30009BCF31116EC06E2D7A858B850E94A215B5
:102E400082E292E00E94291586E0F50111928A95AE
:102E5000E9F70E94E215B3CF86E0F801A2E2B2E002
:102E600001900D928A95E1F77FCF4F8358878F812C
:102E700098850E949E1581113DC080912702816036
:102E800080932702C8010E9429156ECF6E2D7A8586
:102E90008B850E94A21586E0F50111928A95E9F7CB
:102EA0006AC081E08E257ACF251306C0941304C032
:102EB000F801EE2009F453C04F8358878F8198851D
:102EC0000E949E15882309F46AC0EE2009F467C0A9
:102ED00080912702803270F02091220230912302EB
:102EE0003A8329831B82DD82CC828E83CE010196B8
:102EF0000E94291586E0F801A2E2B2E001900D924D
:102F00008A95E1F70E94F0150E94E215FF24F394E0
:102F10002BCF2513D1CF9413CFCFE110CDCFF80114
:102F20008583C8010E94291586E0F50111928A95D2
:102F3000E9F71ACF251399CF941397CF80912702E1
:102F400080FD8ACF982F907F09F486CFF801858382
:102F5000903F31F0982F907F905F8F70892B858301
:102F6000C8010E94291586E0F801A2E2B2E00190B2
:102F70000D928A95E1F70E94E215F6CEC380D480C7
:102F8000F0902402F601E61BF70BBF01F110CDCE45
:102F9000683C710508F07ACFFE2CE110CBCFC80158
:102FA0000E942915B3CF1F93CF93DF93CDB7DEB720
:102FB0002C970FB6F894DEBF0FBECDBF4F83588756
:102FC00069877A878B879C87CE0107960E94461671
:102FD000882369F08A859B85892B39F058854F8134
:102FE000852F84238F3F09F071C016E05FC086E013
:102FF000FE013796DE01119601900D928A95E1F758
:103000008A859B85892B89F38F81988589238F3FBA
:1030100061F32091F10130E0C90101968770992791
:103020004091F0014817190671F40E947115109231
:10303000F1011092F00186E0E2E2F2E0DF011D9280
:103040008A95E9F7D2CF96E0929FD001939FB00D79
:103050001124AE50BE4FFE01319601900D929A950B
:10306000E1F78093F1010E94C115BFCF819FC0019C
:1030700011248E509E4F0E9446168823E9F0E0915D
:10308000F0011E9FF0011124EE50FE4F408151814E
:1030900062817381848195810E94B1158091F001D4
:1030A00090E00196877099278093F0018091F0015C
:1030B0009091F1018913DACF2C960FB6F894DEBF08
:1030C0000FBECDBFDF91CF911F91089569857A859D
:1030D0008B859C850E94B11588CFEF92FF920F934C
:1030E0001F93CF93DF938C01892B89F0F12CEE2471
:1030F000E394E8012196F8018491843709F458C0DB
:10310000A0F4823009F43FC048F48130D1F0DF915F
:10311000CF911F910F91FF90EF9008959CEF980F22
:103120009037A8F70E9429120AC0853709F44EC0CB
:103130009CE7980F903758F78F770E9473128E0193
:1031400016C00E5F1F4FFE01849190E2980F9830D9
:1031500060F48770FE2D01C0FF0F8A95EAF78F2F6C
:103160000E94DB1B0E94051C02C00E9429128F2DA9
:10317000882309F4BECFEFE9FFE03197F1F700C0F3
:1031800000008150F5CF0E5F1F4FFE01849190E249
:10319000980F983050F48770FE2D01C0FF0F8A956C
:1031A000EAF78F2F0E94E11BDDCF0E947312DFCF61
:1031B0000E5F1F4FFE01C491CC23C9F28FE99FE03F
:1031C0000197F1F700C00000C150F6CF0E5F1F4F0E
:1031D000FE01F490CCCF08950C94EB180E94EC18EB
:1031E00060937702709378028093790290937A02C9
:1031F0000C945F1508950C94EE18CF93DF9300D0D4
:1032000000D0CDB7DEB769837A838B839C838091AE
:10321000770290917802A0917902B0917A02298187
:103220003A814B815C81282B392B4A2B5B2B2983DC
:103230003A834B835C83CA01B9010F900F900F90C2
:103240000F90DF91CF910C94EE18CF93DF9300D0C5
:1032500000D0CDB7DEB769837A838B839C8380915E
:10326000770290917802A0917902B0917A02298137
:103270003A814B815C81282339234A235B232983AC
:103280003A834B835C83CA01B9010F900F900F9072
:103290000F90DF91CF910C94EE18CF93DF9300D075
:1032A00000D0CDB7DEB769837A838B839C8380910E
:1032B000770290917802A0917902B0917A022981E7
:1032C0003A814B815C81282739274A275B2729834C
:1032D0003A834B835C83CA01B9010F900F900F9022
:1032E0000F90DF91CF910C94EE180C94EB180C9486
:1032F00075190E947719609373027093740280931A
:103300007502909376020C945F1560E070E0CB013B
:103310000C9479190F931F93CF93DF9300D000D0B3
:10332000CDB7DEB741E050E060E070E08A019B017C
:1033300004C0000F111F221F331F8A95D2F7098383
:103340001A832B833C83C901B8010F900F900F9013
:103350000F90DF91CF911F910F910C9479190F93DA
:103360001F93CF93DF9300D000D0CDB7DEB741E0FD
:1033700050E060E070E004C0440F551F661F771FE7
:103380008A95D2F78091730290917402A091750290
:10339000B09176028A019B01082B192B2A2B3B2B1B
:1033A00009831A832B833C83C901B8010F900F90C6
:1033B0000F900F90DF91CF911F910F910C9479197D
:1033C0000F931F93CF93DF9300D000D0CDB7DEB71C
:1033D00041E050E060E070E004C0440F551F661FFC
:1033E000771F8A95D2F7409550956095709580919A
:1033F000730290917402A0917502B09176028A01D5
:103400009B01082319232A233B2309831A832B8337
:103410003C83C901B8010F900F900F900F90DF917E
:10342000CF911F910F910C9479190F931F93CF9304
:10343000DF9300D000D0CDB7DEB741E050E060E0D0
:1034400070E004C0440F551F661F771F8A95D2F79E
:103450008091730290917402A0917502B0917602EE
:103460008A019B01082719272A273B2709831A83EA
:103470002B833C83C901B8010F900F900F900F90E0
:10348000DF91CF911F910F910C947919CF93DF9316
:1034900000D000D0CDB7DEB769837A838B839C835D
:1034A0008091730290917402A0917502B09176029E
:1034B00029813A814B815C81282B392B4A2B5B2B4C
:1034C00029833A834B835C83CA01B9010F900F9023
:1034D0000F900F90DF91CF910C947919CF93DF93D8
:1034E00000D000D0CDB7DEB769837A838B839C830D
:1034F0008091730290917402A0917502B09176024E
:1035000029813A814B815C81282339234A235B231B
:1035100029833A834B835C83CA01B9010F900F90D2
:103520000F900F90DF91CF910C947919CF93DF9387
:1035300000D000D0CDB7DEB769837A838B839C83BC
:103540008091730290917402A0917502B0917602FD
:1035500029813A814B815C81282739274A275B27BB
:1035600029833A834B835C83CA01B9010F900F9082
:103570000F900F90DF91CF910C9479190895E82F57
:1035800024E1929FE00D11248E2F877041E001C04D
:10359000440F8A95EAF7E695E695E69585E0E89F7B
:1035A000F0011124E85DFD4F30E020E070E0519122
:1035B000DF011197CB01022E02C0969587950A94E0
:1035C000E2F7817081958527842385278C932F5F6F
:1035D0003F4F2530310559F70895E82F24E1929F98
:1035E000E00D11249E2F9770E695E695E69585E00F
:1035F000E89FF0011124E85DFD4F50E040E080E0DD
:10360000219130E0092E02C0369527950A94E2F701
:1036100021703327042E01C0220F0A94EAF7822B6F
:103620004F5F5F4F4530510559F70895BF92CF92D4
:10363000DF92EF92FF920F931F93CF93DF938C0152
:10364000C0907302D0907402E0907502F090760200
:103650008091770290917802A0917902B0917A02DC
:10366000C82AD92AEA2AFB2ACFE1D0E0BC2ED7010A
:10367000C6010C2E04C0B695A795979587950A9418
:10368000D2F780FD0EC0219788F7B12C8B2DDF91EA
:10369000CF911F910F91FF90EF90DF90CF90BF904F
:1036A0000895B8018C2F0E941B0A019761F3EECF99
:1036B000CF93DF93D82FC92F0E94161B6D2F7C2F1D
:1036C000DF91CF910C941B0A1F93CF93DF93162F9A
:1036D000D72F9091EF01992339F0862F972FDF9103
:1036E000CF911F910C94581B882391F0862F972F10
:1036F0000E94161BC82F682F812F9D2F0E94BF1A72
:10370000612F7D2F8C2FDF91CF911F910C941B0A7D
:10371000862F972F0E94ED1AC82FF2CF682F809125
:103720000001909101010C94181E682F80910001F6
:10373000909101010C94231E809100019091010150
:103740000C942E1E80917B02859585958595089514
:1037500080917B028770089590917B02977081E041
:1037600009F480E0089580919F02089590919F024E
:10377000982B90939F020895982F909580919F0287
:10378000892380939F02089580939F020895109249
:103790009F02089590919E02982B90939E02089507
:1037A000982F909580919E02892380939E02089580
:1037B00010929E02089590919D02982B90939D02E5
:1037C0000895982F909580919D02892380939D0262
:1037D000089510929D02089580917C0208950895A5
:1037E0000C94EF1B90917C02981721F080937C023F
:1037F0000C94F01B089580917C02882329F010928C
:103800007C0280E00C94F01B0895E0910001F0919F
:10381000010180919F028083E0910001F0910101FC
:10382000808190919E02892B8083E0910001F0912C
:103830000101808190919D02892B808390917C026F
:10384000992381F0E0910001F09101018081892BA1
:10385000808380910001909101010E945E1D811181
:103860000E94FB1B80910001909101010C94621059
:1038700008950C94381C98E0899F90011124622BC4
:1038800060937B020E94AF1980917B02859585959C
:1038900085950C94391C10927B0280E00C94391CA5
:1038A00090917B028095892380937B02282F27703B
:1038B00071F4282F082E000C330B9217130639F0E1
:1038C0008595859585950E94E0190C944B1C08956B
:1038D00090939301809392010895829594E0899F3B
:1038E000900111242C7C869586958373282B30E0DB
:1038F000C901880F991F8A7A359527952575822BDE
:103900000895CF93DF93D92F0E946D1CC82F8D2F60
:103910000E946D1C9C2FDF91CF9108950F931F93F0
:10392000CF93DF9300D000D0CDB7DEB78C01CB01B1
:103930000E94811C89839A83C8010E94811C09818D
:103940001A81A80170E060E0BA0155274427B0E071
:10395000A0E08A019B01082B192B2A2B3B2BC901C4
:10396000B8010F900F900F900F90DF91CF911F91A2
:103970000F91089590E080E00E94FC299C0181E075
:103980002C3E3E4F09F080E0089582E090E00C94D8
:10399000F42983E090E00C94F429CF9384E090E044
:1039A0000E94F429C82F81E290E00E94F429982F08
:1039B0008C2FCF910895CF93682FC92F84E090E08A
:1039C0000E94022A6C2F81E290E0CF910C94022A8F
:1039D000AB01BC018FE090E00C94142AAB01BC0158
:1039E00083E190E00C94142A60E070E0CB010C9429
:1039F000EE1C60E070E0CB010E94E81C0C94F41C0B
:103A00006CEE7EEF90E080E00E94202A60E082E091
:103A100090E00E94022A60E083E090E00E94022A87
:103A200010927702109278021092790210927A0224
:103A300060E084E090E00E94022A60E081E290E091
:103A40000E94022A60E085E090E00E94022A60E085
:103A500086E090E00E94022A6FEF87E090E00E94EB
:103A6000022A40E050E0BA0188E090E00E94142A67
:103A700060E08DE090E00E94022A40E050E0BA0150
:103A800088E190E00E94142A60E087E190E00E94C3
:103A9000022A40E050E0BA018CE190E00E94142A32
:103AA00060E080E290E00E94022A0C94F91C0C94E1
:103AB000001D682F8EE090E00C94022AFC013296E3
:103AC00080910C01882321F08091A6029EE187FF5E
:103AD00096E080E0915008F4089521912223D1F3DB
:103AE0008F5FF8CF9C01662301F180910C01882340
:103AF000F1F08091A60287FF1AC0462F46954695A1
:103B00004695603F90F4677081E090E002C0880FB6
:103B1000991F6A95E2F7240F311DF901228130E0E7
:103B20002823392381E0232B71F480E00895F901E3
:103B30003296285F3F4F8191861721F0E217F307F5
:103B4000D1F7F3CF81E008959C01FC0132968FEF0D
:103B500090E04191461751F08F3F19F4411101C097
:103B6000892F9F5F9630A9F78F3F09F40895280F9A
:103B7000311D87FD3A95F901628308959C01FC018E
:103B80003296285F3F4F8191861303C0DF01119762
:103B90001C92E217F307B9F70895FC01862F86956A
:103BA00086958695603F68F4E80FF11D677021E007
:103BB00030E001C0220F6A95EAF78281822B82836E
:103BC00008958091A00280FF0CC01F926F9384E340
:103BD00096E09F938F930E9478070F900F900F901D
:103BE0000F900895FC01862F869586958695603FF7
:103BF00070F4E80FF11D677081E090E001C0880F5C
:103C00006A95EAF78095928189238283089580914D
:103C1000A00280FF0CC01F926F9386E196E09F93F5
:103C20008F930E9478070F900F900F900F90089538
:103C300020910C01222329F02091A60227FD0C944B
:103C4000CD1D0C94A41D20910C01222329F020915C
:103C5000A60227FD0C94F21D0C94BE1DFC013296A9
:103C600080910C01882351F08091A60287FF06C045
:103C70008EE1DF011D928A95E9F7089586E0F9CF7C
:103C8000089508950C94411E0E94421E8091D20214
:103C9000843049F11092A10288E190E020E40FB64F
:103CA000F894A895809360000FBE2093600080E098
:103CB0000E948B090E94421E83B7817F846083BF6C
:103CC00083B7816083BF7894889583B78E7F83BFE5
:103CD0000FB6F894A8958091600088618093600089
:103CE000109260000FBE08950895CF93DF9300D027
:103CF00000D00F92CDB7DEB70E94401E0E94D30CB9
:103D00000E94741E1D828D810E94010C672B682BFE
:103D1000692B71F48D818F5F8D838630A1F780E0F0
:103D20000F900F900F900F900F90DF91CF9108950B
:103D300081E0F6CF08950C949A1E0E9471150E949E
:103D400056100E948B090C949B1E1F921FB61F9247
:103D500011248F939F93AF93BF938091A102811100
:103D600013C08091A2029091A302A091A402B091ED
:103D7000A5024196A11DB11D8093A2029093A302BA
:103D8000A093A402B093A502BF91AF919F918F9190
:103D90001F901FBE1F90189582E084BD93E095BDD3
:103DA0009AEF97BD80936E0008952FB7F894809195
:103DB000A2029091A302A091A402B091A5022FBFEC
:103DC0000895CF93DF9300D000D0CDB7DEB78FB783
:103DD000F8942091A2023091A3024091A402509144
:103DE000A50229833A834B835C838FBF69817A81E3
:103DF0008B819C810F900F900F900F90DF91CF914E
:103E000008959C014FB7F8948091A2029091A3026B
:103E1000A091A402B091A5024FBF821B930B0895FD
:103E200078941F921FB61F9211248F939F93AF9384
:103E3000BF938091A2029091A302A091A402B0919D
:103E4000A5020196A11DB11D8093A2029093A30229
:103E5000A093A402B093A502BF91AF919F918F91BF
:103E60001F901FBE1F901895F89481E08093E0008A
:103E700080E28093D800E9ECF0E010828FE19EE4CC
:103E80000197F1F700C000001DBA109268001CBC39
:103E900010BE1FBA10927A0010926E0010926F003E
:103EA000109270001092710010821092BC0011B834
:103EB00014B817B81AB81DB810BA12B815B818B88F
:103EC0001BB81EB811BA0C9400FE0895CF93DF936F
:103ED00000D000D0CDB7DEB70E94BA1C811102C05D
:103EE0000E94571D0E94C51C8093A0020E94CD1CF9
:103EF0009093A7028093A6020E94C91C282F30E04D
:103F000050E040E029833A834B835C83CA01B901C6
:103F10000F900F900F900F90DF91CF910C94FB18A2
:103F2000CF93DF9300D000D0CDB7DEB789831F9247
:103F30008F9388E596E09F938F930E94780781E0A6
:103F400090E0A0E0B0E09C01AD01098004C0220F28
:103F5000331F441F551F0A94D2F729833A834B839A
:103F60005C83CA01B9010E94FB180F900F900F905B
:103F70000F900F900F900F900F90DF91CF910C94B6
:103F80007115CF93DF93EBEFE80FEF3308F040C2EA
:103F9000F0E0EC59F54D0C94EB2981EB9BE00E948D
:103FA000DF068DEE9AE00E94DF060E94C91C1F9278
:103FB0008F938AEE9AE09F938F930E94780788EE02
:103FC0009AE00E94DF060E94C51CC82F85ED9AE08A
:103FD0000E94DF061F92CF9380ED9AE09F938F930C
:103FE0000E9478078EEC9AE00E94DF0684EC9AE04B
:103FF0000E94DF068C2F81701F928F9381EC9AE0D4
:104000009F938F930E9478078FEB9AE00E94DF06C0
:1040100085EB9AE00E94DF06C1FB882780F91F929A
:104020008F9382EB9AE09F938F930E94780780EBA7
:104030009AE00E94DF0684EA9AE00E94DF06C2FB53
:10404000882780F91F928F9381EA9AE09F938F933C
:104050000E9478078FE99AE00E94DF0686E99AE0DD
:104060000E94DF06C3FBCC27C0F91F92CF9383E9E0
:104070009AE09F938F930E94780781E99AE00E94CB
:10408000DF060E94CD1CEC018DE79AE00E94DF065E
:10409000DF93CF9388E79AE09F938F930E947807EE
:1040A00086E79AE00E94DF068DE59AE00E94DF062F
:1040B0008C2F81701F928F938AE59AE09F938F9344
:1040C0000E9478078DB79EB780960FB6F8949EBF72
:1040D0000FBE8DBF88E59AE00E94DF0681E49AE07A
:1040E0000E94DF06C1FB882780F91F928F938EE321
:1040F0009AE09F938F930E9478078CE39AE00E9446
:10410000DF068AE29AE00E94DF068D2F81701F92FF
:104110008F9387E29AE09F938F930E94780785E2BE
:104120009AE00E94DF0683E19AE00E94DF06D695BE
:10413000D1701F92DF9380E19AE09F938F930E944A
:1041400078078EE09AE00E94DF068CEF99E00E94EB
:10415000DF06C2FB882780F91F928F9389EF99E0D1
:104160009F938F930E94780787EF99E00E94DF0664
:1041700085EE99E00E94DF06C3FB882780F91F9235
:104180008F9382EE99E09F938F930E94780780EE41
:1041900099E00E94DF0686ED99E00E94DF06C4FBED
:1041A000882780F91F928F9383ED99E09F938F93D7
:1041B0000E94780781ED99E00E94DF068FEB99E07D
:1041C0000E94DF06C5FB882780F91F928F938CEB36
:1041D00099E09F938F930E9478078AEB99E00E9461
:1041E000DF068EE999E00E94DF06C6FB882780F98A
:1041F0001F928F938BE999E09F938F930E9478078A
:104200008DB79EB780960FB6F8949EBF0FBE8DBF38
:1042100089E999E00E94DF0681E999E00E94DF06C2
:10422000C7FBCC27C0F91F92CF938EE899E09F93EC
:104230008F930E9478078CE899E00E94DF060F9028
:104240000F900F900F9081E01CC080EA9BE00E94CD
:10425000DF060E94571DF7CF8AED97E00E94DF0628
:10426000F2CF8091A002807F8093A0028FEB97E035
:104270000E94DF068CE99BE00E94DF0681E08093CC
:10428000A802DF91CF91089580E89BE00E94DF06AD
:104290000E949409D8CF9091A002892F8E7F90FF21
:1042A00081608093A00280FF03C084E79BE0D6CFAB
:1042B00087E69BE00E94DF068091A002817F8093C9
:1042C000A002C1CF9091A002892F8D7F91FF8260C3
:1042D0008093A00281FF08C08AE59BE00E94DF0670
:1042E0008091A0028160EBCF8CE49BE0B7CF9091EE
:1042F000A002892F8B7F92FF84608093A00282FFAF
:1043000003C08DE39BE0EACF8DE29BE0A7CF9091C5
:10431000A002892F877F93FF88608093A00283FF8C
:1043200003C081E29BE0DACF84E19BE097CF80EB92
:1043300097E00E94DF068FE697E00E94DF068DE39C
:1043400097E00E94DF068BE097E00E94DF068EED8B
:1043500096E084CF80ED96E00E94DF060E94561022
:104360001F928F9386EB96E09F938F930E9478071E
:1043700080910C011F928F938FE996E09F938F930A
:104380000E9478078091CD021F928F938CE896E06F
:104390009F938F930E9478078091A60287FB8827BE
:1043A00080F91F928F9384E796E09F938F930E94EA
:1043B00078070E94E11E9F938F937F936F938DE503
:1043C00096E09F938F930E9478078DB79EB746968D
:1043D0000FB6F8949EBF0FBE8DBF35CF0E947115EA
:1043E0009091A602892F97FB87F980588093A602A7
:1043F00087FF03C08AE09BE031CF8FEF9AE02ECF9A
:1044000080E00E94901F1FCF8953FBCF8D51F9CFC1
:104410008DEF9AE00E94DF0680E033CF80E00895C0
:104420000C940E22CF93C82F8091A802882331F0DC
:10443000813099F01092A80280E00DC00E94B31B59
:104440008232D1F78C2F0E940E2281111BC08C2F3B
:104450000E94C11F8170CF9108950E94B31B8232C8
:1044600089F38C2F0E941022811119C0C932C9F022
:1044700060F4CB3061F0C431A1F082E596E00E9497
:10448000DF0611C081E090E0E5CFC833B1F78FEBD4
:1044900097E00E94DF0684E596E00E94DF0681E057
:1044A000D9CF1092A80280E0D5CF8091CC02089598
:1044B0000895CF93DF9300D00F92CDB7DEB79091E0
:1044C000D202943019F589836A837B8382E08093DA
:1044D000E9008FEF9091E800815095FD06C095EDC1
:1044E0009A95F1F700008111F5CF8091E80085FFE2
:1044F0000DC050E040E063E070E0CE0101960E9404
:104500004E258091E8008E778093E8000F900F9001
:104510000F90DF91CF910895CF93DF93D82FC92FBC
:104520000E943125823011F0843039F46D2F7C2FB8
:1045300084E0DF91CF910C945922DF91CF910895BF
:10454000BC0183E00C945922CF93DF93D82FC92F5D
:104550000E943125823011F08430C9F580910C0120
:104560008823C1F18091A60287FF34C060E282E017
:104570008093E9008FEF9091E800815095FD06C08F
:1045800095ED9A95F1F700008111F5CF8091E80043
:1045900085FF1DC080910C0170E050E040E081116A
:1045A00004C050E040E068E070E08D2F9C2F0E9436
:1045B0004E258091E8008E778093E80080E2ED2F11
:1045C000FC2FACEAB2E001900D928A95E1F7DF9101
:1045D000CF91089568E081E0CBCF9FB7F894109217
:1045E000AB029FBF9091D202943009F048C0209155
:1045F000E9002F703091EC00932F917030FD90E81E
:10460000922B23E02093E9002091EB0020FF34C09F
:104610002091EE0027FF30C02091A902222321F033
:104620002091E80025FF28C01092A90226E03091D1
:10463000E80035FF14C08093F1008091E80085FD0B
:1046400027C08091E80080FFFCCF8091E8008E7742
:104650008093E8009F709093E90080E00895309186
:10466000D202343049F43091EB0035FD05C02150C1
:1046700041F481E08093A9029F709093E9008FEF4D
:104680000895EFE9FFE03197F1F700C00000CFCFC8
:104690008FB7F89421E02093AB028FBFDBCF81EE80
:1046A0009BE00E94DF068091DB02811109C00E941D
:1046B000D6260E9438278091E20084608093E20031
:1046C00008958DED9BE00E94DF061092DB020895B5
:1046D00089ED9BE00C94DF0685ED9BE00C94DF06F2
:1046E00081ED9BE00E94DF060C949D1E2091AA02A2
:1046F0002F5F822F62E30E94DF29992319F0209314
:10470000AA0208951092AA028091AB028823F1F0C8
:104710008091D2028430C1F49091E9009F70209181
:10472000EC00822F817020FD80E8892B93E090932C
:10473000E9009091EB0090FF04C09091EE0097FD8E
:1047400008C08F708093E9001092AB020895109218
:10475000F1009091E80095FDFACF9091E80090FF6C
:10476000F0CF9091E8009E779093E800EACF42E086
:1047700061EC81E00E94522642E261EC82E00E94FC
:10478000522642E261EC83E00C9452268091D402DE
:10479000893089F148F4823009F49DC0833009F4EE
:1047A00058C0813041F008958A3009F484C08B30BC
:1047B00009F46AC008958091D302813A09F048C093
:1047C0008091E800877F8093E8008091D7029091E4
:1047D000D802892B61F460E28CEA92E070E00E94DA
:1047E0009D258091E8008B778093E800089560E034
:1047F00090E080E0F3CF8091D302813249F580913F
:10480000D7029091D802029718F58091E800877F2F
:104810008093E8008091E80082FF16C08091F2004A
:104820009091F300029729F48091F1008B7F813001
:1048300021F48091F1008093CC028091E8008B7785
:104840008093E8000C9486268091D2028111E2CFF9
:1048500008958091D302813AD9F78091D70290913F
:10486000D802892BA9F78091E800877F8093E80020
:104870008091E80080FFFCCF80910C018093F100D3
:104880008091E8008E77DCCF8091D302813201F7EE
:104890008091D7029091D802892BD1F68091E800BF
:1048A000877F8093E8000E9486268091D5028093BE
:1048B0000C010C9471158091D302813249F68091DC
:1048C000E800877F8093E8000E9486268091D602C8
:1048D0008093CD0208958091D302813A09F0B8CF38
:1048E0008091E800877F8093E8008091E80080FF56
:1048F000FCCF8091CD02C2CF84B7877F84BF0FB633
:10490000F894A8958091600088618093600010926F
:1049100060000FBE80E890E00FB6F89480936100CD
:10492000909361000FBE0E94F3100E94D6260E9451
:1049300038278091E20084608093E2008DEE92E25D
:104940000E94681C78940E94C4290E94FD1082E095
:1049500091E00E94511080EC9BE00E94DF06809164
:10496000D202853019F00E942D11F9CF8CEB9BE01B
:104970000E94DF060E94441E8091CF02882379F3B3
:104980000E94751E882359F30E943825E8CF0C94A5
:10499000C924FC01CB01DA012F2F33272330310545
:1049A000D1F070F42130310509F44EC022303105C8
:1049B00069F48BE590E027E23CE02D933C93089569
:1049C0002132310521F12232310571F190E080E090
:1049D00030E020E0F2CFCF019927E230A9F0833018
:1049E000910550F4009769F0E9E1FCE0019771F757
:1049F000849190E09F01E1CFE5EEFBE00397C1F3E6
:104A0000E5CFE3E2FCE0F4CFEBEEFBE0F1CF633087
:104A10007105E0F6880F991FFC01E457FE4F2081D5
:104A2000318189E090E0C9CF6330710578F6FB01F0
:104A3000EE0FFF1FEA57FE4F208131818D579E4FA9
:104A4000FC01808190E0B9CF82E190E022E83CE077
:104A5000B4CF8091D202843011F482E0089581E0D5
:104A600008958091CE02811102C00C9429250895E9
:104A700084E189BD86E189BD09B400FEFDCF809146
:104A8000D8008F7D8093D8008091E0008260809371
:104A9000E0008091E00081FDFCCF0895AF92BF92CD
:104AA000CF92DF92FF920F931F93CF93DF936C010E
:104AB000EB018A010E94A526F82E811123C0011561
:104AC000110539F0F80180819181C81BD90BC80EFE
:104AD000D91EB12CA12C2097A9F08091E80085FD6A
:104AE00022C08091E8008E778093E80001151105BF
:104AF000A1F0F80180819181A80EB91EB182A08237
:104B000085E0F82E8F2DDF91CF911F910F91FF90AF
:104B1000DF90CF90BF90AF9008950E94A526882384
:104B2000D1F2F82EEFCFF60181916F018093F10061
:104B30002197FFEFAF1ABF0ACECFFC01CB01209126
:104B4000D9023091DA022617370790F0009729F43E
:104B50002091E8002E772093E80040E0009751F480
:104B6000411108C08091E80082FF31C080E00895C3
:104B7000C901F3CF2091D2022223A9F12530A9F156
:104B80002091E80023FD2DC02091E80022FDEACF0E
:104B90002091E80020FFE2CF2091F2003091F30055
:104BA000009719F02830310558F041E028303105E0
:104BB00009F040E02091E8002E772093E800CECF66
:104BC00041914093F10001972F5F3F4FE9CF8091D2
:104BD000D202882341F0853041F08091E80083FFC4
:104BE000C1CF81E0089582E0089583E00895FC013B
:104BF000CB012091D9023091DA022617370790F0C5
:104C0000009729F42091E8002E772093E80040E0F7
:104C1000009751F4411108C08091E80082FF32C032
:104C200080E00895C901F3CF2091D2022223B1F18F
:104C30002530B1F12091E80023FD2EC02091E8003D
:104C400022FDEACF2091E80020FFE2CF2091F20080
:104C50003091F300009719F02830310558F041E009
:104C60002830310509F040E02091E8002E772093AC
:104C7000E800CECF44914093F100319601972F5F29
:104C80003F4FE8CF8091D202882341F0853041F038
:104C90008091E80083FFC0CF81E0089582E008950D
:104CA00083E00895982F973028F08F708093E90063
:104CB00081E008959093E900242F762F50E0981713
:104CC00031F07091EC002091ED005091F00021FD49
:104CD00002C09F5FE8CF3091EB003E7F3093EB0046
:104CE0003091ED003D7F3093ED003091EB0031606D
:104CF0003093EB007093EC002093ED005093F000A4
:104D00002091EE0027FDE5CF80E008958091D30249
:104D100087FF13C08091E80082FF06C08091E80001
:104D20008B778093E80004C08091D2028111F2CF8A
:104D300008958091D2028823D9F38091E80080FF02
:104D4000F8CF8091E8008E77ECCF2091E40030918D
:104D5000E50095E6A9012091EC00822F817020FFEB
:104D600006C08091E80080FF06C080E00895209191
:104D7000E80022FD1AC08091D202882389F0853094
:104D800089F08091EB0085FD0FC02091E400309107
:104D9000E50042175307F9F29150E1F684E00895D7
:104DA00082E0089583E0089581E008950E944727F6
:104DB0000E944F27E0EEF0E0808181608083E8ED83
:104DC000F0E080818F77808319BCA7EDB0E08C91F3
:104DD0008E7F8C9380818F7E80831092DB0208957A
:104DE0000F931F93CF93DF930E9447270E944F2773
:104DF000C8EDD0E088818F77888388818068888338
:104E000088818F7D8883E7EDF0E0808180688083F2
:104E100019BC1092D2021092D1021092CF021092BD
:104E2000D00200EE10E0F80180818B7F80838881C2
:104E30008160888342E060E080E00E945226E1EEDB
:104E4000F0E080818E7F8083E2EEF0E080818160FF
:104E50008083808188608083F80180818E7F808359
:104E6000888180618883DF91CF911F910F91089590
:104E7000E8EDF0E080818F7E8083E7EDF0E08081D7
:104E80008160808381E08093DB020C94F026E8ED62
:104E9000F0E080818C7F80831092E2000895109270
:104EA000DA001092E10008951F920F920FB60F9250
:104EB00011240BB60F922F933F934F935F936F93F1
:104EC0007F938F939F93AF93BF93EF93FF938091C3
:104ED000E10082FF0BC08091E20082FF07C0809159
:104EE000E1008B7F8093E1000E9476238091DA00BD
:104EF00080FF19C08091D80080FF15C08091DA0032
:104F00008E7F8093DA008091D90080FF96C084E183
:104F100089BD86E189BD09B400FEFDCF81E08093A3
:104F2000D2020E944F238091E10080FF19C080913E
:104F3000E20080FF15C08091E2008E7F8093E20046
:104F40008091E20080618093E2008091D8008062CD
:104F50008093D80019BC85E08093D2020E946C2314
:104F60008091E10084FF29C08091E20084FF25C088
:104F700084E189BD86E189BD09B400FEFDCF809141
:104F8000D8008F7D8093D8008091E1008F7E809340
:104F9000E1008091E2008F7E8093E2008091E20048
:104FA00081608093E2008091D102882309F44BC094
:104FB00084E08093D2020E9470238091E10083FFFD
:104FC00029C08091E20083FF25C08091E100877FA6
:104FD0008093E10082E08093D2021092D10280910E
:104FE000E1008E7F8093E1008091E2008E7F8093CC
:104FF000E2008091E20080618093E20042E060E0A4
:1050000080E00E9452268091F00088608093F0003A
:105010000E946823FF91EF91BF91AF919F918F9173
:105020007F916F915F914F913F912F910F900BBEA8
:105030000F900FBE0F901F90189519BC1092D202BE
:105040000E94612370CF8091E30087FD02C081E060
:10505000B0CF83E0AECF1F920F920FB60F92112404
:105060000BB60F922F933F934F935F936F937F9362
:105070008F939F93AF93BF93CF93DF93EF93FF9360
:10508000D091E900DF708091EC00C82FC17080FDE5
:10509000C0E81092E9008091F000877F8093F000D3
:1050A00078940E9473281092E9008091F000886043
:1050B0008093F000CD2BCF70C093E900FF91EF916A
:1050C000DF91CF91BF91AF919F918F917F916F9120
:1050D0005F914F913F912F910F900BBE0F900FBE9C
:1050E0000F901F9018951F93CF93DF93CDB7DEB726
:1050F000AA970FB6F894DEBF0FBECDBF83ED92E046
:10510000FC0101962091F100208322E08B3D920763
:10511000B9F70E94C6238091E80083FF1DC18091EA
:10512000D3029091D4029A3008F016C1E92FF0E032
:10513000ED55F54D0C94EB29803899F0823809F043
:105140000BC18091D7028F70873008F005C1809322
:10515000E9008091EB0085FB882780F91092E90037
:1051600006C08091D0029091CF02911182609091FF
:10517000E800977F9093E8008093F1001092F1008F
:105180008091E8008E77E4C0882309F4D2C0823091
:1051900009F0E2C08091D5028111D5C08091D7027B
:1051A0008F702FEF280F263008F0D6C08093E900CB
:1051B0002091EB0020FFC7C0933031F48091EB00C9
:1051C00080628093EB00BFC09091EB009061909360
:1051D000EB0021E030E001C0220F8A95EAF720932E
:1051E000EA001092EA008091EB008860EACF81111A
:1051F000B3C01091D5021F778091E3008078812B96
:105200008093E3008091E800877F8093E8000E940C
:1052100086268091E80080FFFCCF8091E3008068C3
:105220008093E30082E0111183E08093D20294C066
:105230008058823008F090C08091D5029091D602BB
:105240008C3D23E0920799F583E08A838AE2898383
:105250004FB7F894DE01139620E03EE051E2E32FD1
:10526000F0E050935700849120FF03C082958F7027
:105270003F5F8F708A30C8F0895C90E08D939D937A
:105280002F5F243161F74FBF8091E800877F8093C3
:10529000E8006AE270E0CE0101960E949D258091AF
:1052A000E8008B778093E80057C0805DE6CF60917F
:1052B000D7027091D802AE014F5F5F4F0E94C724A2
:1052C000BC01892B09F448C08091E800877F809356
:1052D000E80089819A810E94F725E1CF8038E1F5C5
:1052E0008091E800877F8093E8008091D1028093CD
:1052F000F10046CF811130C09091D502923060F517
:105300008091E800877F8093E8009093D1020E940B
:1053100086268091D102882311F084E005C0809117
:10532000E30087FDFACF81E08093D2020E94B72389
:1053300013C08091D502813079F481E0933009F077
:1053400080E08093CF021092E9008091E800877F8F
:105350008093E8000E9486268091E80083FF0AC0BF
:105360008091E800877F8093E8008091EB00806265
:105370008093EB00AA960FB6F894DEBF0FBECDBFA8
:10538000DF91CF911F910895CF938091D20288230E
:10539000A1F0C091E900CF709091EC00892F81704D
:1053A00090FD80E8C82B1092E9008091E80083FD11
:1053B0000E947328CF70C093E900CF910895991B84
:1053C00079E004C0991F961708F0961B881F7A95FC
:1053D000C9F780950895EE0FFF1F0024001C0BBE37
:1053E0000790F691E02D0994F999FECF92BD81BD09
:1053F000F89A992780B50895A8E1B0E042E050E01E
:105400000C94282A262FF999FECF92BD81BDF89AD7
:10541000019700B4021639F01FBA20BD0FB6F894F8
:10542000FA9AF99A0FBE08950396272F0E94032A2D
:105430000E94022A252F0E94032A242F0C94032A5B
:105440000196272F0E94032A0C94022ADC01CB012B
:10545000FC01F999FECF06C0F2BDE1BDF89A319684
:1054600000B40D9241505040B8F70895F894FFCF22
:105470009C0FA20FA60FB40FB80FBC0FC00FC60F22
:10548000CE0FD20FD60FDA0FE60FEA0FEE0FF20FA4
:10549000F80F16100010AA0FB00FDE0FE20FCA0FA0
:1054A000FC0F0C101F102310F912F9125B135B1381
:1054B000B013291329132913CC13811492149214B5
:1054C000F21429132913FB14442131214B21CD1F40
:1054D000082208222C21082208227721082287216D
:1054E000EE210822082208220822AA2108220822E6
:1054F000972108226221082208220622062206227B
:10550000062206220622062206220622002208225F
:1055100044212521082208220822082208220822E4
:1055200008220822082208220022082208222C2110
:105530000822042204220422042204220422042237
:105540000422042200229C28C428AC29C428AC29A7
:0A555000F7281829AC296E297A29E2
:10555A007D025522A4225822A0228C2201E200E9CF
:10556A0000EA00B500B600B700CD008301CC008A7E
:10557A000192019401210223022402250226022714
:10558A00022A02B300B4006F007000F2F1F0C6C73D
:10559A003031323334353637949597C0C160616201
:1055AA006364656667E200E900EA00B500B600B721
:1055BA0000CD008301CC008A0192019401210223CB
:1055CA000224022502260227022A02B300B4006F2F
:1055DA00007000406D22230DB60C940C390C520C4D
:0255EA006B0C48
:00000001FF
